:020000040000FA
:100000000DEF20F0C96E120039EF1BF07EEC08F006
:1000100006EC18F0FDD7120086EF1DF0D9CFE5FFF2
:10002000E1CFD9FF00C0E5FF01C0E5FF02C0E5FF59
:1000300003C0E5FF04C0E5FF05C0E5FF06C0E5FF1E
:1000400007C0E5FF08C0E5FF09C0E5FF0AC0E5FFFE
:100050000BC0E5FF0CC0E5FF0DC0E5FF0EC0E5FFDE
:100060000FC0E5FF10C0E5FF11C0E5FF12C0E5FFBE
:1000700013C0E5FF14C0E5FF15C0E5FF16C0E5FF9E
:1000800017C0E5FF18C0E5FF19C0E5FF1AC0E5FF7E
:100090001BC0E5FF1CC0E5FF1DC0E5FF1EC0E5FF5E
:1000A000020EDBCF00F0030EDBCF01F0040EDBCF3E
:1000B00002F0050EDBCF03F0060EDBCF04F0070ED7
:1000C000DBCF05F0080EDBCF06F0090EDBCF07F023
:1000D0000A0EDBCF08F0096A0A6A02C00DF00D5063
:1000E000800A0DE102500301786F0150776F0050D4
:1000F000766F030E016E760E006E800E026E03C0E8
:10010000E9FF04C0F3FF055057EC20F00B6E0B50D5
:10011000D8B4C4EF03F00B50250A02E0ABEF03F0B4
:100120000C6A0D6A0E6A0F6A106A0A0E116E126A64
:10013000136A146A200E156E1668176A2B0E186E55
:10014000032A02E3044A052A03C0E9FF04C0F3FFBF
:10015000055057EC20F0196E250A13E11950E56E91
:100160000250E56E0150E56E0050E56ED5EC10F0E2
:10017000040EE126094A0A2A032A02E3044A052A50
:10018000BED71950300A06E1300E156E032A02E37D
:10019000044A052A03C0E9FF04C0F3FF055057ECE9
:1001A00020F02D0A06E1010E146E032A02E3044A30
:1001B000052A03C0E9FF04C0F3FF055057EC20F007
:1001C000200A08E1010E176E200E186E032A02E3C2
:1001D000044A052A03C0E9FF04C0F3FF055057ECA9
:1001E00020F02B0A06E1010E176E032A02E3044AEF
:1001F000052A03C0E9FF04C0F3FF055057EC20F0C7
:10020000196E310E195C2BE33A0E195C28E203C01B
:1002100019F004C01AF005C01BF019C0E9FF1AC09C
:10022000F3FF1B5057EC20F01C6E300E1C5C11E3EA
:100230003A0E1C5C0EE213500A0DF3CF1DF01C5059
:100240001D26D00E1D24136E192A02E31A4A1B2AFA
:10025000E4D719C003F01AC004F01BC005F003C0B6
:10026000E9FF04C0F3FF055057EC20F02E0A2DE102
:10027000032A02E3044A052A166A03C019F004C0DF
:100280001AF005C01BF019C0E9FF1AC0F3FF1B509C
:1002900057EC20F01C6E300E1C5C11E33A0E1C5C17
:1002A0000EE216500A0DF3CF1DF01C501D26D00E85
:1002B0001D24166E192A02E31A4A1B2AE4D719C014
:1002C00003F01AC004F01BC005F003C0E9FF04C02E
:1002D000F3FF055057EC20F0196E6C0A07E1010E90
:1002E0000C6E032A02E3044A052A09D01950680A51
:1002F00006E1010E0E6E032A02E3044A052A03C03A
:10030000E9FF04C0F3FF055057EC20F0750A06E141
:10031000010E106E032A02E3044A052A03C0E9FF16
:1003200004C0F3FF055057EC20F0196E730A05E185
:10033000010E0D6E200E156E3FD01950780A03E1A4
:10034000100E116E39D01950580A05E1100E116EB9
:10035000010E126E31D01950630A02E1116A2CD0DD
:1003600019506F0A03E1080E116E26D01950660A63
:1003700003E1010E0F6E20D01950640A1DE01950E0
:10038000690A1AE0105005E0FF0E03260422052238
:1003900013D01950E56E0250E56E0150E56E005025
:1003A000E56ED5EC10F0040EE126094A0A2A032A6C
:1003B00002E3044A052AA3D60D5021E00650030F9C
:1003C0000D6E000E0720196E000E08201A6E0DC06B
:1003D00006F019C007F01AC008F0FD0E0D26FF0E3A
:1003E00019221A220DC0E9FF19C0F3FF1A500DECB3
:1003F0001FF00D6EF3CF19F0F4CF1AF0FDD00F50AF
:100400000DE0000E1A6E080E196E100E0D6E040E21
:100410000626000E072208221668EED016680C5039
:1004200023E00650040F0C6E000E07200F6E000E26
:1004300008201B6E0CC006F00FC007F01BC008F0B0
:10044000FC0E0C26FF0E0F221B220CC0E9FF0FC072
:10045000F3FF1B5093EC1EF00C6EF3CF0FF0F4CFB4
:100460001BF0E9CF1CF067D00E502FE00650020FB2
:100470000E6E000E07201D6E000E08201E6E0EC0B0
:1004800006F01DC007F01EC008F0FE0E0E26FF0E7F
:100490001D221E220EC0E9FF1DC0F3FF1E50CCEC32
:1004A0001FF00E6E0EC00CF00F6A1B6A1C6A115012
:1004B0000A0A03E11050D8B43ED00C500E6E0EC0A4
:1004C0000CF00F6A1B6A1C6A36D00650020F0E6EC3
:1004D000000E07201D6E000E08201E6E0EC006F0D6
:1004E0001DC007F01EC008F0FE0E0E26FF0E1D22D6
:1004F0001E220EC0E9FF1DC0F3FF1E50CCEC1FF002
:100500000E6EF3CF1DF00EC00CF01DC00FF0E86AA8
:100510001DBEFF0E1B6E1C6E11500A0A02E1105028
:100520000AE00C500E6E0F501D6E0EC00CF01DC078
:100530000FF01B6A1C6A040E196EF40E0D6E800E0D
:100540001A6E1150D8B440D0105013E01150E56E1F
:10055000040EE56EF40EE56E1C50E56E1B50E56E64
:100560000F50E56E0C50E56E1DEC0DF0070EE12608
:1005700012D01150E56E040EE56EF40EE56E1C50BF
:10058000E56E1B50E56E0F50E56E0C50E56EF4EC19
:1005900016F0070EE12617502FE00DC0E9FF19C035
:1005A000F3FF1A5057EC20F02D0A26E0FF0E0D261F
:1005B00019221A2218C0E5FF0DC0E9FF19C0F3FF88
:1005C0001A50CFEC20F018D00CC0E5FF0DC0E9FFA9
:1005D00019C0F3FF1A50CFEC20F00D50010F0C6E34
:1005E000000E19200E6E000E1A20E56A0CC0E9FFFD
:1005F0000EC0F3FFCFEC20F00DC00CF019C00EF0D0
:100600001AC00FF013C010F0105010E00CC0E9FF3A
:100610000EC0F3FF0F5057EC20F0176E175006E096
:100620000C2A02E30E4A0F2A1006EED710C013F070
:1006300014501EE109C00CF00AC00EF010C00FF0FB
:100640000F5010E01550E56E0250E56E0150E56E5A
:100650000050E56ED5EC10F0040EE1260C4A0E2A8F
:100660000F06EED70CC009F00EC00AF00FC013F051
:1006700016C00CF00DC00DF019C00EF01AC00FF02E
:1006800009C010F00AC015F00DC0E9FF0EC0F3FF5D
:100690000F5057EC20F0166E1650D8B43ED00CC058
:1006A00016F0176A161E171E1650171005E00CC01C
:1006B00016F00C06165031E00DC0E9FF0EC0F3FF36
:1006C0000F5057EC20F0116E125010E01150E56EF3
:1006D00089EC1FF0166EE652165004E0DF0E11147E
:1006E000166E02D011C016F016C011F01150E56E52
:1006F0000250E56E0150E56E0050E56ED5EC10F04D
:10070000040EE1260D2A02E30E4A0F2A104A152A8A
:100710001350D8B4B9D71306B7D710C009F015C015
:100720000AF014502BE010C00CF015C00DF013C0EF
:100730000EF00E501FE0200EE56E0250E56E0150E7
:10074000E56E0050E56ED5EC10F0040EE1260C4A83
:100750000D2A0E06EED70B50E56E0250E56E0150E5
:10076000E56E0050E56ED5EC10F0040EE126094A66
:100770000A2A04D00CC009F00DC00AF0032A02E3D3
:10078000044A052A7FEF00F00AC0F3FF0950E4CFC6
:100790001EF0E4CF1DF0E4CF1CF0E4CF1BF0E4CF5B
:1007A0001AF0E4CF19F0E4CF18F0E4CF17F0E4CF5B
:1007B00016F0E4CF15F0E4CF14F0E4CF13F0E4CF5B
:1007C00012F0E4CF11F0E4CF10F0E4CF0FF0E4CF5B
:1007D0000EF0E4CF0DF0E4CF0CF0E4CF0BF0E4CF5B
:1007E0000AF0E4CF09F0E4CF08F0E4CF07F0E4CF5B
:1007F00006F0E4CF05F0E4CF04F0E4CF03F0E4CF5B
:1008000002F0E4CF01F0E4CF00F0E4CFD9FF120012
:100810003C4E4F20464C4F41543E000000C0E5FF87
:1008200001C0E5FF02C0E5FF03C0E5FF04C0E5FF2E
:1008300005C0E5FF06C0E5FF07C0E5FF08C0E5FF0E
:1008400009C0E5FF0AC0E5FF0BC0E5FF0CC0E5FFEE
:10085000006A016A026A040E025CD8B0E8D101C0E5
:1008600003F0012A100E035CD8B0E1D10401182B6B
:10087000100E185D01E3186B04011839E8441F0BD2
:10088000036E046A7B0E0326030E042203C0E9FFF5
:1008900004C0EAFFEFCF03F0070E1815046E010E37
:1008A000056E000E066E045006E0E86CD890053622
:1008B0000636010FFCE3076A0350051607500616BB
:1008C00005500610D880E866D890056A05360550B0
:1008D000D8A4C1D704011851020DF450046EF3CF0F
:1008E00003F0E00E0324056E000E0420066E05C022
:1008F000E9FF06C0EAFFEECF05F0EFCF06F00401F6
:1009000015A19DD0B30E0324076E040E0420086EBB
:1009100007C0E9FF08C0EAFFEECF07F0EFCF08F00D
:100920000650800FF36E0850800FF35C02E1075011
:10093000055C03E2056A066A60D0D30E0326040E46
:10094000042203C0E9FF04C0EAFFEECF03F0EFCFBB
:1009500004F00450800FF36E0650800FF35C02E148
:100960000550035C04E205683F0E066E46D0075052
:10097000055C096E085006580A6EE86A0ABEFF0E4A
:100980000B6EE56E0B50E56E0A50E56E0950E56E94
:10099000E56AE56A400EE56E000EE56A11EC0BF0C3
:1009A000096EF3CF0AF0F4CF0BF0E9CF0CF0080E8C
:1009B000E1260750035C076E08500458086EE86A89
:1009C00008BEFF0E036EE56E0350E56E0850E56E3F
:1009D0000750E56E0C50E56E0B50E56E0A50E56E63
:1009E0000950E56E2BEC0FF0036EF3CF04F0080E08
:1009F000E1260350056E0450066E04011451800F69
:100A0000F36E0650800FF35C02E10550135D03E3C3
:100A1000056A066A14D004011351FF08036E3F0EE5
:100A20001455046E0650800FF36E0450800FF35C73
:100A300002E10350055C03E305683F0E066E040106
:100A40001851020DF450046EF3CF03F0930E0326F9
:100A5000040E042203C0E9FF04C0EAFFEECF03F056
:100A6000EFCF04F00350055C036E04500658046E8B
:100A7000D88004AED89004E3041E036CD8B4042AD2
:100A8000022A04011451800FF36E0450800FF35CAE
:100A900002E10350135DD8B0DED604011851020DF7
:100AA000F450086EF3CF07F0930E0726040E0822C9
:100AB00007C0E9FF08C0EAFF05C0EEFF06C0EFFF70
:100AC000040115A55AD004011851020DF450086E06
:100AD000F3CF07F0000E0724096E030E08200A6EFC
:100AE00009C0E9FF0AC0EAFFEECF0BF0EFCF0CF030
:100AF0000B500C10D8B441D05C0E0726040E08220F
:100B000007C0E9FF08C0EAFFEECF07F0EFCF08F01B
:100B10000750055C036E08500658046E03101CE075
:100B20000450800F800F02E1010E035C076A073654
:100B30000C50800F800F02E1010E0B5C0B6A0B362C
:100B400007500B1809E109C0E9FF0AC0EAFF03C01A
:100B5000EEFF04C0EFFF7FD604011851020DF450E0
:100B6000046EF3CF03F0000E0326030E042203C02D
:100B7000E9FF04C0EAFFEE6AEF6A040115A343D05F
:100B800000500EE100C003F0002A046A190E03268B
:100B9000040E042203C0E9FF04C0EAFF420EEF6E18
:100BA00000C003F0002A046A190E0326040E042272
:100BB000640E04011825076E03C0E9FF04C0EAFFB4
:100BC00007C0EFFF00C003F0002A046A190E0326D5
:100BD000040E04220650076E03C0E9FF04C0EAFFBA
:100BE00007C0EFFF00C003F0002A046A190E0326B5
:100BF000040E04220550076E03C0E9FF04C0EAFF9B
:100C000007C0EFFF28D618C403F00650E56E055064
:100C1000E56EE56A0350E56E000EE56E260EE56EA4
:100C2000EA0EE56E06EC1AF0070EE12614D602C0B5
:100C300001F000501DE0040115A31AD000C002F01D
:100C4000002A036A190E0226040E032202C0E9FFDD
:100C500003C0EAFF0A0EEF6E0050E56E800EE56EEF
:100C6000040EE56E190EE56E7BEC13F0040EE12622
:100C70000150E4CF0CF0E4CF0BF0E4CF0AF0E4CF66
:100C800009F0E4CF08F0E4CF07F0E4CF06F0E4CFBA
:100C900005F0E4CF04F0E4CF03F0E4CF02F0E4CFBA
:100CA00001F0E4CF00F0120000C0E5FF01C0E5FF55
:100CB00002C0E5FF03C0E5FF04C0E5FF05C0E5FF96
:100CC00006C0E5FF07C0E5FF08C0E5FF09C0E5FF76
:100CD0000AC0E5FFC2A204D00401165167EF08F074
:100CE00004011751D8B41BD104011651020DF45060
:100CF000016EF3CF00F0E00E0026000E012200C0CE
:100D0000E9FF01C0EAFFEECF00F0EFCF01F0230EC4
:100D10001625026E036A0F0E032202C0E9FF03C00C
:100D2000EAFFEFCF02F00250FF0A01E152D0023891
:100D30000F0B036E920E0324046E056A0F0E05223C
:100D4000066A920E03260F0E062203C0E9FF06C0B4
:100D5000EAFFEFCF03F0070E0214066E010E076ED6
:100D6000065005E0E86CD8900736010FFDE3071C3C
:100D7000066E031604C0E9FF05C0EAFF03C0EFFFDB
:100D800002380F0B036E890E0324046E056A0F0EE2
:100D90000522066A890E03260F0E062203C0E9FF0C
:100DA00006C0EAFFEFCF03F0070E0214066E010E35
:100DB000076E065005E0E86CD8900736010FFDE39A
:100DC000071C066E031604C0E9FF05C0EAFF03C056
:100DD000EFFF04011651020DF450046EF3CF03F03F
:100DE000E00E0326000E042201340130066E0030AE
:100DF000056E0634063205320634063205320550D9
:100E0000005C056E06500158066EC3CF07F0086AF5
:100E10000750052608500622C4CF07F0086A07507D
:100E20000A6E096A095005260A50062203C0E9FF26
:100E300004C0EAFF05C0EEFF06C0EFFF0401125137
:100E4000010A01E06AD004011651020DF450046E4B
:100E5000F3CF03F0E00E0324056E000E0420066EAF
:100E600005C0E9FF06C0EAFFEECF00F0EFCF01F0CA
:100E7000B30E0326040E042203C0E9FF04C0EAFFF8
:100E8000EECF05F0EFCF06F09C0E0526D8A00606A3
:100E90000150800FF36E0650800FF35C02E10550A5
:100EA000005C0EE20050640F056E000E0120066E1D
:100EB00003C0E9FF04C0EAFF05C0EEFF06C0EFFF74
:100EC00004011651020DF450046EF3CF03F0D30E5B
:100ED0000326040E042203C0E9FF04C0EAFFEECF9C
:100EE00005F0EFCF06F0640E0526D8B0062A0650AE
:100EF000800FF36E0150800FF35C02E10050055C3F
:100F00000CE29C0E0026D8A0010603C0E9FF04C035
:100F1000EAFF00C0EEFF01C0EFFF0401176B040100
:100F2000162B100E165D01E3166B04011639E8440A
:100F30001F0B006E016A7B0E0026030E012200C00B
:100F4000E9FF01C0EAFFEFCF00F0070E1615016EB2
:100F5000010E036E000E046E015006E0E86CD8909E
:100F600003360436010FFCE3056A005003160550F2
:100F7000041603500410D880E866D890036A03363C
:100F80000350D8A4A2D0400E04011625006E016AB9
:100F9000030E012200C0E9FF01C0EAFFEFCF00F01D
:100FA0000044E844FC0B016E0128C26E230E162596
:100FB000006E016A0F0E012200C0E9FF01C0EAFFC6
:100FC000EFCF02F00250FF0A01E17BD002380F0B95
:100FD000006E920E0024016E036A0F0E0322046A53
:100FE000920E00260F0E042200C0E9FF04C0EAFFA3
:100FF000EFCF00F0070E0214046E010E056E0450D0
:1010000005E0E86CD8900536010FFDE305500012AD
:1010100001C0E9FF03C0EAFF00C0EFFF380E006E19
:101020000F0E016E02380F0B036E046A0350002688
:1010300004500122380E056E0F0E066E0550032671
:101040000650042203C0E9FF04C0EAFFEFCF03F01B
:10105000070E0216010E046E025005E0E86CD890EF
:101060000436010FFDE30450031200C0E9FF01C084
:10107000EAFF03C0EFFF0F01458300000000459326
:101080000F0144930BC0E5FFF2CF0BF0F29E4481B9
:101090000000000000000000000000000000000050
:1010A0000000000000000000000000000000000040
:1010B000000000000000000044910BBEF28EE4CF5F
:1010C0000BF0C282010E0401176F04011651E4CF28
:1010D0000AF0E4CF09F0E4CF08F0E4CF07F0E4CF62
:1010E00006F0E4CF05F0E4CF04F0E4CF03F0E4CF62
:1010F00002F0E4CF01F0E4CF00F0120000C0E5FF01
:1011000001C0E5FF02C0E5FF03C0E5FF05C0E5FF44
:1011100003EC21F00AEC1DF0F3CF01F0F4CF02F064
:10112000E9CF03F0880F04017C6F130E01207D6F5F
:10113000000E02207E6F000E03207F6FF8EC12F08D
:101140004BEC1CF094948B8494908B80939A8A8AB5
:101150009298898893968A96929E899E948A820E06
:10116000006E0F0E016E0F0E036E380E0026035038
:1011700001220F0E036E800E005E0350015A820E94
:10118000026E0F0E036E0F0E056E380E022605500E
:1011900003220F0E056E800E025E0550035A02C038
:1011A000E9FF03C0EAFFEFCF02F0029A00C0E9FFB7
:1011B00001C0EAFF02C0EFFF948C820E006E0F0E9A
:1011C000016E0F0E036E380E0026035001220F0E23
:1011D000036E800E005E0350015A820E026E0F0EE7
:1011E000036E0F0E056E380E0226055003220F0EF9
:1011F000056E800E025E0550035A02C0E9FF03C06F
:10120000EAFFEFCF02F0029C00C0E9FF01C0EAFF55
:1012100002C0EFFF948E820E006E0F0E016E0F0E55
:10122000036E380E0026035001220F0E036E800E4F
:10123000005E0350015A820E026E0F0E036E0F0EF7
:10124000056E380E0226055003220F0E056E800E25
:10125000025E0550035A02C0E9FF03C0EAFFEFCF68
:1012600002F0029E00C0E9FF01C0EAFF02C0EFFFEA
:101270009380810E006E0F0E016E0F0E036E380EFE
:101280000026035001220F0E036E800E005E0350F5
:10129000015A810E026E0F0E036E0F0E056E380E90
:1012A0000226055003220F0E056E800E025E0550C9
:1012B000035A02C0E9FF03C0EAFFEFCF02F0029039
:1012C00000C0E9FF01C0EAFF02C0EFFF9382810E78
:1012D000006E0F0E016E0F0E036E380E00260350C7
:1012E00001220F0E036E800E005E0350015A810E24
:1012F000026E0F0E036E0F0E056E380E022605509D
:1013000003220F0E056E800E025E0550035A02C0C6
:10131000E9FF03C0EAFFEFCF02F0029200C0E9FF4D
:1013200001C0EAFF02C0EFFF9384810E006E0F0E32
:10133000016E0F0E036E380E0026035001220F0EB1
:10134000036E800E005E0350015A810E026E0F0E76
:10135000036E0F0E056E380E0226055003220F0E87
:10136000056E800E025E0550035A02C0E9FF03C0FD
:10137000EAFFEFCF02F0029400C0E9FF01C0EAFFEC
:1013800002C0EFFFE4CF05F0E4CF03F0E4CF02F0BA
:10139000E4CF01F0E4CF00F0120043002563000029
:1013A000800EE56E040EE56ED30EE56E54EC18F07B
:1013B000030EE126800EE56E040EE56EB30EE56EBB
:1013C00054EC18F0030EE126800EE56E040EE56E77
:1013D000D50EE56E54EC18F0030EE126800EE56E96
:1013E000040EE56EB50EE56E54EC18F0030EE12622
:1013F000800EE56E040EE56ED70EE56E54EC18F027
:10140000030EE126800EE56E040EE56EB70EE56E66
:1014100054EC18F0030EE126800EE56E040EE56E26
:10142000D90EE56E54EC18F0030EE126800EE56E41
:10143000040EE56EB90EE56E54EC18F0030EE126CD
:10144000800EE56E040EE56EDB0EE56E54EC18F0D2
:10145000030EE126800EE56E040EE56EBB0EE56E12
:1014600054EC18F0030EE126800EE56E040EE56ED6
:10147000DD0EE56E54EC18F0030EE126800EE56EED
:10148000040EE56EBD0EE56E54EC18F0030EE12679
:10149000800EE56E040EE56EDF0EE56E54EC18F07E
:1014A000030EE126800EE56E040EE56EBF0EE56EBE
:1014B00054EC18F0030EE126800EE56E040EE56E86
:1014C000E10EE56E54EC18F0030EE126800EE56E99
:1014D000040EE56EC10EE56E54EC18F0030EE12625
:1014E000800EE56E040EE56EE30EE56E54EC18F02A
:1014F000030EE126800EE56E040EE56EC30EE56E6A
:1015000054EC18F0030EE126800EE56E040EE56E35
:10151000E50EE56E54EC18F0030EE126800EE56E44
:10152000040EE56EC50EE56E54EC18F0030EE126D0
:10153000800EE56E040EE56EE70EE56E54EC18F0D5
:10154000030EE126800EE56E040EE56EC70EE56E15
:1015500054EC18F0030EE126800EE56E040EE56EE5
:10156000E90EE56E54EC18F0030EE126800EE56EF0
:10157000040EE56EC90EE56E54EC18F0030EE1267C
:10158000800EE56E040EE56EEB0EE56E54EC18F081
:10159000030EE126800EE56E040EE56ECB0EE56EC1
:1015A00054EC18F0030EE126800EE56E040EE56E95
:1015B000ED0EE56E54EC18F0030EE126800EE56E9C
:1015C000040EE56ECD0EE56E54EC18F0030EE12628
:1015D000800EE56E040EE56EEF0EE56E54EC18F02D
:1015E000030EE126800EE56E040EE56ECF0EE56E6D
:1015F00054EC18F0030EE126800EE56E040EE56E45
:10160000F10EE56E54EC18F0030EE126800EE56E47
:10161000040EE56ED10EE56E54EC18F0030EE126D3
:101620001200D9CFE5FFE1CFD9FF00C0E5FF01C02F
:10163000E5FF02C0E5FF03C0E5FF04C0E5FF05C00C
:10164000E5FF06C0E5FF07C0E5FF020EDBCF00F0B7
:10165000030EDBCF01F0040EDBCF02F0050EDBCF73
:1016600003F0060EDBCF04F0070EDBCF05F0080E0B
:10167000DBCF06F0090EDBCF07F000500401336F1B
:101680000150346F0250356F0350366F0450030120
:10169000606F0550616F0650626F0750636F040101
:1016A000335103016203F4CF01F0F3CF00F0005097
:1016B0000301666F0150676F04013351030160033A
:1016C000F4CF01F0F3CF00F000500301646F01503C
:1016D000656F0401365103016003F3CF00F003018D
:1016E000675100260050676F040135510301610303
:1016F000F3CF01F00150002600500301676F040191
:10170000355103016003F4CF01F0F3CF00F0030182
:1017100066510026675101220050666F0150676FC5
:101720000401345103016103F4CF03F0F3CF02F05D
:10173000025000260350012200500301666F015041
:10174000676F0401345103016203F3CF00F00050CE
:1017500003016B6F0401345103016003F4CF01F006
:10176000F3CF00F000500301696F01506A6F04016C
:10177000335103016303F3CF00F0005003016F6F97
:101780000401335103016103F4CF01F0F3CF00F002
:10179000005003016D6F01506E6F0301686B030110
:1017A0006C6B0301685103016425006E03016951EC
:1017B00003016521016E03016A5103016621026E76
:1017C00003016B5103016721036E0050646F0150E8
:1017D000656F0250666F0350676F03016C51030120
:1017E0006425006E03016D5103016521016E030143
:1017F0006E5103016621026E03016F5103016721DF
:10180000036E03C0E9FF02C0F4FF01C0F3FF005004
:10181000E4CF07F0E4CF06F0E4CF05F0E4CF04F026
:10182000E4CF03F0E4CF02F0E4CF01F0E4CF00F026
:10183000E4CFD9FF120000C0E5FF01C0E5FF0401BD
:101840000F51D8B4F5D0A3A81DD0A4A81BD0030174
:1018500087510301841905E185EC20F00301846BB5
:10186000E7D0000E03018725006E016A0F0E0122EA
:1018700000C0E9FF01C0EAFFEFCF80F3872B80C3F0
:1018800073FFD6D0A4AAD4D071A205D0030185815C
:1018900085EC20F0CDD071A405D00301858385ECC3
:1018A00020F0C6D071A03ED074CF80F3800E04012A
:1018B00010110301801904E1030185897196B8D0E4
:1018C0000301805104E080510401101927E1030154
:1018D000859971960301805103E00301859702D039
:1018E0000301858780C389F382C38AF303018205DC
:1018F00003018B6F600E03018A25006E016A000EE2
:10190000012200C0E9FF01C0EAFF80C3EFFF8A2B7C
:101910008A51800A02E103018A6B8AD0030185990A
:10192000718686D074CF80F3030185A919D0800E0B
:10193000040110110301801911E1929AA39A719880
:101940000301845104E1736A85EC20F007D000CFD5
:1019500073FF010E0301876FA3886AD0718668D078
:10196000030180510301892703018A5103018B1967
:101970001BE1030189510CE18AC382F3030185B79E
:1019800012D0929AA39A7198736A85EC20F00BD0CA
:101990000301858585B707D0929AA39A7198010EA5
:1019A000736E85EC20F044D003018A510301831942
:1019B00008E1030183510301821903E085EC20F063
:1019C00037D082C300F0016A004A012AE56A800E1E
:1019D000E56E0150E56E0050E56E50EC15F0006EBE
:1019E000040EE12600500301816F03018A190CE106
:1019F0001F0E0301801503018B6F8B2B8B2B0301B3
:101A0000825103018B278B9F8AC300F003018A2B2D
:101A1000016A600E0026000E012200C0E9FF01C02D
:101A2000EAFF80C3EFFF8A51800A02E103018A6B5B
:101A3000E4CF01F0E4CF00F01200D9CFE5FFE1CF11
:101A4000D9FF00C0E5FF01C0E5FF02C0E5FF03C00C
:101A5000E5FF04C0E5FF05C0E5FF06C0E5FF07C0E0
:101A6000E5FF08C0E5FF09C0E5FF0AC0E5FF0BC0C0
:101A7000E5FF0CC0E5FF0DC0E5FF0EC0E5FF0FC0A0
:101A8000E5FF020EDBCF00F0030EDBCF01F0040E0A
:101A9000DBCF02F0050EDBCF03F0060EDBCF04F048
:101AA000070EDBCF05F0080EDBCF06F0200E076E29
:101AB000086A06C009F00A6A0B6A0C6AE56AE56AF8
:101AC000E56A0950E56E0350E56E0250E56E01507F
:101AD000E56E0050E56EF9EC0DF00D6E080EE12696
:101AE000300E0D263A0E0D5C05E30D500E6E270EDE
:101AF0000E240D6EFF0E07260822200E07240E6E00
:101B0000030E08200F6E0EC0E9FF0FC0EAFF0DC0E4
:101B1000EFFF0C50E56E0B50E56E0A50E56E095074
:101B2000E56E0350E56E0250E56E0150E56E005023
:101B3000E56E2BEC0FF0006EF3CF01F0F4CF02F066
:101B4000E9CF03F0080EE126005001100210031047
:101B5000D8A4AFD707C000F008C001F004C002F05D
:101B600005C003F000C004F001C005F0004A012ADE
:101B7000200E0426030E052204C0E9FF05C0EAFF7B
:101B8000EFCF04F002C0E9FF03C0EAFF04C0EFFF9B
:101B9000024A032A000E015C02E1200E005CE2E32F
:101BA00002C0E9FF03C0EAFF000EEF6AE4CF0FF0C6
:101BB000E4CF0EF0E4CF0DF0E4CF0CF0E4CF0BF067
:101BC000E4CF0AF0E4CF09F0E4CF08F0E4CF07F067
:101BD000E4CF06F0E4CF05F0E4CF04F0E4CF03F067
:101BE000E4CF02F0E4CF01F0E4CF00F0E4CFD9FF7E
:101BF0001200D9CFE5FFE1CFD9FF00C0E5FF01C05A
:101C0000E5FF02C0E5FF03C0E5FF04C0E5FF05C036
:101C1000E5FF06C0E5FF07C0E5FF08C0E5FF09C016
:101C2000E5FF0AC0E5FF020EDBCF00F0030EDBCFBD
:101C300001F0040EDBCF02F0050EDBCF03F0060E41
:101C4000DBCF04F0070EDBCF05F0080EDBCF06F08C
:101C5000090EDBCF07F0086A0450051006100710C4
:101C600005E1E968F468F368E86847D0096A075055
:101C7000800BE8440A6E0A501BE104500426053626
:101C8000063607360750035C08E10650025C05E1A2
:101C90000550015C02E10450005C06E2D890073276
:101CA00006320532043204D0092A09C008F0DFD711
:101CB0000750035C08E10650025C05E10550015C39
:101CC00002E10450005C08E30450005E0550015A34
:101CD0000650025A0750035AD8900732063205328E
:101CE000043208C009F008060950E2E103C0E9FF28
:101CF00002C0F4FF01C0F3FF0050E4CF0AF0E4CFCC
:101D000009F0E4CF08F0E4CF07F0E4CF06F0E4CF29
:101D100005F0E4CF04F0E4CF03F0E4CF02F0E4CF29
:101D200001F0E4CF00F0E4CFD9FF120000C0E5FFDE
:101D300001C0E5FF02C0E5FF03C0E5FF04C0E5FF09
:101D400005C0E5FF006A0050E56EF0EC18F0016E8A
:101D5000E652015017E0290E0024016E026A040EBB
:101D6000022201C0E9FF02C0EAFFEFCF03F0640ED8
:101D7000035C1DE2032A01C0E9FF02C0EAFF03C0C1
:101D8000EFFF15D0290E0024016E026A040E022214
:101D900001C0E9FF02C0EAFFEFCF03F0035007E004
:101DA000030601C0E9FF02C0EAFF03C0EFFF290EEE
:101DB0000024016E026A040E022201C0E9FF02C083
:101DC000EAFFEFCF01F0330E015C28E38A0E002416
:101DD000016E026A040E022201C0E9FF02C0EAFF9E
:101DE000EFCF03F0035013E1810E0024036E046A69
:101DF000040E042203C0E9FF04C0EAFFEFCF05F0A0
:101E0000052A03C0E9FF04C0EAFF05C0EFFF01C0D7
:101E1000E9FF02C0EAFF010EEF6E0BD08A0E00242C
:101E2000016E026A040E022201C0E9FF02C0EAFF4D
:101E3000EF6A002A060E005CD8A085D7E4CF05F033
:101E4000E4CF04F0E4CF03F0E4CF02F0E4CF01F0FC
:101E5000E4CF00F01200D9CFE5FFE1CFD9FF00C0F9
:101E6000E5FF01C0E5FF02C0E5FF03C0E5FF04C0D8
:101E7000E5FF05C0E5FF06C0E5FF07C0E5FF08C0B8
:101E8000E5FF09C0E5FF0AC0E5FF0BC0E5FF0CC098
:101E9000E5FF0DC0E5FF020EDBCF00F0030EDBCF48
:101EA00001F0040EDBCF02F0050EDBCF03F0060ECF
:101EB000DBCF04F0070EDBCF05F0080EDBCF06F01A
:101EC000090EDBCF07F0086A096A0A6A0B6A200E5E
:101ED0000C6E0350800BE8440D6E00500026013656
:101EE000023603360850082609360A360B360D50DE
:101EF000D8A4088007500B5C08E106500A5C05E195
:101F00000550095C02E10450085C09E30450085ED6
:101F10000550095A06500A5A07500B5A00800C0403
:101F20000D6E0DC00CF00D50D4E103C0E9FF02C0EE
:101F3000F4FF01C0F3FF0050E4CF0DF0E4CF0CF04C
:101F4000E4CF0BF0E4CF0AF0E4CF09F0E4CF08F0DF
:101F5000E4CF07F0E4CF06F0E4CF05F0E4CF04F0DF
:101F6000E4CF03F0E4CF02F0E4CF01F0E4CF00F0DF
:101F7000E4CFD9FF120000C0E5FF01C0E5FF03C0B8
:101F8000E5FF04C0E5FF05C0E5FF06C0E5FF07C0AB
:101F9000E5FF08C0E5FF09C0E5FF0AC0E5FF0BC08B
:101FA000E5FF79C300F07AC301F00301793F01D066
:101FB0007A2B0050E56E77EC20F0E652076E046A4B
:101FC000056A066A79C300F07AC301F00301793F1C
:101FD00001D07A2B0050E56E77EC20F0E6520B6AC8
:101FE0000A6E086A0850041205120A5006120B50B5
:101FF000071279C300F07AC301F00301793F01D0E1
:102000007A2B0050E56E77EC20F0E652036E006A02
:1020100003C001F0E86A03BEFF0E086E096E0050AF
:10202000041201500512085006120950071279C314
:1020300000F07AC301F00301793F01D07A2B005000
:10204000E56E77EC20F0E652016A041201500512A9
:102050000612071207C0E9FF06C0F4FF05C0F3FF30
:102060000450E4CF0BF0E4CF0AF0E4CF09F0E4CF62
:1020700008F0E4CF07F0E4CF06F0E4CF05F0E4CFBA
:1020800004F0E4CF03F0E4CF01F0E4CF00F012005D
:1020900000C0E5FF01C0E5FF02C0E5FF03C0E5FFAA
:1020A00004C0E5FF030183510301821901E15FD000
:1020B00083C300F0002A009E600E0024016E026AB5
:1020C000000E022201C0E9FF02C0EAFFEFCF8DF34C
:1020D0001F0E03018D1783C38CF38D5103018C27D1
:1020E0008C2B8C2B8C9F34EC1DF0016E015003E186
:1020F000016A012A01D0016A34EC1DF003018D6FE1
:10210000800E8D15026E1F0E8D15036E03C004F038
:1021100003C08DF3045003E182C383F33BD001502D
:102120001BE0025022E034EC1DF0006E03018D072D
:102130000050420A1AE000504E0A03E184EC19F004
:1021400014D00050460A03E1B9EC20F00ED0005044
:10215000490A0BE1FF0009D083C38EF3025003E06C
:10216000ADEC1BF002D05EEC1DF08CC383F30401D8
:102170000C5104010D1906E00301845103E1EBEC5D
:1021800011F008D092BA06D00301845103E172B273
:1021900085EC20F0E4CF04F0E4CF03F0E4CF02F0CC
:1021A000E4CF01F0E4CF00F01200D9CFE5FFE1CF9A
:1021B000D9FF00C0E5FF01C0E5FF02C0E5FF03C095
:1021C000E5FF04C0E5FF05C0E5FF06C0E5FF07C069
:1021D000E5FF020EDBCF00F0030EDBCF01F0040EB3
:1021E000DBCF02F0050EDBCF03F002C006F0065095
:1021F000046E800A33E100C0E9FF01C0F3FF025022
:102200000DEC1FF0056EF3CF06F0F4CF07F003C01E
:10221000E5FF05C0E9FF06C0F3FF0750CFEC20F053
:1022200000C0E9FF01C0F3FF02500DEC1FF0056E86
:10223000F3CF06F0F4CF07F0052A02E3064A072A97
:1022400005C0E5FF06C0F4FF07C0F6FF00C0E9FFC8
:1022500001C0F3FF025068EC20F020D004C000F071
:1022600000AA1CD0007A0050046E04E1035008EC70
:1022700021F014D00450010A04E1035002EC00F0F4
:102280000DD004500F0A04E103507DEC1CF006D081
:1022900004500E0A03E103501EEC21F0E4CF07F0D6
:1022A000E4CF06F0E4CF05F0E4CF04F0E4CF03F090
:1022B000E4CF02F0E4CF01F0E4CF00F0E4CFD9FFA7
:1022C0001200D9CFE5FFE1CFD9FF00C0E5FF01C083
:1022D000E5FF02C0E5FF03C0E5FF04C0E5FF05C060
:1022E000E5FF06C0E5FF07C0E5FF08C0E5FF09C040
:1022F000E5FF0AC0E5FF020EDBCF00F0030EDBCFE7
:1023000001F0040EDBCF02F0050EDBCF03F0060E6A
:10231000DBCF04F0070EDBCF05F00038E8441F0BDD
:10232000066E076A7B0E0626030E072206C0E9FF2B
:1023300007C0EAFFEFCF08F0070E0014096E010E88
:102340000A6E095005E0E86CD8900A36010FFDE3EB
:102350000A50081206C0E9FF07C0EAFF08C0EFFFF5
:10236000400E0024066E076A030E072206C0E9FF2E
:1023700007C0EAFF01C0EFFF016A230E00260F0E1F
:102380000122800E025E070E02160238F00B036E69
:10239000070E05160550032600C0E9FF01C0EAFF3D
:1023A00003C0EFFFE4CF0AF0E4CF09F0E4CF08F078
:1023B000E4CF07F0E4CF06F0E4CF05F0E4CF04F07B
:1023C000E4CF03F0E4CF02F0E4CF01F0E4CF00F07B
:1023D000E4CFD9FF120000C0E5FF01C0E5FF02C055
:1023E000E5FF03C0E5FF72A276D0B3EC1EF0006EED
:1023F000005005E104010D6B04010C6B6CD00DC4A1
:1024000001F000500126B3EC1EF0026E00060250EF
:10241000230A1FE1010E005CD8A05BD0B3EC1EF0D4
:10242000026E690A03E1AEEC1CF053D00250720A4E
:1024300003E185EC20F04DD00250730A01E049D051
:10244000928A7186A38AA398745074507198718887
:1024500040D00250430A05E00250420A01E039D060
:1024600001D0008E00C086F300500F01006F010EF6
:102470000301876F04010D51011814E0B3EC1EF045
:10248000026E03018627000E03018725006E036A92
:102490000F0E032200C0E9FF03C0EAFF02C0EFFFF6
:1024A000872BE8D7000E03018725006E026A0F0E06
:1024B00002220301861D036E032A00C0E9FF02C049
:1024C000EAFF03C0EFFF0301872B87C384F30301F7
:1024D0007E6B01C00DF4E4CF03F0E4CF02F0E4CF53
:1024E00001F0E4CF00F01200D9CFE5FFE1CFD9FF32
:1024F00000C0E5FF01C0E5FF02C0E5FF03C0E5FF46
:1025000004C0E5FF05C0E5FF06C0E5FF020EDBCF16
:1025100000F0030EDBCF01F0040EDBCF02F0050E5E
:10252000DBCF03F003C004F0056A0350D8B44FD0EA
:1025300000C0E9FF01C0F3FF025057EC20F0066E27
:10254000430A03E1010E056E038E0406002A02E32E
:10255000014A022A929AA39A7198A398A4A8FED736
:102560007280736A0000A4A8FED7729003C073FF44
:102570000000A4A8FED7055004E0420E736E0326A7
:1025800004D0620E736E620E0326045015E0000044
:10259000A4A8FED700C0E9FF01C0F3FF025057EC2A
:1025A00020F0056E05C073FF055003260406002ABF
:1025B00002E3014A022AE9D70000A4A8FED7031CBF
:1025C000736E732A0000A4A8FED785EC20F0E4CF38
:1025D00006F0E4CF05F0E4CF04F0E4CF03F0E4CF5D
:1025E00002F0E4CF01F0E4CF00F0E4CFD9FF120015
:1025F00000C0E5FF01C0E5FF02C0E5FF03C0E5FF45
:1026000004C0E5FF006A7B0E0024016E026A030E1F
:10261000022201C0E9FF02C0EAFFEF6A002A020EAF
:10262000005CF1E3006A0050020DF450026EF3CF3B
:1026300001F0E00E0124036E000E0220046E03C0C0
:10264000E9FF04C0EAFFEE6AEF6A5C0E0124036E44
:10265000040E0220046E03C0E9FF04C0EAFFEE6A24
:10266000EF6A930E0124036E040E0220046E03C071
:10267000E9FF04C0EAFFEE6AEF6AB30E0124036EBD
:10268000040E0220046E03C0E9FF04C0EAFFEE6AF4
:10269000EF6AD30E0126040E022201C0E9FF02C038
:1026A000EAFFEE687F0EEF6E230E0024016E026AD1
:1026B0000F0E022201C0E9FF02C0EAFFEF68002A04
:1026C000100E005CD8A0AFD7AF0EC06EC16A010E6D
:1026D000C26EC282E4CF04F0E4CF03F0E4CF02F094
:1026E000E4CF01F0E4CF00F0120043204120256444
:1026F0002025640A0000D9CFE5FFE1CFD9FF00C053
:10270000E5FF01C0E5FF02C0E5FF03C0E5FF04C02F
:10271000E5FF05C0E5FF06C0E5FF07C0E5FF020EC7
:10272000DBCF00F0030EDBCF01F0040EDBCF02F0B5
:10273000050EDBCF03F00DC40EF404010C510401AF
:102740000E5F0E0703C004F0056A030E0426D8B01E
:10275000052A0EC406F0076A0750800FF36E055075
:10276000800FF35C02E10450065C02E2E8682BD0C3
:10277000020E035C02E2E86A26D003060350E56E0F
:10278000C2EC1AF0E652046A0350045C14E20450EE
:102790000024056EE86A0120066EE86A022005C082
:1027A000E9FF06C0F3FF57EC20F0042AE56EC2EC07
:1027B0001AF0E652E9D70DC40EF404010C510401DD
:1027C0000E5F0E07E86AE4CF07F0E4CF06F0E4CF2F
:1027D00005F0E4CF04F0E4CF03F0E4CF02F0E4CF5F
:1027E00001F0E4CF00F0E4CFD9FF1200D9CFE5FF2C
:1027F000E1CFD9FF00C0E5FF01C0E5FF02C0E5FF62
:1028000003C0E5FF04C0E5FF05C0E5FF020EDBCF16
:1028100000F0030EDBCF01F0040EDBCF02F000501E
:10282000020DF450036EF3CF00F05C0E0024046E32
:10283000040E0320056E04C0E9FF05C0EAFF01C0D5
:10284000EEFF02C0EFFF930E0024046E040E03207F
:10285000056E04C0E9FF05C0EAFFEECF04F0EFCF3C
:1028600005F00150045C016E02500558026E000E26
:102870000026030E032200C0E9FF03C0EAFF01C0E7
:10288000EEFF02C0EFFFD88002AED89004E3021E34
:10289000016CD8B4022A0250800F800F02E1030EAF
:1028A000015C02E2016A026A0150021007E100C005
:1028B000E9FF03C0EAFF000EEE6AEF6AE4CF05F01D
:1028C000E4CF04F0E4CF03F0E4CF02F0E4CF01F072
:1028D000E4CF00F0E4CFD9FF120000C0E5FF01C053
:1028E000E5FF7EA26AD004012651271103E1266983
:1028F000030E276FFF0E0401262727232651006EA3
:102900002751016E03015151015C02E15051005CFD
:1029100002E2898601D0899604012651006E275172
:10292000016E03015351015C02E15251005C02E26D
:10293000898401D0899404012651006E2751016ECB
:1029400003015551015C02E15451005C02E28982AD
:1029500001D0899204012651006E2751016E0301B6
:102960005751015C02E15651005C02E2898001D0BE
:10297000899004012651006E2751016E03015951BF
:10298000015C02E15851005C02E28A8801D08A9819
:1029900004012651006E2751016E03015B51015C59
:1029A00002E15A51005C02E2898C01D0899C0F013E
:1029B0005069F30E0F014F6F7E92E4CF01F0E4CF28
:1029C00000F0120000C0E5FF01C0E5FF02C0E5FF16
:1029D00003C0E5FF81C400F0016A82C402F0036A0B
:1029E000025000260350012283C402F00250002648
:1029F0000350012284C402F0025000260350012239
:102A000085C402F0025000260350012286C402F061
:102A1000025000240401876F03500120886F875102
:102A20000401901906E1040188510401911901E1A2
:102A30002ED087C490F488C491F40401815104011C
:102A4000026F040182510401036F040183510401E8
:102A5000046F040184510401056F040185510401D0
:102A6000066F040186510401076F090E0401376FD8
:102A70000A0E0401086F090EE56E800EE56E040E65
:102A8000E56E000EE56E7BEC13F0040EE126E4CF5C
:102A900003F0E4CF02F0E4CF01F0E4CF00F0120045
:102AA000D9CFE5FFE1CFD9FF00C0E5FF01C0E5FFC9
:102AB00002C0E5FF03C0E5FF04C0E5FF05C0E5FF78
:102AC00006C0E5FF020EDBCF00F0030EDBCF01F006
:102AD000040EDBCF02F0050EDBCF03F0D88001AE91
:102AE000D890046A0436045007E0011C066E001CEE
:102AF000056E054A062A04D000C005F001C006F0A4
:102B0000D88003AED89007E3031C016E021C006E50
:102B1000004A012A04D002C000F003C001F00150B5
:102B2000E56E0050E56E0650E56E0550E56E57EC1B
:102B300017F0006EF3CF01F0040EE12604500AE016
:102B4000011C036E001C026E024A032A03C0F3FF3D
:102B5000025003D001C0F3FF0050E4CF06F0E4CFF1
:102B600005F0E4CF04F0E4CF03F0E4CF02F0E4CFCB
:102B700001F0E4CF00F0E4CFD9FF1200D9CFE5FF98
:102B8000E1CFD9FF00C0E5FF01C0E5FF02C0E5FFCE
:102B900003C0E5FF04C0E5FF05C0E5FF020EDBCF83
:102BA00000F0030EDBCF01F0040EDBCF02F0050EC8
:102BB000DBCF03F079C304F07AC305F00301793F5A
:102BC00001D07A2B0350E56E0450E56E6FEC1EF0D9
:102BD000E652E65279C304F07AC305F00301793F67
:102BE00001D07A2B0250056EE56E0450E56E6FEC55
:102BF0001EF0E652E65279C304F07AC305F00301F1
:102C0000793F01D07A2B0150056EE56E0450E56ED8
:102C10006FEC1EF0E652E65279C304F07AC305F079
:102C20000301793F01D07A2B0050E56E0450E56E28
:102C30006FEC1EF0E652E652E4CF05F0E4CF04F06C
:102C4000E4CF03F0E4CF02F0E4CF01F0E4CF00F0F2
:102C5000E4CFD9FF1200D9CFE5FFE1CFD9FF00C003
:102C6000E5FF01C0E5FF02C0E5FF03C0E5FF04C0CA
:102C7000E5FF05C0E5FF06C0E5FF020EDBCF00F073
:102C8000030EDBCF01F0040EDBCF02F003017D5118
:102C900019E1BBEC0FF0036EF3CF04F0F4CF05F0B5
:102CA000E9CF06F003C0E5FF04C0F4FF05C0F6FF5E
:102CB00006C0F7FF00C0E9FF01C0F3FF025046EC79
:102CC00020F01ED003017D51010A1AE100C0E9FF86
:102CD00001C0F3FF025093EC1EF0006EF3CF01F041
:102CE000F4CF02F0E9CF03F00350E56E0250E56E39
:102CF0000150E56E0050E56EBEEC15F0040EE126C5
:102D0000E4CF06F0E4CF05F0E4CF04F0E4CF03F025
:102D1000E4CF02F0E4CF01F0E4CF00F0E4CFD9FF3C
:102D20001200D9CFE5FFE1CFD9FF00C0E5FF01C018
:102D3000E5FF02C0E5FF03C0E5FF04C0E5FF05C0F5
:102D4000E5FF06C0E5FF020EDBCF00F0030EDBCF90
:102D500001F00038E8441F0B026E036A7B0E022666
:102D6000030E032202C0E9FF03C0EAFFEFCF04F025
:102D7000070E0014056E010E066E055005E0E86CA6
:102D8000D8900636010FFDE30650041202C0E9FF99
:102D900003C0EAFF04C0EFFF400E0024026E036A86
:102DA000030E032202C0E9FF03C0EAFF01C0EFFFE8
:102DB000016A230E00260F0E012200C0E9FF01C0A8
:102DC000EAFFFF0EEF68E4CF06F0E4CF05F0E4CFB2
:102DD00004F0E4CF03F0E4CF02F0E4CF01F0E4CF5D
:102DE00000F0E4CFD9FF1200D9CFE5FFE1CFD9FF42
:102DF00000C0E5FF01C0E5FF02C0E5FF03C0E5FF3D
:102E000004C0E5FF05C0E5FF06C0E5FF020EDBCF0D
:102E100000F0030EDBCF01F0040EDBCF02F0050E55
:102E2000DBCF03F0060EDBCF04F0070EDBCF05F09F
:102E3000080EDBCF06F0D88003AED89015E306501D
:102E40000A0A12E104C0E9FF05C0EAFF2D0EEF6E89
:102E5000044A052A031E021E011E006C05E1012A18
:102E600003E1022AD8B4032A0650E56E0550E56E48
:102E70000450E56E0350E56E0250E56E0150E56EBC
:102E80000050E56E1DEC0DF0070EE126E4CF06F0D4
:102E9000E4CF05F0E4CF04F0E4CF03F0E4CF02F098
:102EA000E4CF01F0E4CF00F0E4CFD9FF1200D9CF96
:102EB000E5FFE1CFD9FF00C0E5FF01C0E5FF02C09B
:102EC000E5FF03C0E5FF04C0E5FF05C0E5FF06C060
:102ED000E5FF020EDBCF00F0030EDBCF01F0040EA6
:102EE000DBCF02F0050EDBCF03F0046A056A035066
:102EF000800BE844066E065011E1025002260336AC
:102F00000350015C02E10250005C04E2D8900332FD
:102F1000023204D0052A05C004F0E9D70350015C51
:102F200002E10250005C04E30250005E0350015ACB
:102F3000D8900332023204C005F004060550EEE1D9
:102F400001C0F3FF0050E4CF06F0E4CF05F0E4CF7A
:102F500004F0E4CF03F0E4CF02F0E4CF01F0E4CFDB
:102F600000F0E4CFD9FF120000C0E5FF01C0E5FF8B
:102F700002C0E5FF03C0E5FF83C300F0016A8EC312
:102F800002F0036A0250005E0350015AE56A800EA7
:102F9000E56E0150E56E0050E56E50EC15F0006EE8
:102FA000040EE12600068EC301F0430E7DEC1CF0FA
:102FB000200E7DEC1CF0005020E0600E0124026E1B
:102FC000036A000E032202C0E9FF03C0EAFFEFCF4D
:102FD00002F0E56A0250E56E000EE56E410EE56E08
:102FE000220EE56E06EC1AF0050EE126012A0150CC
:102FF000800A01E1016A0006DED7E4CF03F0E4CFE6
:1030000002F0E4CF01F0E4CF00F0120000C0E5FFD1
:1030100001C0E5FF02C0E5FF03C0E5FF48EC10F08A
:1030200054EC06F096EC0EF00AEC1DF0006EF3CFB7
:1030300001F0F4CF02F0E9CF03F004017C51005E0F
:103040007D51015A7E51025A7F51035A039E3F0E11
:10305000035C08E1FF0E025C05E1FF0E015C02E18A
:10306000FF0E005C18E20AEC1DF0F3CF01F0F4CF84
:1030700002F0E9CF03F0880F04017C6F130E0120EA
:103080007D6F000E02207E6F000E03207F6F0EEC1E
:1030900004F0E2EC14F0E4CF03F0E4CF02F0E4CF6C
:1030A00001F0E4CF00F01200D9CFE5FFE1CFD9FF66
:1030B00000C0E5FF01C0E5FF02C0E5FF03C0E5FF7A
:1030C00004C0E5FF020EDBCF00F0030EDBCF01F002
:1030D000040EDBCF02F003017D5111E1E5EC1BF0A2
:1030E000036EF3CF04F003C0E5FF04C0F4FF00C09B
:1030F000E9FF01C0F3FF0250A1EC20F016D003015C
:103100007D51010A12E100C0E9FF01C0F3FF025046
:10311000CCEC1FF0006EF3CF01F00150E56E0050D3
:10312000E56E85EC1AF0E652E652E4CF04F0E4CF07
:1031300003F0E4CF02F0E4CF01F0E4CF00F0E4CFFD
:10314000D9FF1200F80EF66E410EF76E000EF86E03
:103150000900F550056E0900F550066E04E105679B
:1031600002D0EFEF18F00900F550006E0900F5509D
:10317000016E0900F550026E09000900F550E96E74
:103180000900F550EA6E090009000900F550036EC8
:103190000900F550046E09000900F6CF07F0F7CFDB
:1031A00008F0F8CF09F000C0F6FF01C0F7FF02C039
:1031B000F8FF035002E1045007E00900F550EE6EFD
:1031C0000306F8E20406F9D707C0F6FF08C0F7FFC8
:1031D00009C0F8FF050601E20606AEEF18F012007E
:1031E000D9CFE5FFE1CFD9FF00C0E5FF020EDBCF6D
:1031F00000F0060E005C39E2FA6AFB6A0034FA3627
:10320000E834FA36FC0B160FE56E320EFA22000E89
:10321000FB22E450F96E17EF19F01CEF19F021EFC3
:1032200019F026EF19F02BEF19F030EF19F0006AC2
:1032300082BA002A00501AD0006A82BC002A0050CC
:1032400015D0006A82BE002A005010D0006A81B0FA
:10325000002A00500BD0006A81B2002A005006D02C
:10326000006A81B4002A005001D0E86AE4CF00F07F
:10327000E4CFD9FF1200D9CFE5FFE1CFD9FF00C0DD
:10328000E5FF01C0E5FF02C0E5FF03C0E5FF04C0A4
:10329000E5FF05C0E5FF020EDBCF00F00050010A9C
:1032A00022E1016A0150020DF450036EF3CF02F0E7
:1032B000B30E0224046E040E0320056E04C0E9FF61
:1032C00005C0EAFFEE687F0EEF6ED30E0226040EF5
:1032D000032202C0E9FF03C0EAFFEE6AEF6A012A97
:1032E000100E015CDFE300C012F4E4CF05F0E4CF80
:1032F00004F0E4CF03F0E4CF02F0E4CF01F0E4CF38
:1033000000F0E4CFD9FF120000C0E5FF01C0E5FFE7
:1033100002C0E5FF34EC1DF0006E34EC1DF0016ED0
:103320000050026ED00E0224006E0A0E005C05E30F
:103330000050026EF90E0224006E0150026ED00E93
:103340000224016E0A0E015C05E30150026EF90EC3
:103350000224016E080E005C12E2100E015CD8B06F
:103360000ED00038F00B0124006E73EC1BF0016EE0
:10337000015005E10050E56E42EC1FF0E652E4CF4B
:1033800002F0E4CF01F0E4CF00F01200D9CFE5FF66
:10339000E1CFD9FF00C0E5FF01C0E5FF02C0E5FFB6
:1033A00003C0E5FF04C0E5FF020EDBCF00F00038EC
:1033B000E8441F0B016E026A7B0E0126030E0222F7
:1033C00001C0E9FF02C0EAFFEFCF03F0070E0016CD
:1033D000010E046E005005E0E86CD8900436010F31
:1033E000FDE3041C031601C0E9FF02C0EAFF03C0AD
:1033F000EFFFE4CF04F0E4CF03F0E4CF02F0E4CF3A
:1034000001F0E4CF00F0E4CFD9FF1200D9CFE5FFFF
:10341000E1CFD9FF00C0E5FF01C0E5FF02C0E5FF35
:10342000020ED924006E000EDA20016E800E026EAC
:10343000030E0026000E012202220250E56E01500A
:10344000E56E0050E56E040EDBCFE5FF030EDBCF2B
:10345000E5FF020EDBCFE5FF03017251E56E71510E
:10346000E56E7051E56E0EEC00F0006EF3CF01F0EA
:10347000090EE12601C0F3FF0050E4CF02F0E4CFD3
:1034800001F0E4CF00F0E4CFD9FF1200D9CFE5FF7F
:10349000E1CFD9FF00C0E5FF01C0E5FF02C0E5FFB5
:1034A00003C0E5FF020EDBCF00F0030EDBCF01F01F
:1034B000040EDBCF02F003017D510DE1A0EC1FF003
:1034C000036E03C0E5FF00C0E9FF01C0F3FF025037
:1034D000CFEC20F00FD003017D51010A0BE100C0B9
:1034E000E9FF01C0F3FF025057EC20F0E56E49EC14
:1034F0001EF0E652E4CF03F0E4CF02F0E4CF01F097
:10350000E4CF00F0E4CFD9FF1200D9CFE5FFE1CF3F
:10351000D9FF00C0E5FF01C0E5FF02C0E5FF03C021
:10352000E5FF020EDBCF00F0030EDBCF01F079C325
:1035300002F07AC303F00301793F01D07A2B0150E6
:10354000E56E0250E56E6FEC1EF0E652E65279C36E
:1035500002F07AC303F00301793F01D07A2B0050C7
:10356000E56E0250E56E6FEC1EF0E652E652E4CFD7
:1035700003F0E4CF02F0E4CF01F0E4CF00F0E4CFB9
:10358000D9FF1200D9CFE5FFE1CFD9FF00C0E5FF99
:1035900001C0E5FF02C0E5FF03C0E5FF04C0E5FF91
:1035A000020EDBCF00F00CC401F0026A014A022ACD
:1035B0000DC403F0046A0150031803E1025004181B
:1035C00001E001D00ED0000E04010C25016E026A4C
:1035D000010E022201C0E9FF02C0EAFF00C0EFFFB6
:1035E0000C2BE4CF04F0E4CF03F0E4CF02F0E4CFFF
:1035F00001F0E4CF00F0E4CFD9FF1200D9CFE5FF0E
:10360000E1CFD9FF00C0E5FF01C0E5FF02C0E5FF43
:1036100003C0E5FF020EDBCF00F0016A8EC302F0AB
:10362000036A0250002603500122E56A800EE56E0F
:103630000150E56E0050E56E50EC15F0006EF3CFD2
:1036400001F0040EE126600E0026000E012200C0EB
:10365000E9FF01C0EAFFEFCF00F00050E4CF03F034
:10366000E4CF02F0E4CF01F0E4CF00F0E4CFD9FFE3
:103670001200F3CFE5FFF4CFE5FFE9CFE5FFEACF96
:10368000E5FFFACFE5FFFBCFE5FF04010A510F018B
:10369000356F04010B510F01366FD650336FD75081
:1036A000346FF2A411D004010A3F01D00B2BF29425
:1036B00004010A510F01356F04010B510F01366FE0
:1036C000D650336FD750346F12EC21F0E4CFFBFFAC
:1036D000E4CFFAFFE4CFEAFFE4CFE9FFE4CFF4FF61
:1036E000E4CFF3FF110000C0E5FF01C0E5FF02C019
:1036F000E5FF010E006E34EC1DF0016E01C002F01A
:10370000015023E00050E56E77EC20F0016EE652A8
:10371000015010E10A0E005C0BE20A0E006EE56E2D
:1037200077EC20F0016EE652015004E1E8680ED01B
:10373000E8680CD00150021802E0E86807D0002ABF
:103740001B0E005CD8E3E86801D0E86AE4CF02F021
:10375000E4CF01F0E4CF00F0120000C0E5FF01C0AB
:10376000E5FF34EC1DF0006E4C0A03E134EC1DF073
:1037700027D00050450A24E1000EE56E130EE56ED9
:103780009A0EE56E06EC1AF0030EE12618EC21F015
:10379000006E00C001F0000601500FE034EC1DF097
:1037A000E56AE56E000EE56E130EE56E9C0EE56EA5
:1037B00006EC1AF0050EE126ECD70A0E7DEC1CF0A3
:1037C000E4CF01F0E4CF00F0120000C0E5FF01C03B
:1037D000E5FF02C0E5FF03C0E5FF79C300F07AC34F
:1037E00001F00301793F01D07A2B0050E56E77ECB0
:1037F00020F0E652036E026A79C300F07AC301F04A
:103800000301793F01D07A2B0050E56E77EC20F070
:10381000E652016A02120150031203C0F3FF025084
:10382000E4CF03F0E4CF02F0E4CF01F0E4CF00F006
:103830001200D9CFE5FFE1CFD9FF00C0E5FF01C0FD
:10384000E5FF02C0E5FF03C0E5FF020EDBCF00F09D
:10385000030EDBCF01F0040EDBCF02F00050020DAF
:10386000F450036EF3CF00F0500E0026030E032237
:1038700000C0E9FF03C0EAFF01C0EEFF02C0EFFF96
:10388000E4CF03F0E4CF02F0E4CF01F0E4CF00F0A6
:10389000E4CFD9FF120000C0E5FF01C0E5FF02C080
:1038A000E5FF006A0050020DF450026EF3CF01F004
:1038B000500E0126030E022201C0E9FF02C0EAFFFA
:1038C000EE6AEF6A002A080E005CECE30F014E6B13
:1038D0000F014E894E8B4E837F824E817E927D8278
:1038E00092969294929292909398929CE4CF02F046
:1038F000E4CF01F0E4CF00F0120000C0E5FF01C00A
:10390000E5FF02C0E5FF006E390E04011125016ECE
:10391000026A040E022201C0E9FF02C0EAFF00C0F1
:10392000EFFF220E115D01E2112B00500A0A0FE198
:1039300004011151E56E800EE56E040EE56E390E40
:10394000E56E7BEC13F0040EE1260401116BE4CF6D
:1039500002F0E4CF01F0E4CF00F0120004010C6BA0
:1039600004010D6B04010E69928A899A928A766A23
:103970003F0E756E7086728A7284728C7290718C32
:10398000718E0301856B03017F6B0301826B030161
:10399000836B0301846B000EE56A77EC20F0040171
:1039A000106FE652A598A59A010E04010F6F03014E
:1039B000706B716B2F0E726F85EC20F0120000C0DF
:1039C000E5FF01C0E5FF02C0E5FF04C0E5FF34EC00
:1039D0001DF0006E080E005C14E234EC1DF0016A6C
:1039E000026E34EC1DF0046A0126045002220250DB
:1039F000E56E0150E56E0050E56E19EC1CF0030E0B
:103A0000E126E4CF04F0E4CF02F0E4CF01F0E4CF0C
:103A100000F0120004010A510401316F04010B513E
:103A20000401326FD6502F6FD750306F31510401DF
:103A30000A1905E10401325104010B190CE00401DB
:103A40000A510401316F04010B510401326FD65049
:103A50002F6FD750306F32C4E9FF31C4F4FF30C448
:103A6000F3FF04012F51120000C0E5FF01C0E5FF84
:103A70000301835103018C1905E003018351030104
:103A8000821902E1E86A15D083C300F00301832B99
:103A9000016A600E0026000E012200C0E9FF01C08D
:103AA000EAFFEFCF00F08351800A02E10301836B4C
:103AB0000050E4CF01F0E4CF00F0120000C0E5FFB9
:103AC00001C0E5FF34EC1DF0006E320A03E1DFECCB
:103AD0001CF017D00050330A09E134EC1DF0016EE0
:103AE000015002E08A860DD08A960BD00050340A2D
:103AF00008E134EC1DF0006E005002E0898E01D028
:103B0000899EE4CF01F0E4CF00F01200D8CFE5FFAA
:103B1000E0CFE5FFE56EF3CFE5FFF4CFE5FFE9CFBA
:103B2000E5FFEACFE5FFFACFE5FFFBCFE5FF1BECB2
:103B30000CF00FEC21F0E4CFFBFFE4CFFAFFE4CF71
:103B4000EAFFE4CFE9FFE4CFF4FFE4CFF3FFE45072
:103B5000E4CFE0FFE4CFD8FF100000C0E5FF0CEC9D
:103B600021F00401896B806B8983006A89B3002A84
:103B70000050010BE844F46E8051FD0BF410806F8F
:103B8000D58ED59CD59AD588D596D594D582D58015
:103B9000F28AF184D08EF28EF28CBA80FF0EBB686E
:103BA000BA84E4CF00F01200D9CFE5FFE1CFD9FF0E
:103BB00000C0E5FF01C0E5FF020EDBCF00F00050C2
:103BC000020DF450016EF3CF00F0000E0026030E3C
:103BD000012200C0E9FF01C0EAFFEECF00F0EFCF05
:103BE00001F001C0F3FF0050E4CF01F0E4CF00F09A
:103BF000E4CFD9FF1200D9CFE5FFE1CFD9FF00C054
:103C0000E5FF01C0E5FF020EDBCF00F00050020D22
:103C1000F450016EF3CF00F0E00E0026000E0122FA
:103C200000C0E9FF01C0EAFFEECF00F0EFCF01F0E6
:103C300001C0F3FF0050E4CF01F0E4CF00F0E4CF87
:103C4000D9FF1200D9CFE5FFE1CFD9FF00C0E5FFD2
:103C500001C0E5FF020EDBCF00F00050020DF45072
:103C6000016EF3CF00F0500E0026030E012200C0BB
:103C7000E9FF01C0EAFFEECF00F0EFCF01F001C095
:103C8000F3FF0050E4CF01F0E4CF00F0E4CFD9FF20
:103C90001200D9CFE5FFE1CFD9FF00C0E5FF01C099
:103CA000E5FF02C0E5FF020EDBCF00F079C301F0B3
:103CB0007AC302F00301793F01D07A2B0050E56E00
:103CC0000150E56E6FEC1EF0E652E652E4CF02F0D2
:103CD000E4CF01F0E4CF00F0E4CFD9FF1200D9CF58
:103CE000E5FFE1CFD9FF00C0E5FF020EDBCF00F01A
:103CF000030EDBCFA8FF00C0A9FFA69EA69CA6844A
:103D0000F29EF29C550EA76EAA0EA76EA682A6A2E0
:103D100002D00000FCD7A694F28EF28CE4CF00F023
:103D2000E4CFD9FF1200E8AE0AD0F3CFEAFFEE509D
:103D3000EECFF3FFEECFF4FFEECFE9FF1200E8BCC9
:103D400025EF21F0E9CFF6FFF3CFF7FFF86E09007A
:103D5000F5500900F5CFF3FF0900F5CFF4FF090096
:103D6000F5CFE9FF120000C0E5FF01C0E5FF040147
:103D70000C5104010D1902E1E86A0FD0000E040194
:103D80000D25006E016A010E012200C0E9FF01C08D
:103D9000EAFFEFCF00F00D2B0050E4CF01F0E4CFAD
:103DA00000F01200F2CFEAFFF29EA69EA69CA68427
:103DB000E9CFA9FFF3CFAAFFE4CFA8FFE4EC20F0FE
:103DC000F4CFA8FFE4EC20F0F6CFA8FFE4EC20F05D
:103DD000F7CFA8FFE4EC20F0A694EABEF28E120022
:103DE000F2CFF6FFF29EA69EA69CE9CFA9FFF3CFE5
:103DF000AAFFA680A850A94AAA2AA680A8CFF3FFA6
:103E0000A94AAA2AA680A8CFF4FFA94AAA2AA6806E
:103E1000A8CFEAFFF6BEF28E1200E8AE08D0F3CFCC
:103E2000EAFFEE50EECFF3FFEECFF4FF1200E8BC56
:103E30002DEF21F0E9CFF6FFF3CFF7FFF86E090081
:103E4000F5500900F5CFF3FF0900F5CFF4FF12009C
:103E5000F2CFEAFFF29EA69EA69CA684E9CFA9FF18
:103E6000F3CFAAFFE4CFA8FFE4EC20F0F4CFA8FF43
:103E7000E4EC20F0F6CFA8FFE4EC20F0A694EABE34
:103E8000F28E1200D9CFE5FFE1CFD9FF00C0E5FFE8
:103E9000020EDBCF00F000C010F40050E56E000E03
:103EA000E56A6FEC1EF0E652E652E4CF00F0E4CF94
:103EB000D9FF1200F2CFF6FFF29EA69EA69CE9CF94
:103EC000A9FFF3CFAAFFA680A850A94AAA2AA680D4
:103ED000A8CFF3FFA94AAA2AA680A8CFF4FFF6BE6E
:103EE000F28E120000C0E5FF01C0E5FF600E030185
:103EF0008325006E016A000E012200C0E9FF01C0A7
:103F0000EAFFEFCF00F00050E4CF01F0E4CF00F083
:103F10001200D9CFE5FFE1CFD9FF00C0E5FF020EC7
:103F2000DBCF00F0610E005C05E37B0E005C02E27B
:103F3000010E01D0E86AE4CF00F0E4CFD9FF12000F
:103F400000C0E5FF01C0E5FF79C300F07AC301F0CE
:103F50000301793F01D07A2B0050E56E77EC20F019
:103F6000E652E4CF01F0E4CF00F01200D9CFE5FF34
:103F7000E1CFD9FF00C0E5FF020EDBCF00F000C0AB
:103F80000FF4005004E185EC20F0A39AA398E4CF4D
:103F900000F0E4CFD9FF1200E8AE06D0F3CFEAFF7D
:103FA000EE50EECFF3FF1200E8BC23EF21F0E9CF93
:103FB000F6FFF3CFF7FFF86E0900F5500900F5CFD3
:103FC000F3FF1200F2CFEAFFF29EA69EA69CA68403
:103FD000E9CFA9FFF3CFAAFFE4CFA8FFE4EC20F0DC
:103FE000F4CFA8FFE4EC20F0A694EABEF28E120013
:103FF000420A000000000000000000000000FF0076
:10400000000000020002000000420000000000006A
:10401000000000000000FF03000012EEFFF022EE9F
:10402000FFF0F86AA68EA69CE9680E0EEA6E00689C
:10403000000EED6A0050FDE1A2EC18F006EC00F075
:10404000FFD7F2CFF6FFF29EA69EA69CE9CFA9FF6E
:10405000F3CFAAFFA680A850A94AAA2AA680A8CF73
:10406000F3FFF6BEF28E1200F2CFEAFFF29EA69E9A
:10407000A69CA684E9CFA9FFF3CFAAFFE4CFA8FFAF
:10408000E4EC20F0A694EABEF28E1200E8AE0BD06B
:10409000F3CFEAFFE4CFEEFFF4CFEEFFF6CFEEFF73
:1040A000F7CFEEFF1200E8BC27EF21F01200E8AED8
:1040B00004D0F3CFEAFFEE501200E8BC21EF21F06C
:1040C000E9CFF6FFF3CFF7FFF86E0900F5501200C5
:1040D000E8AE09D0F3CFEAFFE4CFEEFFF4CFEEFF76
:1040E000F6CFEEFF1200E8BC2FEF21F01200D9CF7F
:1040F000E5FFE1CFD9FF020EDBCFA9FFA69CA69E6C
:10410000A680A850E4CFD9FF120072A2FED7928AEF
:10411000745000007450719871887186A38AA398B6
:10412000120025642000F2CFF6FFF29EA69EA69C08
:10413000E9CFA9FFF3CFAAFFA680A850F6BEF28E62
:104140001200E8AE07D0F3CFEAFFE4CFEEFFF4CFE2
:10415000EEFF1200E8BC2BEF21F01200700ED36EC0
:104160009B8CFF0E9268936894689668626AF19ED1
:10417000120000C0E5FF73EC1BF0006E005001E17F
:10418000FF00E4CF00F012000F01456B900E0F010D
:10419000446F030E0F01436F0F01458F1200E8AE0D
:1041A00005D0F3CFEAFFE4CFEEFF1200E8BC29EF21
:1041B00021F01200D9CFE5FFE1CFD9FF020EDBCF0E
:1041C00015F4E4CFD9FF1200550EA76EAA0EA76E04
:1041D000A682A6B2FED7A94AAA2A010E03017D6FC4
:1041E0001C0E0301796F7A6B120003017D6B1C0EAC
:1041F0000301796F7A6B12000100F03F00000004A8
:10420000000029000000ADEC1DF0AEEC1CF0120027
:10421000ACA2FED7AD6E1200AEEC20F0120031EC75
:1042200021F012006DEC14F0120003018351120012
:1042300003018D51120004010F511200E8CF7FFFDE
:10424000120093EF20F021EF20F0F0EF1EF0D2EFFC
:104250001EF034EF20F0E2EF1FF05AEF1FF028EFCE
:044260001FF0120039
:020000040030CA
:010006008574
:00000001FF
