:020000040000FA
:100000008EEF38F0C96E12002FEF31F0C0EC15F012
:100010005CEC1AF0FDD71200EBEF36F0D9CFE5FF1C
:10002000E1CFD9FF00C0E5FF01C0E5FF02C0E5FF59
:1000300003C0E5FF04C0E5FF05C0E5FF06C0E5FF1E
:1000400007C0E5FF08C0E5FF09C0E5FF0AC0E5FFFE
:100050000BC0E5FF0CC0E5FF0DC0E5FF0EC0E5FFDE
:100060000FC0E5FF10C0E5FF11C0E5FF12C0E5FFBE
:1000700013C0E5FF14C0E5FF15C0E5FF16C0E5FF9E
:1000800017C0E5FF18C0E5FF19C0E5FF1AC0E5FF7E
:100090001BC0E5FF1CC0E5FF1DC0E5FF1EC0E5FF5E
:1000A0001FC0E5FF20C0E5FF21C0E5FF22C0E5FF3E
:1000B00023C0E5FF020EDBCF00F0030EDBCF01F023
:1000C000040EDBCF02F00250086E0150076E0050A4
:1000D000066EE56A100EE56E0850E56E0750E56E97
:1000E0000650E56E800EE56E050EE56E200EE56E9F
:1000F00032EC29F0080EE12628C503F029C504F0EA
:100100002AC505F02BC506F003C007F004C008F0AF
:1001100005C009F006C00AF0D8800AAED8900AE3FC
:100120000A1E091E081E076C05E1082A03E1092AB8
:10013000D8B40A2A20C50BF021C50CF0E86A0501E5
:1001400021BFFF0E0D6E0E6ED8902431106E23313C
:100150000F6ED89010320F322551E840E840C00BA6
:1001600010122541E8403F0BE8BAC009116E126A2F
:1001700011BE12680F500B5C0F6E10500C58106EB1
:1001800011500D58116E12500E58126ED89012AEBA
:10019000D880D8A04ED01250800F800F08E1000EFA
:1001A000115C05E1000E105C02E1010E0F5CD8B09D
:1001B00040D00A340A30166E0930156E0830146EBD
:1001C0000730136E2EC517F02FC518F0E86A050129
:1001D0002FBFFF0E196E800FF36E1650800FF35C69
:1001E00008E11550195C05E11450185C02E1135048
:1001F000175C1FE30C50156E15260D34166ED89043
:10020000153616360B44E844FC0B146E0B50E844CC
:10021000E844030B15120501226B1450236F15508F
:10022000246F1650256F286B296B2A6B2B6BA5EF5B
:1002300004F0D89009300C6E08300B6ED8900C3258
:100240000B32D8900C320B320A50E838E844E00BFD
:100250000C120A38E8441F0BE8B8E0090E6A08508F
:10026000076E0950086ED89008320732D8900832CD
:1002700007320A50E840E840C00B08120A40E84044
:100280003F0BE86A0CBEFF0E096E0A6EE86A08BEF4
:10029000FF0E0D6EE56E0D50E56E0850E56E0750D1
:1002A000E56E0A50E56E0950E56E0C50E56E0B5098
:1002B000E56EF1EC1DF0076EF3CF08F0F4CF09F016
:1002C000E9CF0AF0080EE1262EC50BF02FC50CF081
:1002D000E86A05012FBFFF0E0D6E0E6EE56E0D5024
:1002E000E56E0C50E56E0B50E56E0A50E56E095058
:1002F000E56E0850E56E0750E56ED6EC20F0076E0F
:10030000F3CF08F0080EE12626C509F027C50AF04C
:10031000E86A050127BFFF0E136E0A50176E1726F5
:100320001334186ED890173618360944E844FC0B7D
:10033000166E0950E844E844030B1712156AD8807A
:1003400006AED890D8B062D107C009F008C00AF054
:10035000E86A08BEFF0E136E800FF36E1250800F16
:10036000F35C08E11150135C05E110500A5C02E1F6
:100370000F50095CD8B022D10650800FF36E185090
:10038000800FF35C08E11750055C05E11650045C32
:1003900002E11550035CD8B0EAD02CC509F02DC598
:1003A0000AF0E86A05012DBFFF0E136E146E0350AC
:1003B000092604500A22055013220650142209501F
:1003C0000501286F0A50296F13502A6F14502B6FA4
:1003D0002EC509F02FC50AF02CC513F02DC514F059
:1003E0000A50800FF36E1450800FF35C02E113503B
:1003F000095CD8B0A0D028C519F029C51AF02AC5C3
:100400001BF02BC51CF0D8901B301E6E1A301D6ED1
:10041000D8901E321D32D8901E321D321C50E83842
:10042000E844E00B1E121C38E8441F0BE8B8E00952
:10043000206AD8901B30206E1A301F6ED890203260
:100440001F321C50E840E840C00B20121C40E8401E
:100450003F0BE86A1EBEFF0E216E226EE86A20BEC8
:10046000FF0E236EE56E2350E56E2050E56E1F50A3
:10047000E56E2250E56E2150E56E1E50E56E1D5072
:10048000E56EF1EC1DF01D6EF3CF1EF0F4CF1FF002
:10049000E9CF20F0080EE12609C021F00AC022F0C1
:1004A000E86A0ABEFF0E236EE56E2350E56E225009
:1004B000E56E2150E56E2050E56E1F50E56E1E5032
:1004C000E56E1D50E56ED6EC20F01D6EF3CF1EF0EC
:1004D000080EE126E86A1EBEFF0E1F6E206E125047
:1004E000800FF36E2050800FF35C08E11F50115C09
:1004F00005E11E50105C02E11D500F5C1CE209502A
:10050000135C096E0A5014580A6EE86A0ABEFF0EA0
:10051000136E146E0950195E0A501A5A13501B5A62
:1005200014501C5A19500501286F1A50296F1B507E
:100530002A6F1C502B6F1850800FF36E05012B5142
:10054000800FF35C08E12A51175C05E12951165C24
:1005500002E12851155CD8B0D1D115500501286FA2
:100560001650296F17502A6F18502B6FC7D118508B
:10057000800FF36E0650800FF35C08E10550175CA6
:1005800005E10450165C02E10350155CD8B0B6D109
:100590000B50035C096E0C5004580A6E0D50055840
:1005A000136E0E500658146E09500501286F0A503C
:1005B000296F13502A6F14502B6FA0D12CC509F04E
:1005C0002DC50AF0E86A05012DBFFF0E136E146EEB
:1005D0000B5009260C500A220D5013220E501422E3
:1005E0000950035C096E0A5004580A6E13500558EE
:1005F000136E14500658146E09500501286F0A50E6
:10060000296F13502A6F14502B6F78D1081E076C76
:10061000D8B4082AE86A08BEFF0E096E0A6E1250A6
:10062000800FF36E0A50800FF35C08E10950115CF3
:1006300005E10850105C02E107500F5CD8B03BD1D7
:10064000181C0A6E171C096E161C086E151C076E06
:10065000072A04E1082A02E1094A0A2A0A50800FFF
:10066000F36E0650800FF35C08E10550095C05E16C
:100670000450085C02E10350075CD8B0F5D02CC5EB
:1006800013F02DC514F0E86A05012DBFFF0E156E9D
:10069000166E1350035C136E14500458146E1550EC
:1006A0000558156E16500658166E13500501286F22
:1006B0001450296F15502A6F16502B6F2EC513F04A
:1006C0002FC514F02CC515F02DC516F01450800F51
:1006D000F36E1650800FF35C02E11550135CD8B036
:1006E000A7D028C517F029C518F02AC519F02BC5C1
:1006F0001AF0D89019301C6E18301B6ED8901C322E
:100700001B32D8901C321B321A50E838E844E00BF8
:100710001C121A38E8441F0B1C1E1B6CD8B41C2A70
:10072000D89019301E6E18301D6ED8901E321D32B2
:100730001A50E840E840C00B1E121A40E8403F0B38
:100740001E1E1D6CD8B41E2AE86A1CBEFF0E1F6E4A
:10075000206EE86A1EBEFF0E216EE56E2150E56E2A
:100760001E50E56E1D50E56E2050E56E1F50E56E83
:100770001C50E56E1B50E56EF1EC1DF01B6EF3CFC7
:100780001CF0F4CF1DF0E9CF1EF0080EE12613C0D7
:100790001FF014C020F0E86A14BEFF0E216EE56E53
:1007A0002150E56E2050E56E1F50E56E1E50E56E3F
:1007B0001D50E56E1C50E56E1B50E56ED6EC20F02A
:1007C0001B6EF3CF1CF0080EE1261C1E1B6CD8B468
:1007D0001C2AE86A1CBEFF0E1D6E800FF36E1250BD
:1007E000800FF35C08E111501D5C05E110501C5CAA
:1007F00002E10F501B5C1CE21350155C136E145089
:100800001658146EE86A14BEFF0E0F6E106E135069
:100810001726145018220F50192210501A22175060
:100820000501286F1850296F19502A6F1A502B6F25
:1008300005012B51800FF36E0A50800FF35C08E125
:1008400009502A5D05E10850295D02E10750285D45
:10085000D8B054D007500501286F0850296F0950AF
:100860002A6F0A502B6F4AD00650800FF36E0A5041
:10087000800FF35C08E10950055C05E10850045C59
:1008800002E10750035CD8B039D00B500324076E47
:100890000C500420086E0D500520096E0E500620E5
:1008A0000A6E07500501286F0850296F09502A6FFA
:1008B0000A502B6F23D02CC507F02DC508F0E86A2D
:1008C00005012DBFFF0E096E0A6E07500B2608505A
:1008D0000C2209500D220A500E220B5003260C50F8
:1008E00004220D5005220E50062203500501286FE8
:1008F0000450296F05502A6F06502B6FD8900501C0
:100900002A31046E2931036ED890043203322B5100
:10091000E840E840C00B04122B41E8403F0BE8BA26
:10092000C009056E066A05BE0668225103262351DA
:10093000042224510522255106220350226F04501F
:10094000236F0550246F0650256FE56A100EE56E83
:10095000800EE56E050EE56E200EE56E0250E56E2A
:100960000150E56E0050E56E32EC29F0080EE126EC
:10097000E4CF23F0E4CF22F0E4CF21F0E4CF20F065
:10098000E4CF1FF0E4CF1EF0E4CF1DF0E4CF1CF065
:10099000E4CF1BF0E4CF1AF0E4CF19F0E4CF18F065
:1009A000E4CF17F0E4CF16F0E4CF15F0E4CF14F065
:1009B000E4CF13F0E4CF12F0E4CF11F0E4CF10F065
:1009C000E4CF0FF0E4CF0EF0E4CF0DF0E4CF0CF065
:1009D000E4CF0BF0E4CF0AF0E4CF09F0E4CF08F065
:1009E000E4CF07F0E4CF06F0E4CF05F0E4CF04F065
:1009F000E4CF03F0E4CF02F0E4CF01F0E4CF00F065
:100A0000E4CFD9FF1200D9CFE5FFE1CFD9FF00C075
:100A1000E5FF01C0E5FF02C0E5FF03C0E5FF04C03C
:100A2000E5FF05C0E5FF06C0E5FF07C0E5FF08C01C
:100A3000E5FF09C0E5FF0AC0E5FF0BC0E5FF0CC0FC
:100A4000E5FF0DC0E5FF0EC0E5FF0FC0E5FF10C0DC
:100A5000E5FF11C0E5FF12C0E5FF13C0E5FF14C0BC
:100A6000E5FF15C0E5FF16C0E5FF17C0E5FF18C09C
:100A7000E5FF19C0E5FF1AC0E5FF1BC0E5FF1CC07C
:100A8000E5FF1DC0E5FF1EC0E5FF020EDBCF00F055
:100A9000030EDBCF01F0040EDBCF02F0050EDBCF3F
:100AA00003F0060EDBCF04F0070EDBCF05F0080ED7
:100AB000DBCF06F0090EDBCF07F00A0EDBCF08F024
:100AC000096A0A6A02C00DF00D50800A0DE1025059
:100AD00005019F6F01509E6F00509D6F050E016EC6
:100AE0009D0E006E800E026E03C0E9FF04C0F3FF8E
:100AF0000550D8EC38F00B6E0B50D8B4B9EF08F0B5
:100B00000B50250A02E0A0EF08F00C6A0D6A0E6A8D
:100B10000F6A106A0A0E116E126A136A146A200EA6
:100B2000156E1668176A2B0E186E032A02E3044A24
:100B3000052A03C0E9FF04C0F3FF0550D8EC38F0E4
:100B4000196E250A13E11950E56E0250E56E015049
:100B5000E56E0050E56E11EC27F0040EE126094A1F
:100B60000A2A032A02E3044A052ABED71950300A8A
:100B700006E1300E156E032A02E3044A052A03C07B
:100B8000E9FF04C0F3FF0550D8EC38F02D0A06E168
:100B9000010E146E032A02E3044A052A03C0E9FF8A
:100BA00004C0F3FF0550D8EC38F0200A08E1010E2C
:100BB000176E200E186E032A02E3044A052A03C0AA
:100BC000E9FF04C0F3FF0550D8EC38F02B0A06E12A
:100BD000010E176E032A02E3044A052A03C0E9FF47
:100BE00004C0F3FF0550D8EC38F0196E310E195CD3
:100BF0002BE33A0E195C28E203C019F004C01AF086
:100C000005C01BF019C0E9FF1AC0F3FF1B50D8EC58
:100C100038F01C6E300E1C5C11E33A0E1C5C0EE2C8
:100C200013500A0DF3CF1DF01C501D26D00E1D24AD
:100C3000136E192A02E31A4A1B2AE4D719C003F0DB
:100C40001AC004F01BC005F003C0E9FF04C0F3FFA5
:100C50000550D8EC38F02E0A2DE1032A02E3044AAD
:100C6000052A166A03C019F004C01AF005C01BF06B
:100C700019C0E9FF1AC0F3FF1B50D8EC38F01C6E06
:100C8000300E1C5C11E33A0E1C5C0EE216500A0D8D
:100C9000F3CF1DF01C501D26D00E1D24166E192AF0
:100CA00002E31A4A1B2AE4D719C003F01AC004F061
:100CB0001BC005F003C0E9FF04C0F3FF0550D8ECEA
:100CC00038F0196E6C0A07E1010E0C6E032A02E37C
:100CD000044A052A09D01950680A06E1010E0E6E71
:100CE000032A02E3044A052A03C0E9FF04C0F3FF14
:100CF0000550D8EC38F0750A06E1010E106E032A93
:100D000002E3044A052A03C0E9FF04C0F3FF0550CB
:100D1000D8EC38F0196E730A05E1010E0D6E200E45
:100D2000156E3FD01950780A03E1100E116E39D0BC
:100D30001950580A05E1100E116E010E126E31D0D5
:100D40001950630A02E1116A2CD019506F0A03E1AD
:100D5000080E116E26D01950660A03E1010E0F6EBF
:100D600020D01950640A1DE01950690A1AE0105089
:100D700005E0FF0E03260422052213D01950E56E6C
:100D80000250E56E0150E56E0050E56E11EC27F063
:100D9000040EE126094A0A2A032A02E3044A052A24
:100DA000A3D60D5021E00650030F0D6E000E072054
:100DB000196E000E08201A6E0DC006F019C007F05B
:100DC0001AC008F0FD0E0D26FF0E19221A220DC0C2
:100DD000E9FF19C0F3FF1A508AEC37F00D6EF3CF1C
:100DE00019F0F4CF1AF0FDD00F500DE0000E1A6E7E
:100DF000110E196EFA0E0D6E040E0626000E072255
:100E000008221668EED016680C5023E00650040F36
:100E10000C6E000E07200F6E000E08201B6E0CC01B
:100E200006F00FC007F01BC008F0FC0E0C26FF0EEA
:100E30000F221B220CC0E9FF0FC0F3FF1B5010EC68
:100E400037F00C6EF3CF0FF0F4CF1BF0E9CF1CF0AE
:100E500067D00E502FE00650020F0E6E000E0720D6
:100E60001D6E000E08201E6E0EC006F01DC007F09D
:100E70001EC008F0FE0E0E26FF0E1D221E220EC002
:100E8000E9FF1DC0F3FF1E5062EC38F00E6E0EC07D
:100E90000CF00F6A1B6A1C6A11500A0A03E1105019
:100EA000D8B43ED00C500E6E0EC00CF00F6A1B6A08
:100EB0001C6A36D00650020F0E6E000E07201D6E03
:100EC000000E08201E6E0EC006F01DC007F01EC0EA
:100ED00008F0FE0E0E26FF0E1D221E220EC0E9FF98
:100EE0001DC0F3FF1E5062EC38F00E6EF3CF1DF004
:100EF0000EC00CF01DC00FF0E86A1DBEFF0E1B6E89
:100F00001C6E11500A0A02E110500AE00C500E6EDD
:100F10000F501D6E0EC00CF01DC00FF01B6A1C6A36
:100F2000050E196E5B0E0D6E800E1A6E1150D8B440
:100F300040D0105013E01150E56E050EE56E5B0ECB
:100F4000E56E1C50E56E1B50E56E0F50E56E0C50C3
:100F5000E56EFAEC1FF0070EE12612D01150E56E97
:100F6000050EE56E5B0EE56E1C50E56E1B50E56EE2
:100F70000F50E56E0C50E56E5AEC2EF0070EE12690
:100F800017502FE00DC0E9FF19C0F3FF1A50D8EC3D
:100F900038F02D0A26E0FF0E0D2619221A2218C05D
:100FA000E5FF0DC0E9FF19C0F3FF1A5069EC39F0F5
:100FB00018D00CC0E5FF0DC0E9FF19C0F3FF1A50AF
:100FC00069EC39F00D50010F0C6E000E19200E6EF9
:100FD000000E1A20E56A0CC0E9FF0EC0F3FF69ECB1
:100FE00039F00DC00CF019C00EF01AC00FF013C08C
:100FF00010F0105010E00CC0E9FF0EC0F3FF0F50CE
:10100000D8EC38F0176E175006E00C2A02E30E4AAF
:101010000F2A1006EED710C013F014501EE109C0BD
:101020000CF00AC00EF010C00FF00F5010E0155079
:10103000E56E0250E56E0150E56E0050E56E11EC74
:1010400027F0040EE1260C4A0E2A0F06EED70CC03C
:1010500009F00EC00AF00FC013F016C00CF00DC05E
:101060000DF019C00EF01AC00FF009C010F00AC040
:1010700015F00DC0E9FF0EC0F3FF0F50D8EC38F0AB
:10108000166E1650D8B43ED00CC016F0176A161E55
:10109000171E1650171005E00CC016F00C0616505F
:1010A00031E00DC0E9FF0EC0F3FF0F50D8EC38F06F
:1010B000116E125010E01150E56E1FEC38F0166EF4
:1010C000E652165004E0DF0E1114166E02D011C065
:1010D00016F016C011F01150E56E0250E56E015089
:1010E000E56E0050E56E11EC27F0040EE1260D2AA6
:1010F00002E30E4A0F2A104A152A1350D8B4B9D762
:101100001306B7D710C009F015C00AF014502BE031
:1011100010C00CF015C00DF013C00EF00E501FE003
:10112000200EE56E0250E56E0150E56E0050E56E52
:1011300011EC27F0040EE1260C4A0D2A0E06EED71C
:101140000B50E56E0250E56E0150E56E0050E56E05
:1011500011EC27F0040EE126094A0A2A04D00CC03B
:1011600009F00DC00AF0032A02E3044A052A74EFCD
:1011700005F00AC0F3FF0950E4CF1EF0E4CF1DF0E4
:10118000E4CF1CF0E4CF1BF0E4CF1AF0E4CF19F069
:10119000E4CF18F0E4CF17F0E4CF16F0E4CF15F069
:1011A000E4CF14F0E4CF13F0E4CF12F0E4CF11F069
:1011B000E4CF10F0E4CF0FF0E4CF0EF0E4CF0DF069
:1011C000E4CF0CF0E4CF0BF0E4CF0AF0E4CF09F069
:1011D000E4CF08F0E4CF07F0E4CF06F0E4CF05F069
:1011E000E4CF04F0E4CF03F0E4CF02F0E4CF01F069
:1011F000E4CF00F0E4CFD9FF12003C4E4F20464C24
:101200004F41543E0000D9CFE5FFE1CFD9FF00C0E8
:10121000E5FF01C0E5FF02C0E5FF03C0E5FF04C034
:10122000E5FF05C0E5FF06C0E5FF07C0E5FF08C014
:10123000E5FF09C0E5FF0AC0E5FF0BC0E5FF0CC0F4
:10124000E5FF0DC0E5FF020EDBCF00F0030EDBCFA4
:1012500001F0040EDBCF02F00050090F066E000E05
:101260000120076E000E0220086E0B6E07500A6EFA
:101270000650096EE56A0D0EE56E0B50E56E0A50DC
:10128000E56E0950E56E800EE56E050EE56E400ECA
:10129000E56E32EC29F0080EE12600C009F001C02D
:1012A0000AF002C00BF0E56AE56E0B50E56E0A50DD
:1012B000E56E0950E56E800EE56E040EE56E810E5A
:1012C000E56E32EC29F0080EE12681C403F00350EC
:1012D000010A04E00350030A01E013D1050148515B
:1012E0000501555D0501A86F0501495105015659D4
:1012F0000501A96F050155510501486F05015651BA
:101300000501496F0501575105014A6F0501585103
:1013100005014B6F0501A851A911D8A47ED0ADECF1
:1013200035F0036EF3CF04F0F4CF05F0E9CF09F008
:1013300005014D510A6E4E510B6E4F510C6E5051BE
:101340000D6E0A50035E0B50045A0C50055A0D5096
:10135000095A03500501676F0450686F0550696FA3
:101360007F0E09146A6F05014CB125D0050168355F
:101370006A31046E6931036E043404320332000EA4
:1013800004BEFF0E096E056E86C40AF00B6A0C6A75
:101390000D6A0D50800FF36E0950800FF35C08E169
:1013A00005500C5C05E104500B5C02E103500A5C43
:1013B00002E205014C8105014CB149D044C503F05E
:1013C00045C504F046C505F047C509F005016A5159
:1013D000800FF36E0950800FF35C08E10550695DE2
:1013E00005E10450685D02E10350675D08E203C057
:1013F00067F504C068F505C069F509C06AF505011F
:1014000059A304D0010E036E046A02D00368046875
:1014100003C0A8F504C0A9F51AD005014C9151C527
:1014200067F552C568F553C569F554C56AF50501F8
:1014300067510501446F050168510501456F0501BC
:1014400069510501466F05016A510501476F0501A4
:101450006A51800F800F08E1000E695D05E1000E02
:10146000685D02E1010E675D06E205016B6B6C6B66
:101470006D6B6E6B46D005016751036E6851046E4B
:101480006951056E6A51E56E0550E56E0450E56ED2
:101490000350E56E010EE56E000EE56AE56AE56A49
:1014A00067EC25F0036EF3CF04F0F4CF05F0E9CF3D
:1014B00009F0080EE126A8C50AF0A9C50BF0E86AF4
:1014C0000501A9BFFF0E0C6E0D6E0950E56E0550AB
:1014D000E56E0450E56E0350E56E0D50E56E0C5060
:1014E000E56E0B50E56E0A50E56EF1EC1DF005015E
:1014F0006B6FF3CF6CF5F4CF6DF5E9CF6EF5080E99
:10150000E126020E0401815DD8A045D1050159A153
:1015100042D10050230F036E000E0120046E000E16
:101520000220E56E0450E56E0350E56E0EEC00F00F
:10153000030EE1260050230F036E000E0120046EFF
:10154000000E0220056E020E0326000E0422052264
:1015500003C0E9FF04C0F3FF055010EC37F0F3CFF0
:1015600004F0F4CF05F0E9CF09F00450036E055004
:10157000046ED89004320332D890043203320950FA
:10158000E840E840C00B04120940E8403F0BE8BACD
:10159000C009056E096A05BE096805015551035C5D
:1015A00005016F6F0501565104580501706F050163
:1015B000575105580501716F05015851095805012A
:1015C000726FD88072AFD89022E30401831D046E3D
:1015D000821D036E034A042AE86A04BEFF0E056EEC
:1015E000096E05017251800FF36E0950800FF35C94
:1015F00008E10550715D05E10450705D02E10350A2
:101600006F5D05E305016F6B706B716B726B0501AC
:101610007251800F800F08E1000E715D05E1000E30
:10162000705D02E1010E6F5D1EE382C403F083C4AE
:1016300004F0E86A040183BFFF0E056E800FF36EAD
:1016400005017251800FF35C08E17151055C05E101
:101650007051045C02E16F51035C05E305016F6B9F
:10166000706B716B726B0401875109E0E86CD89064
:1016700005016F37703771377237010FF9E30501D4
:101680007251800F800F08E1000E715D05E1800E40
:10169000705D02E1000E6F5D07E305016F697F0E6B
:1016A000706F716B726B14D005017251800F810FD6
:1016B00008E1FF0E715D05E1800E705D02E1000E34
:1016C0006F5D06E205016F6B800E706F7169726964
:1016D0000050330F036E000E0120046E000E022036
:1016E000056E05016F51096E7051E56E0950E56E8A
:1016F0000550E56E0450E56E0350E56E89EC0CF084
:10170000050EE12604018151030A23E10050330F45
:10171000036E000E0120046E000E0220056E0B0EFB
:101720000326000E0422052203C0E9FF04C0F3FFD4
:10173000055010EC37F0F3CF04F0F4CF05F004506F
:10174000036E0550046E03500501406F0450416F55
:1017500022D00050330F036E000E0120046E000EE5
:101760000220056E0B0E0326000E0422052203C084
:10177000E9FF04C0F3FF055010EC37F0F3CF04F09D
:10178000F4CF05F00450036E0550046E03500501BC
:10179000426F0450436F81C403F00350010A04E018
:1017A0000350030A01E07DD040C503F041C504F0B9
:1017B000E86A050141BFFF0E056E096E05016B5118
:1017C000035C05016F6F05016C5104580501706FD2
:1017D00005016D5105580501716F05016E510958DC
:1017E0000501726F800F800F08E1000E715D05E149
:1017F000800E705D02E1000E6F5D07E305016F6909
:101800007F0E706F716B726B14D005017251800F77
:10181000810F08E1FF0E715D05E1800E705D02E150
:10182000000E6F5D06E205016F6B800E706F7169CF
:1018300072690050440F036E000E0120046E000E0A
:101840000220056E05016F51096E7051E56E095059
:10185000E56E0550E56E0450E56E0350E56E89ECCB
:101860000CF0050EE126440E0026000E0122022295
:101870000B0E0026000E0122022200C0E9FF01C06B
:10188000F3FF025010EC37F0F3CF01F0F4CF02F089
:101890000150006E0250016E00500501426F015070
:1018A000436F0850086EE56A0D0EE56E800EE56E1A
:1018B000050EE56E400EE56E0850E56E0750E56ECC
:1018C0000650E56E32EC29F0080EE126E4CF0DF06B
:1018D000E4CF0CF0E4CF0BF0E4CF0AF0E4CF09F052
:1018E000E4CF08F0E4CF07F0E4CF06F0E4CF05F052
:1018F000E4CF04F0E4CF03F0E4CF02F0E4CF01F052
:10190000E4CF00F0E4CFD9FF120025642025640A5B
:101910000000D9CFE5FFE1CFD9FF00C0E5FF01C04E
:10192000E5FF02C0E5FF03C0E5FF04C0E5FF05C019
:10193000E5FF06C0E5FF07C0E5FF08C0E5FF09C0F9
:10194000E5FF0AC0E5FF0BC0E5FF0CC0E5FF0DC0D9
:10195000E5FF0EC0E5FF020EDBCF00F0030EDBCF8C
:1019600001F0040EDBCF02F0050EDBCF03F0060E14
:10197000DBCF04F002500A6E0150096E0050086E71
:10198000E56A110EE56E0A50E56E0950E56E0850E5
:10199000E56E800EE56E0F0EE56E230EE56E32EC01
:1019A00029F0080EE12632CF05F033CF06F0E86AC1
:1019B0000F0133BFFF0E076E05017A6F0650796F76
:1019C0000550786F776B03C005F004C006F0E86A35
:1019D00004BEFF0E076E086E23CF09F0E56AE56AC4
:1019E000E56A0950E56E0850E56E0750E56E065051
:1019F000E56E0550E56EF1EC1DF00501736FF3CF58
:101A000074F5F4CF75F5E9CF76F5080EE1260F01F0
:101A10002451D8B4E3D00450800F800F02E1010EAE
:101A2000035C25E30F012951800F7C0F08E1000EB4
:101A3000285D05E1000E275D02E1000E265D17E23C
:101A40000F013151800FF36E05017A51800FF35C65
:101A50000DE179510F01305D09E1050178510F0168
:101A60002F5D04E1050177510F012E5D33E3D8802E
:101A700004AED890D8A043D00F012951800F840F15
:101A800008E1000E285D05E1000E275D02E1010E70
:101A9000265D35E305017A1D0C6E791D0B6E781DF0
:101AA0000A6E771D096E092A04E10A2A02E10B4A2F
:101AB0000C2A0C50800FF36E0F013151800FF35C34
:101AC00008E130510B5C05E12F510A5C02E12E5117
:101AD000095C15E205500F012625096E06502721E5
:101AE0000A6E075028210B6E085029210C6E0950F0
:101AF000266F0A50276F0B50286F0C50296F035028
:101B0000041031E126CF03F027CF04F028CF09F0ED
:101B100029CF0AF0E56AE56AE56A100EE56E0A501B
:101B2000E56E0950E56E0450E56E0350E56ED6ECA7
:101B300020F00B6EF3CF0CF0F4CF0DF0E9CF0EF0E8
:101B4000080EE1260B50035E0C50045A0D50095A42
:101B50000E500A5A03500F01266F0450276F095088
:101B6000286F0A50296F0F0126390F0B036E273992
:101B7000046EF00B041A03262851E838F00B041207
:101B800028390F0B096E29390A6EF00B0A1A09263B
:101B9000F00E0AB60A2624CF0BF0E56AE56AE56A7C
:101BA0000B50E56E0A50E56E0950E56E0450E56E87
:101BB0000350E56EF1EC1DF0036EF3CF04F0F4CFAB
:101BC00009F0E9CF0AF0080EE1260350050173275A
:101BD00004507423095075230A5076230F012551B0
:101BE000D8B465D02A51055C05017B6F0F012B51DC
:101BF000065805017C6F0F012C51075805017D6FB8
:101C00000F012D51085805017E6F800F800F08E1EC
:101C1000010E7D5D05E1000E7C5D02E1000E7B5D45
:101C200006E305017B697C697D6B7E6B13D0050142
:101C30007E51800F810F08E1FF0E7D5D05E1000EF2
:101C40007C5D02E1000E7B5D05E205017B6B7C6B38
:101C50007D697E6905017B517B25036E7C35046EB1
:101C60007D35096E7E350A6E25CF0BF0E56AE56A93
:101C7000E56A0B50E56E0A50E56E0950E56E0450BA
:101C8000E56E0350E56EF1EC1DF0036EF3CF04F04A
:101C9000F4CF09F0E9CF0AF0080EE1260350050160
:101CA000732704507423095075230A507623055076
:101CB0000F012A6F06502B6F07502C6F08502D6FA5
:101CC00005017A51800FF36E05017651800FF35CA8
:101CD0000DE175510501795D09E1050174510501B9
:101CE000785D04E1050173510501775D11E205019D
:101CF00077510F012E6F050178510F012F6F0501EC
:101D000079510F01306F05017A510F01316F3AD0CF
:101D100005017A1D066E791D056E781D046E771D0E
:101D2000036E032A04E1042A02E1054A062A05019A
:101D30007651800FF36E0650800FF35C08E105507A
:101D4000755D05E10450745D02E10350735D0AE2C4
:101D500003500F012E6F04502F6F0550306F065047
:101D6000316F10D0050173510F012E6F05017451B1
:101D70000F012F6F050175510F01306F050176516D
:101D80000F01316FE56A110EE56E800EE56E0F0EE4
:101D9000E56E230EE56E0250E56E0150E56E0050D3
:101DA000E56E32EC29F0080EE126E4CF0EF0E4CF28
:101DB0000DF0E4CF0CF0E4CF0BF0E4CF0AF0E4CF69
:101DC00009F0E4CF08F0E4CF07F0E4CF06F0E4CF69
:101DD00005F0E4CF04F0E4CF03F0E4CF02F0E4CF69
:101DE00001F0E4CF00F0E4CFD9FF120000C0E5FF1E
:101DF00001C0E5FF02C0E5FF03C0E5FF04C0E5FF49
:101E000005C0E5FF06C0E5FF07C0E5FF08C0E5FF28
:101E100009C0E5FF0AC0E5FF0BC0E5FF0CC0E5FF08
:101E2000006A016A026A040E025CD8B0EBD1100E9F
:101E3000015CD8B0E7D1012A0401222B100E225DEB
:101E4000D8B0226B2239E8441F0B036E046AA40E3B
:101E50000326050E042203C0E9FF04C0EAFFEFCF0A
:101E600003F022C404F0070E0416010E056E000EE6
:101E7000066E045006E0E86CD89005360636010F71
:101E8000FCE3076A035005160750061605500610B6
:101E9000D880E866D890056A05360550D8A4C3D71F
:101EA00004012251020DF450046EF3CF03F0E00E52
:101EB0000324056E000E0420066E05C0E9FF06C06F
:101EC000EAFFEECF05F0EFCF06F01FC407F007A042
:101ED0009DD0750E0324076E030E0420086E07C004
:101EE000E9FF08C0EAFFEECF07F0EFCF08F0065099
:101EF000800FF36E0850800FF35C02E10750055C21
:101F000003E2056A066A60D0950E0326030E0422DA
:101F100003C0E9FF04C0EAFFEECF03F0EFCF04F007
:101F20000450800FF36E0650800FF35C02E1055001
:101F3000035C04E205683F0E066E46D00750055C60
:101F4000096E085006580A6EE86A0ABEFF0E0B6E4C
:101F5000E56E0B50E56E0A50E56E0950E56EE56AD8
:101F6000E56A400EE56E000EE56AF1EC1DF0096EC3
:101F7000F3CF0AF0F4CF0BF0E9CF0CF0080EE12616
:101F80000750035C076E08500458086EE86A08BEE4
:101F9000FF0E036EE56E0350E56E0850E56E0750C8
:101FA000E56E0C50E56E0B50E56E0A50E56E09507B
:101FB000E56E67EC25F0036EF3CF04F0080EE12622
:101FC0000350056E0450066E04011E51800FF36E1F
:101FD0000650800FF35C02E105501D5D03E3056AC6
:101FE000066A14D004011D51FF08036E3F0E1E55F2
:101FF000046E0650800FF36E0450800FF35C02E114
:102000000350055C03E305683F0E066E0401225190
:10201000020DF450046EF3CF03F0550E0326030EA9
:10202000042203C0E9FF04C0EAFFEECF03F0EFCFC4
:1020300004F00350055C036E04500658046ED8800B
:1020400004AED89004E3041E036CD8B4042A022A18
:1020500004011E51800FF36E0450800FF35C02E107
:1020600003501D5DD8B0DFD604012251020DF4509B
:10207000046EF3CF03F0550E0326030E042203C0B3
:10208000E9FF04C0EAFF05C0EEFF06C0EFFF1FC472
:1020900003F003A459D02251020DF450046EF3CF83
:1020A00003F0B50E0324076E030E0420086E07C06C
:1020B000E9FF08C0EAFFEECF09F0EFCF0AF00950C0
:1020C0000A10D8B441D05C0E0326040E042203C0CB
:1020D000E9FF04C0EAFFEECF03F0EFCF04F00350B6
:1020E000055C036E04500658046E03101CE0045097
:1020F000800F800F02E1010E035C0B6A0B360A5061
:10210000800F800F02E1010E095C096A09360B504D
:10211000091809E107C0E9FF08C0EAFF03C0EEFFA4
:1021200004C0EFFF80D604012251020DF450046E6A
:10213000F3CF03F0B50E0326030E042203C0E9FF1C
:1021400004C0EAFFEE6AEF6A1FC403F003A246D0A0
:1021500000500EE100C003F0002A046A230E03269B
:10216000040E042203C0E9FF04C0EAFF420EEF6E32
:1021700000C003F00028046E076A230E0326040E35
:10218000072204012251086E640E082603C0E9FFED
:1021900007C0EAFF08C0EFFF04C003F0042A076A83
:1021A000230E0326040E07220650086E03C0E9FF23
:1021B00007C0EAFF08C0EFFF04C003F00428006E68
:1021C000046A230E0326040E04220550076E03C082
:1021D000E9FF04C0EAFF07C0EFFF25D622C403F0E1
:1021E0000650E56E0550E56EE56A0350E56E000E9B
:1021F000E56E520EE56E580EE56E44EC33F0070EB8
:10220000E12611D602C001F000501EE01FC402F00A
:1022100002A21AD000C002F0002A036A230E02268E
:10222000040E032202C0E9FF03C0EAFF0A0EEF6EAC
:102230000050E56E800EE56E040EE56E230EE56E31
:10224000B4EC29F0040EE1260150E4CF0CF0E4CF09
:102250000BF0E4CF0AF0E4CF09F0E4CF08F0E4CFCC
:1022600007F0E4CF06F0E4CF05F0E4CF04F0E4CFCC
:1022700003F0E4CF02F0E4CF01F0E4CF00F012006D
:1022800000C0E5FF01C0E5FF02C0E5FF03C0E5FFB8
:1022900004C0E5FF05C0E5FF06C0E5FF07C0E5FF98
:1022A000C2A204D00401205170EF13F004012151A7
:1022B000D8B42DD104012051020DF450016EF3CF9A
:1022C00000F0E00E0026000E012200C0E9FF01C070
:1022D000EAFFEECF00F0EFCF01F0000E2025026EF6
:1022E000036A050E032202C0E9FF03C0EAFFEFCF35
:1022F00002F00250FF0A01E164D002380F0B036EB6
:10230000920E0324046E056A0F0E0522066A920ED1
:1023100003260F0E062203C0E9FF06C0EAFFEFCF37
:1023200003F00250066E070E0616010E076E0650E9
:102330000DE006E6E86CD8900736010FFDE306D005
:10234000D89007BED8800732010FFBE3071C066E4A
:102350000350061604C0E9FF05C0EAFF06C0EFFF00
:1023600002380F0B036E890E0324046E056A0F0EEC
:102370000522066A890E03260F0E062203C0E9FF16
:1023800006C0EAFFEFCF03F0070E0216010E066E3D
:1023900002500DE006E6E86CD8900636010FFDE32A
:1023A00006D0D89006BED8800632010FFBE3061C8B
:1023B000026E0350021604C0E9FF05C0EAFF02C026
:1023C000EFFF04012051020DF450036EF3CF02F031
:1023D000E00E0226000E032201340130056E0030AB
:1023E000046E0534053204320534053204320450DB
:1023F000005C046E05500158056EC3CF00F0016A01
:102400000050042601500522C4CF00F0016A00509C
:10241000076E066A065004260750052202C0E9FF2F
:1024200003C0EAFF04C0EEFF05C0EFFF04011C512A
:10243000010A01E06AD004012051020DF450016E3E
:10244000F3CF00F0E00E0024026E000E0120036EB8
:1024500002C0E9FF03C0EAFFEECF02F0EFCF03F0C6
:10246000750E0026030E012200C0E9FF01C0EAFF3D
:10247000EECF04F0EFCF05F09C0E0426D8A00506A1
:102480000350800FF36E0550800FF35C02E104509F
:10249000025C0EE20250640F046E000E0320056E13
:1024A00000C0E9FF01C0EAFF04C0EEFF05C0EFFF76
:1024B00004012051020DF450016EF3CF00F0950E8F
:1024C0000026030E012200C0E9FF01C0EAFFEECFA3
:1024D00004F0EFCF05F0640E0426D8B0052A0550AD
:1024E000800FF36E0350800FF35C02E10250045C36
:1024F0000CE29C0E0226D8A0030600C0E9FF01C032
:10250000EAFF02C0EEFF03C0EFFF0401216B0401EC
:10251000202B100E205DD8B0206B2039E8441F0B13
:10252000006E016AA40E0026050E012200C0E9FF1C
:1025300001C0EAFFEFCF00F020C401F0070E011642
:10254000010E026E000E036E015006E0E86CD8909A
:1025500002360336010FFCE3046A005002160450F1
:10256000031602500310D880E866D890026A02363B
:102570000250D8A4B3D0100E04012025006E016AC9
:10258000050E012200C0E9FF01C0EAFFEFCF00F015
:102590000044E844FC0B016E0128C26E000E2025A9
:1025A000006E016A050E012200C0E9FF01C0EAFFCA
:1025B000EFCF00F00050FF0A01E18CD000380F0B84
:1025C000016E920E0124026E036A0F0E0322046A4A
:1025D000920E01260F0E042201C0E9FF04C0EAFF9B
:1025E000EFCF01F00050046E070E0416010E056EC9
:1025F00004500DE006E6E86CD8900536010FFDE3C7
:1026000006D0D89005BED8800532010FFBE30150FB
:10261000051202C0E9FF03C0EAFF05C0EFFF380E54
:10262000016E0F0E026E00380F0B036E046A03502A
:10263000012604500222380E056E0F0E066E05505C
:1026400003260650042203C0E9FF04C0EAFFEFCFCF
:1026500003F0070E0016010E046E00500DE006E6B2
:10266000E86CD8900436010FFDE306D0D89004BE84
:10267000D8800432010FFBE30350041201C0E9FFCC
:1026800002C0EAFF04C0EFFF0F0145830000000015
:1026900045930F01449308C0E5FFF2CF08F0F29E86
:1026A0004481000000000000000000000000000065
:1026B000000000000000000000000000000000001A
:1026C00000000000000000000000449108BEF28EEF
:1026D000E4CF08F0C282010E0401216F04012051F1
:1026E000E4CF07F0E4CF06F0E4CF05F0E4CF04F048
:1026F000E4CF03F0E4CF02F0E4CF01F0E4CF00F048
:102700001200D9CFE5FFE1CFD9FF00C0E5FF01C03E
:10271000E5FF02C0E5FF03C0E5FF04C0E5FF05C01B
:10272000E5FF06C0E5FF07C0E5FF08C0E5FF09C0FB
:10273000E5FF0AC0E5FF020EDBCF00F0030EDBCFA2
:1027400001F0040EDBCF02F0036A046A01EC36F0FC
:10275000056EFE0A01E075D081EC31F001EC36F037
:10276000066E030E065CD8A05AD0060E065CD8B0E2
:1027700056D0FD0E0624076EFA6AFB6A0734FA3655
:10278000E834FA36FC0B960FE56E270EFA22000E9F
:10279000FB22E450F96ED1EF13F0E3EF13F0FCEFFE
:1027A00013F00050090F076E000E0120086E000E96
:1027B000022007C0E9FF08C0F3FF62EC38F0036EA7
:1027C000F3CF04F02CD00050090F076E000E01204B
:1027D000086E000E0220096E020E0726000E082267
:1027E000092207C0E9FF08C0F3FF095062EC38F086
:1027F000036EF3CF04F013D00050070F076E000EE6
:102800000120086E000E022007C0E9FF08C0F3FF98
:10281000D8EC38F0010B076E07C003F0046A0450CF
:10282000E56E0350E56EE56A0650E56E000EE56E56
:10283000190EE56E0A0EE56E44EC33F0070EE12644
:1028400086D1080E055CD8B082D1FA6AFB6A0534DD
:10285000FA36E834FA36FC0B680FE56E280EFA22D9
:10286000000EFB22E450F96E44EF14F05FEF14F019
:1028700071EF14F083EF14F0ABEF14F0D7EF14F016
:10288000F6EF14F053EF15F00050230F036E000E17
:102890000120046E000E0220E56E0450E56E035028
:1028A000E56E86EC17F0030EE126020EE56E00C021
:1028B000E9FF01C0F3FF025069EC39F048D1005044
:1028C000330F036E000E0120046E000E0220E56E31
:1028D0000450E56E0350E56E9CEC1BF0030EE12600
:1028E00036D10050440F036E000E0120046E000E1E
:1028F0000220E56E0450E56E0350E56E9CEC1BF083
:10290000030EE12624D10050090F036E000E0120B2
:10291000046E000E0220056E01EC36F0066A076EAA
:1029200001EC36F0096A06260950072206C0E5FFC9
:1029300007C0F4FF03C0E9FF04C0F3FF055030EC0B
:1029400039F0010EE56E00C0E9FF01C0F3FF02504F
:1029500069EC39F0FCD00050090F036E000E012025
:10296000046E000E0220056E020E0326000E0422E5
:10297000052201EC36F0066A076E01EC36F0096AB2
:1029800006260950072206C0E5FF07C0F4FF03C072
:10299000E9FF04C0F3FF055030EC39F0E56A00C0F0
:1029A000E9FF01C0F3FF025069EC39F0D0D00050CC
:1029B000070F036E000E0120046E000E0220056E4C
:1029C00001EC36F0010BF46E03C0E9FF04C0F3FF25
:1029D0000550D8EC38F0FE0BF410E56E03C0E9FFAB
:1029E00004C0F3FF055069EC39F0B1D001EC36F0CA
:1029F000036E0050160F046E000E0120056E000ECF
:102A00000220066E04500C0F076E000E0520086EA3
:102A1000000E0620096E0350D880E866D8900A6A36
:102A20000A360A50D880E866D8900A6A0A360A50F0
:102A3000010BF46E07C0E9FF08C0F3FF0950D8ECA2
:102A400038F0FE0BF410E56E07C0E9FF08C0F3FF95
:102A5000095069EC39F00350010A01E078D0080E02
:102A60000426000E05220622E56AF46AF66AF76A71
:102A700004C0E9FF05C0F3FF0650C7EC38F0005072
:102A8000230F036E000E0120046E000E0220E56A83
:102A9000E56AE56E0450E56E0350E56E84EC26F0C1
:102AA000050EE12654D001EC36F0036A046E01EC09
:102AB00036F0066A0326065004220050160F056EF3
:102AC000000E0120066E000E0220076E05500C0F4E
:102AD000086E000E0620096E000E07200A6E08C060
:102AE000E9FF09C0F3FFD8EC38F0E880E56E08C0D4
:102AF000E9FF09C0F3FF0A5069EC39F0080E05261A
:102B0000000E0622072203C008F004C009F008C026
:102B1000E5FF09C0F4FFF66AF76A05C0E9FF06C0E1
:102B2000F3FF0750C7EC38F0230E0026000E0122F9
:102B300002220450E56E0350E56E0250E56E01502E
:102B4000E56E0050E56EF2EC2BF0050EE126E4CFC9
:102B50000AF0E4CF09F0E4CF08F0E4CF07F0E4CFC7
:102B600006F0E4CF05F0E4CF04F0E4CF03F0E4CFC7
:102B700002F0E4CF01F0E4CF00F0E4CFD9FF12007F
:102B800000C0E5FF01C0E5FF02C0E5FF03C0E5FFAF
:102B900005C0E5FFA1EC39F0929E899EADEC35F0C1
:102BA000F3CF01F0F4CF02F0E9CF03F0880F040176
:102BB0007C6F130E01207D6F000E02207E6F000ED1
:102BC00003207F6FAFEC28F09280800E006E0F0E16
:102BD000016E0F0E036E380E002603500122800E88
:102BE000026E0F0E036E800E005E0350015A0F0E30
:102BF000056E380E0226055003220F0E056E800E5C
:102C0000025E0550035A02C0E9FF03C0EAFFEFCF9E
:102C100002F0028000C0E9FF01C0EAFF02C0EFFF3E
:102C2000000EE56AE56A86EC2BF0E652E652D7EC38
:102C30002FF08B9A949A200EE56E800EE56E0F0EA3
:102C4000E56E8B0EE56E000EE56AF7EC2DF0050ED5
:102C5000E12689988A9A8A86040189839298939AB0
:102C60009396040192939486820E006E0F0E016E6D
:102C70000F0E036E380E0026035001220F0E036E56
:102C8000800E005E0350015A820E026E0F0E036E1C
:102C90000F0E056E380E0226055003220F0E056E2C
:102CA000800E025E0550035A02C0E9FF03C0EAFF2E
:102CB000EFCF02F0029600C0E9FF01C0EAFF02C0B8
:102CC000EFFF928A800E006E0F0E016E0F0E036EE4
:102CD000380E002603500122800E026E0F0E036E86
:102CE000800E005E0350015A0F0E056E380E02264C
:102CF000055003220F0E056E800E025E0550035A2A
:102D000002C0E9FF03C0EAFFEFCF02F0029A00C061
:102D1000E9FF01C0EAFF02C0EFFF9283800E006E60
:102D2000040E016E0F0E036E380E002603500122B2
:102D30000F0E036E800E005E0350015A800E026E6D
:102D4000040E036E0F0E056E380E02260550032288
:102D50000F0E056E800E025E0550035A02C0E9FF99
:102D600003C0EAFFEFCF02F0029200C0E9FF01C00A
:102D7000EAFF02C0EFFF0C0E0F01546F0F01549BCE
:102D800054990F01556B0301006B020E016F026B2A
:102D90000A0E036F046B100E056F070E066F079186
:102DA0000783800EE56E030EE56E230EE56EDCEC08
:102DB00030F0030EE126800EE56E030EE56E440E44
:102DC000E56EB0EC23F0030EE126800EE56E030EF7
:102DD000E56E330EE56EB0EC23F0030EE126030141
:102DE0001E6B1F6B206B216B22912295096B0A6B66
:102DF0000B6B0C6B116B126B136B146B9486820E46
:102E0000006E0F0E016E0F0E036E380E002603507B
:102E100001220F0E036E800E005E0350015A820ED7
:102E2000026E0F0E036E0F0E056E380E0226055051
:102E300003220F0E056E800E025E0550035A02C07B
:102E4000E9FF03C0EAFFEFCF02F0029600C0E9FFFE
:102E500001C0EAFF02C0EFFF9488820E006E0F0EE1
:102E6000016E0F0E036E380E0026035001220F0E66
:102E7000036E800E005E0350015A820E026E0F0E2A
:102E8000036E0F0E056E380E0226055003220F0E3C
:102E9000056E800E025E0550035A02C0E9FF03C0B2
:102EA000EAFFEFCF02F0029800C0E9FF01C0EAFF9D
:102EB00002C0EFFF8A88939893900C0E0F01576F12
:102EC0009392B96AB984BD6E0F01579B57990F0150
:102ED000586BBD9ABD98BE6A03010783016B026BF4
:102EE000960E036F046B090E066F88EC39F0330EF3
:102EF000CD6E9D809F80E4CF05F0E4CF03F0E4CF5A
:102F000002F0E4CF01F0E4CF00F01200D9CFE5FFEA
:102F1000E1CFD9FF00C0E5FF01C0E5FF02C0E5FF3A
:102F200003C0E5FF04C0E5FF05C0E5FF06C0E5FFFF
:102F300007C0E5FF08C0E5FF09C0E5FF0AC0E5FFDF
:102F4000020EDBCF00F0030EDBCF01F0040EDBCF6F
:102F500002F0036A046A01EC36F0056EFE0A01E035
:102F600094D081EC31F001EC36F0066E06500EE0A4
:102F70000650010A1DE00650020A2CE006500A0A1B
:102F80003BE006500B0A01E142D06DD00050060F25
:102F9000076E000E0120086E000E022007C0E9FF38
:102FA00008C0F3FF62EC38F0036EF3CF04F05BD09F
:102FB00000500C0F076E000E0120086E000E02205C
:102FC00007C0E9FF08C0F3FF62EC38F0036EF3CFEF
:102FD00004F049D000500E0F076E000E0120086E5D
:102FE000000E022007C0E9FF08C0F3FF62EC38F0D2
:102FF000036EF3CF04F037D000C0E9FF01C0F3FF48
:10300000025062EC38F0036EF3CF04F02CD0005085
:10301000020F076E000E0120086E000E0220096EDE
:1030200007C0E9FF08C0F3FF095010EC37F0F3CFF9
:1030300008F0F4CF09F0E9CF0AF00850076E095004
:10304000086ED89008320732D890083207320A50FA
:10305000E840E840C00B08120A40E8403F0B075028
:10306000036E0850046E0450E56E0350E56EE56A89
:103070000650E56E000EE56E620EE56E560EE56ECC
:1030800044EC33F0070EE126BDD0055014E00550A6
:10309000010A30E00550020A01E14BD005500A0A4E
:1030A00001E166D005500B0A01E17BD005500C0A06
:1030B00001E190D0A7D00050060F036E000E012052
:1030C000046E000E0220056E01EC36F0066A076EF3
:1030D00001EC36F0096A06260950072206C0E5FF12
:1030E00007C0F4FF03C0E9FF04C0F3FF055030EC54
:1030F00039F088D000500C0F036E000E0120046ED2
:10310000000E0220056E01EC36F0066A076E01EC37
:1031100036F0096A06260950072206C0E5FF07C0F7
:10312000F4FF03C0E9FF04C0F3FF055030EC39F0B1
:1031300069D000500E0F036E000E0120046E000EC9
:103140000220056E01EC36F0066A076E01EC36F0DF
:10315000096A06260950072206C0E5FF07C0F4FFEA
:1031600003C0E9FF04C0F3FF055030EC39F04AD04A
:1031700001EC36F0036A046E01EC36F0066A0326B1
:10318000065004220450E56E0350E56E0250E56ED1
:103190000150E56E0050E56EB1EC34F0050EE1260D
:1031A00031D001EC36F0036A046E01EC36F0066AA9
:1031B0000326065004220450E56E0350E56E0250CB
:1031C000E56E0150E56E0050E56E84EC26F0050ECC
:1031D000E12618D001EC36F0036A046E01EC36F0FB
:1031E000066A0326065004220450E56E0350E56E7D
:1031F0000250E56E0150E56E0050E56EF2EC2BF0EA
:10320000050EE126E4CF0AF0E4CF09F0E4CF08F0A0
:10321000E4CF07F0E4CF06F0E4CF05F0E4CF04F00C
:10322000E4CF03F0E4CF02F0E4CF01F0E4CF00F00C
:10323000E4CFD9FF1200800EE56E030EE56E950E09
:10324000E56ED3EC31F0030EE126800EE56E030E41
:10325000E56E750EE56ED3EC31F0030EE126800EBF
:10326000E56E030EE56E970EE56ED3EC31F0030EBE
:10327000E126800EE56E030EE56E770EE56ED3EC6B
:1032800031F0030EE126800EE56E030EE56E990E19
:10329000E56ED3EC31F0030EE126800EE56E030EF1
:1032A000E56E790EE56ED3EC31F0030EE126800E6B
:1032B000E56E030EE56E9B0EE56ED3EC31F0030E6A
:1032C000E126800EE56E030EE56E7B0EE56ED3EC17
:1032D00031F0030EE126800EE56E030EE56E9D0EC5
:1032E000E56ED3EC31F0030EE126800EE56E030EA1
:1032F000E56E7D0EE56ED3EC31F0030EE126800E17
:10330000E56E030EE56E9F0EE56ED3EC31F0030E15
:10331000E126800EE56E030EE56E7F0EE56ED3ECC2
:1033200031F0030EE126800EE56E030EE56EA10E70
:10333000E56ED3EC31F0030EE126800EE56E030E50
:10334000E56E810EE56ED3EC31F0030EE126800EC2
:10335000E56E030EE56EA30EE56ED3EC31F0030EC1
:10336000E126800EE56E030EE56E830EE56ED3EC6E
:1033700031F0030EE126800EE56E030EE56EA50E1C
:10338000E56ED3EC31F0030EE126800EE56E030E00
:10339000E56E850EE56ED3EC31F0030EE126800E6E
:1033A000E56E030EE56EA70EE56ED3EC31F0030E6D
:1033B000E126800EE56E030EE56E870EE56ED3EC1A
:1033C00031F0030EE126800EE56E030EE56EA90EC8
:1033D000E56ED3EC31F0030EE126800EE56E030EB0
:1033E000E56E890EE56ED3EC31F0030EE126800E1A
:1033F000E56E030EE56EAB0EE56ED3EC31F0030E19
:10340000E126800EE56E030EE56E8B0EE56ED3ECC5
:1034100031F0030EE126800EE56E030EE56EAD0E73
:10342000E56ED3EC31F0030EE126800EE56E030E5F
:10343000E56E8D0EE56ED3EC31F0030EE126800EC5
:10344000E56E030EE56EAF0EE56ED3EC31F0030EC4
:10345000E126800EE56E030EE56E8F0EE56ED3EC71
:1034600031F0030EE126800EE56E030EE56EB10E1F
:10347000E56ED3EC31F0030EE126800EE56E030E0F
:10348000E56E910EE56ED3EC31F0030EE126800E71
:10349000E56E030EE56EB30EE56ED3EC31F0030E70
:1034A000E126800EE56E030EE56E930EE56ED3EC1D
:1034B00031F0030EE126120000C0E5FF01C0E5FF78
:1034C00002C0E5FF03C0E5FFD7EC24F040EC11F0AB
:1034D00067EC22F0ADEC35F0006EF3CF01F0F4CFE5
:1034E00002F0E9CF03F004017C51005E7D51015AE6
:1034F0007E51025A7F51035A039E3F0E035C08E13E
:10350000FF0E025C05E1FF0E015C02E1FF0E005CB4
:10351000D8B009D1ADEC35F0F3CF01F0F4CF02F023
:10352000E9CF03F0100F04017C6F270E01207D6F9F
:10353000000E02207E6F000E03207F6FF6EC0EF06F
:10354000D7EC24F0C6EC36F004C0E5FFF2CF04F06F
:10355000F29E0301165105014D6F0301175105013C
:103560004E6F0301185105014F6F030119510501F9
:10357000506F03011A510501516F03011B510501E1
:10358000526F03011C510501536F03011D510501C9
:10359000546F03011E510501556F03011F510501B1
:1035A000566F030120510501576F03012151050199
:1035B000586F030122510501596F03011A6B1B6BF0
:1035C0001C6B1D6B04BEF28EE4CF04F0800EE56E22
:1035D000030EE56E000EE56E03EC09F0030EE12626
:1035E0000BC3AAF50CC3ABF50501AB51800F7C0FE3
:1035F00002E1000EAA5D04E30501AA69030EAB6FA8
:103600000501AB51800F840F02E1010EAA5D05E2B6
:10361000010E0501AA6FFC0EAB6F0501AB51800FC7
:10362000800F02E1010EAA5D10E30501AB51800F8E
:10363000F36E03010451800FF35C03E103510501B4
:10364000AA5D03E20501AA6BAB6BD8800501ABAFA5
:10365000D89015E30301041D016E031D006E004A9E
:10366000012A0150800FF36E0501AB51800FF35C0E
:1036700002E1AA51005C03E20501AA6BAB6B0301F6
:1036800007A309D022A507D0D8800501ABAFD890F9
:1036900002E3AA6BAB6BD8800501ABAFD89007E310
:1036A000AA51FF0F006E030EAB21016E04D0AAC514
:1036B00000F0ABC501F000C0ACF501C0ADF50F01E5
:1036C000549B0501AC51010BE838F46E0F015451C5
:1036D000EF0BF410546F0501AD35AD31016EAC3117
:1036E000006E01340132003200500F01556FD88056
:1036F0000501ABAFD89002E38A8A01D08A9AD880BC
:103700000501ABAFD89003E30301229302D003017C
:103710002283AEC500F00501AE2B0B0E005C03E367
:10372000FBEC1EF0AE6BE4CF03F0E4CF02F0E4CF8D
:1037300001F0E4CF00F01200D9CFE5FFE1CFD9FFCF
:1037400000C0E5FF01C0E5FF02C0E5FF03C0E5FFE3
:1037500004C0E5FF05C0E5FF06C0E5FF07C0E5FFC3
:1037600008C0E5FF020EDBCF00F0030EDBCF01F057
:10377000040EDBCF02F0036A046A01EC36F0056E3A
:10378000FE0A01E075D081EC31F001EC36F0066EF6
:10379000040E065CD8B05AD0FA6AFB6A0634FA36D0
:1037A000E834FA36FC0BB60FE56E370EFA22000E3F
:1037B000FB22E450F96EE3EF1BF0EFEF1BF002EF9A
:1037C0001CF015EF1CF000C0E9FF01C0F3FF025030
:1037D000D8EC38F0076E07C003F0046A37D0005009
:1037E000010F076E000E0120086E000E022007C0B8
:1037F000E9FF08C0F3FFD8EC38F0076E07C003F00C
:10380000046A24D00050020F076E000E0120086EDB
:10381000000E022007C0E9FF08C0F3FFD8EC38F023
:10382000076E07C003F0046A11D000500F0F076E37
:10383000000E0120086E000E022007C0E9FF08C03C
:10384000F3FF62EC38F0036EF3CF04F00450E56E42
:103850000350E56EE56A0650E56E000EE56E480E13
:10386000E56E800EE56E44EC33F0070EE12683D062
:10387000040E055CD8B07FD0FA6AFB6A0534FA36CC
:10388000E834FA36FC0B960FE56E380EFA22000E7D
:10389000FB22E450F96E53EF1CF060EF1CF08BEF4D
:1038A0001CF0A1EF1CF001EC36F0036E03C0E5FF45
:1038B00000C0E9FF01C0F3FF025069EC39F05BD0B2
:1038C0000050010F036E000E0120046E000E022056
:1038D000056E01EC36F0066E06C0E5FF03C0E9FF99
:1038E00004C0F3FF055069EC39F00650D8A443D06A
:1038F0000050030F036E000E0120046E000E022024
:10390000E56AF46AF66AF76A03C0E9FF04C0F3FFE8
:10391000C7EC38F030D00050020F036E000E0120CB
:10392000046E000E0220056E01EC36F0066E06C035
:10393000E5FF03C0E9FF04C0F3FF055069EC39F06F
:103940001AD00F0E0026000E0122022201EC36F0E2
:10395000036A046E01EC36F0066A03260650042260
:1039600003C0E5FF04C0F4FF00C0E9FF01C0F3FF9E
:10397000025030EC39F0E4CF08F0E4CF07F0E4CFA8
:1039800006F0E4CF05F0E4CF04F0E4CF03F0E4CF99
:1039900002F0E4CF01F0E4CF00F0E4CFD9FF120051
:1039A00000C0E5FF01C0E5FF02C0E5FF03C0E5FF81
:1039B00004011951D8B40CD1A3A81DD0A4A81BD0C0
:1039C0000501B8510501B61905E106EC39F005010C
:1039D000B66BFED0000E0501B825006E016A0F0E11
:1039E000012200C0E9FF01C0EAFFEFCFB2F5B82B1A
:1039F000B2C573FFEDD0A3AAEBD0A4AAE9D071A2FF
:103A000005D00501B78106EC39F0E2D071A405D0EC
:103A10000501B78306EC39F0DBD071A048D074CF34
:103A2000B2F51AC400F0016A008EB2C502F0036A52
:103A30000250001803E10350011801E004D0050111
:103A4000B7897196C5D00501B25104E0B2510401A5
:103A50001A1929E10501B79971960501B25103E0E0
:103A60000501B79702D00501B787B2C5BBF5B4C54C
:103A7000BCF50501B451006E00040501BD6F600E78
:103A80000501BC25006E016A000E012200C0E9FF9D
:103A900001C0EAFFB2C5EFFFBC2BBC51800A02E1B6
:103AA0000501BC6B95D00501B799718691D074CF93
:103AB000B2F50501B7A921D01AC400F0016A008E41
:103AC000B2C502F0036A0250001803E10350011866
:103AD00001E011D0A39A7198929C0501B65104E1BE
:103AE000736A06EC39F007D000CF73FF010E0501B1
:103AF000B86FA3886DD071866BD00501B2510501F6
:103B0000BB270501BC510501BD191BE10501BB51D6
:103B10000CE1BCC5B4F50501B7B712D0A39A7198F2
:103B2000929C736A06EC39F00BD00501B785B7B7E4
:103B300007D0A39A7198929C010E736E06EC39F02F
:103B400047D00501BC510501B51908E10501B55182
:103B50000501B41903E006EC39F03AD0B4C500F021
:103B6000016A004A012AE56A800EE56E0150E56EA1
:103B70000050E56EACEC2AF0006E040EE126005019
:103B80000501B36F0501BC190FE1B2C500F01F0EAE
:103B900000140501BD6F006E020E0024BD6F05010B
:103BA000B4510501BD27BD9FBCC500F00501BC2B6C
:103BB000016A600E0026000E012200C0E9FF01C06C
:103BC000EAFFB2C5EFFFBC51800A02E10501BC6B00
:103BD000E4CF03F0E4CF02F0E4CF01F0E4CF00F053
:103BE0001200D9CFE5FFE1CFD9FF00C0E5FF01C04A
:103BF000E5FF02C0E5FF03C0E5FF04C0E5FF05C027
:103C0000E5FF06C0E5FF07C0E5FF020EDBCF00F0D1
:103C1000030EDBCF01F0040EDBCF02F0050EDBCF8D
:103C200003F0060EDBCF04F0070EDBCF05F0080E25
:103C3000DBCF06F0090EDBCF07F000500501836FE4
:103C40000150846F0250856F0350866F0450050148
:103C5000876F0550886F0650896F07508A6F05017E
:103C6000835105018903F4CF01F0F3CF00F0005038
:103C700005018D6F01508E6F05018351050187038A
:103C8000F4CF01F0F3CF00F0005005018B6F01502D
:103C90008C6F0501865105018703F3CF00F0050104
:103CA0008E51002600508E6F050185510501880355
:103CB000F3CF01F001500026005005018E6F050181
:103CC000855105018703F4CF01F0F3CF00F0050122
:103CD0008D5100268E51012200508D6F01508E6F44
:103CE0000501845105018803F4CF03F0F3CF02F0FE
:103CF0000250002603500122005005018D6F015033
:103D00008E6F0501845105018903F3CF00F0005047
:103D10000501926F0501845105018703F4CF01F07D
:103D2000F3CF00F000500501906F0150916F050135
:103D3000835105018A03F3CF00F000500501966F0F
:103D40000501835105018803F4CF01F0F3CF00F0A2
:103D500000500501946F0150956F05018F6B0501AF
:103D6000936B05018F5105018B25006E0501905164
:103D700005018C21016E0501915105018D21026E15
:103D80000501925105018E21036E00508B6F015089
:103D90008C6F02508D6F03508E6F0501935105019A
:103DA0008B25006E0501945105018C21016E0501E2
:103DB000955105018D21026E0501965105018E2157
:103DC000036E03C0E9FF02C0F4FF01C0F3FF00501F
:103DD000E4CF07F0E4CF06F0E4CF05F0E4CF04F041
:103DE000E4CF03F0E4CF02F0E4CF01F0E4CF00F041
:103DF000E4CFD9FF120000C0E5FF01C0E5FF02C01B
:103E0000E5FF030E0501A06FA16B03011F51040123
:103E1000026FA0C500F0A1C501F00501A03F01D0CF
:103E2000A12B000E0026040E01221EC302F000C0CA
:103E3000E9FF01C0EAFF02C0EFFFA0C500F0A1C585
:103E400001F00501A03F01D0A12B000E0026040EB9
:103E50000122026A82B6022A0250010A03E1026AC2
:103E6000022A01D0026A00C0E9FF01C0EAFF02C0D5
:103E7000EFFFA0C500F0A1C501F00501A03F01D0F2
:103E8000A12B000E0026040E0122026A82B8022A2B
:103E90000250010A03E1026A022A01D0026A00C04C
:103EA000E9FF01C0EAFF02C0EFFFA0C500F0A1C515
:103EB00001F00501A03F01D0A12B000E0026040E49
:103EC000012203010C51026E00C0E9FF01C0EAFFAC
:103ED00002C0EFFFA0C500F0A1C501F00501A03FA1
:103EE00001D0A12B000E0026040E01220BC302F00C
:103EF00000C0E9FF01C0EAFF02C0EFFFD890030154
:103F00002731016E2631006ED890013200322851DF
:103F1000E840E840C00B01122841E8403F0B005048
:103F20000401366F0150376FA0C500F0A1C501F044
:103F30000501A03F01D0A12B000E0026040E012296
:103F400004013751026E00C0E9FF01C0EAFF02C060
:103F5000EFFFA0C500F0A1C501F00501A03F01D011
:103F6000A12B000E0026040E012204013651026E20
:103F700000C0E9FF01C0EAFF02C0EFFFA0C500F0EA
:103F8000A1C501F00501A03F01D0A12B000E002624
:103F9000040E0122026A030122B1022A00C0E9FFD5
:103FA00001C0EAFF02C0EFFFA0C500F0A1C501F00B
:103FB0000501A03F01D0A12B000E0026040E012216
:103FC00000C0E9FF01C0EAFF0A0EEF6E0501A05133
:103FD000E56E800EE56E040EE56E000EE56EB4EC47
:103FE00029F0040EE126E4CF02F0E4CF01F0E4CFA3
:103FF00000F01200D9CFE5FFE1CFD9FF00C0E5FF07
:1040000001C0E5FF02C0E5FF03C0E5FF04C0E5FF16
:1040100005C0E5FF06C0E5FF07C0E5FF08C0E5FFF6
:1040200009C0E5FF0AC0E5FF0BC0E5FF0CC0E5FFD6
:104030000DC0E5FF0EC0E5FF0FC0E5FF020EDBCFB0
:1040400000F0030EDBCF01F0040EDBCF02F0050E13
:10405000DBCF03F0060EDBCF04F0070EDBCF05F05D
:10406000080EDBCF06F0200E076E086A06C009F0C6
:104070000A6A0B6A0C6AE56AE56AE56A0950E56E48
:104080000350E56E0250E56E0150E56E0050E56E9E
:1040900013EC23F00D6E080EE126300E0D263A0EBD
:1040A0000D5C05E30D500E6E270E0E240D6EFF0EF7
:1040B00007260822D50E07240E6E030E08200F6E69
:1040C0000EC0E9FF0FC0EAFF0DC0EFFF0C50E56E18
:1040D0000B50E56E0A50E56E0950E56E0350E56E33
:1040E0000250E56E0150E56E0050E56E67EC25F07C
:1040F000006EF3CF01F0F4CF02F0E9CF03F0080E29
:10410000E1260050011002100310D8A4AFD707C059
:1041100000F008C001F004C002F005C003F000C0C8
:1041200004F001C005F0004A012AD50E0426030E52
:10413000052204C0E9FF05C0EAFFEFCF04F002C08A
:10414000E9FF03C0EAFF04C0EFFF024A032A000EA2
:10415000015C02E1200E005CE2E302C0E9FF03C063
:10416000EAFF000EEF6AE4CF0FF0E4CF0EF0E4CFE9
:104170000DF0E4CF0CF0E4CF0BF0E4CF0AF0E4CF85
:1041800009F0E4CF08F0E4CF07F0E4CF06F0E4CF85
:1041900005F0E4CF04F0E4CF03F0E4CF02F0E4CF85
:1041A00001F0E4CF00F0E4CFD9FF1200D9CFE5FF52
:1041B000E1CFD9FF00C0E5FF01C0E5FF02C0E5FF88
:1041C00003C0E5FF04C0E5FF05C0E5FF06C0E5FF4D
:1041D00007C0E5FF08C0E5FF09C0E5FF0AC0E5FF2D
:1041E0000BC0E5FF0CC0E5FF0DC0E5FF020EDBCF05
:1041F00000F0030EDBCF01F0040EDBCF02F0050E62
:10420000DBCF03F0060EDBCF04F0070EDBCF05F0AB
:10421000080EDBCF06F0090EDBCF07F0D88003AE27
:10422000D890086A083608500FE0031C0C6E021C78
:104230000B6E011C0A6E001C096E092A0DE10A2A88
:104240000BE10B4A0C2A08D000C009F001C00AF0AB
:1042500002C00BF003C00CF0D88007AED890006A03
:10426000003600500FE0071C0D6E061C036E051C87
:10427000026E041C016E012A0DE1022A0BE1034AC1
:104280000D2A08D004C001F005C002F006C003F0FA
:1042900007C00DF00D50E56E0350E56E0250E56E5F
:1042A0000150E56E0C50E56E0B50E56E0A50E56E60
:1042B0000950E56E67EC25F0016EF3CF02F0F4CF04
:1042C00003F0E9CF04F0080EE1260050081A085068
:1042D00016E0041C076E031C066E021C056E011C12
:1042E000006E002A04E1052A02E1064A072A07C0F7
:1042F000E9FF06C0F4FF05C0F3FF005007D004C07B
:10430000E9FF03C0F4FF02C0F3FF0150E4CF0DF05A
:10431000E4CF0CF0E4CF0BF0E4CF0AF0E4CF09F0E7
:10432000E4CF08F0E4CF07F0E4CF06F0E4CF05F0E7
:10433000E4CF04F0E4CF03F0E4CF02F0E4CF01F0E7
:10434000E4CF00F0E4CFD9FF120000C0E5FF01C0C8
:10435000E5FF02C0E5FF03C0E5FF9EA0AAD0006A0A
:1043600080BA002A0050010BF46E03010851FE0BC5
:10437000F410086F006A82B6002A0050010A08E1B2
:1043800003011E6B1F6B206B216B2281228502D0E3
:1043900003012295006A030108B1002A016A08B5E9
:1043A000012A0050011801E180D0006A030108B120
:1043B000002A0050010BE844E844F46E0851FB0B5E
:1043C000F410086F16511A5D006E17511B59016EDB
:1043D00018511C59026E19511D59036E00501A6F65
:1043E00001501B6F02501C6F03501D6F0F013451A1
:1043F0000301166F0F0135510301176F0F0136517D
:104400000301186F0F0137510301196F0F01345168
:104410000026355101223651022237510322005025
:1044200003011A6F01501B6F02501C6F03501D6F68
:10443000006A040180B3002A0050010BE844F46EC6
:1044400003010851FD0BF410086F22A318D01EC3FE
:1044500000F01FC301F020C302F021C303F0002AC3
:1044600004E3012A02E3024A032A005003011E6FFB
:1044700001501F6F0250206F0350216F16D01EC3D2
:1044800000F01FC301F020C302F021C303F0FF0EB0
:104490000026012202220322005003011E6F015058
:1044A0001F6F0250206F0350216FCF689B0ECE6E9E
:1044B0009E9014EC39F0E4CF03F0E4CF02F0E4CFA7
:1044C00001F0E4CF00F0120043002563000000C0BB
:1044D000E5FF01C0E5FF02C0E5FF03C0E5FF0F01F6
:1044E0004EB198D0ADEC35F0006EF3CF01F0F4CFC3
:1044F00002F0E9CF03F005017F51005E8051015ABF
:104500008151025A8251035A039E3F0E035C08E117
:10451000FF0E025C05E1FF0E015C02E1FF0E005C94
:1045200016E2B6EC39F0ADEC35F0F3CF01F0F4CF94
:1045300002F0E9CF03F0500F05017F6F460E012016
:10454000806F000E0220816F000E0320826F080E24
:104550000401305DD8B05ED03051020DF450016ED0
:10456000F3CF00F0300E0026050E012200C0E9FF57
:1045700001C0EAFFEECF02F0EFCF03F002500310CC
:1045800002E1302B47D004013051030DF450036E8B
:10459000F3CF02F0E80E0226040E032202C0E9FF68
:1045A00003C0EAFFEECFFDF3EECFFEF3EFCFFFF354
:1045B0008A0E3025026E036A040E032202C0E9FF50
:1045C00003C0EAFFEFCFC1F500C0E9FF01C0EAFF79
:1045D000EECF00F0EFCF01F0001E011E01500F01E1
:1045E000506F00500F014F6F7E9204C0E5FFF2CF75
:1045F00004F0F29E0301FD51E96EFE51EA6E0501E1
:10460000C151EF120F014E8104BEF28EE4CF04F0CF
:104610000401302BE4CF03F0E4CF02F0E4CF01F04B
:10462000E4CF00F01200D9CFE5FFE1CFD9FF00C001
:10463000E5FF01C0E5FF02C0E5FF03C0E5FF04C0E0
:10464000E5FF05C0E5FF06C0E5FF07C0E5FF08C0C0
:10465000E5FF09C0E5FF0AC0E5FF020EDBCF00F071
:10466000030EDBCF01F0040EDBCF02F0050EDBCF33
:1046700003F0060EDBCF04F0070EDBCF05F0080ECB
:10468000DBCF06F0090EDBCF07F0086A04500510F7
:104690000610071005E1E968F468F368E86847D098
:1046A000096A0750800BE8440A6E0A501BE1045067
:1046B00004260536063607360750035C08E1065027
:1046C000025C05E10550015C02E10450005C06E279
:1046D000D890073206320532043204D0092A09C0C4
:1046E00008F0DFD70750035C08E10650025C05E1E3
:1046F0000550015C02E10450005C08E30450005ED8
:104700000550015A0650025A0750035AD8900732F2
:1047100006320532043208C009F008060950E2E109
:1047200003C0E9FF02C0F4FF01C0F3FF0050E4CF73
:104730000AF0E4CF09F0E4CF08F0E4CF07F0E4CFCB
:1047400006F0E4CF05F0E4CF04F0E4CF03F0E4CFCB
:1047500002F0E4CF01F0E4CF00F0E4CFD9FF120083
:10476000D9CFE5FFE1CFD9FF00C0E5FF01C0E5FFEC
:1047700002C0E5FF03C0E5FF04C0E5FF05C0E5FF9B
:1047800006C0E5FF07C0E5FF020EDBCF00F0030E19
:10479000DBCF01F0040EDBCF02F000500B0F036EF5
:1047A000000E0120046E000E0220E56AF46AF66A2B
:1047B000F76A03C0E9FF04C0F3FFC7EC38F000500C
:1047C000070F036E000E0120046E000E0220056E1E
:1047D0000050030F066E000E0120076E000E02202F
:1047E000E56AF46AF66AF76A06C0E9FF07C0F3FFF4
:1047F000C7EC38F0E56AF46AF66AF76A03C0E9FFC5
:1048000004C0F3FF0550C7EC38F00050010F036EF1
:10481000000E0120046E000E0220056E0050020FF3
:10482000066E000E0120076E000E0220E56A06C02B
:10483000E9FF07C0F3FF69EC39F0E56A03C0E9FF5F
:1048400004C0F3FF055069EC39F0E56A00C0E9FFE8
:1048500001C0F3FF025069EC39F0E4CF07F0E4CF78
:1048600006F0E4CF05F0E4CF04F0E4CF03F0E4CFAA
:1048700002F0E4CF01F0E4CF00F0E4CFD9FF120062
:1048800025642025640A0000D9CFE5FFE1CFD9FFD8
:1048900000C0E5FF01C0E5FF02C0E5FF03C0E5FF82
:1048A00004C0E5FF05C0E5FF06C0E5FF07C0E5FF62
:1048B00008C0E5FF09C0E5FF0AC0E5FF020EDBCF37
:1048C00000F0030EDBCF01F0040EDBCF02F0050E8B
:1048D000DBCF03F0060EDBCF04F0070EDBCF05F0D5
:1048E0000038E8441F0B066E076AA40E0626050E64
:1048F000072206C0E9FF07C0EAFFEFCF08F000502B
:10490000096E070E0916010E0A6E09500DE006E643
:10491000E86CD8900A36010FFDE306D0D8900ABEA5
:10492000D8800A32010FFBE308500A1206C0E9FFE3
:1049300007C0EAFF0AC0EFFF100E0024066E076AE8
:10494000050E072206C0E9FF07C0EAFF01C0EFFF1E
:10495000016A000E0026050E0122800E025E070E7F
:1049600002160238F00B036E070E051605500326DB
:1049700000C0E9FF01C0EAFF03C0EFFFE4CF0AF087
:10498000E4CF09F0E4CF08F0E4CF07F0E4CF06F07D
:10499000E4CF05F0E4CF04F0E4CF03F0E4CF02F07D
:1049A000E4CF01F0E4CF00F0E4CFD9FF120000C063
:1049B000E5FF01C0E5FF02C0E5FF03C0E5FF05011B
:1049C000B5510501B41901E166D0B5C500F0002A62
:1049D000009E016A600E0026000E012200C0E9FF61
:1049E00001C0EAFFEFCFBFF51F0E0501BF17B5C528
:1049F000BEF5BF510501BE27BE51006E020E002458
:104A0000BE6FBE9F01EC36F0006E005003E1006AFD
:104A1000002A01D0006A01EC36F00501BF6FBFC566
:104A200001F0800E0116BFC502F01F0E021602C073
:104A300003F002C0BFF5035003E1B4C5B5F53ED0A5
:104A400000501EE0015025E001EC36F0006E05013B
:104A5000BF51026E0204BF6F0050420A1AE00050BC
:104A60004E0A03E102EC33F014D00050460A03E191
:104A700053EC39F00ED00050490A0BE1FF0009D089
:104A8000B5C5C0F5015003E030EC30F002D092EC37
:104A90002DF0BEC5B5F5040116510401171906E045
:104AA0000501B65103E19DEC27F008D092BC06D079
:104AB0000501B65103E172B206EC39F0E4CF03F020
:104AC000E4CF02F0E4CF01F0E4CF00F01200D9CF40
:104AD000E5FFE1CFD9FF00C0E5FF01C0E5FF02C05F
:104AE000E5FF03C0E5FF04C0E5FF05C0E5FF06C024
:104AF000E5FF07C0E5FF08C0E5FF09C0E5FF0AC004
:104B0000E5FF0BC0E5FF0CC0E5FF0DC0E5FF020EA1
:104B1000DBCF00F0030EDBCF01F0040EDBCF02F0A1
:104B2000050EDBCF03F0060EDBCF04F0070EDBCF64
:104B300005F0080EDBCF06F0090EDBCF07F0086AA0
:104B4000096A0A6A0B6A200E0C6E0350800BE84457
:104B50000D6E005000260136023603360850082636
:104B600009360A360B360D50D8A4088007500B5C66
:104B700008E106500A5C05E10550095C02E10450B9
:104B8000085C09E30450085E0550095A06500A5AA9
:104B900007500B5A00800C040D6E0DC00CF00D5028
:104BA000D4E103C0E9FF02C0F4FF01C0F3FF0050ED
:104BB000E4CF0DF0E4CF0CF0E4CF0BF0E4CF0AF03B
:104BC000E4CF09F0E4CF08F0E4CF07F0E4CF06F03B
:104BD000E4CF05F0E4CF04F0E4CF03F0E4CF02F03B
:104BE000E4CF01F0E4CF00F0E4CFD9FF120000C021
:104BF000E5FF01C0E5FF03C0E5FF04C0E5FF05C018
:104C0000E5FF06C0E5FF07C0E5FF08C0E5FF09C0F6
:104C1000E5FF0AC0E5FF0BC0E5FFA2C500F0A3C594
:104C200001F00501A23F01D0A32B0050E56EF8EC86
:104C300038F0E652076E046A056A066AA2C500F0FB
:104C4000A3C501F00501A23F01D0A32B0050E56EE2
:104C5000F8EC38F0E6520B6A0A6E086A0850041243
:104C600005120A5006120B500712A2C500F0A3C588
:104C700001F00501A23F01D0A32B0050E56EF8EC36
:104C800038F0E652036E006A03C001F0E86A03BE22
:104C9000FF0E086E096E00500412015005120850F4
:104CA000061209500712A2C500F0A3C501F00501C4
:104CB000A23F01D0A32B0050E56EF8EC38F0E6528D
:104CC000016A0412015005120612071207C0E9FF1B
:104CD00006C0F4FF05C0F3FF0450E4CF0BF0E4CFAF
:104CE0000AF0E4CF09F0E4CF08F0E4CF07F0E4CF16
:104CF00006F0E4CF05F0E4CF04F0E4CF03F0E4CF16
:104D000001F0E4CF00F01200D9CFE5FFE1CFD9FFE9
:104D100000C0E5FF01C0E5FF02C0E5FF03C0E5FFFD
:104D200004C0E5FF05C0E5FF06C0E5FF07C0E5FFDD
:104D300008C0E5FF0BC0E5FF0CC0E5FF0DC0E5FFB7
:104D4000020EDBCF00F0030EDBCF01F0040EDBCF51
:104D500002F0050EDBCF03F0060EDBCF04F003C03C
:104D6000E5FF04C0F4FF00C0E9FF01C0F3FF0250FB
:104D700030EC39F00050020F056E000E0120066E77
:104D8000000E0220076EE86A04BEFF0E086E045093
:104D90000C6E0C2608340D6ED8900C360D3603447C
:104DA000E844FC0B0B6E0350E844E844030B0C1280
:104DB000E56A0BC0F4FF0CC0F6FF0DC0F7FF05C09D
:104DC000E9FF06C0F3FF0750C7EC38F0080E0026D5
:104DD000000E01220222E56AF46AF66AF76A00C050
:104DE000E9FF01C0F3FF0250C7EC38F0E4CF0DF04B
:104DF000E4CF0CF0E4CF0BF0E4CF08F0E4CF07F001
:104E0000E4CF06F0E4CF05F0E4CF04F0E4CF03F004
:104E1000E4CF02F0E4CF01F0E4CF00F0E4CFD9FF1B
:104E20001200D9CFE5FFE1CFD9FF00C0E5FF01C0F7
:104E3000E5FF02C0E5FF03C0E5FF04C0E5FF05C0D4
:104E4000E5FF06C0E5FF07C0E5FF020EDBCF00F07F
:104E5000030EDBCF01F0040EDBCF02F0050EDBCF3B
:104E600003F002C006F00650046E800A33E100C071
:104E7000E9FF01C0F3FF02508AEC37F0056EF3CF73
:104E800006F0F4CF07F003C0E5FF05C0E9FF06C058
:104E9000F3FF075069EC39F000C0E9FF01C0F3FFF0
:104EA00002508AEC37F0056EF3CF06F0F4CF07F02E
:104EB000052A02E3064A072A05C0E5FF06C0F4FFFB
:104EC00007C0F6FF00C0E9FF01C0F3FF0250E9ECA4
:104ED00038F020D004C000F000AA1CD0007A0050A6
:104EE000046E04E10350A6EC39F014D00450010A1A
:104EF00004E1035002EC00F00DD004500F0A04E16D
:104F000003507DEC35F006D004500E0A03E1035047
:104F1000B9EC39F0E4CF07F0E4CF06F0E4CF05F0C8
:104F2000E4CF04F0E4CF03F0E4CF02F0E4CF01F0EB
:104F3000E4CF00F0E4CFD9FF120000C0E5FF01C0CC
:104F4000E5FF02C0E5FF03C0E5FF72A277D030ECB9
:104F500037F0006E005005E10401176B0401166B79
:104F60006DD017C401F00050012630EC37F0026E0E
:104F700000060250230A1FE1010E005CD8A05CD09D
:104F800030EC37F0036E690A03E14CEC35F054D095
:104F90000350720A03E106EC39F04ED00350730A55
:104FA00001E04AD0928C7186A38AA3987450745001
:104FB0007198718841D00250430A05E00250420ABC
:104FC00001E03AD001D0008E0501B86B00C0B9F500
:104FD00000500F01006F0501B82B04011751011893
:104FE00014E030EC37F0006E0501B927000E050122
:104FF000B825026E036A0F0E032202C0E9FF03C048
:10500000EAFF00C0EFFFB82BE8D7000E0501B82576
:10501000006E026A0F0E02220501B91D036E032AFB
:1050200000C0E9FF02C0EAFF03C0EFFF0501B82B93
:10503000B8C5B6F50501B06B01C017F4E4CF03F0B5
:10504000E4CF02F0E4CF01F0E4CF00F01200D9CFBA
:10505000E5FFE1CFD9FF00C0E5FF01C0E5FF02C0D9
:10506000E5FF03C0E5FF04C0E5FF05C0E5FF06C09E
:10507000E5FF020EDBCF00F0030EDBCF01F0040EE4
:10508000DBCF02F0050EDBCF03F003C004F0056AAE
:105090000350D8B453D000C0E9FF01C0F3FF025061
:1050A000D8EC38F0066E430A03E1010E056E038E5C
:1050B0000406002A02E3014A022AA39A7198929CEC
:1050C000A398A4A8FED77280736A0000A4A8FED794
:1050D000729003C073FF0000A4A8FED7055005E03E
:1050E000420E736E0324056E05D0620E736E620E5F
:1050F0000324056E04C003F0035015E00000A4A8CB
:10510000FED700C0E9FF01C0F3FF0250D8EC38F031
:10511000046E04C073FF045005260306002A02E350
:10512000014A022AE9D70000A4A8FED7051C736E25
:10513000732A0000A4A8FED706EC39F0E4CF06F0ED
:10514000E4CF05F0E4CF04F0E4CF03F0E4CF02F0C5
:10515000E4CF01F0E4CF00F0E4CFD9FF120000C0AB
:10516000E5FF01C0E5FF02C0E5FF03C0E5FF04C0A5
:10517000E5FF006AA40E0024016E026A050E0222F9
:1051800001C0E9FF02C0EAFFEF6A002A020E005CDC
:10519000F1E3006A0050020DF450026EF3CF01F00B
:1051A000E00E0124036E000E0220046E03C0E9FF2E
:1051B00004C0EAFFEE6AEF6A5C0E0124036E040E7F
:1051C0000220046E03C0E9FF04C0EAFFEE6AEF6A42
:1051D000550E0124036E030E0220046E03C0E9FF86
:1051E00004C0EAFFEE6AEF6A750E0124036E030E37
:1051F0000220046E03C0E9FF04C0EAFFEE6AEF6A12
:10520000950E0126030E022201C0E9FF02C0EAFF4B
:10521000EE687F0EEF6E000E0024016E026A050E2E
:10522000022201C0E9FF02C0EAFFEF68002A100E67
:10523000005CD8A0AFD7AF0EC06EC16A010EC26EBF
:10524000C282E4CF04F0E4CF03F0E4CF02F0E4CF75
:1052500001F0E4CF00F01200432041202564202516
:10526000640A0000D9CFE5FFE1CFD9FF00C0E5FF18
:1052700001C0E5FF02C0E5FF03C0E5FF04C0E5FF94
:1052800005C0E5FF06C0E5FF07C0E5FF08C0E5FF74
:1052900009C0E5FF0AC0E5FF0BC0E5FF0CC0E5FF54
:1052A000020EDBCF00F0030EDBCF01F0040EDBCFEC
:1052B00002F0050EDBCF03F0060EDBCF04F0070E85
:1052C000DBCF05F0080EDBCF06F0090EDBCF07F0D1
:1052D00002500A6E0150096E0050086E06C00BF0B5
:1052E00007C00CF0FF0E062607220B500C101AE028
:1052F00003C0E9FF04C0F3FF0550D8EC38F00B6E93
:10530000032A02E3044A052A0BC0E5FF08C0E9FFAF
:1053100009C0F3FF0A5069EC39F0082ADFE3094AB3
:105320000A2ADCD702C0F4FF01C0F3FF0050E4CF2B
:105330000CF0E4CF0BF0E4CF0AF0E4CF09F0E4CFB7
:1053400008F0E4CF07F0E4CF06F0E4CF05F0E4CFB7
:1053500004F0E4CF03F0E4CF02F0E4CF01F0E4CFB7
:1053600000F0E4CFD9FF1200D9CFE5FFE1CFD9FF9C
:1053700000C0E5FF01C0E5FF02C0E5FF03C0E5FF97
:1053800004C0E5FF05C0E5FF06C0E5FF07C0E5FF77
:10539000020EDBCF00F0030EDBCF01F0040EDBCFFB
:1053A00002F0050EDBCF03F017C418F40401165108
:1053B0000401185F1851046E0404186F03C004F050
:1053C000056A030E0426D8B0052A18C406F0076A39
:1053D0000750800FF36E0550800FF35C02E104501C
:1053E000065C02E2E8682ED0020E035C02E2E86A84
:1053F00029D003060350E56E00EC34F0E652046A4F
:105400000350045C14E204500024056EE86A012095
:10541000066EE86A022005C0E9FF06C0F3FFD8EC7B
:1054200038F0042AE56E00EC34F0E652E9D717C4F0
:1054300018F4040116510401185F1851006E00049D
:10544000186FE86AE4CF07F0E4CF06F0E4CF05F088
:10545000E4CF04F0E4CF03F0E4CF02F0E4CF01F0B6
:10546000E4CF00F0E4CFD9FF1200D9CFE5FFE1CFC0
:10547000D9FF00C0E5FF01C0E5FF02C0E5FF03C0A2
:10548000E5FF04C0E5FF05C0E5FF020EDBCF00F03D
:10549000030EDBCF01F0040EDBCF02F00050020D53
:1054A000F450036EF3CF00F05C0E0024046E040E83
:1054B0000320056E04C0E9FF05C0EAFF01C0EEFF4E
:1054C00002C0EFFF550E0024046E030E0320056E8C
:1054D00004C0E9FF05C0EAFFEECF04F0EFCF05F00E
:1054E0000150045C016E02500558026EB50E002694
:1054F000030E032200C0E9FF03C0EAFF01C0EEFF74
:1055000002C0EFFFD88002AED89004E3021E016C07
:10551000D8B4022A0250800F800F02E1030E015C12
:1055200002E2016A026A0150021007E100C0E9FFCD
:1055300003C0EAFF000EEE6AEF6AE4CF05F0E4CFA5
:1055400004F0E4CF03F0E4CF02F0E4CF01F0E4CFC5
:1055500000F0E4CFD9FF1200D9CFE5FFE1CFD9FFAA
:1055600000C0E5FF01C0E5FF02C0E5FF03C0E5FFA5
:1055700004C0E5FF05C0E5FF06C0E5FF020EDBCF76
:1055800000F0030EDBCF01F0040EDBCF02F0050EBE
:10559000DBCF03F0D88001AED890046A0436045003
:1055A00007E0011C066E001C056E054A062A04D0A1
:1055B00000C005F001C006F0D88003AED89007E324
:1055C000031C016E021C006E004A012A04D002C0B6
:1055D00000F003C001F00150E56E0050E56E06508A
:1055E000E56E0550E56E7AEC2FF0006EF3CF01F01A
:1055F000040EE12604500AE0011C036E001C026E3A
:10560000024A032A03C0F3FF025003D001C0F3FF94
:105610000050E4CF06F0E4CF05F0E4CF04F0E4CF8F
:1056200003F0E4CF02F0E4CF01F0E4CF00F0E4CFE8
:10563000D9FF1200D9CFE5FFE1CFD9FF00C0E5FFC8
:1056400001C0E5FF02C0E5FF03C0E5FF04C0E5FFC0
:1056500005C0E5FF020EDBCF00F0030EDBCF01F04B
:10566000040EDBCF02F0050EDBCF03F0A2C504F081
:10567000A3C505F00501A23F01D0A32B0350E56EA1
:105680000450E56ED7EC35F0E652E652A2C504F0C0
:10569000A3C505F00501A23F01D0A32B0250056E62
:1056A000E56E0450E56ED7EC35F0E652E652A2C541
:1056B00004F0A3C505F00501A23F01D0A32B0150C2
:1056C000E56E0450E56ED7EC35F0E652E652A2C521
:1056D00004F0A3C505F00501A23F01D0A32B0050A3
:1056E000E56E0450E56ED7EC35F0E652E652E4CFB5
:1056F00005F0E4CF04F0E4CF03F0E4CF02F0E4CF10
:1057000001F0E4CF00F0E4CFD9FF1200D9CFE5FFDC
:10571000E1CFD9FF00C0E5FF01C0E5FF02C0E5FF12
:1057200003C0E5FF04C0E5FF05C0E5FF06C0E5FFD7
:10573000020EDBCF00F0030EDBCF01F00038E844AF
:105740001F0B026E036AA40E0226050E032202C07E
:10575000E9FF03C0EAFFEFCF04F00050056E070E2B
:105760000516010E066E05500DE006E6E86CD890B1
:105770000636010FFDE306D0D89006BED88006326B
:10578000010FFBE30450061202C0E9FF03C0EAFF69
:1057900006C0EFFF100E0024026E036A050E0322FE
:1057A00002C0E9FF03C0EAFF01C0EFFF016A000E7B
:1057B0000026050E012200C0E9FF01C0EAFFFF0E2E
:1057C000EF68E4CF06F0E4CF05F0E4CF04F0E4CFD7
:1057D00003F0E4CF02F0E4CF01F0E4CF00F0E4CF37
:1057E000D9FF1200D9CFE5FFE1CFD9FF00C0E5FF17
:1057F00001C0E5FF02C0E5FF03C0E5FF04C0E5FF0F
:1058000005C0E5FF08C0E5FF09C0E5FF0AC0E5FFE8
:10581000020EDBCF00F0030EDBCF01F0040EDBCF76
:1058200002F0050EDBCF03F0060EDBCF04F003C061
:10583000E5FF04C0F4FF00C0E9FF01C0F3FF025020
:1058400030EC39F0020E0026000E0122022204BEC6
:10585000FF0E056E0450096E092605340A6ED890B5
:1058600009360A360344E844FC0B086E0350E8444A
:10587000E844030B0912E56A08C0F4FF09C0F6FF0B
:105880000AC0F7FF00C0E9FF01C0F3FF0250C7ECF8
:1058900038F0E4CF0AF0E4CF09F0E4CF08F0E4CF29
:1058A00005F0E4CF04F0E4CF03F0E4CF02F0E4CF5E
:1058B00001F0E4CF00F0E4CFD9FF120000C0E5FF13
:1058C00001C0E5FF02C0E5FF03C0E5FF04C0E5FF3E
:1058D00001EC36F0006EFE0A2DE181EC31F001ECB6
:1058E00036F0016E080E015CD8B045D00150020DB3
:1058F000F450036EF3CF02F0300E0226050E0322A1
:1059000002C0E9FF03C0EAFFEECF02F0EFCF03F0E1
:105910000350E56E0250E56EE56A0150E56E000E3B
:10592000E56E600EE56E580EE56E44EC33F0070E42
:10593000E12621D0080E005C1EE201EC36F0046E78
:10594000036A01EC36F0016E026A0350012604502E
:1059500002220050020DF450036EF3CF00F0300E1F
:105960000026050E032200C0E9FF03C0EAFF01C0C4
:10597000EEFF02C0EFFFE4CF04F0E4CF03F0E4CF8A
:1059800002F0E4CF01F0E4CF00F01200D9CFE5FF40
:10599000E1CFD9FF00C0E5FF01C0E5FF02C0E5FF90
:1059A00003C0E5FF04C0E5FF05C0E5FF06C0E5FF55
:1059B000020EDBCF00F0030EDBCF01F0040EDBCFD5
:1059C00002F00501AF5119E1F7EC25F0036EF3CFBA
:1059D00004F0F4CF05F0E9CF06F003C0E5FF04C002
:1059E000F4FF05C0F6FF06C0F7FF00C0E9FF01C0E5
:1059F000F3FF0250C7EC38F01ED00501AF51010A89
:105A00001AE100C0E9FF01C0F3FF025010EC37F0CB
:105A1000006EF3CF01F0F4CF02F0E9CF03F00350B2
:105A2000E56E0250E56E0150E56E0050E56E1AEC31
:105A30002BF0040EE126E4CF06F0E4CF05F0E4CF2E
:105A400004F0E4CF03F0E4CF02F0E4CF01F0E4CFC0
:105A500000F0E4CFD9FF1200D9CFE5FFE1CFD9FFA5
:105A600000C0E5FF01C0E5FF02C0E5FF03C0E5FFA0
:105A700004C0E5FF020EDBCF00F0030EDBCF01F028
:105A8000040EDBCF02F00050070F036E000E012062
:105A9000046E000E0220E56E0450E56E0350E56EC4
:105AA00084EC33F0030EE1260050230F036E000E4A
:105AB0000120046E000E0220E56E0450E56E0350D6
:105AC000E56E87EC30F0030EE1260050330F036ED5
:105AD000000E0120046E000E0220E56E0450E56EFB
