:020000040000FA
:10000000F9EF38F0C96E120001EF2FF001EC16F095
:100010007EEC19F0FDD7120098EF33F0D9CFE5FF51
:10002000E1CFD9FF00C0E5FF01C0E5FF02C0E5FF59
:1000300003C0E5FF04C0E5FF05C0E5FF06C0E5FF1E
:1000400007C0E5FF08C0E5FF09C0E5FF0AC0E5FFFE
:100050000BC0E5FF0CC0E5FF0DC0E5FF0EC0E5FFDE
:100060000FC0E5FF10C0E5FF11C0E5FF12C0E5FFBE
:1000700013C0E5FF14C0E5FF15C0E5FF16C0E5FF9E
:1000800017C0E5FF18C0E5FF19C0E5FF1AC0E5FF7E
:100090001BC0E5FF1CC0E5FF1DC0E5FF1EC0E5FF5E
:1000A0001FC0E5FF20C0E5FF21C0E5FF22C0E5FF3E
:1000B00023C0E5FF24C0E5FF25C0E5FF26C0E5FF1E
:1000C00027C0E5FF020EDBCF00F0030EDBCF01F00F
:1000D000040EDBCF02F00250086E0150076E005094
:1000E000066EE56A100EE56E0850E56E0750E56E87
:1000F0000650E56E800EE56E050EE56E200EE56E8F
:10010000EEEC29F0080EE12628C503F029C504F01D
:100110002AC505F02BC506F003C007F004C008F09F
:1001200005C009F006C00AF0D8800AAED8900AE3EC
:100130000A1E091E081E076C05E1082A03E1092AA8
:10014000D8B40A2A20C50BF021C50CF0E86A0501D5
:1001500021BFFF0E0D6E0E6ED8902431106E23312C
:100160000F6ED89010320F322551E840E840C00B96
:1001700010122541E8403F0BE8BAC009116E126A1F
:1001800011BE12680F500B5C0F6E10500C58106EA1
:1001900011500D58116E12500E58126ED89012AEAA
:1001A000D880D8A04ED01250800F800F08E1000EEA
:1001B000115C05E1000E105C02E1010E0F5CD8B08D
:1001C00040D00A340A30166E0930156E0830146EAD
:1001D0000730136E2EC517F02FC518F0E86A050119
:1001E0002FBFFF0E196E800FF36E1650800FF35C59
:1001F00008E11550195C05E11450185C02E1135038
:10020000175C1FE30C50156E15260D34166ED89032
:10021000153616360B44E844FC0B146E0B50E844BC
:10022000E844030B15120501226B1450236F15507F
:10023000246F1650256F286B296B2A6B2B6BEBEF05
:1002400004F0D89009300C6E08300B6ED8900C3248
:100250000B32D8900C320B320A50E838E844E00BED
:100260000C120A38E8441F0BE8B8E0090E6A08507F
:10027000076E0950086ED89008320732D8900832BD
:1002800007320A50E840E840C00B08120A40E84034
:100290003F0B0BC009F00CC00AF0E86A0CBEFF0E61
:1002A0000D6E0E6E07C013F008C014F0E86A08BEA9
:1002B000FF0E156EE56E1550E56E1450E56E135089
:1002C000E56E0E50E56E0D50E56E0A50E56E095074
:1002D000E56E8AEC1EF0096EF3CF0AF0F4CF0DF054
:1002E000E9CF0EF0080EE1262EC513F02FC514F04D
:1002F000E86A05012FBFFF0E156E166EE56E1550EC
:10030000E56E1450E56E1350E56E0E50E56E0D501F
:10031000E56E0A50E56E0950E56E70EC20F0096E4E
:10032000F3CF0AF0080EE12626C50DF027C50EF022
:10033000E86A050127BFFF0E176E0E501B6E1B26C5
:1003400017341C6ED8901B361C360D44E844FC0B49
:100350001A6E0D50E844E844030B1B12196AD8804A
:1003600006AED890D8B07AD109C00DF00AC00EF010
:10037000E86A0ABEFF0E176E800FF36E1250800FF0
:10038000F35C08E11150175C05E110500E5C02E1CE
:100390000F500D5CD8B03AD10650800FF36E1C5050
:1003A000800FF35C08E11B50055C05E11A50045C0A
:1003B00002E11950035CD8B002D12CC50DF02DC557
:1003C0000EF0E86A05012DBFFF0E176E186E035080
:1003D0000D2604500E2205501722065018220D50EB
:1003E0000501286F0E50296F17502A6F18502B6F78
:1003F0002EC50DF02FC50EF02CC517F02DC518F029
:100400000E50800FF36E1850800FF35C02E117500E
:100410000D5CD8B0B8D028C51DF029C51EF02AC57E
:100420001FF02BC520F0D8901F30226E1E30216E99
:10043000D89022322132D890223221322050E8380E
:10044000E844E00B22122038E8441F0BE8B8E0092A
:10045000246A21500B6E22500C6ED8901F30226EF1
:100460001E30216ED890223221322050E840E840E0
:10047000C00B22122040E8403F0B2150076E225053
:10048000086E0BC021F00CC022F0E86A0CBEFF0E13
:10049000236E246E07C025F008C026F0E86A08BE67
:1004A000FF0E276EE56E2750E56E2650E56E25504F
:1004B000E56E2450E56E2350E56E2250E56E215026
:1004C000E56E8AEC1EF0216EF3CF22F0F4CF23F01C
:1004D000E9CF24F0080EE1260DC025F00EC026F06D
:1004E000E86A0EBEFF0E276EE56E2750E56E2650B9
:1004F000E56E2550E56E2450E56E2350E56E2250E2
:10050000E56E2150E56E70EC20F0216EF3CF22F005
:10051000080EE1262150096E22500A6E09C021F012
:100520000AC022F0E86A0ABEFF0E236E246E125043
:10053000800FF36E2450800FF35C08E12350115CB0
:1005400005E12250105C02E121500F5C1CE20D50CD
:10055000175C0D6E0E5018580E6EE86A0EBEFF0E38
:10056000176E186E0D501D5E0E501E5A17501F5AF2
:100570001850205A1D500501286F1E50296F1F501A
:100580002A6F20502B6F1C50800FF36E05012B51EA
:10059000800FF35C08E12A511B5C05E129511A5CCC
:1005A00002E12851195CD8B0EFD119500501286F2C
:1005B0001A50296F1B502A6F1C502B6FE5D11C500D
:1005C000800FF36E0650800FF35C08E105501B5C52
:1005D00005E104501A5C02E10350195CD8B0D4D193
:1005E0001350035C0D6E145004580E6E15500558D0
:1005F000176E16500658186E0D500501286F0E50D4
:10060000296F17502A6F18502B6FBED12CC50DF0D3
:100610002DC50EF0E86A05012DBFFF0E176E186E8E
:1006200013500D2614500E22155017221650182262
:100630000D50035C0D6E0E5004580E6E1750055889
:10064000176E18500658186E0D500501286F0E5081
:10065000296F17502A6F18502B6F96D10A1E096CFC
:10066000D8B40A2A09C00DF00AC00EF0E86A0ABE22
:10067000FF0E176E186E1250800FF36E1850800F19
:10068000F35C08E11750115C05E10E50105C02E1CB
:100690000D500F5CD8B055D11C1C186E1B1C176E6A
:1006A0001A1C0E6E191C0D6E0D2A04E10E2A02E1B1
:1006B000174A182A1850800FF36E0650800FF35C0B
:1006C00008E10550175C05E104500E5C02E103509F
:1006D0000D5CD8B00FD12CC519F02DC51AF0E86A01
:1006E00005012DBFFF0E1B6E1C6E1950035C196EA9
:1006F0001A5004581A6E1B5005581B6E1C50065891
:100700001C6E19500501286F1A50296F1B502A6F53
:100710001C502B6F2EC519F02FC51AF02CC51BF0DD
:100720002DC51CF01A50800FF36E1C50800FF35C27
:1007300002E11B50195CD8B0C1D028C51DF029C5F5
:100740001EF02AC51FF02BC520F0D8901F30226E56
:100750001E30216ED89022322132D890223221329E
:100760002050E838E844E00B22122038E8441F0B00
:10077000E8B8E009236E246A23BE2468241E231EE1
:10078000221E216C05E1222A03E1232AD8B4242A5F
:1007900021500B6E22500C6ED8901F30226E1E30EE
:1007A000216ED890223221322050E840E840C00B20
:1007B00022122040E8403F0B221E216C02E1222A37
:1007C00000E12150076E2250086EE86A0CBEFF0E51
:1007D000216E226EE86A08BEFF0E236EE56E23507E
:1007E000E56E0850E56E0750E56E2250E56E21502B
:1007F000E56E0C50E56E0B50E56E8AEC1EF0076E50
:10080000F3CF08F0F4CF0BF0E9CF0CF0080EE1269F
:1008100019C021F01AC022F0E86A1ABEFF0E236E3A
:10082000E56E2350E56E2250E56E2150E56E0C50CA
:10083000E56E0B50E56E0850E56E0750E56E70EC06
:1008400020F0076EF3CF08F0080EE126081E076CB3
:1008500002E1082A00E10750096E08500A6EE86AB2
:100860000ABEFF0E076E800FF36E1250800FF35C0E
:1008700008E11150075C05E110500A5C02E10F50DD
:10088000095C1CE219501B5C196E1A501C581A6E38
:10089000E86A1ABEFF0E076E086E19501D261A5020
:1008A0001E2207501F22085020221D500501286FCC
:1008B0001E50296F1F502A6F20502B6F05012B519E
:1008C000800FF36E1850800FF35C08E117502A5D1B
:1008D00005E10E50295D02E10D50285DD8B054D0DD
:1008E0000D500501286F0E50296F17502A6F1850B0
:1008F0002B6F4AD00650800FF36E1850800FF35CB8
:1009000008E11750055C05E10E50045C02E10D5052
:10091000035CD8B039D013500324076E1450042060
:10092000086E15500520096E165006200A6E0750F5
:100930000501286F0850296F09502A6F0A502B6F44
:1009400023D02CC507F02DC508F0E86A05012DBF9E
:10095000FF0E096E0A6E0750132608501422095024
:1009600015220A5016221350032614500422155043
:1009700005221650062203500501286F0450296FE6
:1009800005502A6F06502B6FD89005012A31046E4E
:100990002931036ED890043203322B51E840E840ED
:1009A000C00B04122B41E8403F0BE8BAC009056EAA
:1009B000066A05BE066822510326235104222451EB
:1009C0000522255106220350226F0450236F055043
:1009D000246F0650256FE56A100EE56E800EE56EF9
:1009E000050EE56E200EE56E0250E56E0150E56ED7
:1009F0000050E56EEEEC29F0080EE126E4CF27F07A
:100A0000E4CF26F0E4CF25F0E4CF24F0E4CF23F0C8
:100A1000E4CF22F0E4CF21F0E4CF20F0E4CF1FF0C8
:100A2000E4CF1EF0E4CF1DF0E4CF1CF0E4CF1BF0C8
:100A3000E4CF1AF0E4CF19F0E4CF18F0E4CF17F0C8
:100A4000E4CF16F0E4CF15F0E4CF14F0E4CF13F0C8
:100A5000E4CF12F0E4CF11F0E4CF10F0E4CF0FF0C8
:100A6000E4CF0EF0E4CF0DF0E4CF0CF0E4CF0BF0C8
:100A7000E4CF0AF0E4CF09F0E4CF08F0E4CF07F0C8
:100A8000E4CF06F0E4CF05F0E4CF04F0E4CF03F0C8
:100A9000E4CF02F0E4CF01F0E4CF00F0E4CFD9FFDF
:100AA0001200D9CFE5FFE1CFD9FF00C0E5FF01C0BB
:100AB000E5FF02C0E5FF03C0E5FF04C0E5FF05C098
:100AC000E5FF06C0E5FF07C0E5FF08C0E5FF09C078
:100AD000E5FF0AC0E5FF0BC0E5FF0CC0E5FF0DC058
:100AE000E5FF0EC0E5FF0FC0E5FF10C0E5FF11C038
:100AF000E5FF12C0E5FF13C0E5FF14C0E5FF15C018
:100B0000E5FF16C0E5FF17C0E5FF18C0E5FF19C0F7
:100B1000E5FF1AC0E5FF1BC0E5FF1CC0E5FF1DC0D7
:100B2000E5FF1EC0E5FF020EDBCF00F0030EDBCFBA
:100B300001F0040EDBCF02F0050EDBCF03F0060E52
:100B4000DBCF04F0070EDBCF05F0080EDBCF06F09D
:100B5000090EDBCF07F00A0EDBCF08F0096A0A6A3C
:100B600002C00DF00D50800A0DE1025005019F6F8B
:100B700001509E6F00509D6F050E016E9D0E006E20
:100B8000800E026E03C0E9FF04C0F3FF055043EC82
:100B900039F00B6E0B50D8B407EF09F00B50250A53
:100BA00002E0EEEF08F00C6A0D6A0E6A0F6A106A36
:100BB0000A0E116E126A136A146A200E156E1668F8
:100BC000176A2B0E186E032A02E3044A052A03C093
:100BD000E9FF04C0F3FF055043EC39F0196E250A14
:100BE00013E11950E56E0250E56E0150E56E0050BC
:100BF000E56ED5EC27F0040EE126094A0A2A032AFD
:100C000002E3044A052ABED71950300A06E1300E25
:100C1000156E032A02E3044A052A03C0E9FF04C053
:100C2000F3FF055043EC39F02D0A06E1010E146E76
:100C3000032A02E3044A052A03C0E9FF04C0F3FFC4
:100C4000055043EC39F0200A08E1010E176E200E22
:100C5000186E032A02E3044A052A03C0E9FF04C010
:100C6000F3FF055043EC39F02B0A06E1010E176E35
:100C7000032A02E3044A052A03C0E9FF04C0F3FF84
:100C8000055043EC39F0196E310E195C2BE33A0E26
:100C9000195C28E203C019F004C01AF005C01BF06B
:100CA00019C0E9FF1AC0F3FF1B5043EC39F01C6E6A
:100CB000300E1C5C11E33A0E1C5C0EE213500A0D60
:100CC000F3CF1DF01C501D26D00E1D24136E192AC3
:100CD00002E31A4A1B2AE4D719C003F01AC004F031
:100CE0001BC005F003C0E9FF04C0F3FF055043EC4F
:100CF00039F02E0A2DE1032A02E3044A052A166A76
:100D000003C019F004C01AF005C01BF019C0E9FFB8
:100D10001AC0F3FF1B5043EC39F01C6E300E1C5C04
:100D200011E33A0E1C5C0EE216500A0DF3CF1DF0D3
:100D30001C501D26D00E1D24166E192A02E31A4AD5
:100D40001B2AE4D719C003F01AC004F01BC005F039
:100D500003C0E9FF04C0F3FF055043EC39F0196EFE
:100D60006C0A07E1010E0C6E032A02E3044A052A0D
:100D700009D01950680A06E1010E0E6E032A02E33B
:100D8000044A052A03C0E9FF04C0F3FF055043EC01
:100D900039F0750A06E1010E106E032A02E3044AD7
:100DA000052A03C0E9FF04C0F3FF055043EC39F006
:100DB000196E730A05E1010E0D6E200E156E3FD0FF
:100DC0001950780A03E1100E116E39D01950580AE3
:100DD00005E1100E116E010E126E31D01950630A2A
:100DE00002E1116A2CD019506F0A03E1080E116E4E
:100DF00026D01950660A03E1010E0F6E20D019505B
:100E0000640A1DE01950690A1AE0105005E0FF0E4F
:100E100003260422052213D01950E56E0250E56E18
:100E20000150E56E0050E56ED5EC27F0040EE1268A
:100E3000094A0A2A032A02E3044A052AA3D60D50C6
:100E400021E00650030F0D6E000E0720196E000EF4
:100E500008201A6E0DC006F019C007F01AC008F07D
:100E6000FD0E0D26FF0E19221A220DC0E9FF19C032
:100E7000F3FF1A50F5EC37F00D6EF3CF19F0F4CF05
:100E80001AF0FDD00F500DE0000E1A6E120E196E02
:100E9000960E0D6E040E0626000E07220822166816
:100EA000EED016680C5023E00650040F0C6E000EB6
:100EB00007200F6E000E08201B6E0CC006F00FC03E
:100EC00007F01BC008F0FC0E0C26FF0E0F221B22A1
:100ED0000CC0E9FF0FC0F3FF1B507BEC37F00C6E2A
:100EE000F3CF0FF0F4CF1BF0E9CF1CF067D00E501A
:100EF0002FE00650020F0E6E000E07201D6E000E32
:100F000008201E6E0EC006F01DC007F01EC008F0BF
:100F1000FE0E0E26FF0E1D221E220EC0E9FF1DC072
:100F2000F3FF1E50CDEC38F00E6E0EC00CF00F6AC1
:100F30001B6A1C6A11500A0A03E11050D8B43ED053
:100F40000C500E6E0EC00CF00F6A1B6A1C6A36D075
:100F50000650020F0E6E000E07201D6E000E0820B8
:100F60001E6E0EC006F01DC007F01EC008F0FE0E7B
:100F70000E26FF0E1D221E220EC0E9FF1DC0F3FF2C
:100F80001E50CDEC38F00E6EF3CF1DF00EC00CF0FD
:100F90001DC00FF0E86A1DBEFF0E1B6E1C6E1150C7
:100FA0000A0A02E110500AE00C500E6E0F501D6E3E
:100FB0000EC00CF01DC00FF01B6A1C6A050E196EE6
:100FC0005B0E0D6E800E1A6E1150D8B440D01050CA
:100FD00013E01150E56E050EE56E5B0EE56E1C50DC
:100FE000E56E1B50E56E0F50E56E0C50E56E94EC0F
:100FF0001FF0070EE12612D01150E56E050EE56ECA
:101000005B0EE56E1C50E56E1B50E56E0F50E56EF5
:101010000C50E56E9EEC2EF0070EE12617502FE0E7
:101020000DC0E9FF19C0F3FF1A5043EC39F02D0A47
:1010300026E0FF0E0D2619221A2218C0E5FF0DC06A
:10104000E9FF19C0F3FF1A50D4EC39F018D00CC0E6
:10105000E5FF0DC0E9FF19C0F3FF1A50D4EC39F0D9
:101060000D50010F0C6E000E19200E6E000E1A208E
:10107000E56A0CC0E9FF0EC0F3FFD4EC39F00DC0F7
:101080000CF019C00EF01AC00FF013C010F0105081
:1010900010E00CC0E9FF0EC0F3FF0F5043EC39F035
:1010A000176E175006E00C2A02E30E4A0F2A1006AC
:1010B000EED710C013F014501EE109C00CF00AC0A6
:1010C0000EF010C00FF00F5010E01550E56E0250FA
:1010D000E56E0150E56E0050E56ED5EC27F0040E8C
:1010E000E1260C4A0E2A0F06EED70CC009F00EC0FE
:1010F0000AF00FC013F016C00CF00DC00DF019C0AF
:101100000EF01AC00FF009C010F00AC015F00DC0A3
:10111000E9FF0EC0F3FF0F5043EC39F0166E165086
:10112000D8B43ED00CC016F0176A161E171E165003
:10113000171005E00CC016F00C06165031E00DC07B
:10114000E9FF0EC0F3FF0F5043EC39F0116E12505F
:1011500010E01150E56E8AEC38F0166EE65216502B
:1011600004E0DF0E1114166E02D011C016F016C086
:1011700011F01150E56E0250E56E0150E56E005021
:10118000E56ED5EC27F0040EE1260D2A02E30E4AA7
:101190000F2A104A152A1350D8B4B9D71306B7D757
:1011A00010C009F015C00AF014502BE010C00CF06C
:1011B00015C00DF013C00EF00E501FE0200EE56EAE
:1011C0000250E56E0150E56E0050E56ED5EC27F05B
:1011D000040EE1260C4A0D2A0E06EED70B50E56EE2
:1011E0000250E56E0150E56E0050E56ED5EC27F03B
:1011F000040EE126094A0A2A04D00CC009F00DC0E9
:101200000AF0032A02E3044A052AC2EF05F00AC0E5
:10121000F3FF0950E4CF1EF0E4CF1DF0E4CF1CF043
:10122000E4CF1BF0E4CF1AF0E4CF19F0E4CF18F0CC
:10123000E4CF17F0E4CF16F0E4CF15F0E4CF14F0CC
:10124000E4CF13F0E4CF12F0E4CF11F0E4CF10F0CC
:10125000E4CF0FF0E4CF0EF0E4CF0DF0E4CF0CF0CC
:10126000E4CF0BF0E4CF0AF0E4CF09F0E4CF08F0CC
:10127000E4CF07F0E4CF06F0E4CF05F0E4CF04F0CC
:10128000E4CF03F0E4CF02F0E4CF01F0E4CF00F0CC
:10129000E4CFD9FF12003C4E4F20464C4F41543E04
:1012A0000000D9CFE5FFE1CFD9FF00C0E5FF01C0C5
:1012B000E5FF02C0E5FF03C0E5FF04C0E5FF05C090
:1012C000E5FF06C0E5FF07C0E5FF08C0E5FF09C070
:1012D000E5FF0AC0E5FF0BC0E5FF0CC0E5FF0DC050
:1012E000E5FF020EDBCF00F0030EDBCF01F0040EB2
:1012F000DBCF02F00050090F066E000E0120076ED2
:10130000000E0220086E0B6E07500A6E0650096E22
:10131000E56A0D0EE56E0B50E56E0A50E56E09505C
:10132000E56E800EE56E050EE56E400EE56EEEECA8
:1013300029F0080EE12600C009F001C00AF002C041
:101340000BF0E56AE56E0B50E56E0A50E56E09504C
:10135000E56E800EE56E040EE56E810EE56EEEEC38
:1013600029F0080EE12681C403F00350010A04E0CD
:101370000350030A01E018D105015551036E56517F
:10138000046E05014851056E4951096E0550035C14
:101390000501A86F09500458A96F050155510501B1
:1013A000486F050156510501496F05015751050167
:1013B0004A6F0501585105014B6F0501A851A9114C
:1013C000D8A47ED043EC36F0036EF3CF04F0F4CF14
:1013D00005F0E9CF09F005014D510A6E4E510B6E33
:1013E0004F510C6E50510D6E0A50035E0B50045A53
:1013F0000C50055A0D50095A03500501676F0450EF
:10140000686F0550696F7F0E09146A6F05014CB152
:1014100025D0050168356A31046E6931036E0434E4
:1014200004320332000E04BEFF0E096E056E86C440
:101430000AF00B6A0C6A0D6A0D50800FF36E0950AA
:10144000800FF35C08E105500C5C05E104500B5C77
:1014500002E103500A5C02E205014C8105014CB136
:1014600049D044C503F045C504F046C505F047C55D
:1014700009F005016A51800FF36E0950800FF35C8B
:1014800008E10550695D05E10450685D02E1035023
:10149000675D08E203C067F504C068F505C069F53B
:1014A00009C06AF5050159A304D0010E036E046A50
:1014B00002D00368046803C0A8F504C0A9F51AD0D7
:1014C00005014C9151C567F552C568F553C569F5DD
:1014D00054C56AF5050167510501446F050168515E
:1014E0000501456F050169510501466F05016A5106
:1014F0000501476F05016A51800F800F08E1000E5A
:10150000695D05E1000E685D02E1010E675D06E2BE
:1015100005016B6B6C6B6D6B6E6B46D00501675193
:10152000036E6851046E6951056E6A51E56E05508F
:10153000E56E0450E56E0350E56E010EE56E000E9B
:10154000E56AE56AE56A9EEC25F0036EF3CF04F0E8
:10155000F4CF05F0E9CF09F0080EE126A8C50AF09E
:10156000A9C50BF0E86A0501A9BFFF0E0C6E0D6E50
:101570000950E56E0550E56E0450E56E0350E56ECA
:101580000D50E56E0C50E56E0B50E56E0A50E56EA1
:101590008AEC1EF005016B6FF3CF6CF5F4CF6DF59F
:1015A000E9CF6EF5080EE126020E0401815DD8A098
:1015B00045D1050159A142D10050230F036E000E01
:1015C0000120046E000E0220E56E0450E56E03500B
:1015D000E56E0EEC00F0030EE1260050230F036EC3
:1015E000000E0120046E000E0220056E020E03267E
:1015F000000E0422052203C0E9FF04C0F3FF0550DA
:101600007BEC37F0F3CF04F0F4CF05F0E9CF09F02D
:101610000450036E0550046ED89004320332D89003
:10162000043203320950E840E840C00B041209407C
:10163000E8403F0BE8BAC009056E096A05BE0968B3
:1016400005015551035C05016F6F050156510458A2
:101650000501706F0501575105580501716F0501AE
:10166000585109580501726FD88072AFD89022E3A3
:101670000401831D046E821D036E034A042AE86A76
:1016800004BEFF0E056E096E05017251800FF36EE8
:101690000950800FF35C08E10550715D05E10450CD
:1016A000705D02E103506F5D05E305016F6B706BC8
:1016B000716B726B05017251800F800F08E1000E93
:1016C000715D05E1000E705D02E1010E6F5D1EE3CC
:1016D00082C403F083C404F0E86A040183BFFF0EF0
:1016E000056E800FF36E05017251800FF35C08E107
:1016F0007151055C05E17051045C02E16F51035CBE
:1017000005E305016F6B706B716B726B04018751A0
:1017100009E0E86CD89005016F3770377137723780
:10172000010FF9E305017251800F800F08E1000EEF
:10173000715D05E1800E705D02E1000E6F5D07E3F3
:1017400005016F697F0E706F716B726B14D00501AC
:101750007251800F810F08E1FF0E715D05E1800E6F
:10176000705D02E1000E6F5D06E205016F6B800E99
:10177000706F716972690050330F036E000E0120A3
:10178000046E000E0220056E05016F51096E705146
:10179000E56E0950E56E0550E56E0450E56E0350A8
:1017A000E56ED4EC13F0050EE12604018151030A25
:1017B00023E10050330F036E000E0120046E000E73
:1017C0000220056E0B0E0326000E0422052203C024
:1017D000E9FF04C0F3FF05507BEC37F0F3CF04F0D2
:1017E000F4CF05F00450036E0550046E035005015C
:1017F000406F0450416F22D00050330F036E000E33
:101800000120046E000E0220056E0B0E0326000E52
:101810000422052203C0E9FF04C0F3FF05507BEC5E
:1018200037F0F3CF04F0F4CF05F00450036E055009
:10183000046E03500501426F0450436F81C403F0EE
:101840000350010A04E00350030A01E07DD040C5C3
:1018500003F041C504F0E86A050141BFFF0E056EC3
:10186000096E05016B51035C05016F6F05016C5139
:1018700004580501706F05016D5105580501716F20
:1018800005016E5109580501726F800F800F08E144
:10189000000E715D05E1800E705D02E1000E6F5D6E
:1018A00007E305016F697F0E706F716B726B14D067
:1018B00005017251800F810F08E1FF0E715D05E196
:1018C000800E705D02E1000E6F5D06E205016F6B38
:1018D000800E706F716972690050440F036E000EC4
:1018E0000120046E000E0220056E05016F51096E85
:1018F0007051E56E0950E56E0550E56E0450E56ED9
:101900000350E56ED4EC13F0050EE126440E0026DC
:10191000000E012202220B0E0026000E01220222DE
:1019200000C0E9FF01C0F3FF02507BEC37F0F3CFBA
:1019300001F0F4CF02F00150006E0250016E005031
:101940000501426F0150436F0850086EE56A0D0EA5
:10195000E56E800EE56E050EE56E400EE56E0850F4
:10196000E56E0750E56E0650E56EEEEC29F0080EC8
:10197000E126E4CF0DF0E4CF0CF0E4CF0BF0E4CFA0
:101980000AF0E4CF09F0E4CF08F0E4CF07F0E4CFA9
:1019900006F0E4CF05F0E4CF04F0E4CF03F0E4CFA9
:1019A00002F0E4CF01F0E4CF00F0E4CFD9FF120061
:1019B00025642025640A0000D9CFE5FFE1CFD9FFD7
:1019C00000C0E5FF01C0E5FF02C0E5FF03C0E5FF81
:1019D00004C0E5FF05C0E5FF06C0E5FF07C0E5FF61
:1019E00008C0E5FF09C0E5FF0AC0E5FF0BC0E5FF41
:1019F0000CC0E5FF020EDBCF00F0030EDBCF01F0E1
:101A0000040EDBCF02F0036A046A6DEC36F0056E5B
:101A1000FE0A01E077D0D5EC31F06DEC36F0066EC1
:101A2000030E065CD8A05AD0060E065CD8B056D07D
:101A3000FD0E0624076EFA6AFB6A0734FA36E834AC
:101A4000FA36FC0B540FE56E1A0EFA22000EFB223A
:101A5000E450F96E30EF0DF042EF0DF05BEF0DF05A
:101A60000050090F076E000E0120086E000E0220C4
:101A700007C0E9FF08C0F3FFCDEC38F0036EF3CFE9
:101A800004F02CD00050090F076E000E0120086EE4
:101A9000000E0220096E020E0726000E08220922FF
:101AA00007C0E9FF08C0F3FF0950CDEC38F0036E22
:101AB000F3CF04F013D00050070F076E000E012083
:101AC000086E000E022007C0E9FF08C0F3FF43ECD8
:101AD00039F0010B076E07C003F0046A06C007F077
:101AE0000450E56E0350E56EE56A0750E56E000EA2
:101AF000E56E190EE56EB00EE56ED9EC33F0070E0B
:101B0000E1269AD1080E055CD8B096D1FA6AFB6A34
:101B10000534FA36E834FA36FC0B2A0FE56E1B0E54
:101B2000FA22000EFB22E450F96EA5EF0DF0C0EF93
:101B30000DF0D2EF0DF0E4EF0DF016EF0EF04CEFDC
:101B40000EF06BEF0EF0C8EF0EF00050230F056E95
:101B5000000E0120076E000E0220E56E0750E56EB4
:101B60000550E56EC7EC17F0030EE126020EE56E98
:101B700000C0E9FF01C0F3FF0250D4EC39F05CD1A2
:101B80000050330F056E000E0120076E000E02207C
:101B9000E56E0750E56E0550E56E2BEC1CF0030E6C
:101BA000E1264AD10050440F056E000E0120076E59
:101BB000000E0220E56E0750E56E0550E56E2BEC39
:101BC0001CF0030EE12638D10050090F056E000EFF
:101BD0000120076E000E0220086E6DEC36F00C6ED0
:101BE0000B6AE56A0CC0F4FF05C0E9FF07C0F3FF0C
:101BF00008509BEC39F06DEC36F00A6A0B260A505F
:101C00000C220BC0E5FF0CC0F4FF05C0E9FF07C0C4
:101C1000F3FF08509BEC39F0010EE56E00C0E9FFC0
:101C200001C0F3FF0250D4EC39F006D10050090F87
:101C3000056E000E0120076E000E0220086E020ED7
:101C40000526000E072208226DEC36F00C6E0B6A9A
:101C5000E56A0CC0F4FF05C0E9FF07C0F3FF0850B8
:101C60009BEC39F06DEC36F00A6A0B260A500C2218
:101C70000BC0E5FF0CC0F4FF05C0E9FF07C0F3FF90
:101C800008509BEC39F0E56A00C0E9FF01C0F3FFA2
:101C90000250D4EC39F0D0D00050070F056E000E82
:101CA0000120076E000E0220086E6DEC36F0010B6D
:101CB000F46E05C0E9FF07C0F3FF085043EC39F0AC
:101CC000FE0BF410E56E05C0E9FF07C0F3FF0850F6
:101CD000D4EC39F0B1D06DEC36F0066E0050160F32
:101CE000056E000E0120076E000E0220086E0550E2
:101CF0000C0F096E000E07200A6E000E08200B6EF6
:101D00000650D880E866D8900C6A0C360C50D88003
:101D1000E866D8900C6A0C360C50010BF46E09C0C2
:101D2000E9FF0AC0F3FF0B5043EC39F0FE0BF4104F
:101D3000E56E09C0E9FF0AC0F3FF0B50D4EC39F09F
:101D40000650010A01E078D0080E0526000E072291
:101D50000822E56AF46AF66AF76A05C0E9FF07C077
:101D6000F3FF085032EC39F00050230F056E000EDF
:101D70000120066E000E0220E56AE56AE56E065057
:101D8000E56E0550E56E48EC27F0050EE12654D0CF
:101D90006DEC36F0046E036A6DEC36F0066A0326CD
:101DA000065004220050160F056E000E0120066E2C
:101DB000000E0220076E05500C0F086E000E062064
:101DC000096E000E07200A6E08C0E9FF09C0F3FF84
:101DD00043EC39F0E880E56E08C0E9FF09C0F3FF85
:101DE0000A50D4EC39F0080E0526000E0622072210
:101DF00003C008F004C009F008C0E5FF09C0F4FF03
:101E0000F66AF76A05C0E9FF06C0F3FF075032EC37
:101E100039F0230E0026000E012202220450E56E46
:101E20000350E56E0250E56E0150E56E0050E56E20
:101E30009DEC2CF0050EE126E4CF0CF0E4CF0BF086
:101E4000E4CF0AF0E4CF09F0E4CF08F0E4CF07F0E4
:101E5000E4CF06F0E4CF05F0E4CF04F0E4CF03F0E4
:101E6000E4CF02F0E4CF01F0E4CF00F0E4CFD9FFFB
:101E7000120000C0E5FF01C0E5FF02C0E5FF03C09E
:101E8000E5FF04C0E5FF05C0E5FF06C0E5FF07C0AC
:101E9000E5FF08C0E5FF09C0E5FF0AC0E5FFC2A2F3
:101EA00004D00401205172EF11F004012151D8B483
:101EB0002FD104012051020DF450016EF3CF00F038
:101EC000E00E0026000E012200C0E9FF01C0EAFF7B
:101ED000EECF00F0EFCF01F0000E2025026E036A76
:101EE000050E032202C0E9FF03C0EAFFEFCF02F0B4
:101EF0000250FF0A01E166D002380F0B036E920E0A
:101F00000324046E056A0F0E0522066A920E03264C
:101F10000F0E062203C0E9FF06C0EAFFEFCF03F071
:101F20000250066E070E0616010E076E06500DE0F3
:101F300006E6E86CD8900736010FFDE306D0D8908E
:101F400007BED8800732010FFBE3071C066E035063
:101F5000061604C0E9FF05C0EAFF06C0EFFF02381D
:101F60000F0B036E890E0324046E056A0F0E052203
:101F7000066A890E03260F0E062203C0E9FF06C07B
:101F8000EAFFEFCF03F00250066E070E0616010EB1
:101F9000076E06500DE006E6E86CD8900736010F94
:101FA000FDE306D0D89007BED8800732010FFBE3CF
:101FB000071C066E0350061604C0E9FF05C0EAFFC1
:101FC00006C0EFFF04012051020DF450046EF3CF60
:101FD00003F0E00E0326000E042201340130066EE9
:101FE0000030056E063406320532063406320532FC
:101FF0000550005C056E06500158066EC3CF07F011
:10200000086A0750052608500622C4CF07F0086A60
:1020100007500A6E096A095005260A50062203C0B5
:10202000E9FF04C0EAFF05C0EEFF06C0EFFF0401B0
:102030001C51010A01E06AD004012051020DF45044
:10204000046EF3CF03F0E00E0324056E000E0420AF
:10205000066E05C0E9FF06C0EAFFEECF00F0EFCF45
:1020600001F0750E0326030E042203C0E9FF04C02D
:10207000EAFFEECF05F0EFCF06F09C0E0526D8A0C4
:1020800006060150800FF36E0650800FF35C02E1EC
:102090000550005C0EE20050640F056E000E01203A
:1020A000066E03C0E9FF04C0EAFF05C0EEFF06C0EC
:1020B000EFFF04012051020DF450046EF3CF03F042
:1020C000950E0326030E042203C0E9FF04C0EAFFB5
:1020D000EECF05F0EFCF06F0640E0526D8B0062A45
:1020E0000650800FF36E0150800FF35C02E1005048
:1020F000055C0CE29C0E0026D8A0010603C0E9FF97
:1021000004C0EAFF00C0EEFF01C0EFFF0401216B35
:102110000401202B100E205D01E3206B0401203907
:10212000E8441F0B006E016AA40E0026050E012272
:1021300000C0E9FF01C0EAFFEFCF00F020C401F0CA
:10214000070E0116010E036E000E046E015006E02C
:10215000E86CD89003360436010FFCE3056A0050A2
:1021600003160550041603500410D880E866D89072
:10217000036A03360350D8A4B3D0100E04012025FF
:10218000006E016A050E012200C0E9FF01C0EAFFEE
:10219000EFCF00F00044E844FC0B016E0128C26E52
:1021A000000E2025006E016A050E012200C0E9FF25
:1021B00001C0EAFFEFCF02F00250FF0A01E18CD02C
:1021C00002380F0B006E920E0024016E036A0F0E90
:1021D0000322046A920E00260F0E042200C0E9FFBB
:1021E00004C0EAFFEFCF00F00250046E070E0416A1
:1021F000010E056E04500DE006E6E86CD890053639
:10220000010FFDE306D0D89005BED8800532010F3E
:10221000FBE30050051201C0E9FF03C0EAFF05C05F
:10222000EFFF380E006E0F0E016E02380F0B036EBB
:10223000046A0350002604500122380E056E0F0E6A
:10224000066E055003260650042203C0E9FF04C0B1
:10225000EAFFEFCF03F0070E0216010E046E0250E4
:102260000DE006E6E86CD8900436010FFDE306D0D9
:10227000D89004BED8800432010FFBE3035004124F
:1022800000C0E9FF01C0EAFF04C0EFFF0F01458372
:102290000000000045930F0144930BC0E5FFF2CF0F
:1022A0000BF0F29E448100000000000000000000DE
:1022B000000000000000000000000000000000001E
:1022C0000000000000000000000000000000449139
:1022D0000BBEF28EE4CF0BF0C282010E0401216F1F
:1022E00004012051E4CF0AF0E4CF09F0E4CF08F074
:1022F000E4CF07F0E4CF06F0E4CF05F0E4CF04F03C
:10230000E4CF03F0E4CF02F0E4CF01F0E4CF00F03B
:10231000120000C0E5FF01C0E5FF02C0E5FF03C0F9
:10232000E5FF04C0E5FF05C0E5FF06C0E5FF07C007
:10233000E5FF08C0E5FF09C0E5FF0AC0E5FF0BC0E7
:10234000E5FF0CC0E5FF006A016A026A040E025C48
:10235000D8B0ECD101C003F0012A100E035CD8B054
:10236000E5D10401222B100E225D01E3226B040152
:102370002239E8441F0B036E046AA40E0326050EDF
:10238000042203C0E9FF04C0EAFFEFCF03F022C438
:1023900004F0070E0416010E056E000E066E0450C2
:1023A00006E0E86CD89005360636010FFCE3076AB4
:1023B000035005160750061605500610D880E8662B
:1023C000D890056A05360550D8A4C0D7040122511B
:1023D000020DF450046EF3CF03F0E00E0324056EFB
:1023E000000E0420066E05C0E9FF06C0EAFFEECF2E
:1023F00005F0EFCF06F01FC407F007A09DD0750EC3
:102400000324076E030E0420086E07C0E9FF08C00E
:10241000EAFFEECF07F0EFCF08F00650800FF36E23
:102420000850800FF35C02E10750055C03E2056A87
:10243000066A60D0950E0326030E042203C0E9FF4E
:1024400004C0EAFFEECF03F0EFCF04F00450800F9A
:10245000F36E0650800FF35C02E10550035C04E26A
:1024600005683F0E066E46D00750055C096E0850A1
:1024700006580A6EE86A0ABEFF0E0B6EE56E0B5038
:10248000E56E0A50E56E0950E56EE56AE56A400EB4
:10249000E56E000EE56A8AEC1EF0096EF3CF0AF0D5
:1024A000F4CF0BF0E9CF0CF0080EE1260750035CE7
:1024B000076E08500458086EE86A08BEFF0E036EE7
:1024C000E56E0350E56E0850E56E0750E56E0C5062
:1024D000E56E0B50E56E0A50E56E0950E56E9EEC18
:1024E00025F0036EF3CF04F0080EE1260350056ECD
:1024F0000450066E04011E51800FF36E0650800FCB
:10250000F35C02E105501D5D03E3056A066A14D021
:1025100004011D51FF08036E3F0E1E55046E065048
:10252000800FF36E0450800FF35C02E10350055CF2
:1025300003E305683F0E066E04012251020DF450BC
:10254000046EF3CF03F0550E0326030E042203C0DE
:10255000E9FF04C0EAFFEECF03F0EFCF04F0035031
:10256000055C036E04500658046ED88004AED89003
:1025700004E3041E036CD8B4042A022A04011E5189
:10258000800FF36E0450800FF35C02E103501D5D79
:10259000D8B0DCD604012251020DF450086EF3CFFE
:1025A00007F0550E0726030E082207C0E9FF08C0F2
:1025B000EAFF05C0EEFF06C0EFFF1FC407F007A447
:1025C00059D02251020DF450086EF3CF07F0B50E2A
:1025D0000724096E030E08200A6E09C0E9FF0AC02D
:1025E000EAFFEECF0BF0EFCF0CF00B500C10D8B48D
:1025F00041D05C0E0726040E082207C0E9FF08C080
:10260000EAFFEECF07F0EFCF08F00750055C036E4E
:1026100008500658046E03101CE00450800F800F11
:1026200002E1010E035C076A07360C50800F800F31
:1026300002E1010E0B5C0B6A0B3607500B1809E127
:1026400009C0E9FF0AC0EAFF03C0EEFF04C0EFFFC4
:102650007DD604012251020DF450046EF3CF03F035
:10266000B50E0326030E042203C0E9FF04C0EAFFEF
:10267000EE6AEF6A1FC403F003A244D000500EE1DB
:1026800000C003F0002A046A230E0326040E04226D
:1026900003C0E9FF04C0EAFF420EEF6E00C003F082
:1026A000002A046A230E0326040E04220401225188
:1026B000076E640E072603C0E9FF04C0EAFF07C0E7
:1026C000EFFF00C003F0002A046A230E0326040E65
:1026D00004220650076E03C0E9FF04C0EAFF07C0EA
:1026E000EFFF00C003F0002A046A230E0326040E45
:1026F00004220550076E03C0E9FF04C0EAFF07C0CB
:10270000EFFF24D622C403F00650E56E0550E56EB7
:10271000E56A0350E56E000EE56E530EE56ED00ED1
:10272000E56ED9EC33F0070EE12610D602C001F0B9
:1027300000501EE01FC402F002A21AD000C002F036
:10274000002A036A230E0226040E032202C0E9FFB8
:1027500003C0EAFF0A0EEF6E0050E56E800EE56ED4
:10276000040EE56E230EE56EE8EC28F0040EE1267B
:102770000150E4CF0CF0E4CF0BF0E4CF0AF0E4CF4B
:1027800009F0E4CF08F0E4CF07F0E4CF06F0E4CF9F
:1027900005F0E4CF04F0E4CF03F0E4CF02F0E4CF9F
:1027A00001F0E4CF00F01200D9CFE5FFE1CFD9FF6F
:1027B00000C0E5FF01C0E5FF02C0E5FF03C0E5FF83
:1027C00004C0E5FF05C0E5FF06C0E5FF07C0E5FF63
:1027D00008C0E5FF09C0E5FF0AC0E5FF0BC0E5FF43
:1027E000020EDBCF00F0030EDBCF01F0040EDBCFD7
:1027F00002F0050EDBCF03F0060EDBCF04F0025033
:102800000A6E0150096E0050086EE56A110EE56E01
:102810000A50E56E0950E56E0850E56E800EE56ED3
:102820000F0EE56E230EE56EEEEC29F0080EE126A4
:1028300032CF05F033CF06F0E86A0F0133BFFF0E49
:10284000076E05017A6F0650796F0550786F776BC8
:1028500003C005F004C006F0E86A04BEFF0E076E70
:10286000086E23CF09F0E56AE56AE56A0950E56E6E
:102870000850E56E0750E56E0650E56E0550E56EB2
:102880008AEC1EF00501736FF3CF74F5F4CF75F584
:10289000E9CF76F5080EE1260F012451D8B4AFD068
:1028A0000450800F800F02E1010E035C25E30F014D
:1028B0002951800F7C0F08E1000E285D05E1000E14
:1028C000275D02E1000E265D17E20F013151800FF6
:1028D000F36E05017A51800FF35C0DE179510F0120
:1028E000305D09E1050178510F012F5D04E105011B
:1028F00077510F012E5D33E3D88004AED890D8A075
:1029000043D00F012951800F840F08E1000E285D8C
:1029100005E1000E275D02E1010E265D35E30501AC
:102920007A1D0A6E791D096E781D046E771D036E7F
:10293000032A04E1042A02E1094A0A2A0A50800F04
:10294000F36E0F013151800FF35C08E13051095CE7
:1029500005E12F51045C02E12E51035C15E20550A4
:102960000F012625036E06502721046E07502821EB
:10297000096E085029210A6E0350266F0450276FF4
:102980000950286F0A50296F0F0126390F0B036E6B
:102990002739046EF00B041A03262851E838F00B8F
:1029A000041228390F0B096E29390A6EF00B0A1A26
:1029B0000926F00E0AB60A2624CF0BF0E56AE56A6E
:1029C000E56A0B50E56E0A50E56E0950E56E04505D
:1029D000E56E0350E56E8AEC1EF0036EF3CF04F053
:1029E000F4CF09F0E9CF0AF0080EE1260350050103
:1029F000732704507423095075230A5076230F015E
:102A00002551D8B465D02A51055C05017B6F0F01B3
:102A10002B51065805017C6F0F012C5107580501F9
:102A20007D6F0F012D51085805017E6F800F800FBB
:102A300008E1010E7D5D05E1000E7C5D02E1000E06
:102A40007B5D06E305017B697C697D6B7E6B13D042
:102A500005017E51800F810F08E1FF0E7D5D05E1CC
:102A6000000E7C5D02E1000E7B5D05E205017B6BE3
:102A70007C6B7D697E6905017B517B25036E7C350E
:102A8000046E7D35096E7E350A6E25CF0BF0E56A42
:102A9000E56AE56A0B50E56E0A50E56E0950E56E91
:102AA0000450E56E0350E56E8AEC1EF0036EF3CF22
:102AB00004F0F4CF09F0E9CF0AF0080EE126035044
:102AC0000501732704507423095075230A50762397
:102AD00005500F012A6F06502B6F07502C6F0850BE
:102AE0002D6F05017A51800FF36E05017651800F2D
:102AF000F35C0DE175510501795D09E10501745142
:102B00000501785D04E1050173510501775D11E26E
:102B1000050177510F012E6F050178510F012F6FBD
:102B2000050179510F01306F05017A510F01316FA5
:102B30003AD005017A1D066E791D056E781D046E6A
:102B4000771D036E032A04E1042A02E1054A062ADE
:102B500005017651800FF36E0650800FF35C08E19B
:102B60000550755D05E10450745D02E10350735D2D
:102B70000AE203500F012E6F04502F6F0550306F83
:102B80000650316F10D0050173510F012E6F0501F2
:102B900074510F012F6F050175510F01306F050141
:102BA00076510F01316FE56A110EE56E800EE56E0C
:102BB0000F0EE56E230EE56E0250E56E0150E56ED8
:102BC0000050E56EEEEC29F0080EE126E4CF0BF0A4
:102BD000E4CF0AF0E4CF09F0E4CF08F0E4CF07F047
:102BE000E4CF06F0E4CF05F0E4CF04F0E4CF03F047
:102BF000E4CF02F0E4CF01F0E4CF00F0E4CFD9FF5E
:102C0000120000C0E5FF01C0E5FF02C0E5FF03C000
:102C1000E5FF05C0E5FF0CEC3AF0929E899E43EC7F
:102C200036F0F3CF01F0F4CF02F0E9CF03F0880FD4
:102C300004017C6F130E01207D6F000E02207E6F59
:102C4000000E03207F6F6BEC29F09280800E006EE7
:102C50000F0E016E0F0E036E380E00260350012278
:102C6000800E026E0F0E036E800E005E0350015A3E
:102C70000F0E056E380E0226055003220F0E056E4C
:102C8000800E025E0550035A02C0E9FF03C0EAFF4E
:102C9000EFCF02F0028000C0E9FF01C0EAFF02C0EE
:102CA000EFFF000EE56AE56A31EC2CF0E652E652E1
:102CB000D4EC30F08B9A949A200EE56E800EE56E7F
:102CC0000F0EE56E8B0EE56E000EE56A3BEC2EF006
:102CD000050EE12689988A9A8A860401898392984A
:102CE000939A9396040192939486820E006E0F0E2F
:102CF000016E0F0E036E380E0026035001220F0ED8
:102D0000036E800E005E0350015A820E026E0F0E9B
:102D1000036E0F0E056E380E0226055003220F0EAD
:102D2000056E800E025E0550035A02C0E9FF03C023
:102D3000EAFFEFCF02F0029600C0E9FF01C0EAFF10
:102D400002C0EFFF928A800E006E0F0E016E0F0E12
:102D5000036E380E002603500122800E026E0F0E05
:102D6000036E800E005E0350015A0F0E056E380E82
:102D70000226055003220F0E056E800E025E0550DE
:102D8000035A02C0E9FF03C0EAFFEFCF02F0029A44
:102D900000C0E9FF01C0EAFF02C0EFFF9283800E8E
:102DA000006E040E016E0F0E036E380E00260350E7
:102DB00001220F0E036E800E005E0350015A800E3A
:102DC000026E040E036E0F0E056E380E02260550BD
:102DD00003220F0E056E800E025E0550035A02C0DC
:102DE000E9FF03C0EAFFEFCF02F0029200C0E9FF63
:102DF00001C0EAFF02C0EFFF0C0E0F01546F0F017C
:102E0000549B54990F01556B0301006B020E016F27
:102E1000026B0A0E036F046B100E056F070E066F30
:102E200007910783800EE56E030EE56E230EE56EB7
:102E300082EC31F0030EE126800EE56E030EE56EA6
:102E4000440EE56E77EC24F0030EE126800EE56E6D
:102E5000030EE56E330EE56E77EC24F0030EE126EB
:102E600003011E6B1F6B206B216B22912295096B56
:102E70000A6B0B6B0C6B116B126B136B146B9486E0
:102E8000820E006E0F0E016E0F0E036E380E0026BE
:102E9000035001220F0E036E800E005E0350015A94
:102EA000820E026E0F0E036E0F0E056E380E022696
:102EB000055003220F0E056E800E025E0550035A68
:102EC00002C0E9FF03C0EAFFEFCF02F0029600C0A4
:102ED000E9FF01C0EAFF02C0EFFF9488820E006E96
:102EE0000F0E016E0F0E036E380E002603500122E6
:102EF0000F0E036E800E005E0350015A820E026EAA
:102F00000F0E036E0F0E056E380E022605500322BB
:102F10000F0E056E800E025E0550035A02C0E9FFD7
:102F200003C0EAFFEFCF02F0029800C0E9FF01C042
:102F3000EAFF02C0EFFF8A88939893900C0E0F016E
:102F4000576F9392B96AB984BD6E0F01579B579919
:102F50000F01586BBD9ABD98BE6A03010783016BD0
:102F6000026B960E036F046B090E066FF3EC39F0DB
:102F7000330ECD6E9D809F80E4CF05F0E4CF03F04B
:102F8000E4CF02F0E4CF01F0E4CF00F01200D9CF9B
:102F9000E5FFE1CFD9FF00C0E5FF01C0E5FF02C0BA
:102FA000E5FF03C0E5FF04C0E5FF05C0E5FF06C07F
:102FB000E5FF07C0E5FF08C0E5FF09C0E5FF0AC05F
:102FC000E5FF0BC0E5FF020EDBCF00F0030EDBCF09
:102FD00001F0040EDBCF02F0036A046A6DEC36F0F8
:102FE000056EFE0A01E094D0D5EC31F06DEC36F0C0
:102FF000066E06500EE00650010A1DE00650020A59
:103000002CE006500A0A3BE006500B0A01E142D0D0
:103010006DD00050060F076E000E0120086E000EE6
:10302000022007C0E9FF08C0F3FFCDEC38F0036EC3
:10303000F3CF04F05BD000500C0F076E000E0120A0
:10304000086E000E022007C0E9FF08C0F3FFCDECB8
:1030500038F0036EF3CF04F049D000500E0F076E26
:10306000000E0120086E000E022007C0E9FF08C014
:10307000F3FFCDEC38F0036EF3CF04F037D000C08F
:10308000E9FF01C0F3FF0250CDEC38F0036EF3CF3F
:1030900004F02CD00050020F076E000E0120086EC5
:1030A000000E0220096E07C0E9FF08C0F3FF0950B7
:1030B0007BEC37F0F3CF08F0F4CF09F0E9CF0AF05A
:1030C0000850076E0950086ED89008320732D89021
:1030D000083207320A50E840E840C00B08120A40A4
:1030E000E8403F0B0750036E0850046E0450E56E35
:1030F0000350E56EE56A0650E56E000EE56E630E60
:10310000E56EA20EE56ED9EC33F0070EE126DBD0BA
:10311000055014E00550010A3AE00550020A01E1A9
:103120005FD005500A0A01E184D005500B0A01E185
:1031300099D005500C0A01E1AED0C5D00050060F61
:10314000056E000E0120066E000E0220076E6DEC6B
:1031500036F00B6E0A6AE56A0BC0F4FF05C0E9FFA2
:1031600006C0F3FF07509BEC39F06DEC36F0096AAE
:103170000A2609500B220AC0E5FF0BC0F4FF05C068
:10318000E9FF06C0F3FF07509BEC39F09CD00050DC
:103190000C0F056E000E0120066E000E0220076E59
:1031A0006DEC36F00B6E0A6AE56A0BC0F4FF05C0E1
:1031B000E9FF06C0F3FF07509BEC39F06DEC36F0E9
:1031C000096A0A2609500B220AC0E5FF0BC0F4FF6A
:1031D00005C0E9FF06C0F3FF07509BEC39F073D040
:1031E00000500E0F056E000E0120066E000E02202C
:1031F000076E6DEC36F00B6E0A6AE56A0BC0F4FFE1
:1032000005C0E9FF06C0F3FF07509BEC39F06DECF9
:1032100036F0096A0A2609500B220AC0E5FF0BC0E6
:10322000F4FF05C0E9FF06C0F3FF07509BEC39F03F
:103230004AD06DEC36F0046E036A6DEC36F0066A27
:103240000326065004220450E56E0350E56E02503A
:10325000E56E0150E56E0050E56E46EC35F0050E6A
:10326000E12631D06DEC36F0046E036A6DEC36F079
:10327000066A0326065004220450E56E0350E56EEC
:103280000250E56E0150E56E0050E56E48EC27F007
:10329000050EE12618D06DEC36F0046E036A6DEC75
:1032A00036F0066A0326065004220450E56E0350E9
:1032B000E56E0250E56E0150E56E0050E56E9DEC46
:1032C0002CF0050EE126E4CF0BF0E4CF0AF0E4CFBA
:1032D00009F0E4CF08F0E4CF07F0E4CF06F0E4CF44
:1032E00005F0E4CF04F0E4CF03F0E4CF02F0E4CF44
:1032F00001F0E4CF00F0E4CFD9FF120000C0E5FFF9
:1033000001C0E5FF02C0E5FF03C0E5FF4AEC23F082
:1033100039EC0FF001EC22F043EC36F0006EF3CF05
:1033200001F0F4CF02F0E9CF03F004017C51005E1C
:103330007D51015A7E51025A7F51035A039E3F0E1E
:10334000035C08E1FF0E025C05E1FF0E015C02E197
:10335000FF0E005CD8B035D143EC36F0F3CF01F06E
:10336000F4CF02F0E9CF03F0100F04017C6F270EB9
:1033700001207D6F000E02207E6F000E03207F6F04
:1033800089EC11F04AEC23F032EC37F004C0E5FF91
:10339000F2CF04F0F29E0301165105014D6F0301B7
:1033A000175105014E6F0301185105014F6F0301BD
:1033B00019510501506F03011A510501516F0301A5
:1033C0001B510501526F03011C510501536F03018D
:1033D0001D510501546F03011E510501556F030175
:1033E0001F510501566F030120510501576F03015D
:1033F00021510501586F030122510501596F030145
:103400001A6B1B6B1C6B1D6B04BEF28EE4CF04F0B9
:10341000800EE56E030EE56E000EE56E51EC09F0D0
:10342000030EE1260BC3AAF50CC3ABF50501AB51A6
:10343000800F7C0F02E1000EAA5D04E30501AA697A
:10344000030EAB6F0501AB51800F840F02E1010E3B
:10345000AA5D05E2010E0501AA6FFC0EAB6F050126
:10346000AB51800F800F02E1010EAA5D10E3050150
:10347000AB51800FF36E03010451800FF35C03E145
:1034800003510501AA5D03E20501AA6BAB6BD8806D
:103490000501ABAFD89015E30301041D016E031DB8
:1034A000006E004A012A0150800FF36E0501AB51F6
:1034B000800FF35C02E1AA51005C03E20501AA6BF4
:1034C000AB6B030107A309D022A507D0D880050163
:1034D000ABAFD89002E3AA6BAB6BD8800501ABAF62
:1034E000D89009E3006A82B6002A0050010A03E17D
:1034F0000501AA6BAB6B0501AB51800F800F02E198
:10350000010EAA5D09E3006A82B8002A0050010A90
:1035100003E10501AA6BAB6BD8800501ABAFD89076
:1035200007E3AA51FF0F006E030EAB21016E04D01A
:10353000AAC500F0ABC501F000C0ACF501C0ADF507
:103540000501AC51020BE840010BE838E844F46E89
:103550000F015451DF0BF410546F0501AC51010BF6
:10356000010BE838F46E0F015451EF0BF410546F57
:103570000501AD35AD31016EAC31006E0134013263
:10358000003200500F01556FD8800501ABAFD890C5
:1035900002E38A8A01D08A9AD8800501ABAFD8901D
:1035A00003E30301229302D003012283AEC500F09E
:1035B0000501AE2B0B0E005C04E3E7EC2AF00501DD
:1035C000AE6BE4CF03F0E4CF02F0E4CF01F0E4CF40
:1035D00000F01200800EE56E030EE56E950EE56EAE
:1035E00027EC32F0030EE126800EE56E030EE56E49
:1035F000750EE56E27EC32F0030EE126800EE56EC7
:10360000030EE56E970EE56E27EC32F0030EE12611
:10361000800EE56E030EE56E770EE56E27EC32F058
:10362000030EE126800EE56E030EE56E990EE56E43
:1036300027EC32F0030EE126800EE56E030EE56EF8
:10364000790EE56E27EC32F0030EE126800EE56E72
:10365000030EE56E9B0EE56E27EC32F0030EE126BD
:10366000800EE56E030EE56E7B0EE56E27EC32F004
:10367000030EE126800EE56E030EE56E9D0EE56EEF
:1036800027EC32F0030EE126800EE56E030EE56EA8
:103690007D0EE56E27EC32F0030EE126800EE56E1E
:1036A000030EE56E9F0EE56E27EC32F0030EE12669
:1036B000800EE56E030EE56E7F0EE56E27EC32F0B0
:1036C000030EE126800EE56E030EE56EA10EE56E9B
:1036D00027EC32F0030EE126800EE56E030EE56E58
:1036E000810EE56E27EC32F0030EE126800EE56ECA
:1036F000030EE56EA30EE56E27EC32F0030EE12615
:10370000800EE56E030EE56E830EE56E27EC32F05B
:10371000030EE126800EE56E030EE56EA50EE56E46
:1037200027EC32F0030EE126800EE56E030EE56E07
:10373000850EE56E27EC32F0030EE126800EE56E75
:10374000030EE56EA70EE56E27EC32F0030EE126C0
:10375000800EE56E030EE56E870EE56E27EC32F007
:10376000030EE126800EE56E030EE56EA90EE56EF2
:1037700027EC32F0030EE126800EE56E030EE56EB7
:10378000890EE56E27EC32F0030EE126800EE56E21
:10379000030EE56EAB0EE56E27EC32F0030EE1266C
:1037A000800EE56E030EE56E8B0EE56E27EC32F0B3
:1037B000030EE126800EE56E030EE56EAD0EE56E9E
:1037C00027EC32F0030EE126800EE56E030EE56E67
:1037D0008D0EE56E27EC32F0030EE126800EE56ECD
:1037E000030EE56EAF0EE56E27EC32F0030EE12618
:1037F000800EE56E030EE56E8F0EE56E27EC32F05F
:10380000030EE126800EE56E030EE56EB10EE56E49
:1038100027EC32F0030EE126800EE56E030EE56E16
:10382000910EE56E27EC32F0030EE126800EE56E78
:10383000030EE56EB30EE56E27EC32F0030EE126C3
:10384000800EE56E030EE56E930EE56E27EC32F00A
:10385000030EE1261200D9CFE5FFE1CFD9FF00C06A
:10386000E5FF01C0E5FF02C0E5FF03C0E5FF04C0BE
:10387000E5FF05C0E5FF06C0E5FF07C0E5FF08C09E
:10388000E5FF020EDBCF00F0030EDBCF01F0040EEC
:10389000DBCF02F0036A046A6DEC36F0056EFE0AB7
:1038A00001E075D0D5EC31F06DEC36F0066E040E0B
:1038B000065CD8B05AD0FA6AFB6A0634FA36E834A5
:1038C000FA36FC0BD40FE56E380EFA22000EFB22FE
:1038D000E450F96E72EF1CF07EEF1CF091EF1CF0DB
:1038E000A4EF1CF000C0E9FF01C0F3FF025043EC5D
:1038F00039F0076E07C003F0046A37D00050010F9B
:10390000076E000E0120086E000E022007C0E9FFBE
:1039100008C0F3FF43EC39F0076E07C003F0046AF8
:1039200024D00050020F076E000E0120086E000E1A
:10393000022007C0E9FF08C0F3FF43EC39F0076E2F
:1039400007C003F0046A11D000500F0F076E000E7D
:103950000120086E000E022007C0E9FF08C0F3FF37
:10396000CDEC38F0036EF3CF04F00450E56E035055
:10397000E56EE56A0650E56E000EE56E4A0EE56EF0
:103980000E0EE56ED9EC33F0070EE1268DD0040E55
:10399000055CD8B089D0FA6AFB6A0534FA36E83497
:1039A000FA36FC0BB40FE56E390EFA22000EFB223C
:1039B000E450F96EE2EF1CF0EFEF1CF01AEF1DF08F
:1039C00030EF1DF06DEC36F0036E03C0E5FF00C074
:1039D000E9FF01C0F3FF0250D4EC39F065D000508C
:1039E000010F036E000E0120046E000E0220056E12
:1039F0006DEC36F0066E06C0E5FF03C0E9FF04C0BB
:103A0000F3FF0550D4EC39F00650D8A44DD0005047
:103A1000030F036E000E0120046E000E0220E56A03
:103A2000F46AF66AF76A03C0E9FF04C0F3FF32ECF8
:103A300039F03AD00050020F036E000E0120046EE0
:103A4000000E0220056E6DEC36F0066E06C0E5FF36
:103A500003C0E9FF04C0F3FF0550D4EC39F024D0D3
:103A60000F0E0026000E012202226DEC36F0066ECB
:103A7000056AE56A06C0F4FF00C0E9FF01C0F3FF74
:103A800002509BEC39F06DEC36F0046A05260450C8
:103A9000062205C0E5FF06C0F4FF00C0E9FF01C033
:103AA000F3FF02509BEC39F0E4CF08F0E4CF07F0CD
:103AB000E4CF06F0E4CF05F0E4CF04F0E4CF03F068
:103AC000E4CF02F0E4CF01F0E4CF00F0E4CFD9FF7F
:103AD000120000C0E5FF01C0E5FF02C0E5FF03C022
:103AE000E5FF04011951D8B40CD1A3A81DD0A4A896
:103AF0001BD00501B9510501B61905E171EC39F08A
:103B00000501B66BFED0000E0501B925006E016AF5
:103B10000F0E012200C0E9FF01C0EAFFEFCFB2F5AE
:103B2000B92BB2C573FFEDD0A3AAEBD0A4AAE9D0FC
:103B300071A205D00501B78171EC39F0E2D071A412
:103B400005D00501B78371EC39F0DBD071A048D006
:103B500074CFB2F51AC400F0016A008EB2C502F04B
:103B6000036A0250001803E10350011801E004D079
:103B70000501B7897196C5D00501B25104E0B25173
:103B800004011A1929E10501B79971960501B2518D
:103B900003E00501B79702D00501B787B2C5BBF5B1
:103BA000B4C5BCF50501B451006E00040501BD6F3C
:103BB000600E0501BC25006E016A000E012200C0E6
:103BC000E9FF01C0EAFFB2C5EFFFBC2BBC51800A80
:103BD00002E10501BC6B95D00501B799718691D0C2
:103BE00074CFB2F50501B7A921D01AC400F0016A5B
:103BF000008EB2C502F0036A0250001803E10350C0
:103C0000011801E011D0A39A7198929C0501B65158
:103C100004E1736A71EC39F007D000CF73FF010E35
:103C20000501B96FA3886DD071866BD00501B251C3
:103C30000501BB270501BC510501BD191BE10501AB
:103C4000BB510CE1BCC5B4F50501B7B712D0A39ABE
:103C50007198929C736A71EC39F00BD00501B785AD
:103C6000B7B707D0A39A7198929C010E736E71EC4E
:103C700039F047D00501BC510501B51908E105012E
:103C8000B5510501B41903E071EC39F03AD0B4C56F
:103C900000F0016A004A012AE56A800EE56E0150D3
:103CA000E56E0050E56E57EC2BF0006E040EE12639
:103CB00000500501B36F0501BC190FE1B2C500F05A
:103CC0001F0E00140501BD6F006E020E0024BD6FB3
:103CD0000501B4510501BD27BD9FBCC500F005011C
:103CE000BC2B016A600E0026000E012200C0E9FF15
:103CF00001C0EAFFB2C5EFFFBC51800A02E1050135
:103D0000BC6BE4CF03F0E4CF02F0E4CF01F0E4CFEA
:103D100000F01200D9CFE5FFE1CFD9FF00C0E5FFE9
:103D200001C0E5FF02C0E5FF03C0E5FF04C0E5FFF9
:103D300005C0E5FF06C0E5FF07C0E5FF020EDBCFCB
:103D400000F0030EDBCF01F0040EDBCF02F0050E16
:103D5000DBCF03F0060EDBCF04F0070EDBCF05F060
:103D6000080EDBCF06F0090EDBCF07F0005005018F
:103D7000836F0150846F0250856F0350866F04502B
:103D80000501876F0550886F0650896F07508A6F4D
:103D90000501835105018903F4CF01F0F3CF00F051
:103DA000005005018D6F01508E6F05018351050193
:103DB0008703F4CF01F0F3CF00F0005005018B6FC3
:103DC00001508C6F0501865105018703F3CF00F088
:103DD00005018E51002600508E6F050185510501A9
:103DE0008803F3CF01F001500026005005018E6FCB
:103DF0000501855105018703F4CF01F0F3CF00F0F1
:103E000005018D5100268E51012200508D6F015009
:103E10008E6F0501845105018803F4CF03F0F3CFC1
:103E200002F00250002603500122005005018D6F60
:103E300001508E6F0501845105018903F3CF00F015
:103E400000500501926F0501845105018703F4CFED
:103E500001F0F3CF00F000500501906F0150916F19
:103E60000501835105018A03F3CF00F000500501DD
:103E7000966F0501835105018803F4CF01F0F3CF5C
:103E800000F000500501946F0150956F05018F6B94
:103E90000501936B05018F5105018B25006E05010E
:103EA000905105018C21016E0501915105018D2173
:103EB000026E0501925105018E21036E00508B6F39
:103EC00001508C6F02508D6F03508E6F050193511E
:103ED00005018B25006E0501945105018C21016EB1
:103EE0000501955105018D21026E050196510501CF
:103EF0008E21036E03C0E9FF02C0F4FF01C0F3FF8F
:103F00000050E4CF07F0E4CF06F0E4CF05F0E4CFB3
:103F100004F0E4CF03F0E4CF02F0E4CF01F0E4CF0B
:103F200000F0E4CFD9FF1200D9CFE5FFE1CFD9FFF0
:103F300000C0E5FF01C0E5FF02C0E5FF03C0E5FFEB
:103F400004C0E5FF05C0E5FF06C0E5FF07C0E5FFCB
:103F500008C0E5FF09C0E5FF0AC0E5FF0BC0E5FFAB
:103F60000CC0E5FF0DC0E5FF0EC0E5FF0FC0E5FF8B
:103F7000020EDBCF00F0030EDBCF01F0040EDBCF2F
:103F800002F0050EDBCF03F0060EDBCF04F0070EC8
:103F9000DBCF05F0080EDBCF06F0200E076E086AB7
:103FA00006C009F00A6A0B6A0C6AE56AE56AE56A06
:103FB0000950E56E0350E56E0250E56E0150E56E66
:103FC0000050E56EADEC22F00D6E080EE126300ECD
:103FD0000D263A0E0D5C05E30D500E6E270E0E24D5
:103FE0000D6EFF0E07260822D50E07240E6E030E57
:103FF00008200F6E0EC0E9FF0FC0EAFF0DC0EFFFF3
:104000000C50E56E0B50E56E0A50E56E0950E56EFA
:104010000350E56E0250E56E0150E56E0050E56E0E
:104020009EEC25F0006EF3CF01F0F4CF02F0E9CF63
:1040300003F0080EE1260050011002100310D8A46E
:10404000AFD707C000F008C001F004C002F005C0FF
:1040500003F000C004F001C005F0004A012AD50EAB
:104060000426030E052204C0E9FF05C0EAFFEFCFD6
:1040700004F002C0E9FF03C0EAFF04C0EFFF024AF8
:10408000032A000E015C02E1200E005CE2E302C0A4
:10409000E9FF03C0EAFF000EEF6AE4CF0FF0E4CFC0
:1040A0000EF0E4CF0DF0E4CF0CF0E4CF0BF0E4CF52
:1040B0000AF0E4CF09F0E4CF08F0E4CF07F0E4CF52
:1040C00006F0E4CF05F0E4CF04F0E4CF03F0E4CF52
:1040D00002F0E4CF01F0E4CF00F0E4CFD9FF12000A
:1040E000D9CFE5FFE1CFD9FF00C0E5FF01C0E5FF73
:1040F00002C0E5FF03C0E5FF04C0E5FF05C0E5FF22
:1041000006C0E5FF07C0E5FF08C0E5FF09C0E5FF01
:104110000AC0E5FF0BC0E5FF0CC0E5FF0DC0E5FFE1
:10412000020EDBCF00F0030EDBCF01F0040EDBCF7D
:1041300002F0050EDBCF03F0060EDBCF04F0070E16
:10414000DBCF05F0080EDBCF06F0090EDBCF07F062
:10415000D88003AED890086A083608500FE0031CD8
:104160000C6E021C0B6E011C0A6E001C096E092AE3
:104170000DE10A2A0BE10B4A0C2A08D000C009F015
:1041800001C00AF002C00BF003C00CF0D88007AEEB
:10419000D890006A003600500FE0071C0D6E061C18
:1041A000036E051C026E041C016E012A0DE1022A39
:1041B0000BE1034A0D2A08D004C001F005C002F04B
:1041C00006C003F007C00DF00D50E56E0350E56E1C
:1041D0000250E56E0150E56E0C50E56E0B50E56E39
:1041E0000A50E56E0950E56E9EEC25F0016EF3CFA6
:1041F00002F0F4CF03F0E9CF04F0080EE1260050FE
:10420000081A085016E0041C076E031C066E021CF8
:10421000056E011C006E002A04E1052A02E1064A2F
:10422000072A07C0E9FF06C0F4FF05C0F3FF0050EE
:1042300007D004C0E9FF03C0F4FF02C0F3FF015040
:10424000E4CF0DF0E4CF0CF0E4CF0BF0E4CF0AF0B4
:10425000E4CF09F0E4CF08F0E4CF07F0E4CF06F0B4
:10426000E4CF05F0E4CF04F0E4CF03F0E4CF02F0B4
:10427000E4CF01F0E4CF00F0E4CFD9FF120000C09A
:10428000E5FF01C0E5FF02C0E5FF03C0E5FF9EA01A
:10429000AAD0006A80BA002A0050010BF46E030114
:1042A0000851FE0BF410086F006A82B6002A005015
:1042B000010A08E103011E6B1F6B206B216B228139
:1042C000228502D003012295006A030108B1002A69
:1042D000016A08B5012A0050011801E180D0006A86
:1042E000030108B1002A0050010BE844E844F46ED1
:1042F0000851FB0BF410086F16511A5D006E175130
:104300001B59016E18511C59026E19511D59036E2B
:1043100000501A6F01501B6F02501C6F03501D6F2D
:104320000F0134510301166F0F0135510301176F4F
:104330000F0136510301186F0F0137510301196F37
:104340000F013451002635510122365102223751D6
:104350000322005003011A6F01501B6F02501C6FA3
:1043600003501D6F006A040180B3002A0050010B46
:10437000E844F46E03010851FD0BF410086F22A30A
:1043800018D01EC300F01FC301F020C302F021C3E8
:1043900003F0002A04E3012A02E3024A032A005040
:1043A00003011E6F01501F6F0250206F0350216FD9
:1043B00016D01EC300F01FC301F020C302F021C3BA
:1043C00003F0FF0E00260122022203220050030107
:1043D0001E6F01501F6F0250206F0350216FCF6876
:1043E0009B0ECE6E9E907FEC39F0E4CF03F0E4CFCD
:1043F00002F0E4CF01F0E4CF00F0120043002563A7
:10440000000000C0E5FF01C0E5FF02C0E5FF03C0FA
:10441000E5FF0F014EB198D043EC36F0006EF3CFBC
:1044200001F0F4CF02F0E9CF03F005017F51005E07
:104430008051015A8151025A8251035A039E3F0E04
:10444000035C08E1FF0E025C05E1FF0E015C02E186
:10445000FF0E005C16E221EC3AF043EC36F0F3CFAD
:1044600001F0F4CF02F0E9CF03F0500F05017F6FA8
:10447000460E0120806F000E0220816F000E032087
:10448000826F080E0401305DD8B05ED03051020D4D
:10449000F450016EF3CF00F0300E0026050E01221D
:1044A00000C0E9FF01C0EAFFEECF02F0EFCF03F05A
:1044B0000250031002E1302B47D004013051030DAC
:1044C000F450036EF3CF02F0E80E0226040E03222E
:1044D00002C0E9FF03C0EAFFEECFFDF3EECFFEF32B
:1044E000EFCFFFF38A0E3025026E036A040E03221B
:1044F00002C0E9FF03C0EAFFEFCFC1F500C0E9FF4A
:1045000001C0EAFFEECF00F0EFCF01F0001E011E68
:1045100001500F01506F00500F014F6F7E9204C089
:10452000E5FFF2CF04F0F29E0301FD51E96EFE516A
:10453000EA6E0501C151EF120F014E8104BEF28EE9
:10454000E4CF04F00401302BE4CF03F0E4CF02F019
:10455000E4CF01F0E4CF00F01200D9CFE5FFE1CFC6
:10456000D9FF00C0E5FF01C0E5FF02C0E5FF03C0C1
:10457000E5FF04C0E5FF05C0E5FF06C0E5FF07C095
:10458000E5FF08C0E5FF09C0E5FF0AC0E5FF020E30
:10459000DBCF00F0030EDBCF01F0040EDBCF02F027
:1045A000050EDBCF03F0060EDBCF04F0070EDBCFEA
:1045B00005F0080EDBCF06F0090EDBCF07F0086A26
:1045C000045005100610071005E1E968F468F36867
:1045D000E86847D0096A0750800BE8440A6E0A5021
:1045E0001BE1045004260536063607360750035CE7
:1045F00008E10650025C05E10550015C02E104504F
:10460000005C06E2D890073206320532043204D04C
:10461000092A09C008F0DFD70750035C08E10650FB
:10462000025C05E10550015C02E10450005C08E316
:104630000450005E0550015A0650025A0750035AB2
:10464000D890073206320532043208C009F0080655
:104650000950E2E103C0E9FF02C0F4FF01C0F3FF2B
:104660000050E4CF0AF0E4CF09F0E4CF08F0E4CF43
:1046700007F0E4CF06F0E4CF05F0E4CF04F0E4CF98
:1046800003F0E4CF02F0E4CF01F0E4CF00F0E4CF98
:10469000D9FF120000C0E5FF01C0E5FF02C0E5FF41
:1046A00003C0E5FF04C0E5FF0501B5510501B419DC
:1046B00001E16AD0B5C500F00050016E0128006E1E
:1046C000009E600E0024016E026A000E022201C0EC
:1046D000E9FF02C0EAFFEFCFBFF51F0E0501BF17CC
:1046E000B5C5BEF5BF510501BE27BE51016E020E14
:1046F0000124BE6FBE9F6DEC36F0016E015003E1E8
:10470000016A012A01D0016A6DEC36F00501BF6F24
:10471000BFC502F0800E0216BFC503F01F0E0316C0
:1047200003C004F003C0BFF5045003E1B4C5B5F500
:104730003ED001501EE0025025E06DEC36F0006ED8
:104740000501BF51016E0104BF6F0050420A1AE01B
:1047500000504E0A03E156EC33F014D00050460AE4
:1047600003E1BEEC39F00ED00050490A0BE1FF0026
:1047700009D0B5C5C0F5025003E07BEC30F002D0A3
:1047800061EC28F0BEC5B5F50401165104011719F6
:1047900006E00501B65103E1E2EC23F008D092BC3B
:1047A00006D00501B65103E172B271EC39F0E4CFE5
:1047B00004F0E4CF03F0E4CF02F0E4CF01F0E4CF63
:1047C00000F0120000C0E5FF01C0E5FF02C0E5FFF8
:1047D00003C0E5FF04C0E5FF72A27ED09BEC37F07A
:1047E000006E005005E10401176B0401166B74D0D4
:1047F00017C401F0005001269BEC37F0026E005008
:10480000036E0304006E0250230A1FE1010E005CD8
:10481000D8A060D09BEC37F0026E690A03E112EC7D
:1048200036F058D00250720A03E171EC39F052D0E0
:104830000250730A01E04ED0928C7186A38AA3982D
:10484000745074507198718845D00250430A05E045
:104850000250420A01E03ED006D000C003F0046AD4
:10486000038E0350006E00C0B8F500500F01006FBA
:10487000010E0501B96F04011751011814E09BECFA
:1048800037F0026E0501B827000E0501B925006E4C
:10489000036A0F0E032200C0E9FF03C0EAFF02C053
:1048A000EFFFB92BE8D7000E0501B925006E026AAB
:1048B0000F0E02220501B81D036E032A00C0E9FF96
:1048C00002C0EAFF03C0EFFF0501B92BB9C5B6F579
:1048D0000501B06B01C017F4E4CF04F0E4CF03F09E
:1048E000E4CF02F0E4CF01F0E4CF00F01200D9CF22
:1048F000E5FFE1CFD9FF00C0E5FF01C0E5FF02C041
:10490000E5FF03C0E5FF04C0E5FF05C0E5FF06C005
:10491000E5FF07C0E5FF020EDBCF00F0030EDBCFA3
:1049200001F0040EDBCF02F000500B0F036E000EFF
:104930000120046E000E0220E56AF46AF66AF76A46
:1049400003C0E9FF04C0F3FF32EC39F00050070F59
:10495000036E000E0120046E000E0220056E005052
:10496000030F066E000E0120076E000E0220E56A9E
:10497000F46AF66AF76A06C0E9FF07C0F3FF32EC93
:1049800039F0E56AF46AF66AF76A03C0E9FF04C021
:10499000F3FF055032EC39F00050010F036E000EAA
:1049A0000120046E000E0220056E0050020F066EFC
:1049B000000E0120076E000E0220E56A06C0E9FF26
:1049C00007C0F3FFD4EC39F0E56A03C0E9FF04C087
:1049D000F3FF0550D4EC39F0E56A00C0E9FF01C0EF
:1049E000F3FF0250D4EC39F0E4CF07F0E4CF06F047
:1049F000E4CF05F0E4CF04F0E4CF03F0E4CF02F01D
:104A0000E4CF01F0E4CF00F0E4CFD9FF1200256439
:104A10002025640A0000D9CFE5FFE1CFD9FF00C00F
:104A2000E5FF01C0E5FF02C0E5FF03C0E5FF04C0EC
:104A3000E5FF05C0E5FF06C0E5FF07C0E5FF08C0CC
:104A4000E5FF09C0E5FF0AC0E5FF020EDBCF00F07D
:104A5000030EDBCF01F0040EDBCF02F0050EDBCF3F
:104A600003F0060EDBCF04F0070EDBCF05F00038B5
:104A7000E8441F0B066E076AA40E0626050E0722E1
:104A800006C0E9FF07C0EAFFEFCF08F00050096E4B
:104A9000070E0916010E0A6E09500DE006E6E86CD5
:104AA000D8900A36010FFDE306D0D8900ABED88010
:104AB0000A32010FFBE308500A1206C0E9FF07C0E3
:104AC000EAFF0AC0EFFF100E0024066E076A050E0B
:104AD000072206C0E9FF07C0EAFF01C0EFFF016A35
:104AE000000E0026050E0122800E025E070E021641
:104AF0000238F00B036E070E05160550032600C0A2
:104B0000E9FF01C0EAFF03C0EFFFE4CF0AF0E4CF02
:104B100009F0E4CF08F0E4CF07F0E4CF06F0E4CFEB
:104B200005F0E4CF04F0E4CF03F0E4CF02F0E4CFEB
:104B300001F0E4CF00F0E4CFD9FF1200D9CFE5FFB8
:104B4000E1CFD9FF00C0E5FF01C0E5FF02C0E5FFEE
:104B500003C0E5FF04C0E5FF05C0E5FF06C0E5FFB3
:104B600007C0E5FF08C0E5FF09C0E5FF0AC0E5FF93
:104B70000BC0E5FF0CC0E5FF0DC0E5FF020EDBCF6B
:104B800000F0030EDBCF01F0040EDBCF02F0050EC8
:104B9000DBCF03F0060EDBCF04F0070EDBCF05F012
:104BA000080EDBCF06F0090EDBCF07F0086A096AB2
:104BB0000A6A0B6A200E0C6E0350800BE8440D6EDF
:104BC0000050002601360236033608500826093602
:104BD0000A360B360D50D8A4088007500B5C08E14C
:104BE00006500A5C05E10550095C02E10450085CCE
:104BF00009E30450085E0550095A06500A5A075046
:104C00000B5A00800C040D6E0DC00CF00D50D4E159
:104C100003C0E9FF02C0F4FF01C0F3FF0050E4CF7E
:104C20000DF0E4CF0CF0E4CF0BF0E4CF0AF0E4CFCA
:104C300009F0E4CF08F0E4CF07F0E4CF06F0E4CFCA
:104C400005F0E4CF04F0E4CF03F0E4CF02F0E4CFCA
:104C500001F0E4CF00F0E4CFD9FF120000C0E5FF7F
:104C600001C0E5FF03C0E5FF04C0E5FF05C0E5FFA7
:104C700006C0E5FF07C0E5FF08C0E5FF09C0E5FF86
:104C80000AC0E5FF0BC0E5FFA2C500F0A3C501F017
:104C90000501A23F01D0A32B0050E56E63EC39F073
:104CA000E652076E046A056A066AA2C500F0A3C54B
:104CB00001F00501A23F01D0A32B0050E56E63EC8B
:104CC00039F0E6520B6A0A6E086A0850041205129F
:104CD0000A5006120B500712A2C500F0A3C501F03E
:104CE0000501A23F01D0A32B0050E56E63EC39F023
:104CF000E652036E006A03C001F0E86A03BEFF0ECD
:104D0000086E096E00500412015005120850061278
:104D100009500712A2C500F0A3C501F00501A23F8A
:104D200001D0A32B0050E56E63EC39F0E652016A26
:104D30000412015005120612071207C0E9FF06C04F
:104D4000F4FF05C0F3FF0450E4CF0BF0E4CF0AF00A
:104D5000E4CF09F0E4CF08F0E4CF07F0E4CF06F0A9
:104D6000E4CF05F0E4CF04F0E4CF03F0E4CF01F0AA
:104D7000E4CF00F01200D9CFE5FFE1CFD9FF00C0AA
:104D8000E5FF01C0E5FF02C0E5FF03C0E5FF04C089
:104D9000E5FF05C0E5FF06C0E5FF07C0E5FF020E21
:104DA000DBCF00F0030EDBCF01F0040EDBCF02F00F
:104DB000050EDBCF03F003C004F0056A0350D8B43E
:104DC00054D000C0E9FF01C0F3FF025043EC39F0BA
:104DD000066E430A08E1010E056E03C006F0076A7D
:104DE000068E0650036E0406002A02E3014A022AD8
:104DF000A39A7198929CA398A4A8FED77280736A14
:104E00000000A4A8FED7729003C073FF0000A4A8FE
:104E1000FED7055004E0420E736E032604D0620EE6
:104E2000736E620E0326045015E00000A4A8FED79E
:104E300000C0E9FF01C0F3FF025043EC39F0056EFA
:104E400005C073FF055003260406002A02E3014A49
:104E5000022AE9D70000A4A8FED7031C736E732AA8
:104E60000000A4A8FED771EC39F0E4CF07F0E4CF3E
:104E700006F0E4CF05F0E4CF04F0E4CF03F0E4CF94
:104E800002F0E4CF01F0E4CF00F0E4CFD9FF12004C
:104E9000D9CFE5FFE1CFD9FF00C0E5FF01C0E5FFB5
:104EA00002C0E5FF03C0E5FF04C0E5FF05C0E5FF64
:104EB00006C0E5FF07C0E5FF08C0E5FF0BC0E5FF42
:104EC0000CC0E5FF0DC0E5FF020EDBCF00F0030EC6
:104ED000DBCF01F0040EDBCF02F0050EDBCF03F0D9
:104EE000060EDBCF04F003C0E5FF04C0F4FF00C0F2
:104EF000E9FF01C0F3FF02509BEC39F00050020FB4
:104F0000056E000E0120066E000E0220076EE86A94
:104F100004BEFF0E086E04500C6E0C2608340D6E95
:104F2000D8900C360D360344E844FC0B0B6E03504E
:104F3000E844E844030B0C12E56A0BC0F4FF0CC014
:104F4000F6FF0DC0F7FF05C0E9FF06C0F3FF0750ED
:104F500032EC39F0080E0026000E01220222E56A2A
:104F6000F46AF66AF76A00C0E9FF01C0F3FF025075
:104F700032EC39F0E4CF0DF0E4CF0CF0E4CF0BF0DD
:104F8000E4CF08F0E4CF07F0E4CF06F0E4CF05F07B
:104F9000E4CF04F0E4CF03F0E4CF02F0E4CF01F07B
:104FA000E4CF00F0E4CFD9FF1200D9CFE5FFE1CF85
:104FB000D9FF00C0E5FF01C0E5FF02C0E5FF03C067
:104FC000E5FF04C0E5FF05C0E5FF06C0E5FF07C03B
:104FD000E5FF020EDBCF00F0030EDBCF01F0040E85
:104FE000DBCF02F0050EDBCF03F002C006F0065067
:104FF000046E800A33E100C0E9FF01C0F3FF0250F4
:10500000F5EC37F0056EF3CF06F0F4CF07F003C0F0
:10501000E5FF05C0E9FF06C0F3FF0750D4EC39F007
:1050200000C0E9FF01C0F3FF0250F5EC37F0056E58
:10503000F3CF06F0F4CF07F0052A02E3064A072A69
:1050400005C0E5FF06C0F4FF07C0F6FF00C0E9FF9A
:1050500001C0F3FF025054EC39F020D004C000F03E
:1050600000AA1CD0007A0050046E04E1035011EC39
:105070003AF014D00450010A04E1035002EC00F0AD
:105080000DD004500F0A04E10350E1EC35F006D0D6
:1050900004500E0A03E1035024EC3AF0E4CF07F089
:1050A000E4CF06F0E4CF05F0E4CF04F0E4CF03F062
:1050B000E4CF02F0E4CF01F0E4CF00F0E4CFD9FF79
:1050C000120000C0E5FF01C0E5FF02C0E5FF03C01C
:1050D000E5FF05C0E5FF6DEC36F0006E0A0A0CE056
:1050E00000500B0A34E00050140A01E159D000507E
:1050F000780A01E158D061D06DEC36F0006A016E9B
:105100006DEC36F0036A0026035001220050020BBA
:10511000E840010BE838E844F46E0F015751DF0B0B
:10512000F410576F0050010B010BE838F46E575123
:10513000EF0BF410576FD8900130036E0030026E01
:10514000D8900332023202500F01586F36D06DEC06
:1051500036F0026A036E6DEC36F0056A0224006ECA
:1051600005500320016E0050020BE840010BE838A7
:10517000E844F46EBD50DF0BF410BD6E0050010B1F
:10518000010BE838F46EBD50EF0BF410BD6ED890F3
:1051900001320032D890013200320050BE6E0DD084
:1051A000D5EC2DF00AD0800EE56E030EE56E000EF4
:1051B000E56EDCEC0CF0030EE126E4CF05F0E4CF65
:1051C00003F0E4CF02F0E4CF01F0E4CF00F01200EE
:1051D000D9CFE5FFE1CFD9FF00C0E5FF01C0E5FF72
:1051E00002C0E5FF03C0E5FF04C0E5FF05C0E5FF21
:1051F00006C0E5FF07C0E5FF020EDBCF00F0030E9F
:10520000DBCF01F0040EDBCF02F0050EDBCF03F0A5
:1052100017C418F4040116510401185F1851046EE4
:105220000404186F03C004F0056A030E0426D8B006
:10523000052A18C406F0076A0750800FF36E055060
:10524000800FF35C02E10450065C02E2E86830D0B3
:10525000020E035C02E2E86A2BD00350046E0404E1
:10526000036EE56E95EC34F0E652046A0350045C7C
:1052700014E204500024056EE86A0120066EE86A14
:10528000022005C0E9FF06C0F3FF43EC39F0042A11
:10529000E56E95EC34F0E652E9D717C418F4040132
:1052A00016510401185F1851006E0004186FE86A67
:1052B000E4CF07F0E4CF06F0E4CF05F0E4CF04F04C
:1052C000E4CF03F0E4CF02F0E4CF01F0E4CF00F04C
:1052D000E4CFD9FF120000C0E5FF01C0E5FF02C026
:1052E000E5FF03C0E5FF04C0E5FF006AA40E00244B
:1052F000016E026A050E022201C0E9FF02C0EAFF48
:10530000EF6A002A020E005CF1E3006A0050020D11
:10531000F450026EF3CF01F0E00E0124036E000E94
:105320000220046E03C0E9FF04C0EAFFEE6AEF6AE0
:105330005C0E0124036E040E0220046E03C0E9FF1C
:1053400004C0EAFFEE6AEF6A550E0124036E030EF5
:105350000220046E03C0E9FF04C0EAFFEE6AEF6AB0
:10536000750E0124036E030E0220046E03C0E9FFD4
:1053700004C0EAFFEE6AEF6A950E0126030E0222D0
:1053800001C0E9FF02C0EAFFEE687F0EEF6E000E7B
:105390000024016E026A050E022201C0E9FF02C06C
:1053A000EAFFEF68002A100E005CD8A0AFD7AF0E5E
:1053B000C06EC16A010EC26EC282E4CF04F0E4CFB7
:1053C00003F0E4CF02F0E4CF01F0E4CF00F01200EC
:1053D0004320412025642025640A0000D9CFE5FF41
:1053E000E1CFD9FF00C0E5FF01C0E5FF02C0E5FF46
:1053F00003C0E5FF04C0E5FF05C0E5FF06C0E5FF0B
:1054000007C0E5FF08C0E5FF09C0E5FF0AC0E5FFEA
:105410000BC0E5FF0CC0E5FF020EDBCF00F0030E72
:10542000DBCF01F0040EDBCF02F0050EDBCF03F083
:10543000060EDBCF04F0070EDBCF05F0080EDBCF46
:1054400006F0090EDBCF07F002500A6E0150096E1C
:105450000050086E06C00BF007C00CF0FF0E0626C9
:1054600007220B500C101AE003C0E9FF04C0F3FF41
:10547000055043EC39F00B6E032A02E3044A052A77
:105480000BC0E5FF08C0E9FF09C0F3FF0A50D4ECE8
:1054900039F0082ADFE3094A0A2ADCD702C0F4FF00
:1054A00001C0F3FF0050E4CF0CF0E4CF0BF0E4CFE9
:1054B0000AF0E4CF09F0E4CF08F0E4CF07F0E4CF3E
:1054C00006F0E4CF05F0E4CF04F0E4CF03F0E4CF3E
:1054D00002F0E4CF01F0E4CF00F0E4CFD9FF1200F6
:1054E000D9CFE5FFE1CFD9FF00C0E5FF01C0E5FF5F
:1054F00002C0E5FF03C0E5FF04C0E5FF05C0E5FF0E
:10550000020EDBCF00F0030EDBCF01F0040EDBCF89
:1055100002F00050020DF450036EF3CF00F05C0E69
:105520000024046E040E0320056E04C0E9FF05C0CC
:10553000EAFF01C0EEFF02C0EFFF550E0024046E2B
:10554000030E0320056E04C0E9FF05C0EAFFEECF9D
:1055500004F0EFCF05F00150045C016E02500558D5
:10556000026EB50E0026030E032200C0E9FF03C041
:10557000EAFF01C0EEFF02C0EFFFD88002AED89074
:1055800004E3021E016CD8B4022A0250800F800F7F
:1055900002E1030E015C02E2016A026A015002109C
:1055A00007E100C0E9FF03C0EAFF000EEE6AEF6A00
:1055B000E4CF05F0E4CF04F0E4CF03F0E4CF02F051
:1055C000E4CF01F0E4CF00F0E4CFD9FF120000C037
:1055D000E5FF01C0E5FF03011F51006E016A0050A5
:1055E0000401026F03011E510401036F006A82B6B9
:1055F000002A0050010A03E1006A002A01D0006A73
:1056000000500401046F006A82B8002A0050010AA9
:1056100003E1006A002A01D0006A00500401056F0E
:1056200003010C51006E016A00500401066F030172
:105630000B510401076FD89003012731016E263109
:10564000006ED890013200322851E840E840C00B8B
:1056500001122841E8403F0B00500401366F015011
:10566000376F0401086F040136510401096F006AA5
:10567000030122B1002A04EE0AF000C0EFFF0C0E75
:105680000501A06FA16B0A0E04010B6F0C0EE56EF5
:10569000800EE56E040EE56E000EE56EE8EC28F077
:1056A000040EE126E4CF01F0E4CF00F01200D9CFE0
:1056B000E5FFE1CFD9FF00C0E5FF01C0E5FF02C073
:1056C000E5FF03C0E5FF04C0E5FF05C0E5FF06C038
:1056D000E5FF020EDBCF00F0030EDBCF01F0040E7E
:1056E000DBCF02F0050EDBCF03F0D88001AED890FF
:1056F000046A0436045007E0011C066E001C056EA7
:10570000054A062A04D000C005F001C006F0D88082
:1057100003AED89007E3031C016E021C006E004A22
:10572000012A04D002C000F003C001F00150E56E70
:105730000050E56E0650E56E0550E56E1EEC30F04B
:10574000006EF3CF01F0040EE12604500AE0011CC4
:10575000036E001C026E024A032A03C0F3FF0250CC
:1057600003D001C0F3FF0050E4CF06F0E4CF05F012
:10577000E4CF04F0E4CF03F0E4CF02F0E4CF01F093
:10578000E4CF00F0E4CFD9FF1200D9CFE5FFE1CF9D
:10579000D9FF00C0E5FF01C0E5FF02C0E5FF03C07F
:1057A000E5FF04C0E5FF05C0E5FF020EDBCF00F01A
:1057B000030EDBCF01F0040EDBCF02F0050EDBCFD2
:1057C00003F0A2C504F0A3C505F00501A23F01D076
:1057D000A32B0350E56E0450E56E57EC37F0E6520C
:1057E000E652A2C504F0A3C505F00501A23F01D011
:1057F000A32B0250056EE56E0450E56E57EC37F0B2
:10580000E652E652A2C504F0A3C505F00501A23F89
:1058100001D0A32B0150E56E0450E56E57EC37F034
:10582000E652E652A2C504F0A3C505F00501A23F69
:1058300001D0A32B0050E56E0450E56E57EC37F015
:10584000E652E652E4CF05F0E4CF04F0E4CF03F0F3
:10585000E4CF02F0E4CF01F0E4CF00F0E4CFD9FFD1
:105860001200D9CFE5FFE1CFD9FF00C0E5FF01C0AD
:10587000E5FF02C0E5FF03C0E5FF04C0E5FF05C08A
:10588000E5FF06C0E5FF020EDBCF00F0030EDBCF25
:1058900001F00038E8441F0B026E036AA40E0226D2
:1058A000050E032202C0E9FF03C0EAFFEFCF04F0B8
:1058B0000050056E070E0516010E066E05500DE030
:1058C00006E6E86CD8900636010FFDE306D0D890C6
:1058D00006BED8800632010FFBE30450061202C058
:1058E000E9FF03C0EAFF06C0EFFF100E0024026EBE
:1058F000036A050E032202C0E9FF03C0EAFF01C0EC
:10590000EFFF016A000E0026050E012200C0E9FF2C
:1059100001C0EAFFFF0EEF68E4CF06F0E4CF05F028
:10592000E4CF04F0E4CF03F0E4CF02F0E4CF01F0E1
:10593000E4CF00F0E4CFD9FF1200D9CFE5FFE1CFEB
:10594000D9FF00C0E5FF01C0E5FF02C0E5FF03C0CD
:10595000E5FF04C0E5FF05C0E5FF08C0E5FF09C09D
:10596000E5FF0AC0E5FF020EDBCF00F0030EDBCF40
:1059700001F0040EDBCF02F0050EDBCF03F0060EC4
:10598000DBCF04F003C0E5FF04C0F4FF00C0E9FF73
:1059900001C0F3FF02509BEC39F0020E0026000E0E
:1059A0000122022204BEFF0E056E0450096E092674
:1059B00005340A6ED89009360A360344E844FC0BD5
:1059C000086E0350E844E844030B0912E56A08C076
:1059D000F4FF09C0F6FF0AC0F7FF00C0E9FF01C0ED
:1059E000F3FF025032EC39F0E4CF0AF0E4CF09F0D3
:1059F000E4CF08F0E4CF05F0E4CF04F0E4CF03F007
:105A0000E4CF02F0E4CF01F0E4CF00F0E4CFD9FF1F
:105A10001200D9CFE5FFE1CFD9FF00C0E5FF01C0FB
:105A2000E5FF02C0E5FF03C0E5FF04C0E5FF05C0D8
:105A3000E5FF06C0E5FF020EDBCF00F0030EDBCF73
:105A400001F0040EDBCF02F00501AF5119E12EEC9D
:105A500026F0036EF3CF04F0F4CF05F0E9CF06F0A3
:105A600003C0E5FF04C0F4FF05C0F6FF06C0F7FF62
:105A700000C0E9FF01C0F3FF025032EC39F01ED044
:105A80000501AF51010A1AE100C0E9FF01C0F3FFAF
:105A900002507BEC37F0006EF3CF01F0F4CF02F050
:105AA000E9CF03F00350E56E0250E56E0150E56E5C
:105AB0000050E56EC5EC2BF0040EE126E4CF06F0B5
:105AC000E4CF05F0E4CF04F0E4CF03F0E4CF02F03C
:105AD000E4CF01F0E4CF00F0E4CFD9FF1200D9CF3A
