:020000040000FA
:10000000D9EF21F0C96E12007DEF1AF099EC08F0DB
:100010002CEC1AF0FDD7120032EF20F0D9CFE5FF1B
:10002000E1CFD9FF00C0E5FF01C0E5FF02C0E5FF59
:1000300003C0E5FF04C0E5FF05C0E5FF06C0E5FF1E
:1000400007C0E5FF08C0E5FF09C0E5FF0AC0E5FFFE
:100050000BC0E5FF0CC0E5FF0DC0E5FF0EC0E5FFDE
:100060000FC0E5FF10C0E5FF11C0E5FF12C0E5FFBE
:1000700013C0E5FF14C0E5FF15C0E5FF16C0E5FF9E
:1000800017C0E5FF18C0E5FF19C0E5FF1AC0E5FF7E
:100090001BC0E5FF1CC0E5FF1DC0E5FF1EC0E5FF5E
:1000A000020EDBCF00F0030EDBCF01F0040EDBCF3E
:1000B00002F0050EDBCF03F0060EDBCF04F0070ED7
:1000C000DBCF05F0080EDBCF06F0090EDBCF07F023
:1000D0000A0EDBCF08F0096A0A6A02C00DF00D5063
:1000E000800A0DE102500301596F0150586F005012
:1000F000576F030E016E570E006E800E026E03C026
:10010000E9FF04C0F3FF055023EC22F00B6E0B5007
:10011000D8B4C4EF03F00B50250A02E0ABEF03F0B4
:100120000C6A0D6A0E6A0F6A106A0A0E116E126A64
:10013000136A146A200E156E1668176A2B0E186E55
:10014000032A02E3044A052A03C0E9FF04C0F3FFBF
:10015000055023EC22F0196E250A13E11950E56EC3
:100160000250E56E0150E56E0050E56EFEEC13F0B6
:10017000040EE126094A0A2A032A02E3044A052A50
:10018000BED71950300A06E1300E156E032A02E37D
:10019000044A052A03C0E9FF04C0F3FF055023EC1D
:1001A00022F02D0A06E1010E146E032A02E3044A2E
:1001B000052A03C0E9FF04C0F3FF055023EC22F039
:1001C000200A08E1010E176E200E186E032A02E3C2
:1001D000044A052A03C0E9FF04C0F3FF055023ECDD
:1001E00022F02B0A06E1010E176E032A02E3044AED
:1001F000052A03C0E9FF04C0F3FF055023EC22F0F9
:10020000196E310E195C2BE33A0E195C28E203C01B
:1002100019F004C01AF005C01BF019C0E9FF1AC09C
:10022000F3FF1B5023EC22F01C6E300E1C5C11E31C
:100230003A0E1C5C0EE213500A0DF3CF1DF01C5059
:100240001D26D00E1D24136E192A02E31A4A1B2AFA
:10025000E4D719C003F01AC004F01BC005F003C0B6
:10026000E9FF04C0F3FF055023EC22F02E0A2DE134
:10027000032A02E3044A052A166A03C019F004C0DF
:100280001AF005C01BF019C0E9FF1AC0F3FF1B509C
:1002900023EC22F01C6E300E1C5C11E33A0E1C5C49
:1002A0000EE216500A0DF3CF1DF01C501D26D00E85
:1002B0001D24166E192A02E31A4A1B2AE4D719C014
:1002C00003F01AC004F01BC005F003C0E9FF04C02E
:1002D000F3FF055023EC22F0196E6C0A07E1010EC2
:1002E0000C6E032A02E3044A052A09D01950680A51
:1002F00006E1010E0E6E032A02E3044A052A03C03A
:10030000E9FF04C0F3FF055023EC22F0750A06E173
:10031000010E106E032A02E3044A052A03C0E9FF16
:1003200004C0F3FF055023EC22F0196E730A05E1B7
:10033000010E0D6E200E156E3FD01950780A03E1A4
:10034000100E116E39D01950580A05E1100E116EB9
:10035000010E126E31D01950630A02E1116A2CD0DD
:1003600019506F0A03E1080E116E26D01950660A63
:1003700003E1010E0F6E20D01950640A1DE01950E0
:10038000690A1AE0105005E0FF0E03260422052238
:1003900013D01950E56E0250E56E0150E56E005025
:1003A000E56EFEEC13F0040EE126094A0A2A032A40
:1003B00002E3044A052AA3D60D5021E00650030F9C
:1003C0000D6E000E0720196E000E08201A6E0DC06B
:1003D00006F019C007F01AC008F0FD0E0D26FF0E3A
:1003E00019221A220DC0E9FF19C0F3FF1A50EEECD2
:1003F00020F00D6EF3CF19F0F4CF1AF0FDD00F50AE
:100400000DE0000E1A6E080E196E100E0D6E040E21
:100410000626000E072208221668EED016680C5039
:1004200023E00650040F0C6E000E07200F6E000E26
:1004300008201B6E0CC006F00FC007F01BC008F0B0
:10044000FC0E0C26FF0E0F221B220CC0E9FF0FC072
:10045000F3FF1B5057EC20F00C6EF3CF0FF0F4CFEE
:100460001BF0E9CF1CF067D00E502FE00650020FB2
:100470000E6E000E07201D6E000E08201E6E0EC0B0
:1004800006F01DC007F01EC008F0FE0E0E26FF0E7F
:100490001D221E220EC0E9FF1DC0F3FF1E50ADEC51
:1004A00021F00E6E0EC00CF00F6A1B6A1C6A115010
:1004B0000A0A03E11050D8B43ED00C500E6E0EC0A4
:1004C0000CF00F6A1B6A1C6A36D00650020F0E6EC3
:1004D000000E07201D6E000E08201E6E0EC006F0D6
:1004E0001DC007F01EC008F0FE0E0E26FF0E1D22D6
:1004F0001E220EC0E9FF1DC0F3FF1E50ADEC21F01F
:100500000E6EF3CF1DF00EC00CF01DC00FF0E86AA8
:100510001DBEFF0E1B6E1C6E11500A0A02E1105028
:100520000AE00C500E6E0F501D6E0EC00CF01DC078
:100530000FF01B6A1C6A040E196EF40E0D6E800E0D
:100540001A6E1150D8B440D0105013E01150E56E1F
:10055000040EE56EF40EE56E1C50E56E1B50E56E64
:100560000F50E56E0C50E56EEDEC0EF0070EE12637
:1005700012D01150E56E040EE56EF40EE56E1C50BF
:10058000E56E1B50E56E0F50E56E0C50E56EC3EC4A
:1005900018F0070EE12617502FE00DC0E9FF19C033
:1005A000F3FF1A5023EC22F02D0A26E0FF0E0D2651
:1005B00019221A2218C0E5FF0DC0E9FF19C0F3FF88
:1005C0001A50ABEC22F018D00CC0E5FF0DC0E9FFCB
:1005D00019C0F3FF1A50ABEC22F00D50010F0C6E56
:1005E000000E19200E6E000E1A20E56A0CC0E9FFFD
:1005F0000EC0F3FFABEC22F00DC00CF019C00EF0F2
:100600001AC00FF013C010F0105010E00CC0E9FF3A
:100610000EC0F3FF0F5023EC22F0176E175006E0C8
:100620000C2A02E30E4A0F2A1006EED710C013F070
:1006300014501EE109C00CF00AC00EF010C00FF0FB
:100640000F5010E01550E56E0250E56E0150E56E5A
:100650000050E56EFEEC13F0040EE1260C4A0E2A63
:100660000F06EED70CC009F00EC00AF00FC013F051
:1006700016C00CF00DC00DF019C00EF01AC00FF02E
:1006800009C010F00AC015F00DC0E9FF0EC0F3FF5D
:100690000F5023EC22F0166E1650D8B43ED00CC08A
:1006A00016F0176A161E171E1650171005E00CC01C
:1006B00016F00C06165031E00DC0E9FF0EC0F3FF36
:1006C0000F5023EC22F0116E125010E01150E56E25
:1006D0006AEC21F0166EE652165004E0DF0E11149B
:1006E000166E02D011C016F016C011F01150E56E52
:1006F0000250E56E0150E56E0050E56EFEEC13F021
:10070000040EE1260D2A02E30E4A0F2A104A152A8A
:100710001350D8B4B9D71306B7D710C009F015C015
:100720000AF014502BE010C00CF015C00DF013C0EF
:100730000EF00E501FE0200EE56E0250E56E0150E7
:10074000E56E0050E56EFEEC13F0040EE1260C4A57
:100750000D2A0E06EED70B50E56E0250E56E0150E5
:10076000E56E0050E56EFEEC13F0040EE126094A3A
:100770000A2A04D00CC009F00DC00AF0032A02E3D3
:10078000044A052A7FEF00F00AC0F3FF0950E4CFC6
:100790001EF0E4CF1DF0E4CF1CF0E4CF1BF0E4CF5B
:1007A0001AF0E4CF19F0E4CF18F0E4CF17F0E4CF5B
:1007B00016F0E4CF15F0E4CF14F0E4CF13F0E4CF5B
:1007C00012F0E4CF11F0E4CF10F0E4CF0FF0E4CF5B
:1007D0000EF0E4CF0DF0E4CF0CF0E4CF0BF0E4CF5B
:1007E0000AF0E4CF09F0E4CF08F0E4CF07F0E4CF5B
:1007F00006F0E4CF05F0E4CF04F0E4CF03F0E4CF5B
:1008000002F0E4CF01F0E4CF00F0E4CFD9FF120012
:100810003C4E4F20464C4F41543E000000C0E5FF87
:1008200001C0E5FF02C0E5FF03C0E5FF04C0E5FF2E
:1008300005C0E5FF06C0E5FF07C0E5FF08C0E5FF0E
:1008400009C0E5FF0AC0E5FF0BC0E5FF0CC0E5FFEE
:10085000006A016A026A040E025CD8B0EBD1100E85
:10086000015CD8B0E7D1012A0001F02B100EF05D39
:10087000D8B0F06BF039E8441F0B036E046A5C0ECD
:100880000326030E042203C0E9FF04C0EAFFEFCFF2
:1008900003F0F0C004F0070E0416010E056E000E02
:1008A000066E045006E0E86CD89005360636010F57
:1008B000FCE3076A0350051607500616055006109C
:1008C000D880E866D890056A05360550D8A4C3D705
:1008D0000001F051020DF450046EF3CF03F0390E15
:1008E0000324056E040E0420066E05C0E9FF06C051
:1008F000EAFFEECF05F0EFCF06F0EDC007F007A05E
:100900009DD0B30E0324076E040E0420086E07C0AA
:10091000E9FF08C0EAFFEECF07F0EFCF08F006507E
:10092000800FF36E0850800FF35C02E10750055C06
:1009300003E2056A066A60D0D30E0326040E042281
:1009400003C0E9FF04C0EAFFEECF03F0EFCF04F0ED
:100950000450800FF36E0650800FF35C02E10550E7
:10096000035C04E205683F0E066E46D00750055C46
:10097000096E085006580A6EE86A0ABEFF0E0B6E32
:10098000E56E0B50E56E0A50E56E0950E56EE56ABE
:10099000E56A400EE56E000EE56AE3EC0DF0096EC7
:1009A000F3CF0AF0F4CF0BF0E9CF0CF0080EE126FC
:1009B0000750035C076E08500458086EE86A08BECA
:1009C000FF0E036EE56E0350E56E0850E56E0750AE
:1009D000E56E0C50E56E0B50E56E0A50E56E095061
:1009E000E56EE1EC12F0036EF3CF04F0080EE126A1
:1009F0000350056E0450066E0001EC51800FF36E3B
:100A00000650800FF35C02E10550EB5D03E3056ADD
:100A1000066A14D00001EB51FF08036E3F0EEC553F
:100A2000046E0650800FF36E0450800FF35C02E1F9
:100A30000350055C03E305683F0E066E0001F051AC
:100A4000020DF450046EF3CF03F0930E0326040E50
:100A5000042203C0E9FF04C0EAFFEECF03F0EFCFAA
:100A600004F00350055C036E04500658046ED880F1
:100A700004AED89004E3041E036CD8B4042A022AFE
:100A80000001EC51800FF36E0450800FF35C02E123
:100A90000350EB5DD8B0DFD60001F051020DF450E9
:100AA000046EF3CF03F0930E0326040E042203C05A
:100AB000E9FF04C0EAFF05C0EEFF06C0EFFFEDC08E
:100AC00003F003A459D0F051020DF450046EF3CF9B
:100AD00003F0000E0324076E030E0420086E07C007
:100AE000E9FF08C0EAFFEECF09F0EFCF0AF00950A6
:100AF0000A10D8B441D0590E0326040E042203C0B4
:100B0000E9FF04C0EAFFEECF03F0EFCF04F003509B
:100B1000055C036E04500658046E03101CE004507C
:100B2000800F800F02E1010E035C0B6A0B360A5046
:100B3000800F800F02E1010E095C096A09360B5033
:100B4000091809E107C0E9FF08C0EAFF03C0EEFF8A
:100B500004C0EFFF80D60001F051020DF450046E86
:100B6000F3CF03F0000E0326030E042203C0E9FFB7
:100B700004C0EAFFEE6AEF6AEDC003F003A246D0BC
:100B800000500EE100C003F0002A046AF10E0326B3
:100B9000000E042203C0E9FF04C0EAFF420EEF6E1C
:100BA00000C003F00028046E076AF10E0326000E51
:100BB00007220001F051086E640E082603C0E9FF09
:100BC00007C0EAFF08C0EFFF04C003F0042A076A69
:100BD000F10E0326000E07220650086E03C0E9FF3F
:100BE00007C0EAFF08C0EFFF04C003F00428006E4E
:100BF000046AF10E0326000E04220550076E03C09E
:100C0000E9FF04C0EAFF07C0EFFF25D6F0C003F0FC
:100C10000650E56E0550E56EE56A0350E56E000E80
:100C2000E56E2C0EE56E320EE56E17EC1DF0070E2C
:100C3000E12611D602C001F000501EE0EDC002F026
:100C400002A21AD000C002F0002A036AF10E0226A6
:100C5000000E032202C0E9FF03C0EAFF0A0EEF6E96
:100C60000050E56E800EE56E000EE56EF10EE56E4D
:100C70001FEC16F0040EE1260150E4CF0CF0E4CF97
:100C80000BF0E4CF0AF0E4CF09F0E4CF08F0E4CFB2
:100C900007F0E4CF06F0E4CF05F0E4CF04F0E4CFB2
:100CA00003F0E4CF02F0E4CF01F0E4CF00F0120053
:100CB00000C0E5FF01C0E5FF02C0E5FF03C0E5FF9E
:100CC00004C0E5FF05C0E5FF06C0E5FF07C0E5FF7E
:100CD000C2A204D00001EE5188EF08F00001EF51EC
:100CE000D8B42DD10001EE51020DF450016EF3CFB6
:100CF00000F0390E0026040E012200C0E9FF01C0F9
:100D0000EAFFEECF00F0EFCF01F0230EEE25026EEA
:100D1000036A040E032202C0E9FF03C0EAFFEFCF1B
:100D200002F00250FF0A01E164D002380F0B036E9B
:100D3000920E0324046E056A0F0E0522066A920EB7
:100D400003260F0E062203C0E9FF06C0EAFFEFCF1D
:100D500003F00250066E070E0616010E076E0650CF
:100D60000DE006E6E86CD8900736010FFDE306D0EB
:100D7000D89007BED8800732010FFBE3071C066E30
:100D80000350061604C0E9FF05C0EAFF06C0EFFFE6
:100D900002380F0B036E890E0324046E056A0F0ED2
:100DA0000522066A890E03260F0E062203C0E9FFFC
:100DB00006C0EAFFEFCF03F0070E0216010E066E23
:100DC00002500DE006E6E86CD8900636010FFDE310
:100DD00006D0D89006BED8800632010FFBE3061C71
:100DE000026E0350021604C0E9FF05C0EAFF02C00C
:100DF000EFFF0001EE51020DF450036EF3CF02F04D
:100E0000390E0226040E032201340130056E003033
:100E1000046E0534053204320534053204320450C0
:100E2000005C046E05500158056EC3CF00F0016AE6
:100E30000050042601500522C4CF00F0016A005082
:100E4000076E066A065004260750052202C0E9FF15
:100E500003C0EAFF04C0EEFF05C0EFFF0001EA5146
:100E6000010A01E06AD00001EE51020DF450016E5A
:100E7000F3CF00F0390E0024026E040E0120036E41
:100E800002C0E9FF03C0EAFFEECF02F0EFCF03F0AC
:100E9000B30E0026040E012200C0E9FF01C0EAFFE4
:100EA000EECF04F0EFCF05F09C0E0426D8A0050687
:100EB0000350800FF36E0550800FF35C02E1045085
:100EC000025C0EE20250640F046E000E0320056EF9
:100ED00000C0E9FF01C0EAFF04C0EEFF05C0EFFF5C
:100EE0000001EE51020DF450016EF3CF00F0D30E6D
:100EF0000026040E012200C0E9FF01C0EAFFEECF88
:100F000004F0EFCF05F0640E0426D8B0052A055092
:100F1000800FF36E0350800FF35C02E10250045C1B
:100F20000CE29C0E0226D8A0030600C0E9FF01C017
:100F3000EAFF02C0EEFF03C0EFFF0001EF6B00010C
:100F4000EE2B100EEE5DD8B0EE6BEE39E8441F0BC1
:100F5000006E016A5C0E0026030E012200C0E9FF4C
:100F600001C0EAFFEFCF00F0EEC001F0070E01165E
:100F7000010E026E000E036E015006E0E86CD89080
:100F800002360336010FFCE3046A005002160450D7
:100F9000031602500310D880E866D890026A023621
:100FA0000250D8A4B3D0230E0001EE25006E016AD2
:100FB0000F0E012200C0E9FF01C0EAFFEFCF00F0F1
:100FC0000044E844FC0B016E0128C26E230EEE259E
:100FD000006E016A040E012200C0E9FF01C0EAFFB1
:100FE000EFCF00F00050FF0A01E18CD000380F0B6A
:100FF000016E920E0124026E036A0F0E0322046A30
:10100000920E01260F0E042201C0E9FF04C0EAFF80
:10101000EFCF01F00050046E070E0416010E056EAE
:1010200004500DE006E6E86CD8900536010FFDE3AC
:1010300006D0D89005BED8800532010FFBE30150E1
:10104000051202C0E9FF03C0EAFF05C0EFFF380E3A
:10105000016E0F0E026E00380F0B036E046A035010
:10106000012604500222380E056E0F0E066E055042
:1010700003260650042203C0E9FF04C0EAFFEFCFB5
:1010800003F0070E0016010E046E00500DE006E698
:10109000E86CD8900436010FFDE306D0D89004BE6A
:1010A000D8800432010FFBE30350041201C0E9FFB2
:1010B00002C0EAFF04C0EFFF0F01458300000000FB
:1010C00045930F01449308C0E5FFF2CF08F0F29E6C
:1010D000448100000000000000000000000000004B
:1010E0000000000000000000000000000000000000
:1010F00000000000000000000000449108BEF28ED5
:10110000E4CF08F0C282010E0001EF6F0001EE5142
:10111000E4CF07F0E4CF06F0E4CF05F0E4CF04F02D
:10112000E4CF03F0E4CF02F0E4CF01F0E4CF00F02D
:10113000120000C0E5FF01C0E5FF02C0E5FF03C0EB
:10114000E5FF04C0E5FFE3EC22F019EC1FF0F3CF5C
:1011500001F0F4CF02F0E9CF03F0880F0401336F00
:10116000130E0120346F000E0220356F000E032095
:10117000366F9CEC15F09280800E006E0F0E016EA3
:101180000F0E036E380E002603500122800E026EF1
:101190000F0E036E800E005E0350015A0F0E046E98
:1011A000380E0226045003220F0E046E800E025EDB
:1011B0000450035A02C0E9FF03C0EAFFEFCF02F078
:1011C000028000C0E9FF01C0EAFF02C0EFFF000E8D
:1011D000E56AE56AF1EC17F0E652E6529282800E7B
:1011E000006E0F0E016E0F0E036E380E00260350B8
:1011F0000122800E026E0F0E036E800E005E035001
:10120000015A0F0E046E380E0226045003220F0EF0
:10121000046E800E025E0450035A02C0E9FF03C050
:10122000EAFFEFCF02F0028200C0E9FF01C0EAFF4F
:1012300002C0EFFF010EE56EE56EF1EC17F0E6522D
:10124000E6529284800E006E0F0E016E0F0E036E3A
:10125000380E002603500122800E026E0F0E036E20
:10126000800E005E0350015A0F0E046E380E0226E7
:10127000045003220F0E046E800E025E0450035AC7
:1012800002C0E9FF03C0EAFFEFCF02F0028400C012
:10129000E9FF01C0EAFF02C0EFFF020EE56EE56E56
:1012A000F1EC17F0E652E6529286800E006E0F0EB9
:1012B000016E0F0E036E380E002603500122800EC1
:1012C000026E0F0E036E800E005E0350015A0F0E69
:1012D000046E380E0226045003220F0E046E800E98
:1012E000025E0450035A02C0E9FF03C0EAFFEFCFD9
:1012F00002F0028600C0E9FF01C0EAFF02C0EFFF72
:10130000030EE56EE56EF1EC17F0E652E6524AEC9C
:101310001CF09384810E006E0F0E016E0F0E036E93
:10132000380E0026035001220F0E036E800E005E61
:101330000350015A810E026E0F0E036E0F0E046EE3
:10134000380E0226045003220F0E046E800E025E39
:101350000450035A02C0E9FF03C0EAFFEFCF02F0D6
:10136000029400C0E9FF01C0EAFF02C0EFFF020ED5
:10137000E56E800EE56E0F0EE56E810EE56E000ED9
:10138000E56A91EC1CF0050EE126938C810E006E4F
:101390000F0E016E0F0E036E380E00260350012251
:1013A0000F0E036E800E005E0350015A810E026E16
:1013B0000F0E036E0F0E046E380E02260450032229
:1013C0000F0E046E800E025E0450035A02C0E9FF45
:1013D00003C0EAFFEFCF02F0029C00C0E9FF01C0AA
:1013E000EAFF02C0EFFF060EE56E800EE56E0F0EFF
:1013F000E56E810EE56E010EE56E91EC1CF0050EBA
:10140000E126938E810E006E0F0E016E0F0E036E9D
:10141000380E0026035001220F0E036E800E005E70
:101420000350015A810E026E0F0E036E0F0E046EF2
:10143000380E0226045003220F0E046E800E025E48
:101440000450035A02C0E9FF03C0EAFFEFCF02F0E5
:10145000029E00C0E9FF01C0EAFF02C0EFFF070ED5
:10146000E56E800EE56E0F0EE56E810EE56E020EE6
:10147000E56E91EC1CF0050EE126929C898C93920E
:101480008A829398B96AB98693980C0EBD6E93962A
:10149000636A6380666E93900F01576F939A0F0192
:1014A0005D6FBD9ABD98BE6A669A6698676A0F01BD
:1014B000579B57990F01586B0F015D9B5D990F0169
:1014C0005E6BE4CF04F0E4CF03F0E4CF02F0E4CFAE
:1014D00001F0E4CF00F01200430025630000800E0D
:1014E000E56E040EE56ED30EE56ECDEC1AF0030E3C
:1014F000E126800EE56E040EE56EB30EE56ECDECD2
:101500001AF0030EE126800EE56E040EE56ED50E90
:10151000E56ECDEC1AF0030EE126800EE56E040EAA
:10152000E56EB50EE56ECDEC1AF0030EE126800EE9
:10153000E56E040EE56ED70EE56ECDEC1AF0030EE7
:10154000E126800EE56E040EE56EB70EE56ECDEC7D
:101550001AF0030EE126800EE56E040EE56ED90E3C
:10156000E56ECDEC1AF0030EE126800EE56E040E5A
:10157000E56EB90EE56ECDEC1AF0030EE126800E95
:10158000E56E040EE56EDB0EE56ECDEC1AF0030E93
:10159000E126800EE56E040EE56EBB0EE56ECDEC29
:1015A0001AF0030EE126800EE56E040EE56EDD0EE8
:1015B000E56ECDEC1AF0030EE126800EE56E040E0A
:1015C000E56EBD0EE56ECDEC1AF0030EE126800E41
:1015D000E56E040EE56EDF0EE56ECDEC1AF0030E3F
:1015E000E126800EE56E040EE56EBF0EE56ECDECD5
:1015F0001AF0030EE126800EE56E040EE56EE10E94
:10160000E56ECDEC1AF0030EE126800EE56E040EB9
:10161000E56EC10EE56ECDEC1AF0030EE126800EEC
:10162000E56E040EE56EE30EE56ECDEC1AF0030EEA
:10163000E126800EE56E040EE56EC30EE56ECDEC80
:101640001AF0030EE126800EE56E040EE56EE50E3F
:10165000E56ECDEC1AF0030EE126800EE56E040E69
:10166000E56EC50EE56ECDEC1AF0030EE126800E98
:10167000E56E040EE56EE70EE56ECDEC1AF0030E96
:10168000E126800EE56E040EE56EC70EE56ECDEC2C
:101690001AF0030EE126800EE56E040EE56EE90EEB
:1016A000E56ECDEC1AF0030EE126800EE56E040E19
:1016B000E56EC90EE56ECDEC1AF0030EE126800E44
:1016C000E56E040EE56EEB0EE56ECDEC1AF0030E42
:1016D000E126800EE56E040EE56ECB0EE56ECDECD8
:1016E0001AF0030EE126800EE56E040EE56EED0E97
:1016F000E56ECDEC1AF0030EE126800EE56E040EC9
:10170000E56ECD0EE56ECDEC1AF0030EE126800EEF
:10171000E56E040EE56EEF0EE56ECDEC1AF0030EED
:10172000E126800EE56E040EE56ECF0EE56ECDEC83
:101730001AF0030EE126800EE56E040EE56EF10E42
:10174000E56ECDEC1AF0030EE126800EE56E040E78
:10175000E56ED10EE56ECDEC1AF0030EE126120017
:1017600000C0E5FF01C0E5FF02C0E5FF03C0E5FFE3
:101770000001E751D8B40CD19DA81DD09EA81BD064
:1017800003016A510301681905E161EC22F00301CC
:10179000686BFED0000E03016A25006E016A040E1C
:1017A000012200C0E9FF01C0EAFFEFCF64F36A2B1A
:1017B00064C3ADFFEDD09DAAEBD09EAAE9D0ABA249
:1017C00005D00301698161EC22F0E2D0ABA405D021
:1017D0000301698361EC22F0DBD0ABA048D0AECF2F
:1017E00064F3E8C000F0016A008E64C302F0036A8B
:1017F0000250001803E10350011801E004D0030176
:101800006989AB96C5D00301645104E064510001BD
:10181000E81929E103016999AB960301645103E0DA
:101820000301699702D00301698764C36DF366C33E
:101830006EF303016651006E000403016F6F600ECA
:1018400003016E25006E016A000E012200C0E9FF4F
:1018500001C0EAFF64C3EFFF6E2B6E51800A02E104
:1018600003016E6B95D003016999AB8691D0AECF21
:1018700064F3030169A921D0E8C000F0016A008E79
:1018800064C302F0036A0250001803E10350011818
:1018900001E011D09D9AAB9894900301685104E146
:1018A000AD6A61EC22F007D000C4ADFF010E030168
:1018B0006A6F9D886DD0AB866BD0030164510301C4
:1018C0006D2703016E5103016F191BE103016D5177
:1018D0000CE16EC366F3030169B712D09D9AAB9811
:1018E0009490AD6A61EC22F00BD00301698569B771
:1018F00007D09D9AAB989490010EAD6E61EC22F0EA
:1019000047D003016E510301671908E103016751D4
:101910000301661903E061EC22F03AD066C300F0DF
:10192000016A004A012AE56A800EE56E0150E56E03
:101930000050E56E17EC17F0006E040EE126005023
:101940000301656F03016E190FE164C300F01F0E00
:10195000001403016F6F006E020E00246F6F03010D
:10196000665103016F276F9F6EC300F003016E2B5A
:10197000016A600E0026000E012200C0E9FF01C0CE
:10198000EAFF64C3EFFF6E51800A02E103016E6B50
:10199000E4CF03F0E4CF02F0E4CF01F0E4CF00F0B5
:1019A000120000C0E5FF01C0E5FF02C0E5FF03C073
:1019B000E5FF04C0E5FF05C0E5FF06C0E5FF07C081
:1019C000E5FF08C0E5FF09C0E5FF006A016A040EF3
:1019D000015CD8B0E2D0400E0001FE25026E036A21
:1019E000030E032202C0E9FF03C0EAFFEFCF02F0BB
:1019F0000250FF0A01E1CAD00001FE39E8441F0B82
:101A0000026E600E0224036E046A030E042203C0F9
:101A1000E9FF04C0EAFFEFCF03F0FEC004F0070EB9
:101A20000416010E056E000E066E045006E0E86C0A
:101A3000D89005360636010FFCE3076A03500516F9
:101A40000750061605500610D880E866D890056A3B
:101A500005360550D880E866D890056A05360550E9
:101A6000036E046A5E0E0226030E042202C0E9FF22
:101A700004C0EAFFEFCF05F0FEC006F0070E061621
:101A8000010E076E000E086E065006E0E86CD89056
:101A900007360836010FFCE305C006F0096A065058
:101AA00007160950081607500810D880E866D89025
:101AB000076A07360750D880E866D890076A073665
:101AC0000350071801E162D003501FE00001FE51EE
:101AD000066E070E0616010E076E06500DE006E6AE
:101AE000E86CD8900736010FFDE306D0D89007BE0A
:101AF000D8800732010FFBE30550071202C0E9FF4F
:101B000004C0EAFF07C0EFFF26D002C0E9FF04C00F
:101B1000EAFFEFCF05F00001FE51066E070E061634
:101B2000010E076E06500DE006E6E86CD890073609
:101B3000010FFDE306D0D89007BED8800732010F11
:101B4000FBE3071C066E0550061602C0E9FF04C041
:101B5000EAFF06C0EFFF035003E1036A032A01D046
:101B6000036AFEC004F0E56A0350E56EE56A0450BE
:101B7000E56E000EE56E390EE56E160EE56E17EC9D
:101B80001DF0070EE126012A01C000F00001FE2B26
:101B9000100EFE5DD8A01BD7FE6B0050E4CF09F0FD
:101BA000E4CF08F0E4CF07F0E4CF06F0E4CF05F08F
:101BB000E4CF04F0E4CF03F0E4CF02F0E4CF01F08F
:101BC000E4CF00F01200D9CFE5FFE1CFD9FF00C08C
:101BD000E5FF01C0E5FF02C0E5FF03C0E5FF04C06B
:101BE000E5FF05C0E5FF06C0E5FF07C0E5FF020E03
:101BF000DBCF00F0030EDBCF01F0040EDBCF02F0F1
:101C0000050EDBCF03F0060EDBCF04F0070EDBCFB3
:101C100005F0080EDBCF06F0090EDBCF07F0005011
:101C20000401816F0150826F0250836F0350846FF3
:101C300004500401856F0550866F0650876F07506A
:101C4000886F0401815104018703F4CF01F0F3CFC1
:101C500000F0005004018C6F01508D6F0401815120
:101C600004018503F4CF01F0F3CF00F0005004012C
:101C70008A6F01508B6F0401845104018503F3CFF7
:101C800000F004018D51002600508D6F0401835136
:101C900004018603F3CF01F0015000260050040137
:101CA0008D6F0401835104018503F4CF01F0F3CF5C
:101CB00000F004018C5100268D51012200508C6FE0
:101CC00001508D6F0401825104018603F4CF03F0AB
:101CD000F3CF02F00250002603500122005004010D
:101CE0008C6F01508D6F0401825104018703F3CF83
:101CF00000F000500401916F04018251040185033A
:101D0000F4CF01F0F3CF00F0005004018F6F0150C9
:101D1000906F0401815104018803F3CF00F000505B
:101D20000301536F0401815104018603F4CF01F0D4
:101D3000F3CF00F000500301516F0150526F0401C6
:101D40008E6B0301506B04018E5104018A25006ED5
:101D500004018F5104018B21016E04019051040193
:101D60008C21026E0401915104018D21036E0050FB
:101D70008A6F01508B6F02508C6F03508D6F03017F
:101D8000505104018A25006E0301515104018B2139
:101D9000016E0301525104018C21026E0301535163
:101DA00004018D21036E03C0E9FF02C0F4FF01C0EE
:101DB000F3FF0050E4CF07F0E4CF06F0E4CF05F0E6
:101DC000E4CF04F0E4CF03F0E4CF02F0E4CF01F07D
:101DD000E4CF00F0E4CFD9FF1200D9CFE5FFE1CF87
:101DE000D9FF00C0E5FF01C0E5FF02C0E5FF03C069
:101DF000E5FF04C0E5FF05C0E5FF06C0E5FF07C03D
:101E0000E5FF08C0E5FF09C0E5FF0AC0E5FF0BC01C
:101E1000E5FF0CC0E5FF0DC0E5FF0EC0E5FF0FC0FC
:101E2000E5FF020EDBCF00F0030EDBCF01F0040E66
:101E3000DBCF02F0050EDBCF03F0060EDBCF04F0A4
:101E4000070EDBCF05F0080EDBCF06F0200E076E85
:101E5000086A06C009F00A6A0B6A0C6AE56AE56A54
:101E6000E56A0950E56E0350E56E0250E56E0150DB
:101E7000E56E0050E56E21EC11F00D6E080EE126C6
:101E8000300E0D263A0E0D5C05E30D500E6E270E3A
:101E90000E240D6EFF0E07260822200E07240E6E5C
:101EA000030E08200F6E0EC0E9FF0FC0EAFF0DC041
:101EB000EFFF0C50E56E0B50E56E0A50E56E0950D1
:101EC000E56E0350E56E0250E56E0150E56E005080
:101ED000E56EE1EC12F0006EF3CF01F0F4CF02F00A
:101EE000E9CF03F0080EE1260050011002100310A4
:101EF000D8A4AFD707C000F008C001F004C002F0BA
:101F000005C003F000C004F001C005F0004A012A3A
:101F1000200E0426030E052204C0E9FF05C0EAFFD7
:101F2000EFCF04F002C0E9FF03C0EAFF04C0EFFFF7
:101F3000024A032A000E015C02E1200E005CE2E38B
:101F400002C0E9FF03C0EAFF000EEF6AE4CF0FF022
:101F5000E4CF0EF0E4CF0DF0E4CF0CF0E4CF0BF0C3
:101F6000E4CF0AF0E4CF09F0E4CF08F0E4CF07F0C3
:101F7000E4CF06F0E4CF05F0E4CF04F0E4CF03F0C3
:101F8000E4CF02F0E4CF01F0E4CF00F0E4CFD9FFDA
:101F9000120000C0E5FF01C0E5FF02C0E5FF03C07D
:101FA000E5FF04C0E5FF05C0E5FF006A400E002420
:101FB000016E026A030E022201C0E9FF02C0EAFFBD
:101FC000EFCF01F00150FF0A01E185D001380F0B7E
:101FD000026E036A800E02260F0E032202C0E9FF82
:101FE00003C0EAFFEFCF02F0070E0116010E036EE9
:101FF000000E046E015006E0E86CD89003360436FB
:10200000010FFCE3056A0250031605500416035045
:102010000410D880E866D890036A033603502DE197
:102020000038E8441F0B016E026A600E0126030EA1
:10203000022201C0E9FF02C0EAFFEFCF03F0005027
:10204000046E070E0416010E056E04500DE006E640
:10205000E86CD8900536010FFDE306D0D89005BE98
:10206000D8800532010FFBE30350051201C0E9FFE0
:1020700002C0EAFF05C0EFFF2ED00038E8441F0B76
:10208000016E026A600E0126030E022201C0E9FF02
:1020900002C0EAFFEFCF03F00050046E070E0416F3
:1020A000010E056E04500DE006E6E86CD89005368A
:1020B000010FFDE306D0D89005BED8800532010F90
:1020C000FBE3051C046E0350041601C0E9FF02C0C7
:1020D000EAFF04C0EFFF002A100E005CD8A066D70C
:1020E000E4CF05F0E4CF04F0E4CF03F0E4CF02F056
:1020F000E4CF01F0E4CF00F0120000C0E5FF01C022
:10210000E5FF03C0E5FF6DEC1FF0006E0A0E005CFA
:10211000D8A090D00E0E005CD8B08CD0F60E002661
:10212000FA6AFB6A0034FA36E834FA36FC0B3E0FE2
:10213000E56E210EFA22000EFB22E450F96EA7EFA5
:1021400010F0C3EF10F0DFEF10F0FDEF10F06DECCA
:102150001FF0006A016E6DEC1FF0036A0026035049
:102160000122BD9A0050010BE838F46EBD50EF0B10
:10217000F410BD6ED89001320032D8900132003296
:102180000050BE6E57D06DEC1FF0006A016E6DEC12
:102190001FF0036A002603500122669A0050010BCB
:1021A000E838F46E6650EF0BF410666ED89001328A
:1021B0000032D890013200320050676E3BD06DEC97
:1021C0001FF0006A016E6DEC1FF0036A00260350D9
:1021D00001220F01579B0050010BE838F46E575154
:1021E000EF0BF410576FD89001320032D8900132C3
:1021F000003200500F01586F1DD06DEC1FF0006AC7
:10220000016E6DEC1FF0036A0026035001220F01DE
:102210005D9B0050010BE838F46E5D51EF0BF4103C
:102220005D6FD89001320032D890013200320050F8
:102230000F015E6FE4CF03F0E4CF01F0E4CF00F0D4
:102240001200D9CFE5FFE1CFD9FF00C0E5FF01C003
:10225000E5FF02C0E5FF03C0E5FF04C0E5FF05C0E0
:10226000E5FF06C0E5FF07C0E5FF08C0E5FF09C0C0
:10227000E5FF0AC0E5FF020EDBCF00F0030EDBCF67
:1022800001F0040EDBCF02F0050EDBCF03F0060EEB
:10229000DBCF04F0070EDBCF05F0080EDBCF06F036
:1022A000090EDBCF07F0086A04500510061007106E
:1022B00005E1E968F468F368E86847D0096A0750FF
:1022C000800BE8440A6E0A501BE1045004260536D0
:1022D000063607360750035C08E10650025C05E14C
:1022E0000550015C02E10450005C06E2D890073220
:1022F00006320532043204D0092A09C008F0DFD7BB
:102300000750035C08E10650025C05E10550015CE2
:1023100002E10450005C08E30450005E0550015ADD
:102320000650025A0750035AD89007320632053237
:10233000043208C009F008060950E2E103C0E9FFD1
:1023400002C0F4FF01C0F3FF0050E4CF0AF0E4CF75
:1023500009F0E4CF08F0E4CF07F0E4CF06F0E4CFD3
:1023600005F0E4CF04F0E4CF03F0E4CF02F0E4CFD3
:1023700001F0E4CF00F0E4CFD9FF1200D9CFE5FFA0
:10238000E1CFD9FF00C0E5FF01C0E5FF02C0E5FFD6
:1023900003C0E5FF04C0E5FF05C0E5FF06C0E5FF9B
:1023A00007C0E5FF08C0E5FF09C0E5FF0AC0E5FF7B
:1023B000020EDBCF00F0030EDBCF01F0040EDBCF0B
:1023C00002F0050EDBCF03F0060EDBCF04F0070EA4
:1023D000DBCF05F00038E8441F0B066E076A5C0E81
:1023E0000626030E072206C0E9FF07C0EAFFEFCF6B
:1023F00008F00050096E070E0916010E0A6E09500A
:102400000DE006E6E86CD8900A36010FFDE306D031
:10241000D8900ABED8800A32010FFBE308500A1296
:1024200006C0E9FF07C0EAFF0AC0EFFF230E002441
:10243000066E076A0F0E072206C0E9FF07C0EAFF13
:1024400001C0EFFF016A230E0026040E0122800E58
:10245000025E070E02160238F00B036E070E051619
:102460000550032600C0E9FF01C0EAFF03C0EFFFEB
:10247000E4CF0AF0E4CF09F0E4CF08F0E4CF07F0AE
:10248000E4CF06F0E4CF05F0E4CF04F0E4CF03F0AE
:10249000E4CF02F0E4CF01F0E4CF00F0E4CFD9FFC5
:1024A000120000C0E5FF01C0E5FF02C0E5FF03C068
:1024B000E5FF030167510301661901E166D067C3B7
:1024C00000F0002A009E016A600E0026000E012224
:1024D00000C0E9FF01C0EAFFEFCF71F31F0E030157
:1024E000711767C370F37151030170277051006E4B
:1024F000020E0024706F709F6DEC1FF0006E005094
:1025000003E1006A002A01D0006A6DEC1FF00301AC
:10251000716F71C301F0800E011671C302F01F0EBE
:10252000021602C003F002C071F3035003E166C358
:1025300067F33ED000501EE0015025E06DEC1FF027
:10254000006E03017151026E0204716F0050420A65
:102550001AE000504E0A03E1D5EC1CF014D00050F4
:10256000460A03E195EC22F00ED00050490A0BE137
:10257000FF0009D067C372F3015003E083EC19F048
:1025800002D07DEC10F070C367F30001E45100014C
:10259000E51906E00301685103E18AEC14F008D064
:1025A00094B006D00301685103E1ACB261EC22F0B3
:1025B000E4CF03F0E4CF02F0E4CF01F0E4CF00F089
:1025C0001200D9CFE5FFE1CFD9FF00C0E5FF01C080
:1025D000E5FF02C0E5FF03C0E5FF04C0E5FF05C05D
:1025E000E5FF06C0E5FF07C0E5FF08C0E5FF09C03D
:1025F000E5FF0AC0E5FF0BC0E5FF0CC0E5FF0DC01D
:10260000E5FF020EDBCF00F0030EDBCF01F0040E7E
:10261000DBCF02F0050EDBCF03F0060EDBCF04F0BC
:10262000070EDBCF05F0080EDBCF06F0090EDBCF7F
:1026300007F0086A096A0A6A0B6A200E0C6E0350DA
:10264000800BE8440D6E005000260136023603363A
:102650000850082609360A360B360D50D8A40880D3
:1026600007500B5C08E106500A5C05E10550095C67
:1026700002E10450085C09E30450085E0550095A61
:1026800006500A5A07500B5A00800C040D6E0DC0FC
:102690000CF00D50D4E103C0E9FF02C0F4FF01C00B
:1026A000F3FF0050E4CF0DF0E4CF0CF0E4CF0BF0DB
:1026B000E4CF0AF0E4CF09F0E4CF08F0E4CF07F06C
:1026C000E4CF06F0E4CF05F0E4CF04F0E4CF03F06C
:1026D000E4CF02F0E4CF01F0E4CF00F0E4CFD9FF83
:1026E000120000C0E5FF01C0E5FF03C0E5FF04C024
:1026F000E5FF05C0E5FF06C0E5FF07C0E5FF08C030
:10270000E5FF09C0E5FF0AC0E5FF0BC0E5FF5AC3BE
:1027100000F05BC301F003015A3F01D05B2B005076
:10272000E56E53EC22F0E652076E046A056A066A0B
:102730005AC300F05BC301F003015A3F01D05B2B89
:102740000050E56E53EC22F0E6520B6A0A6E086AFE
:102750000850041205120A5006120B5007125AC3F1
:1027600000F05BC301F003015A3F01D05B2B005026
:10277000E56E53EC22F0E652036E006A03C001F0EE
:10278000E86A03BEFF0E086E096E00500412015085
:10279000051208500612095007125AC300F05BC315
:1027A00001F003015A3F01D05B2B0050E56E53EC62
:1027B00022F0E652016A04120150051206120712B5
:1027C00007C0E9FF06C0F4FF05C0F3FF0450E4CFE3
:1027D0000BF0E4CF0AF0E4CF09F0E4CF08F0E4CF47
:1027E00007F0E4CF06F0E4CF05F0E4CF04F0E4CF47
:1027F00003F0E4CF01F0E4CF00F01200D9CFE5FF01
:10280000E1CFD9FF00C0E5FF01C0E5FF02C0E5FF51
:1028100003C0E5FF04C0E5FF05C0E5FF06C0E5FF16
:1028200007C0E5FF020EDBCF00F0030EDBCF01F0A7
:10283000040EDBCF02F0050EDBCF03F002C006F082
:102840000650046E800A33E100C0E9FF01C0F3FFC7
:102850000250EEEC20F0056EF3CF06F0F4CF07F057
:1028600003C0E5FF05C0E9FF06C0F3FF0750ABEC6E
:1028700022F000C0E9FF01C0F3FF0250EEEC20F0AF
:10288000056EF3CF06F0F4CF07F0052A02E3064AFF
:10289000072A05C0E5FF06C0F4FF07C0F6FF00C029
:1028A000E9FF01C0F3FF025044EC22F020D004C045
:1028B00000F000AA1CD0007A0050046E04E103501E
:1028C000E8EC22F014D00450010A04E1035002ECB9
:1028D00000F00DD004500F0A04E10350E9EC1EF0A3
:1028E00006D004500E0A03E10350F8EC22F0E4CFC6
:1028F00007F0E4CF06F0E4CF05F0E4CF04F0E4CF36
:1029000003F0E4CF02F0E4CF01F0E4CF00F0E4CF35
:10291000D9FF120000C0E5FF01C0E5FF02C0E5FFDE
:1029200003C0E5FFACA277D077EC20F0006E00503A
:1029300005E10001E56B0001E46B6DD0E5C001F03D
:102940000050012677EC20F0026E00060250230AA8
:102950001FE1010E005CD8A05CD077EC20F0036E84
:10296000690A03E1B8EC1EF054D00350720A03E187
:1029700061EC22F04ED00350730A01E04AD09480FB
:10298000AB869D8A9D98AE50AE50AB98AB8841D037
:102990000250430A05E00250420A01E03AD001D059
:1029A000008E03016A6B00C06BF300500401006FDE
:1029B00003016A2B0001E551011814E077EC20F0C7
:1029C000006E03016B27000E03016A25026E036A85
:1029D000040E032202C0E9FF03C0EAFF00C0EFFFBC
:1029E0006A2BE8D7000E03016A25006E026A040E06
:1029F000022203016B1D036E032A00C0E9FF02C01F
:102A0000EAFF03C0EFFF03016A2B6AC368F3030107
:102A1000626B01C0E5F0E4CF03F0E4CF02F0E4CF55
:102A200001F0E4CF00F01200D9CFE5FFE1CFD9FFEC
:102A300000C0E5FF01C0E5FF02C0E5FF03C0E5FF00
:102A400004C0E5FF05C0E5FF06C0E5FF020EDBCFD1
:102A500000F0030EDBCF01F0040EDBCF02F0050E19
:102A6000DBCF03F003C004F0056A0350D8B453D0A1
:102A700000C0E9FF01C0F3FF025023EC22F0066E14
:102A8000430A03E1010E056E038E0406002A02E3E9
:102A9000014A022A9D9AAB9894909D989EA8FED7D1
:102AA000AC80AD6A00009EA8FED7AC9003C0ADFF1D
:102AB00000009EA8FED7055005E0420EAD6E03242F
:102AC000056E05D0620EAD6E620E0324056E04C065
:102AD00003F0035015E000009EA8FED700C0E9FFF8
:102AE00001C0F3FF025023EC22F0046E04C0ADFFDE
:102AF000045005260306002A02E3014A022AE9D708
:102B000000009EA8FED7051CAD6EAD2A00009EA851
:102B1000FED761EC22F0E4CF06F0E4CF05F0E4CF7D
:102B200004F0E4CF03F0E4CF02F0E4CF01F0E4CF0F
:102B300000F0E4CFD9FF120000C0E5FF01C0E5FFBF
:102B400002C0E5FF03C0E5FF04C0E5FF006A5C0EBC
:102B50000024016E026A030E022201C0E9FF02C0D6
:102B6000EAFFEF6A002A020E005CF1E3006A0050FF
:102B7000020DF450026EF3CF01F0390E0124036E02
:102B8000040E0220046E03C0E9FF04C0EAFFEE6AEF
:102B9000EF6A590E0124036E040E0220046E03C076
:102BA000E9FF04C0EAFFEE6AEF6A930E0124036EA8
:102BB000040E0220046E03C0E9FF04C0EAFFEE6ABF
:102BC000EF6AB30E0124036E040E0220046E03C0EC
:102BD000E9FF04C0EAFFEE6AEF6AD30E0126040E95
:102BE000022201C0E9FF02C0EAFFEE687F0EEF6E2D
:102BF000230E0024016E026A040E022201C0E9FFC6
:102C000002C0EAFFEF68002A100E005CD8A0AFD720
:102C1000AF0EC06EC16A010EC26EC282E4CF04F074
:102C2000E4CF03F0E4CF02F0E4CF01F0E4CF00F012
:102C300012004320412025642025640A0000D9CFDA
:102C4000E5FFE1CFD9FF00C0E5FF01C0E5FF02C00D
:102C5000E5FF03C0E5FF04C0E5FF05C0E5FF06C0D2
:102C6000E5FF07C0E5FF020EDBCF00F0030EDBCF70
:102C700001F0040EDBCF02F0050EDBCF03F0E5C060
:102C8000E6F00001E4510001E65FE651046E040441
:102C9000E66F03C004F0056A030E0426D8B0052AC7
:102CA000E6C006F0076A0750800FF36E0550800FEC
:102CB000F35C02E10450065C02E2E8682ED0020EEA
:102CC000035C02E2E86A29D003060350E56ED3EC08
:102CD0001DF0E652046A0350045C14E20450002420
:102CE000056EE86A0120066EE86A022005C0E9FF69
:102CF00006C0F3FF23EC22F0042AE56ED3EC1DF0AE
:102D0000E652E9D7E5C0E6F00001E4510001E65FD4
:102D1000E651006E0004E66FE86AE4CF07F0E4CF06
:102D200006F0E4CF05F0E4CF04F0E4CF03F0E4CF05
:102D300002F0E4CF01F0E4CF00F0E4CFD9FF1200BD
:102D4000D9CFE5FFE1CFD9FF00C0E5FF01C0E5FF26
:102D500002C0E5FF03C0E5FF04C0E5FF05C0E5FFD5
:102D6000020EDBCF00F0030EDBCF01F0040EDBCF51
:102D700002F00050020DF450036EF3CF00F0590E34
:102D80000024046E040E0320056E04C0E9FF05C094
:102D9000EAFF01C0EEFF02C0EFFF930E0024046EB5
:102DA000040E0320056E04C0E9FF05C0EAFFEECF64
:102DB00004F0EFCF05F00150045C016E025005589D
:102DC000026E000E0026030E032200C0E9FF03C0BE
:102DD000EAFF01C0EEFF02C0EFFFD88002AED8903C
:102DE00004E3021E016CD8B4022A0250800F800F47
:102DF00002E1030E015C02E2016A026A0150021064
:102E000007E100C0E9FF03C0EAFF000EEE6AEF6AC7
:102E1000E4CF05F0E4CF04F0E4CF03F0E4CF02F018
:102E2000E4CF01F0E4CF00F0E4CFD9FF1200D9CF16
:102E3000E5FFE1CFD9FF00C0E5FF01C0E5FF02C01B
:102E4000E5FF03C0E5FF04C0E5FF05C0E5FF06C0E0
:102E5000E5FF020EDBCF00F0030EDBCF01F0040E26
:102E6000DBCF02F0050EDBCF03F0D88001AED890A7
:102E7000046A0436045007E0011C066E001C056E4F
:102E8000054A062A04D000C005F001C006F0D8802B
:102E900003AED89007E3031C016E021C006E004ACB
:102EA000012A04D002C000F003C001F00150E56E19
:102EB0000050E56E0650E56E0550E56E26EC19F003
:102EC000006EF3CF01F0040EE12604500AE0011C6D
:102ED000036E001C026E024A032A03C0F3FF025075
:102EE00003D001C0F3FF0050E4CF06F0E4CF05F0BB
:102EF000E4CF04F0E4CF03F0E4CF02F0E4CF01F03C
:102F0000E4CF00F0E4CFD9FF1200D9CFE5FFE1CF45
:102F1000D9FF00C0E5FF01C0E5FF02C0E5FF03C027
:102F2000E5FF04C0E5FF05C0E5FF020EDBCF00F0C2
:102F3000030EDBCF01F0040EDBCF02F0050EDBCF7A
:102F400003F05AC304F05BC305F003015A3F01D0FC
:102F50005B2B0350E56E0450E56E43EC1FF0E65228
:102F6000E6525AC304F05BC305F003015A3F01D097
:102F70005B2B0250056EE56E0450E56E43EC1FF0CE
:102F8000E652E6525AC304F05BC305F003015A3F10
:102F900001D05B2B0150E56E0450E56E43EC1FF051
:102FA000E652E6525AC304F05BC305F003015A3FF0
:102FB00001D05B2B0050E56E0450E56E43EC1FF032
:102FC000E652E652E4CF05F0E4CF04F0E4CF03F09C
:102FD000E4CF02F0E4CF01F0E4CF00F0E4CFD9FF7A
:102FE0001200D9CFE5FFE1CFD9FF00C0E5FF01C056
:102FF000E5FF02C0E5FF03C0E5FF04C0E5FF05C033
:10300000E5FF06C0E5FF020EDBCF00F0030EDBCFCD
:1030100001F00038E8441F0B026E036A5C0E0226C2
:10302000030E032202C0E9FF03C0EAFFEFCF04F062
:103030000050056E070E0516010E066E05500DE0D8
:1030400006E6E86CD8900636010FFDE306D0D8906E
:1030500006BED8800632010FFBE30450061202C000
:10306000E9FF03C0EAFF06C0EFFF230E0024026E53
:10307000036A0F0E032202C0E9FF03C0EAFF01C08A
:10308000EFFF016A230E0026040E012200C0E9FFB3
:1030900001C0EAFFFF0EEF68E4CF06F0E4CF05F0D1
:1030A000E4CF04F0E4CF03F0E4CF02F0E4CF01F08A
:1030B000E4CF00F0E4CFD9FF1200D9CFE5FFE1CF94
:1030C000D9FF00C0E5FF01C0E5FF02C0E5FF03C076
:1030D000E5FF04C0E5FF05C0E5FF06C0E5FF020E01
:1030E000DBCF00F0030EDBCF01F0040EDBCF02F0EC
:1030F0000401375119E171EC13F0036EF3CF04F0C2
:10310000F4CF05F0E9CF06F003C0E5FF04C0F4FFFB
:1031100005C0F6FF06C0F7FF00C0E9FF01C0F3FFDE
:10312000025012EC22F01ED004013751010A1AE1BC
:1031300000C0E9FF01C0F3FF025057EC20F0006E21
:10314000F3CF01F0F4CF02F0E9CF03F00350E56EC6
:103150000250E56E0150E56E0050E56E85EC17F00B
:10316000040EE126E4CF06F0E4CF05F0E4CF04F04E
:10317000E4CF03F0E4CF02F0E4CF01F0E4CF00F0BD
:10318000E4CFD9FF1200D9CFE5FFE1CFD9FF00C0CE
:10319000E5FF01C0E5FF02C0E5FF03C0E5FF04C095
:1031A000E5FF05C0E5FF06C0E5FF020EDBCF00F03E
:1031B000030EDBCF01F0040EDBCF02F0050EDBCFF8
:1031C00003F0060EDBCF04F0070EDBCF05F0080E90
:1031D000DBCF06F0D88003AED89015E306500A0A7C
:1031E00012E104C0E9FF05C0EAFF2D0EEF6E044AAC
:1031F000052A031E021E011E006C05E1012A03E1DF
:10320000022AD8B4032A0650E56E0550E56E045034
:10321000E56E0350E56E0250E56E0150E56E00501C
:10322000E56EEDEC0EF0070EE126E4CF06F0E4CFFC
:1032300005F0E4CF04F0E4CF03F0E4CF02F0E4CFF4
:1032400001F0E4CF00F0E4CFD9FF1200D9CFE5FFC1
:10325000E1CFD9FF00C0E5FF01C0E5FF02C0E5FFF7
:1032600003C0E5FF04C0E5FF05C0E5FF06C0E5FFBC
:10327000020EDBCF00F0030EDBCF01F0040EDBCF3C
:1032800002F0050EDBCF03F0046A056A0350800BE1
:10329000E844066E065011E1025002260336035040
:1032A000015C02E10250005C04E2D8900332023279
:1032B00004D0052A05C004F0E9D70350015C02E1FF
:1032C0000250005C04E30250005E0350015AD890A3
:1032D0000332023204C005F004060550EEE101C0DD
:1032E000F3FF0050E4CF06F0E4CF05F0E4CF04F0A4
:1032F000E4CF03F0E4CF02F0E4CF01F0E4CF00F03C
:10330000E4CFD9FF120000C0E5FF01C0E5FF02C015
:10331000E5FF6DEC1FF0006E4C0A08E16DEC1FF04C
:10332000300A02E08B823FD08B923DD00050450A9C
:1033300025E1000EE56E140EE56ED80EE56E17EC75
:103340001DF0030EE126F2EC22F0016E01C002F046
:10335000010602500FE06DEC1FF0E56AE56E000E0D
:10336000E56E140EE56EDA0EE56E17EC1DF0050E37
:10337000E126ECD70A0EE9EC1EF015D00050570AF2
:1033800012E16DEC1FF0520A0EE16DEC1FF0490ADC
:103390000AE16DEC1FF0540A06E16DEC1FF0450ADE
:1033A00002E1B6EC22F0E4CF02F0E4CF01F0E4CF8A
:1033B00000F0120000C0E5FF01C0E5FF02C0E5FF1C
:1033C00003C0E5FF67C300F0016A72C302F0036A3D
:1033D0000250005E0350015AE56A800EE56E01500E
:1033E000E56E0050E56E17EC17F0006E040EE12656
:1033F000000672C301F0430EE9EC1EF0200EE9EC6A
:103400001EF0005020E0600E0124026E036A000EE0
:10341000032202C0E9FF03C0EAFFEFCF02F0E56A32
:103420000250E56E000EE56E440EE56EDA0EE56EB6
:1034300017EC1DF0050EE126012A0150800A01E17A
:10344000016A0006DED7E4CF03F0E4CF02F0E4CF58
:1034500001F0E4CF00F0120000C0E5FF01C0E5FF7D
:1034600002C0E5FF03C0E5FF51EC12F058EC06F096
:10347000C9EC0FF019EC1FF0006EF3CF01F0F4CFA0
:1034800002F0E9CF03F004013351005E3451015AD8
:103490003551025A3651035A039E3F0E035C08E130
:1034A000FF0E025C05E1FF0E015C02E1FF0E005C15
:1034B0001BE219EC1FF0F3CF01F0F4CF02F0E9CFDB
:1034C00003F0100F0401336F270E0120346F000E3C
:1034D0000220356F000E0320366FD1EC0CF0006E29
:1034E0000050D8B40EEC04F0E4CF03F0E4CF02F0C7
:1034F000E4CF01F0E4CF00F01200D8CFE5FFE0CF39
:10350000E5FFE56EF3CFE5FFF4CFE5FFE9CFE5FF9B
:10351000EACFE5FFFACFE5FFFBCFE5FF00C0E5FF0F
:1035200001C0E5FF0001E2510F01356F0001E351D9
:103530000F01366FD650336FD750346FF2A417D0C7
:10354000E2C000F0E3C001F00050010F0001E26FA3
:10355000000E0120E36FF294E2510F01356F00017C
:10356000E3510F01366FD650336FD750346FE4CF2D
:1035700001F0E4CF00F0E4CFFBFFE4CFFAFFE4CFAB
:10358000EAFFE4CFE9FFE4CFF4FFE4CFF3FFE45038
:10359000E4CFE0FFE4CFD8FF1000D9CFE5FFE1CFC3
:1035A000D9FF00C0E5FF01C0E5FF02C0E5FF03C091
:1035B000E5FF04C0E5FF020EDBCF00F0030EDBCF1A
:1035C00001F0040EDBCF02F00401375111E184EC6D
:1035D0001EF0036EF3CF04F003C0E5FF04C0F4FF58
:1035E00000C0E9FF01C0F3FF02507DEC22F016D0CD
:1035F00004013751010A12E100C0E9FF01C0F3FFE5
:103600000250ADEC21F0006EF3CF01F00150E56EF9
:103610000050E56E96EC1DF0E652E652E4CF04F061
:10362000E4CF03F0E4CF02F0E4CF01F0E4CF00F008
:10363000E4CFD9FF1200D9CFE5FFE1CFD9FF00C019
:10364000E5FF01C0E5FF02C0E5FF03C0E5FF04C0E0
:10365000E5FF020EDBCF00F00038E8441F0B016EDF
:10366000026A600E0126030E022201C0E9FF02C0B9
:10367000EAFFEFCF01F0070E0016010E026E000EFA
:10368000036E005006E0E86CD89002360336010F56
:10369000FCE3046A015002160450031602500310A2
:1036A000D880E866D890026A02360250D880E86670
:1036B000D890026A02360250E4CF04F0E4CF03F05F
:1036C000E4CF02F0E4CF01F0E4CF00F0E4CFD9FF83
:1036D0001200B80EF66E450EF76E000EF86E090079
:1036E000F550056E0900F550066E04E1056702D03D
:1036F000B6EF1BF00900F550006E0900F550016EA1
:103700000900F550026E09000900F550E96E090044
:10371000F550EA6E090009000900F550036E090032
:10372000F550046E09000900F6CF07F0F7CF08F056
:10373000F8CF09F000C0F6FF01C0F7FF02C0F8FFA4
:10374000035002E1045007E00900F550EE6E030655
:10375000F8E20406F9D707C0F6FF08C0F7FF09C072
:10376000F8FF050601E2060675EF1BF01200D9CF3F
:10377000E5FFE1CFD9FF00C0E5FF01C0E5FF02C0D2
:10378000E5FF03C0E5FF04C0E5FF020EDBCF00F05C
:103790000038E8441F0B016E026A5C0E0126030E1E
:1037A000022201C0E9FF02C0EAFFEFCF03F0070EDB
:1037B0000016010E046E00500DE006E6E86CD8908D
:1037C0000436010FFDE306D0D89004BED880043241
:1037D000010FFBE3041C006E0350001601C0E9FF5B
:1037E00002C0EAFF00C0EFFFE4CF04F0E4CF03F033
:1037F000E4CF02F0E4CF01F0E4CF00F0E4CFD9FF52
:103800001200D9CFE5FFE1CFD9FF00C0E5FF01C02D
:10381000E5FF02C0E5FF03C0E5FF04C0E5FF05C00A
:10382000E5FF020EDBCF00F00050010A22E1016A41
:103830000150020DF450036EF3CF02F0B30E0224D8
:10384000046E040E0320056E04C0E9FF05C0EAFF04
:10385000EE687F0EEF6ED30E0226040E032202C026
:10386000E9FF03C0EAFFEE6AEF6A012A100E015C6D
:10387000DFE300C0EAF0E4CF05F0E4CF04F0E4CFEA
:1038800003F0E4CF02F0E4CF01F0E4CF00F0E4CFA6
:10389000D9FF120000C0E5FF01C0E5FF02C0E5FF4F
:1038A00003C0E5FF04C0E5FF006A5E0E0024016E60
:1038B000026A030E0222600E0024036E046A030EE5
:1038C000042203C0E9FF04C0EAFF010EEF6E01C04D
:1038D000E9FF02C0EAFFEF6E002A020E005CE5E39A
:1038E000006A400E0024016E026A030E022201C02B
:1038F000E9FF02C0EAFFEF68002A100E005CF1E366
:10390000E4CF04F0E4CF03F0E4CF02F0E4CF01F021
:10391000E4CF00F012004320732025642025640AC0
:103920000000D9CFE5FFE1CFD9FF00C0E5FF01C01E
:10393000E5FF02C0E5FF03C0E5FF04C0E5FF05C0E9
:10394000E5FF020EDBCF00F0030EDBCF01F0040E2B
:10395000DBCF02F0050EDBCF03F0060EDBCF04F069
:10396000056A400E0026030E0522800E015E070E3A
:1039700001160138F00B026E070E041604500226E1
:1039800000C0E9FF05C0EAFF02C0EFFFE4CF05F089
:10399000E4CF04F0E4CF03F0E4CF02F0E4CF01F091
:1039A000E4CF00F0E4CFD9FF120000C0E5FF01C072
:1039B000E5FF02C0E5FF6DEC1FF0006E6DEC1FF03F
:1039C000016ED00E00260A0E005C05E30050026E68
:1039D000F90E0224006ED00E01260A0E015C05E3EA
:1039E0000150026EF90E0224016E080E005C03E223
:1039F000100E015CD8B014D00038F00B0124006E1A
:103A0000016A4AEC1EF0026E025002E0010E016EE5
:103A10000150010A05E00050E56E23EC21F0E6526A
:103A2000E4CF02F0E4CF01F0E4CF00F01200D9CFF0
:103A3000E5FFE1CFD9FF00C0E5FF01C0E5FF02C00F
:103A4000E5FF020ED924006E000EDA20016E800E12
:103A5000026E030E0026000E012202220250E56EC5
:103A60000150E56E0050E56E040EDBCFE5FF030E5E
:103A7000DBCFE5FF020EDBCFE5FF04017F51E56EF2
:103A80007E51E56E7D51E56E0EEC00F0006EF3CFD9
:103A900001F0090EE12601C0F3FF0050E4CF02F06F
:103AA000E4CF01F0E4CF00F0E4CFD9FF1200D9CF8A
:103AB000E5FFE1CFD9FF00C0E5FF01C0E5FF02C08F
:103AC000E5FF03C0E5FF020EDBCF00F0030EDBCF06
:103AD00001F0040EDBCF02F0040137510DE181EC5F
:103AE00021F0036E03C0E5FF00C0E9FF01C0F3FF52
:103AF0000250ABEC22F00FD004013751010A0BE168
:103B000000C0E9FF01C0F3FF025023EC22F0E56E94
:103B10000CEC20F0E652E4CF03F0E4CF02F0E4CF67
:103B200001F0E4CF00F0E4CFD9FF1200D9CFE5FFD8
:103B3000E1CFD9FF00C0E5FF01C0E5FF02C0E5FF0E
:103B400003C0E5FF020EDBCF00F0030EDBCF01F078
:103B50005AC302F05BC303F003015A3F01D05B2B51
:103B60000150E56E0250E56E43EC1FF0E652E6525E
:103B70005AC302F05BC303F003015A3F01D05B2B31
:103B80000050E56E0250E56E43EC1FF0E652E6523F
:103B9000E4CF03F0E4CF02F0E4CF01F0E4CF00F093
:103BA000E4CFD9FF1200D9CFE5FFE1CFD9FF00C0A4
:103BB000E5FF01C0E5FF02C0E5FF03C0E5FF04C06B
:103BC000E5FF020EDBCF00F0E4C001F0026A014A1B
:103BD000022AE5C003F0046A0150031803E1025011
:103BE000041801E001D00ED0000E0001E425016EA2
:103BF000026A010E022201C0E9FF02C0EAFF00C012
:103C0000EFFFE42BE4CF04F0E4CF03F0E4CF02F0C5
:103C1000E4CF01F0E4CF00F0E4CFD9FF1200D9CF18
:103C2000E5FFE1CFD9FF00C0E5FF01C0E5FF02C01D
:103C3000E5FF03C0E5FF020EDBCF00F0016A72C3AF
:103C400002F0036A0250002603500122E56A800E4A
:103C5000E56E0150E56E0050E56E17EC17F0006E52
:103C6000F3CF01F0040EE126600E0026000E0122C3
:103C700000C0E9FF01C0EAFFEFCF00F00050E4CF41
:103C800003F0E4CF02F0E4CF01F0E4CF00F0E4CFA2
:103C9000D9FF120000C0E5FF01C0E5FF02C0E5FF4B
:103CA000010E006E6DEC1FF0016E01C002F00150BC
:103CB00023E00050E56E53EC22F0016EE652015015
:103CC00010E10A0E005C0BE20A0E006EE56E53EC8A
:103CD00022F0016EE652015004E1E8680ED0E86877
:103CE0000CD00150021802E0E86807D0002A1B0E31
:103CF000005CD8E3E86801D0E86AE4CF02F0E4CFE2
:103D000001F0E4CF00F0120000C0E5FF01C0E5FFC4
:103D100002C0E5FF03C0E5FF5AC300F05BC301F03A
:103D200003015A3F01D05B2B0050E56E53EC22F0AB
:103D3000E652036E026A5AC300F05BC301F003014E
:103D40005A3F01D05B2B0050E56E53EC22F0E65257
:103D5000016A02120150031203C0F3FF0250E4CFC4
:103D600003F0E4CF02F0E4CF01F0E4CF00F0120062
:103D70000001E46B0001E56B0001E66994808B9023
:103D80009480B06A3F0EAF6EB886AC8AAC84AC8CBF
:103D9000AC90AB8CAB8E0301696B0301636B0301C9
:103DA000666B0301676B0301686B000EE56A53ECF9
:103DB00022F00001E86FE6529F989F9A010E0001E1
:103DC000E76F04017D6B7E6B2F0E7F6F61EC22F03D
:103DD000120000C0E5FF01C0E5FF02C0E5FF006E74
:103DE000000E0001E925016E026A0F0E022201C0D9
:103DF000E9FF02C0EAFF00C0EFFF220EE95DD8A094
:103E0000E92B00500A0A0EE10001E951E56E800E2F
:103E1000E56E0F0EE56E000EE56E1FEC16F0040E5B
:103E2000E126E96BE4CF02F0E4CF01F0E4CF00F04B
:103E300012000001E25104017B6F0001E351040113
:103E40007C6FD650796FD7507A6F7B510001E219A1
:103E500005E104017C510001E3190CE00001E2518D
:103E600004017B6F0001E35104017C6FD650796F30
:103E7000D7507A6F7CC4E9FF7BC4F4FF7AC4F3FFA8
:103E8000040179511200D9CFE5FFE1CFD9FF00C07D
:103E9000E5FF01C0E5FF020EDBCF00F0030EDBCF34
:103EA00001F0F29EF29C01C0A8FF00C0A9FFA69EEF
:103EB000A69CA684550EA76EAA0EA76EA682F28EA9
:103EC000F28CA694A6A202D00000FCD7E4CF01F0A9
:103ED000E4CF00F0E4CFD9FF120000C0E5FF01C03D
:103EE000E5FF030167510301701905E00301675104
:103EF0000301661902E1E86A15D067C300F0030107
:103F0000672B016A600E0026000E012200C0E9FF47
:103F100001C0EAFFEFCF00F06751800A02E1030120
:103F2000676B0050E4CF01F0E4CF00F0120000C056
:103F3000E5FFECEC22F00401896B806B8983006A59
:103F400089B3002A0050010BE844F46E8051FD0B48
:103F5000F410806FD58ED59CD59AD588D596D594FA
:103F6000D582D580F28AF184D08EF28EF28CBA801E
:103F7000FF0EBB68BA84E4CF00F01200D9CFE5FF92
:103F8000E1CFD9FF00C0E5FF01C0E5FF020EDBCFA6
:103F900000F00050020DF450016EF3CF00F0000E5F
:103FA0000026030E012200C0E9FF01C0EAFFEECFA8
:103FB00000F0EFCF01F001C0F3FF0050E4CF01F0BB
:103FC000E4CF00F0E4CFD9FF1200D9CFE5FFE1CF75
:103FD000D9FF00C0E5FF01C0E5FF020EDBCF00F016
:103FE0000050020DF450016EF3CF00F0390E0026A0
:103FF000040E012200C0E9FF01C0EAFFEECF00F08D
:10400000EFCF01F001C0F3FF0050E4CF01F0E4CFA7
:1040100000F0E4CFD9FF1200D9CFE5FFE1CFD9FFFF
:1040200000C0E5FF01C0E5FF02C0E5FF020EDBCFE7
:1040300000F05AC301F05BC302F003015A3F01D004
:104040005B2B0050E56E0150E56E43EC1FF0E6522D
:10405000E652E4CF02F0E4CF01F0E4CF00F0E4CF89
:10406000D9FF1200D8CFE5FFE0CFE5FFE56EF3CF33
:10407000E5FFF4CFE5FFE9CFE5FFEACFE5FFFACFB3
:10408000E5FFFBCFE5FFB0EC0BF0E4CFFBFFE4CFA7
:10409000FAFFE4CFEAFFE4CFE9FFE4CFF4FFE4CF97
:1040A000F3FFE450E4CFE0FFE4CFD8FF1000E8AE28
:1040B0000AD0F3CFEAFFEE50EECFF3FFEECFF4FFDE
:1040C000EECFE9FF1200E8BCFFEF22F0E9CFF6FFE8
:1040D000F3CFF7FFF86E0900F5500900F5CFF3FFB5
:1040E0000900F5CFF4FF0900F5CFE9FF120000C089
:1040F000E5FF01C0E5FF0001E4510001E51902E11F
:10410000E86A0FD0000E0001E525006E016A010E7D
:10411000012200C0E9FF01C0EAFFEFCF00F0E52B6C
:104120000050E4CF01F0E4CF00F01200F2CFEAFF3C
:10413000F29EA69EA69CA684E9CFA9FFF3CFAAFF74
:10414000E4CFA8FFD3EC22F0F4CFA8FFD3EC22F009
:10415000F6CFA8FFD3EC22F0F7CFA8FFD3EC22F0E4
:10416000A694EABEF28E1200D9CFE5FFE1CFD9FFC7
:1041700000C0E5FF01C0E5FF020EDBCF00F0016AE1
:10418000400E0026030E012200C0E9FF01C0EAFF35
:10419000FF0EEF68E4CF01F0E4CF00F0E4CFD9FFE9
:1041A0001200F2CFF6FFF29EA69EA69CE9CFA9FFD1
:1041B000F3CFAAFFA680A850A94AAA2AA680A8CF12
:1041C000F3FFA94AAA2AA680A8CFF4FFA94AAA2ADF
:1041D000A680A8CFEAFFF6BEF28E1200E8AE08D0A5
:1041E000F3CFEAFFEE50EECFF3FFEECFF4FF120075
:1041F000E8BC07EF23F0E9CFF6FFF3CFF7FFF86E47
:104200000900F5500900F5CFF3FF0900F5CFF4FFE1
:104210001200F2CFEAFFF29EA69EA69CA684E9CFEA
:10422000A9FFF3CFAAFFE4CFA8FFD3EC22F0F4CF8D
:10423000A8FFD3EC22F0F6CFA8FFD3EC22F0A6948F
:10424000EABEF28E1200D9CFE5FFE1CFD9FF00C060
:10425000E5FF020EDBCF00F000C0E8F00050E56E95
:10426000000EE56A43EC1FF0E652E652E4CF00F0A0
:10427000E4CFD9FF1200F2CFF6FFF29EA69EA69CD5
:10428000E9CFA9FFF3CFAAFFA680A850A94AAA2A7E
:10429000A680A8CFF3FFA94AAA2AA680A8CFF4FF38
:1042A000F6BEF28E120000C0E5FF01C0E5FF600E11
:1042B00003016725006E016A000E012200C0E9FFBC
:1042C00001C0EAFFEFCF00F00050E4CF01F0E4CFEF
:1042D00000F01200D9CFE5FFE1CFD9FF00C0E5FF24
:1042E000020EDBCF00F0610E005C05E37B0E005C8C
:1042F00002E2010E01D0E86AE4CF00F0E4CFD9FF7A
:10430000120000C0E5FF01C0E5FF5AC300F05BC327
:1043100001F003015A3F01D05B2B0050E56E53ECD6
:1043200022F0E652E4CF01F0E4CF00F01200D9CF42
:10433000E5FFE1CFD9FF00C0E5FF020EDBCF00F0C3
:1043400000C0E7F0005004E161EC22F09D9A9D98D6
:10435000E4CF00F0E4CFD9FF1200E8AE06D0F3CFEF
:10436000EAFFEE50EECFF3FF1200E8BCFDEF22F0C3
:10437000E9CFF6FFF3CFF7FFF86E0900F55009001B
:10438000F5CFF3FF1200F2CFEAFFF29EA69EA69CA5
:10439000A684E9CFA9FFF3CFAAFFE4CFA8FFD3EC0F
:1043A00022F0F4CFA8FFD3EC22F0A694EABEF28E5E
:1043B000120012EEFFF022EEFFF0F86AA68EA69C25
:1043C000E9680E0EEA6E0068000EED6A0050FDE12D
:1043D00069EC1BF006EC00F0FFD7F2CFF6FFF29E7F
:1043E000A69EA69CE9CFA9FFF3CFAAFFA680A8505E
:1043F000A94AAA2AA680A8CFF3FFF6BEF28E120021
:10440000F2CFEAFFF29EA69EA69CA684E9CFA9FF62
:10441000F3CFAAFFE4CFA8FFD3EC22F0A694EABE24
:10442000F28E1200E8AE0BD0F3CFEAFFE4CFEEFF3E
:10443000F4CFEEFFF6CFEEFFF7CFEEFF1200E8BCB1
:1044400001EF23F01200E8AE04D0F3CFEAFFEE5004
:104450001200E8BCFBEF22F0E9CFF6FFF3CFF7FF45
:10446000F86E0900F5501200000000000000FF0087
:1044700000000007000200000042000000000000F1
:104480000000000000000000E8AE09D0F3CFEAFF12
:10449000E4CFEEFFF4CFEEFFF6CFEEFF1200E8BC64
:1044A00009EF23F01200D9CFE5FFE1CFD9FF020ECB
:1044B000DBCFA9FFA69CA69EA680A850E4CFD9FF7B
:1044C0001200ACA2FED79480AE500000AE50AB9864
:1044D000AB88AB869D8A9D98120025642000F2CFA0
:1044E000F6FFF29EA69EA69CE9CFA9FFF3CFAAFFF6
:1044F000A680A850F6BEF28E1200E8AE07D0F3CF29
:10450000EAFFE4CFEEFFF4CFEEFF1200E8BC05EFC8
:1045100023F01200700ED36E9B8CFF0E926893688E
:1045200094689668626AF19E120000C0E5FF4AEC4A
:104530001EF0006E005001E1FF00E4CF00F0120019
:104540000F01456B900E0F01446F030E0F01436F77
:104550000F01458F1200E8AE05D0F3CFEAFFE4CF9C
:10456000EEFF1200E8BC03EF23F01200010E04017D
:10457000376F1C0E03015A6F5B6B0BEC23F01200BC
:10458000D9CFE5FFE1CFD9FF020EDBCFEDF0E4CFCD
:10459000D9FF12000401376B1C0E03015A6F5B6BCD
:1045A0000BEC23F01200550EA76EAA0EA76EA68282
:1045B000A6B2FED7A94AAA2A010068440000E0007A
:1045C00000002000000097EC1FF0B8EC1EF0120075
:1045D000ACA2FED7AD6E12008AEC22F012000301ED
:1045E000675112000301715112000001E7511200DE
:1045F000E8CF7FFF12006FEF22F0EDEF21F0D1EF57
:1046000020F096EF20F000EF22F0C3EF21F03BEF17
:0846100021F009EF21F0120076
:020000040030CA
:010006008574
:00000001FF
