:020000040000FA
:100000008CEF1EF0C96E12000EEF16F01DEC14F00E
:10001000B2EC16F0FDD7120029EF1CF0D9CFE5FFA6
:10002000E1CFD9FF00C0E5FF01C0E5FF02C0E5FF59
:1000300003C0E5FF04C0E5FF05C0E5FF06C0E5FF1E
:1000400007C0E5FF08C0E5FF09C0E5FF0AC0E5FFFE
:100050000BC0E5FF0CC0E5FF0DC0E5FF0EC0E5FFDE
:100060000FC0E5FF10C0E5FF11C0E5FF12C0E5FFBE
:1000700013C0E5FF14C0E5FF15C0E5FF16C0E5FF9E
:1000800017C0E5FF18C0E5FF19C0E5FF1AC0E5FF7E
:100090001BC0E5FF1CC0E5FF1DC0E5FF1EC0E5FF5E
:1000A000020EDBCF00F0030EDBCF01F0040EDBCF3E
:1000B00002F0050EDBCF03F0060EDBCF04F0070ED7
:1000C000DBCF05F0080EDBCF06F0090EDBCF07F023
:1000D0000A0EDBCF08F0096A0A6A02C00DF00D5063
:1000E000800A0DE102500301786F0150776F0050D4
:1000F000766F030E016E760E006E800E026E03C0E8
:10010000E9FF04C0F3FF0550D6EC1EF00B6E0B5058
:10011000D8B4C4EF03F00B50250A02E0ABEF03F0B4
:100120000C6A0D6A0E6A0F6A106A0A0E116E126A64
:10013000136A146A200E156E1668176A2B0E186E55
:10014000032A02E3044A052A03C0E9FF04C0F3FFBF
:100150000550D6EC1EF0196E250A13E11950E56E14
:100160000250E56E0150E56E0050E56EBEEC0FF0FA
:10017000040EE126094A0A2A032A02E3044A052A50
:10018000BED71950300A06E1300E156E032A02E37D
:10019000044A052A03C0E9FF04C0F3FF0550D6EC6A
:1001A0001EF02D0A06E1010E146E032A02E3044A32
:1001B000052A03C0E9FF04C0F3FF0550D6EC1EF08A
:1001C000200A08E1010E176E200E186E032A02E3C2
:1001D000044A052A03C0E9FF04C0F3FF0550D6EC2A
:1001E0001EF02B0A06E1010E176E032A02E3044AF1
:1001F000052A03C0E9FF04C0F3FF0550D6EC1EF04A
:10020000196E310E195C2BE33A0E195C28E203C01B
:1002100019F004C01AF005C01BF019C0E9FF1AC09C
:10022000F3FF1B50D6EC1EF01C6E300E1C5C11E36D
:100230003A0E1C5C0EE213500A0DF3CF1DF01C5059
:100240001D26D00E1D24136E192A02E31A4A1B2AFA
:10025000E4D719C003F01AC004F01BC005F003C0B6
:10026000E9FF04C0F3FF0550D6EC1EF02E0A2DE185
:10027000032A02E3044A052A166A03C019F004C0DF
:100280001AF005C01BF019C0E9FF1AC0F3FF1B509C
:10029000D6EC1EF01C6E300E1C5C11E33A0E1C5C9A
:1002A0000EE216500A0DF3CF1DF01C501D26D00E85
:1002B0001D24166E192A02E31A4A1B2AE4D719C014
:1002C00003F01AC004F01BC005F003C0E9FF04C02E
:1002D000F3FF0550D6EC1EF0196E6C0A07E1010E13
:1002E0000C6E032A02E3044A052A09D01950680A51
:1002F00006E1010E0E6E032A02E3044A052A03C03A
:10030000E9FF04C0F3FF0550D6EC1EF0750A06E1C4
:10031000010E106E032A02E3044A052A03C0E9FF16
:1003200004C0F3FF0550D6EC1EF0196E730A05E108
:10033000010E0D6E200E156E3FD01950780A03E1A4
:10034000100E116E39D01950580A05E1100E116EB9
:10035000010E126E31D01950630A02E1116A2CD0DD
:1003600019506F0A03E1080E116E26D01950660A63
:1003700003E1010E0F6E20D01950640A1DE01950E0
:10038000690A1AE0105005E0FF0E03260422052238
:1003900013D01950E56E0250E56E0150E56E005025
:1003A000E56EBEEC0FF0040EE126094A0A2A032A84
:1003B00002E3044A052AA3D60D5021E00650030F9C
:1003C0000D6E000E0720196E000E08201A6E0DC06B
:1003D00006F019C007F01AC008F0FD0E0D26FF0E3A
:1003E00019221A220DC0E9FF19C0F3FF1A508CEC34
:1003F0001DF00D6EF3CF19F0F4CF1AF0FDD00F50B1
:100400000DE0000E1A6E080E196E100E0D6E040E21
:100410000626000E072208221668EED016680C5039
:1004200023E00650040F0C6E000E07200F6E000E26
:1004300008201B6E0CC006F00FC007F01BC008F0B0
:10044000FC0E0C26FF0E0F221B220CC0E9FF0FC072
:10045000F3FF1B5012EC1DF00C6EF3CF0FF0F4CF36
:100460001BF0E9CF1CF067D00E502FE00650020FB2
:100470000E6E000E07201D6E000E08201E6E0EC0B0
:1004800006F01DC007F01EC008F0FE0E0E26FF0E7F
:100490001D221E220EC0E9FF1DC0F3FF1E504BECB3
:1004A0001EF00E6E0EC00CF00F6A1B6A1C6A115013
:1004B0000A0A03E11050D8B43ED00C500E6E0EC0A4
:1004C0000CF00F6A1B6A1C6A36D00650020F0E6EC3
:1004D000000E07201D6E000E08201E6E0EC006F0D6
:1004E0001DC007F01EC008F0FE0E0E26FF0E1D22D6
:1004F0001E220EC0E9FF1DC0F3FF1E504BEC1EF084
:100500000E6EF3CF1DF00EC00CF01DC00FF0E86AA8
:100510001DBEFF0E1B6E1C6E11500A0A02E1105028
:100520000AE00C500E6E0F501D6E0EC00CF01DC078
:100530000FF01B6A1C6A040E196EF40E0D6E800E0D
:100540001A6E1150D8B440D0105013E01150E56E1F
:10055000040EE56EF40EE56E1C50E56E1B50E56E64
:100560000F50E56E0C50E56E05EC0CF0070EE12621
:1005700012D01150E56E040EE56EF40EE56E1C50BF
:10058000E56E1B50E56E0F50E56E0C50E56E4EECBF
:1005900015F0070EE12617502FE00DC0E9FF19C036
:1005A000F3FF1A50D6EC1EF02D0A26E0FF0E0D26A2
:1005B00019221A2218C0E5FF0DC0E9FF19C0F3FF88
:1005C0001A504EEC1FF018D00CC0E5FF0DC0E9FF2B
:1005D00019C0F3FF1A504EEC1FF00D50010F0C6EB6
:1005E000000E19200E6E000E1A20E56A0CC0E9FFFD
:1005F0000EC0F3FF4EEC1FF00DC00CF019C00EF052
:100600001AC00FF013C010F0105010E00CC0E9FF3A
:100610000EC0F3FF0F50D6EC1EF0176E175006E019
:100620000C2A02E30E4A0F2A1006EED710C013F070
:1006300014501EE109C00CF00AC00EF010C00FF0FB
:100640000F5010E01550E56E0250E56E0150E56E5A
:100650000050E56EBEEC0FF0040EE1260C4A0E2AA7
:100660000F06EED70CC009F00EC00AF00FC013F051
:1006700016C00CF00DC00DF019C00EF01AC00FF02E
:1006800009C010F00AC015F00DC0E9FF0EC0F3FF5D
:100690000F50D6EC1EF0166E1650D8B43ED00CC0DB
:1006A00016F0176A161E171E1650171005E00CC01C
:1006B00016F00C06165031E00DC0E9FF0EC0F3FF36
:1006C0000F50D6EC1EF0116E125010E01150E56E76
:1006D00008EC1EF0166EE652165004E0DF0E111400
:1006E000166E02D011C016F016C011F01150E56E52
:1006F0000250E56E0150E56E0050E56EBEEC0FF065
:10070000040EE1260D2A02E30E4A0F2A104A152A8A
:100710001350D8B4B9D71306B7D710C009F015C015
:100720000AF014502BE010C00CF015C00DF013C0EF
:100730000EF00E501FE0200EE56E0250E56E0150E7
:10074000E56E0050E56EBEEC0FF0040EE1260C4A9B
:100750000D2A0E06EED70B50E56E0250E56E0150E5
:10076000E56E0050E56EBEEC0FF0040EE126094A7E
:100770000A2A04D00CC009F00DC00AF0032A02E3D3
:10078000044A052A7FEF00F00AC0F3FF0950E4CFC6
:100790001EF0E4CF1DF0E4CF1CF0E4CF1BF0E4CF5B
:1007A0001AF0E4CF19F0E4CF18F0E4CF17F0E4CF5B
:1007B00016F0E4CF15F0E4CF14F0E4CF13F0E4CF5B
:1007C00012F0E4CF11F0E4CF10F0E4CF0FF0E4CF5B
:1007D0000EF0E4CF0DF0E4CF0CF0E4CF0BF0E4CF5B
:1007E0000AF0E4CF09F0E4CF08F0E4CF07F0E4CF5B
:1007F00006F0E4CF05F0E4CF04F0E4CF03F0E4CF5B
:1008000002F0E4CF01F0E4CF00F0E4CFD9FF120012
:100810003C4E4F20464C4F41543E000000C0E5FF87
:1008200001C0E5FF02C0E5FF03C0E5FF04C0E5FF2E
:1008300005C0E5FF06C0E5FF07C0E5FF08C0E5FF0E
:1008400009C0E5FF0AC0E5FF0BC0E5FF0CC0E5FFEE
:10085000006A016A026A040E025CD8B0EBD1100E85
:10086000015CD8B0E7D1012A0401182B100E185DE5
:10087000D8B0186B1839E8441F0B036E046A7B0E5E
:100880000326030E042203C0E9FF04C0EAFFEFCFF2
:1008900003F018C404F0070E0416010E056E000ED6
:1008A000066E045006E0E86CD89005360636010F57
:1008B000FCE3076A0350051607500616055006109C
:1008C000D880E866D890056A05360550D8A4C3D705
:1008D00004011851020DF450046EF3CF03F0E00E42
:1008E0000324056E000E0420066E05C0E9FF06C055
:1008F000EAFFEECF05F0EFCF06F015C407F007A032
:100900009DD0B30E0324076E040E0420086E07C0AA
:10091000E9FF08C0EAFFEECF07F0EFCF08F006507E
:10092000800FF36E0850800FF35C02E10750055C06
:1009300003E2056A066A60D0D30E0326040E042281
:1009400003C0E9FF04C0EAFFEECF03F0EFCF04F0ED
:100950000450800FF36E0650800FF35C02E10550E7
:10096000035C04E205683F0E066E46D00750055C46
:10097000096E085006580A6EE86A0ABEFF0E0B6E32
:10098000E56E0B50E56E0A50E56E0950E56EE56ABE
:10099000E56A400EE56E000EE56AFBEC0AF0096EB2
:1009A000F3CF0AF0F4CF0BF0E9CF0CF0080EE126FC
:1009B0000750035C076E08500458086EE86A08BECA
:1009C000FF0E036EE56E0350E56E0850E56E0750AE
:1009D000E56E0C50E56E0B50E56E0A50E56E095061
:1009E000E56EA1EC0EF0036EF3CF04F0080EE126E5
:1009F0000350056E0450066E04011451800FF36E0F
:100A00000650800FF35C02E10550135D03E3056AB5
:100A1000066A14D004011351FF08036E3F0E1455EB
:100A2000046E0650800FF36E0450800FF35C02E1F9
:100A30000350055C03E305683F0E066E0401185180
:100A4000020DF450046EF3CF03F0930E0326040E50
:100A5000042203C0E9FF04C0EAFFEECF03F0EFCFAA
:100A600004F00350055C036E04500658046ED880F1
:100A700004AED89004E3041E036CD8B4042A022AFE
:100A800004011451800FF36E0450800FF35C02E1F7
:100A90000350135DD8B0DFD604011851020DF45095
:100AA000046EF3CF03F0930E0326040E042203C05A
:100AB000E9FF04C0EAFF05C0EEFF06C0EFFF15C462
:100AC00003F003A459D01851020DF450046EF3CF73
:100AD00003F0000E0324076E030E0420086E07C007
:100AE000E9FF08C0EAFFEECF09F0EFCF0AF00950A6
:100AF0000A10D8B441D05C0E0326040E042203C0B1
:100B0000E9FF04C0EAFFEECF03F0EFCF04F003509B
:100B1000055C036E04500658046E03101CE004507C
:100B2000800F800F02E1010E035C0B6A0B360A5046
:100B3000800F800F02E1010E095C096A09360B5033
:100B4000091809E107C0E9FF08C0EAFF03C0EEFF8A
:100B500004C0EFFF80D604011851020DF450046E5A
:100B6000F3CF03F0000E0326030E042203C0E9FFB7
:100B700004C0EAFFEE6AEF6A15C403F003A246D090
:100B800000500EE100C003F0002A046A190E03268B
:100B9000040E042203C0E9FF04C0EAFF420EEF6E18
:100BA00000C003F00028046E076A190E0326040E25
:100BB000072204011851086E640E082603C0E9FFDD
:100BC00007C0EAFF08C0EFFF04C003F0042A076A69
:100BD000190E0326040E07220650086E03C0E9FF13
:100BE00007C0EAFF08C0EFFF04C003F00428006E4E
:100BF000046A190E0326040E04220550076E03C072
:100C0000E9FF04C0EAFF07C0EFFF25D618C403F0D0
:100C10000650E56E0550E56EE56A0350E56E000E80
:100C2000E56E230EE56EB20EE56EB9EC18F0070E18
:100C3000E12611D602C001F000501EE015C402F0FA
:100C400002A21AD000C002F0002A036A190E02267E
:100C5000040E032202C0E9FF03C0EAFF0A0EEF6E92
:100C60000050E56E800EE56E040EE56E190EE56E21
:100C7000DFEC11F0040EE1260150E4CF0CF0E4CFDC
:100C80000BF0E4CF0AF0E4CF09F0E4CF08F0E4CFB2
:100C900007F0E4CF06F0E4CF05F0E4CF04F0E4CFB2
:100CA00003F0E4CF02F0E4CF01F0E4CF00F0120053
:100CB00000C0E5FF01C0E5FF02C0E5FF03C0E5FF9E
:100CC00004C0E5FF05C0E5FF06C0E5FF07C0E5FF7E
:100CD000C2A204D00401165188EF08F00401175194
:100CE000D8B42DD104011651020DF450016EF3CF8A
:100CF00000F0E00E0026000E012200C0E9FF01C056
:100D0000EAFFEECF00F0EFCF01F0230E1625026EC2
:100D1000036A0F0E032202C0E9FF03C0EAFFEFCF10
:100D200002F00250FF0A01E164D002380F0B036E9B
:100D3000920E0324046E056A0F0E0522066A920EB7
:100D400003260F0E062203C0E9FF06C0EAFFEFCF1D
:100D500003F00250066E070E0616010E076E0650CF
:100D60000DE006E6E86CD8900736010FFDE306D0EB
:100D7000D89007BED8800732010FFBE3071C066E30
:100D80000350061604C0E9FF05C0EAFF06C0EFFFE6
:100D900002380F0B036E890E0324046E056A0F0ED2
:100DA0000522066A890E03260F0E062203C0E9FFFC
:100DB00006C0EAFFEFCF03F0070E0216010E066E23
:100DC00002500DE006E6E86CD8900636010FFDE310
:100DD00006D0D89006BED8800632010FFBE3061C71
:100DE000026E0350021604C0E9FF05C0EAFF02C00C
:100DF000EFFF04011651020DF450036EF3CF02F021
:100E0000E00E0226000E032201340130056E003090
:100E1000046E0534053204320534053204320450C0
:100E2000005C046E05500158056EC3CF00F0016AE6
:100E30000050042601500522C4CF00F0016A005082
:100E4000076E066A065004260750052202C0E9FF15
:100E500003C0EAFF04C0EEFF05C0EFFF040112511A
:100E6000010A01E06AD004011651020DF450016E2E
:100E7000F3CF00F0E00E0024026E000E0120036E9E
:100E800002C0E9FF03C0EAFFEECF02F0EFCF03F0AC
:100E9000B30E0026040E012200C0E9FF01C0EAFFE4
:100EA000EECF04F0EFCF05F09C0E0426D8A0050687
:100EB0000350800FF36E0550800FF35C02E1045085
:100EC000025C0EE20250640F046E000E0320056EF9
:100ED00000C0E9FF01C0EAFF04C0EEFF05C0EFFF5C
:100EE00004011651020DF450016EF3CF00F0D30E41
:100EF0000026040E012200C0E9FF01C0EAFFEECF88
:100F000004F0EFCF05F0640E0426D8B0052A055092
:100F1000800FF36E0350800FF35C02E10250045C1B
:100F20000CE29C0E0226D8A0030600C0E9FF01C017
:100F3000EAFF02C0EEFF03C0EFFF0401176B0401DC
:100F4000162B100E165DD8B0166B1639E8441F0B21
:100F5000006E016A7B0E0026030E012200C0E9FF2D
:100F600001C0EAFFEFCF00F016C401F0070E011632
:100F7000010E026E000E036E015006E0E86CD89080
:100F800002360336010FFCE3046A005002160450D7
:100F9000031602500310D880E866D890026A023621
:100FA0000250D8A4B3D0400E04011625006E016A89
:100FB000030E012200C0E9FF01C0EAFFEFCF00F0FD
:100FC0000044E844FC0B016E0128C26E230E162576
:100FD000006E016A0F0E012200C0E9FF01C0EAFFA6
:100FE000EFCF00F00050FF0A01E18CD000380F0B6A
:100FF000016E920E0124026E036A0F0E0322046A30
:10100000920E01260F0E042201C0E9FF04C0EAFF80
:10101000EFCF01F00050046E070E0416010E056EAE
:1010200004500DE006E6E86CD8900536010FFDE3AC
:1010300006D0D89005BED8800532010FFBE30150E1
:10104000051202C0E9FF03C0EAFF05C0EFFF380E3A
:10105000016E0F0E026E00380F0B036E046A035010
:10106000012604500222380E056E0F0E066E055042
:1010700003260650042203C0E9FF04C0EAFFEFCFB5
:1010800003F0070E0016010E046E00500DE006E698
:10109000E86CD8900436010FFDE306D0D89004BE6A
:1010A000D8800432010FFBE30350041201C0E9FFB2
:1010B00002C0EAFF04C0EFFF0F01458300000000FB
:1010C00045930F01449308C0E5FFF2CF08F0F29E6C
:1010D000448100000000000000000000000000004B
:1010E0000000000000000000000000000000000000
:1010F00000000000000000000000449108BEF28ED5
:10110000E4CF08F0C282010E0401176F04011651EA
:10111000E4CF07F0E4CF06F0E4CF05F0E4CF04F02D
:10112000E4CF03F0E4CF02F0E4CF01F0E4CF00F02D
:101130001200800EE56E040EE56ED30EE56E00EC37
:1011400017F0030EE126800EE56E040EE56EB30E79
:10115000E56E00EC17F0030EE126800EE56E040E3E
:10116000E56ED50EE56E00EC17F0030EE126800E5D
:10117000E56E040EE56EB50EE56E00EC17F0030E9D
:10118000E126800EE56E040EE56ED70EE56E00ECEE
:1011900017F0030EE126800EE56E040EE56EB70E25
:1011A000E56E00EC17F0030EE126800EE56E040EEE
:1011B000E56ED90EE56E00EC17F0030EE126800E09
:1011C000E56E040EE56EB90EE56E00EC17F0030E49
:1011D000E126800EE56E040EE56EDB0EE56E00EC9A
:1011E00017F0030EE126800EE56E040EE56EBB0ED1
:1011F000E56E00EC17F0030EE126800EE56E040E9E
:10120000E56EDD0EE56E00EC17F0030EE126800EB4
:10121000E56E040EE56EBD0EE56E00EC17F0030EF4
:10122000E126800EE56E040EE56EDF0EE56E00EC45
:1012300017F0030EE126800EE56E040EE56EBF0E7C
:10124000E56E00EC17F0030EE126800EE56E040E4D
:10125000E56EE10EE56E00EC17F0030EE126800E60
:10126000E56E040EE56EC10EE56E00EC17F0030EA0
:10127000E126800EE56E040EE56EE30EE56E00ECF1
:1012800017F0030EE126800EE56E040EE56EC30E28
:10129000E56E00EC17F0030EE126800EE56E040EFD
:1012A000E56EE50EE56E00EC17F0030EE126800E0C
:1012B000E56E040EE56EC50EE56E00EC17F0030E4C
:1012C000E126800EE56E040EE56EE70EE56E00EC9D
:1012D00017F0030EE126800EE56E040EE56EC70ED4
:1012E000E56E00EC17F0030EE126800EE56E040EAD
:1012F000E56EE90EE56E00EC17F0030EE126800EB8
:10130000E56E040EE56EC90EE56E00EC17F0030EF7
:10131000E126800EE56E040EE56EEB0EE56E00EC48
:1013200017F0030EE126800EE56E040EE56ECB0E7F
:10133000E56E00EC17F0030EE126800EE56E040E5C
:10134000E56EED0EE56E00EC17F0030EE126800E63
:10135000E56E040EE56ECD0EE56E00EC17F0030EA3
:10136000E126800EE56E040EE56EEF0EE56E00ECF4
:1013700017F0030EE126800EE56E040EE56ECF0E2B
:10138000E56E00EC17F0030EE126800EE56E040E0C
:10139000E56EF10EE56E00EC17F0030EE126800E0F
:1013A000E56E040EE56ED10EE56E00EC17F0030E4F
:1013B000E126120000C0E5FF01C0E5FF02C0E5FF25
:1013C00003C0E5FF04010F51D8B40CD1A3A81DD070
:1013D000A4A81BD0030186510301841905E104EC84
:1013E0001FF00301846BFED0000E03018625006E02
:1013F000016A0F0E012200C0E9FF01C0EAFFEFCF32
:1014000080F3862B80C373FFEDD0A3AAEBD0A4AAF0
:10141000E9D071A205D00301858104EC1FF0E2D070
:1014200071A405D00301858304EC1FF0DBD071A00B
:1014300048D074CF80F310C400F0016A008E80C3DE
:1014400002F0036A0250001803E10350011801E0A2
:1014500004D0030185897196C5D00301805104E051
:1014600080510401101929E1030185997196030146
:10147000805103E00301859702D00301858780C373
:1014800089F382C38AF303018251006E00040301D1
:101490008B6F600E03018A25006E016A000E012227
:1014A00000C0E9FF01C0EAFF80C3EFFF8A2B8A5129
:1014B000800A02E103018A6B95D003018599718648
:1014C00091D074CF80F3030185A921D010C400F01E
:1014D000016A008E80C302F0036A0250001803E123
:1014E0000350011801E011D0A39A7198929A030158
:1014F000845104E1736A04EC1FF007D000CF73FF3E
:10150000010E0301866FA3886DD071866BD0030135
:1015100080510301892703018A5103018B191BE1C3
:10152000030189510CE18AC382F3030185B712D00C
:10153000A39A7198929A736A04EC1FF00BD003017E
:10154000858585B707D0A39A7198929A010E736E1C
:1015500004EC1FF047D003018A510301831908E10D
:10156000030183510301821903E004EC1FF03AD018
:1015700082C300F0016A004A012AE56A800EE56E26
:101580000150E56E0050E56ED7EC12F0006E040ECF
:10159000E12600500301816F03018A190FE180C326
:1015A00000F01F0E001403018B6F006E020E00246A
:1015B0008B6F0301825103018B278B9F8AC300F03D
:1015C00003018A2B016A600E0026000E012200C072
:1015D000E9FF01C0EAFF80C3EFFF8A51800A02E100
:1015E00003018A6BE4CF03F0E4CF02F0E4CF01F013
:1015F000E4CF00F01200D9CFE5FFE1CFD9FF00C062
:10160000E5FF01C0E5FF02C0E5FF03C0E5FF04C040
:10161000E5FF05C0E5FF06C0E5FF07C0E5FF020ED8
:10162000DBCF00F0030EDBCF01F0040EDBCF02F0C6
:10163000050EDBCF03F0060EDBCF04F0070EDBCF89
:1016400005F0080EDBCF06F0090EDBCF07F00050E7
:101650000401336F0150346F0250356F0350366F01
:1016600004500301606F0550616F0650626F0750B0
:10167000636F0401335103016203F4CF01F0F3CF30
:1016800000F000500301666F0150676F0401335191
:1016900003016003F4CF01F0F3CF00F00050030129
:1016A000646F0150656F0401365103016003F3CF8D
:1016B00000F00301675100260050676F04013551A7
:1016C00003016103F3CF01F0015000260050030134
:1016D000676F0401355103016003F4CF01F0F3CFCC
:1016E00000F0030166510026675101220050666F29
:1016F0000150676F0401345103016103F4CF03F01B
:10170000F3CF02F0025000260350012200500301E3
:10171000666F0150676F0401345103016203F3CF18
:1017200000F0005003016B6F0401345103016003AA
:10173000F4CF01F0F3CF00F000500301696F0150C6
:101740006A6F0401335103016303F3CF00F00050CB
:1017500003016F6F0401335103016103F4CF01F002
:10176000F3CF00F0005003016D6F01506E6F030165
:10177000686B03016C6B0301685103016425006E03
:101780000301695103016521016E03016A510301DF
:101790006621026E03016B5103016721036E005045
:1017A000646F0150656F0250666F0350676F0301ED
:1017B0006C5103016425006E03016D510301652125
:1017C000016E03016E5103016621026E03016F5128
:1017D00003016721036E03C0E9FF02C0F4FF01C0EB
:1017E000F3FF0050E4CF07F0E4CF06F0E4CF05F0BC
:1017F000E4CF04F0E4CF03F0E4CF02F0E4CF01F053
:10180000E4CF00F0E4CFD9FF1200D9CFE5FFE1CF5C
:10181000D9FF00C0E5FF01C0E5FF02C0E5FF03C03E
:10182000E5FF04C0E5FF05C0E5FF06C0E5FF07C012
:10183000E5FF08C0E5FF09C0E5FF0AC0E5FF0BC0F2
:10184000E5FF0CC0E5FF0DC0E5FF0EC0E5FF0FC0D2
:10185000E5FF020EDBCF00F0030EDBCF01F0040E3C
:10186000DBCF02F0050EDBCF03F0060EDBCF04F07A
:10187000070EDBCF05F0080EDBCF06F0200E076E5B
:10188000086A06C009F00A6A0B6A0C6AE56AE56A2A
:10189000E56A0950E56E0350E56E0250E56E0150B1
:1018A000E56E0050E56EE1EC0CF00D6E080EE126E1
:1018B000300E0D263A0E0D5C05E30D500E6E270E10
:1018C0000E240D6EFF0E07260822200E07240E6E32
:1018D000030E08200F6E0EC0E9FF0FC0EAFF0DC017
:1018E000EFFF0C50E56E0B50E56E0A50E56E0950A7
:1018F000E56E0350E56E0250E56E0150E56E005056
:10190000E56EA1EC0EF0006EF3CF01F0F4CF02F023
:10191000E9CF03F0080EE126005001100210031079
:10192000D8A4AFD707C000F008C001F004C002F08F
:1019300005C003F000C004F001C005F0004A012A10
:10194000200E0426030E052204C0E9FF05C0EAFFAD
:10195000EFCF04F002C0E9FF03C0EAFF04C0EFFFCD
:10196000024A032A000E015C02E1200E005CE2E361
:1019700002C0E9FF03C0EAFF000EEF6AE4CF0FF0F8
:10198000E4CF0EF0E4CF0DF0E4CF0CF0E4CF0BF099
:10199000E4CF0AF0E4CF09F0E4CF08F0E4CF07F099
:1019A000E4CF06F0E4CF05F0E4CF04F0E4CF03F099
:1019B000E4CF02F0E4CF01F0E4CF00F0E4CFD9FFB0
:1019C0001200D9CFE5FFE1CFD9FF00C0E5FF01C08C
:1019D000E5FF02C0E5FF03C0E5FF04C0E5FF05C069
:1019E000E5FF06C0E5FF07C0E5FF08C0E5FF09C049
:1019F000E5FF0AC0E5FF020EDBCF00F0030EDBCFF0
:101A000001F0040EDBCF02F0050EDBCF03F0060E73
:101A1000DBCF04F0070EDBCF05F0080EDBCF06F0BE
:101A2000090EDBCF07F0086A0450051006100710F6
:101A300005E1E968F468F368E86847D0096A075087
:101A4000800BE8440A6E0A501BE104500426053658
:101A5000063607360750035C08E10650025C05E1D4
:101A60000550015C02E10450005C06E2D8900732A8
:101A700006320532043204D0092A09C008F0DFD743
:101A80000750035C08E10650025C05E10550015C6B
:101A900002E10450005C08E30450005E0550015A66
:101AA0000650025A0750035AD890073206320532C0
:101AB000043208C009F008060950E2E103C0E9FF5A
:101AC00002C0F4FF01C0F3FF0050E4CF0AF0E4CFFE
:101AD00009F0E4CF08F0E4CF07F0E4CF06F0E4CF5C
:101AE00005F0E4CF04F0E4CF03F0E4CF02F0E4CF5C
:101AF00001F0E4CF00F0E4CFD9FF1200D9CFE5FF29
:101B0000E1CFD9FF00C0E5FF01C0E5FF02C0E5FF5E
:101B100003C0E5FF04C0E5FF05C0E5FF06C0E5FF23
:101B200007C0E5FF08C0E5FF09C0E5FF0AC0E5FF03
:101B3000020EDBCF00F0030EDBCF01F0040EDBCF93
:101B400002F0050EDBCF03F0060EDBCF04F0070E2C
:101B5000DBCF05F00038E8441F0B066E076A7B0EEA
:101B60000626030E072206C0E9FF07C0EAFFEFCFF3
:101B700008F00050096E070E0916010E0A6E095092
:101B80000DE006E6E86CD8900A36010FFDE306D0BA
:101B9000D8900ABED8800A32010FFBE308500A121F
:101BA00006C0E9FF07C0EAFF0AC0EFFF400E0024AD
:101BB000066E076A030E072206C0E9FF07C0EAFFA8
:101BC00001C0EFFF016A230E00260F0E0122800ED6
:101BD000025E070E02160238F00B036E070E0516A2
:101BE0000550032600C0E9FF01C0EAFF03C0EFFF74
:101BF000E4CF0AF0E4CF09F0E4CF08F0E4CF07F037
:101C0000E4CF06F0E4CF05F0E4CF04F0E4CF03F036
:101C1000E4CF02F0E4CF01F0E4CF00F0E4CFD9FF4D
:101C2000120000C0E5FF01C0E5FF02C0E5FF03C0F0
:101C3000E5FF030183510301821901E166D083C3EB
:101C400000F0002A009E016A600E0026000E0122AC
:101C500000C0E9FF01C0EAFFEFCF8DF31F0E0301C3
:101C60008D1783C38CF38D5103018C278C51006E2B
:101C7000020E00248C6F8C9FFFEC1BF0006E005056
:101C800003E1006A002A01D0006AFFEC1BF00301A7
:101C90008D6F8DC301F0800E01168DC302F01F0EF3
:101CA000021602C003F002C08DF3035003E182C3A9
:101CB00083F33ED000501EE0015025E0FFEC1BF006
:101CC000006E03018D51026E02048D6F0050420AB6
:101CD0001AE000504E0A03E177EC18F014D00050DF
:101CE000460A03E138EC1FF00ED00050490A0BE120
:101CF000FF0009D083C38EF3015003E026EC1AF0F5
:101D000002D074EC1FF08CC383F304010C51040166
:101D10000D1906E00301845103E14AEC10F008D0EC
:101D200092BA06D00301845103E172B204EC1FF0B1
:101D3000E4CF03F0E4CF02F0E4CF01F0E4CF00F011
:101D40001200D9CFE5FFE1CFD9FF00C0E5FF01C008
:101D5000E5FF02C0E5FF03C0E5FF04C0E5FF05C0E5
:101D6000E5FF06C0E5FF07C0E5FF08C0E5FF09C0C5
:101D7000E5FF0AC0E5FF0BC0E5FF0CC0E5FF0DC0A5
:101D8000E5FF020EDBCF00F0030EDBCF01F0040E07
:101D9000DBCF02F0050EDBCF03F0060EDBCF04F045
:101DA000070EDBCF05F0080EDBCF06F0090EDBCF08
:101DB00007F0086A096A0A6A0B6A200E0C6E035063
:101DC000800BE8440D6E00500026013602360336C3
:101DD0000850082609360A360B360D50D8A408805C
:101DE00007500B5C08E106500A5C05E10550095CF0
:101DF00002E10450085C09E30450085E0550095AEA
:101E000006500A5A07500B5A00800C040D6E0DC084
:101E10000CF00D50D4E103C0E9FF02C0F4FF01C093
:101E2000F3FF0050E4CF0DF0E4CF0CF0E4CF0BF063
:101E3000E4CF0AF0E4CF09F0E4CF08F0E4CF07F0F4
:101E4000E4CF06F0E4CF05F0E4CF04F0E4CF03F0F4
:101E5000E4CF02F0E4CF01F0E4CF00F0E4CFD9FF0B
:101E6000120000C0E5FF01C0E5FF03C0E5FF04C0AC
:101E7000E5FF05C0E5FF06C0E5FF07C0E5FF08C0B8
:101E8000E5FF09C0E5FF0AC0E5FF0BC0E5FF79C328
:101E900000F07AC301F00301793F01D07A2B0050A2
:101EA000E56EF6EC1EF0E652076E046A056A066AF5
:101EB00079C300F07AC301F00301793F01D07A2B96
:101EC0000050E56EF6EC1EF0E6520B6A0A6E086AE8
:101ED0000850041205120A5006120B50071279C35B
:101EE00000F07AC301F00301793F01D07A2B005052
:101EF000E56EF6EC1EF0E652036E006A03C001F0D8
:101F0000E86A03BEFF0E086E096E0050041201500D
:101F10000512085006120950071279C300F07AC35F
:101F200001F00301793F01D07A2B0050E56EF6EC09
:101F30001EF0E652016A0412015005120612071241
:101F400007C0E9FF06C0F4FF05C0F3FF0450E4CF6B
:101F50000BF0E4CF0AF0E4CF09F0E4CF08F0E4CFCF
:101F600007F0E4CF06F0E4CF05F0E4CF04F0E4CFCF
:101F700003F0E4CF01F0E4CF00F01200D9CFE5FF89
:101F8000E1CFD9FF00C0E5FF01C0E5FF02C0E5FFDA
:101F900003C0E5FF04C0E5FF05C0E5FF06C0E5FF9F
:101FA00007C0E5FF020EDBCF00F0030EDBCF01F030
:101FB000040EDBCF02F0050EDBCF03F002C006F00B
:101FC0000650046E800A33E100C0E9FF01C0F3FF50
:101FD00002508CEC1DF0056EF3CF06F0F4CF07F045
:101FE00003C0E5FF05C0E9FF06C0F3FF07504EEC54
:101FF0001FF000C0E9FF01C0F3FF02508CEC1DF0A0
:10200000056EF3CF06F0F4CF07F0052A02E3064A87
:10201000072A05C0E5FF06C0F4FF07C0F6FF00C0B1
:10202000E9FF01C0F3FF0250E7EC1EF020D004C02E
:1020300000F000AA1CD0007A0050046E04E10350A6
:102040008EEC1FF014D00450010A04E1035002EC9E
:1020500000F00DD004500F0A04E10350F5EC1AF023
:1020600006D004500E0A03E10350A4EC1FF0E4CFA5
:1020700007F0E4CF06F0E4CF05F0E4CF04F0E4CFBE
:1020800003F0E4CF02F0E4CF01F0E4CF00F0E4CFBE
:10209000D9FF120000C0E5FF01C0E5FF02C0E5FF67
:1020A00003C0E5FF72A277D032EC1DF0006E005045
:1020B00005E104010D6B04010C6B6DD00DC401F042
:1020C0000050012632EC1DF0026E00060250230A79
:1020D0001FE1010E005CD8A05CD032EC1DF0036E55
:1020E000690A03E1C4EC1AF054D00350720A03E108
:1020F00004EC1FF04ED00350730A01E04AD0928ADC
:102100007186A38AA398745074507198718841D0D5
:102110000250430A05E00250420A01E03AD001D0E1
:10212000008E0301866B00C087F300500F01006F23
:102130000301862B04010D51011814E032EC1DF04F
:10214000006E03018727000E03018625026E036AD5
:102150000F0E032202C0E9FF03C0EAFF00C0EFFF39
:10216000862BE8D7000E03018625006E026A0F0E4B
:1021700002220301871D036E032A00C0E9FF02C08B
:10218000EAFF03C0EFFF0301862B86C384F303013C
:102190007E6B01C00DF4E4CF03F0E4CF02F0E4CF96
:1021A00001F0E4CF00F01200D9CFE5FFE1CFD9FF75
:1021B00000C0E5FF01C0E5FF02C0E5FF03C0E5FF89
:1021C00004C0E5FF05C0E5FF06C0E5FF020EDBCF5A
:1021D00000F0030EDBCF01F0040EDBCF02F0050EA2
:1021E000DBCF03F003C004F0056A0350D8B453D02A
:1021F00000C0E9FF01C0F3FF0250D6EC1EF0066EEE
:10220000430A03E1010E056E038E0406002A02E371
:10221000014A022AA39A7198929AA398A4A8FED779
:102220007280736A0000A4A8FED7729003C073FF87
:102230000000A4A8FED7055005E0420E736E0324EB
:10224000056E05D0620E736E620E0324056E04C027
:1022500003F0035015E00000A4A8FED700C0E9FF7A
:1022600001C0F3FF0250D6EC1EF0046E04C073FFF1
:10227000045005260306002A02E3014A022AE9D790
:102280000000A4A8FED7051C736E732A0000A4A842
:10229000FED704EC1FF0E4CF06F0E4CF05F0E4CF66
:1022A00004F0E4CF03F0E4CF02F0E4CF01F0E4CF98
:1022B00000F0E4CFD9FF120000C0E5FF01C0E5FF48
:1022C00002C0E5FF03C0E5FF04C0E5FF006A7B0E26
:1022D0000024016E026A030E022201C0E9FF02C05F
:1022E000EAFFEF6A002A020E005CF1E3006A005088
:1022F000020DF450026EF3CF01F0E00E0124036EE4
:10230000000E0220046E03C0E9FF04C0EAFFEE6A7B
:10231000EF6A5C0E0124036E040E0220046E03C0FB
:10232000E9FF04C0EAFFEE6AEF6A930E0124036E30
:10233000040E0220046E03C0E9FF04C0EAFFEE6A47
:10234000EF6AB30E0124036E040E0220046E03C074
:10235000E9FF04C0EAFFEE6AEF6AD30E0126040E1D
:10236000022201C0E9FF02C0EAFFEE687F0EEF6EB5
:10237000230E0024016E026A0F0E022201C0E9FF43
:1023800002C0EAFFEF68002A100E005CD8A0AFD7A9
:10239000AF0EC06EC16A010EC26EC282E4CF04F0FD
:1023A000E4CF03F0E4CF02F0E4CF01F0E4CF00F09B
:1023B00012004320412025642025640A0000D9CF63
:1023C000E5FFE1CFD9FF00C0E5FF01C0E5FF02C096
:1023D000E5FF03C0E5FF04C0E5FF05C0E5FF06C05B
:1023E000E5FF07C0E5FF020EDBCF00F0030EDBCFF9
:1023F00001F0040EDBCF02F0050EDBCF03F00DC4BD
:102400000EF404010C5104010E5F0E51046E04041D
:102410000E6F03C004F0056A030E0426D8B0052A27
:102420000EC406F0076A0750800FF36E0550800F48
:10243000F35C02E10450065C02E2E8682ED0020E72
:10244000035C02E2E86A29D003060350E56E75ECEE
:1024500019F0E652046A0350045C14E204500024AC
:10246000056EE86A0120066EE86A022005C0E9FFF1
:1024700006C0F3FFD6EC1EF0042AE56E75EC19F0E9
:10248000E652E9D70DC40EF404010C5104010E5FAD
:102490000E51006E00040E6FE86AE4CF07F0E4CF3F
:1024A00006F0E4CF05F0E4CF04F0E4CF03F0E4CF8E
:1024B00002F0E4CF01F0E4CF00F0E4CFD9FF120046
:1024C000D9CFE5FFE1CFD9FF00C0E5FF01C0E5FFAF
:1024D00002C0E5FF03C0E5FF04C0E5FF05C0E5FF5E
:1024E000020EDBCF00F0030EDBCF01F0040EDBCFDA
:1024F00002F00050020DF450036EF3CF00F05C0EBA
:102500000024046E040E0320056E04C0E9FF05C01C
:10251000EAFF01C0EEFF02C0EFFF930E0024046E3D
:10252000040E0320056E04C0E9FF05C0EAFFEECFEC
:1025300004F0EFCF05F00150045C016E0250055825
:10254000026E000E0026030E032200C0E9FF03C046
:10255000EAFF01C0EEFF02C0EFFFD88002AED890C4
:1025600004E3021E016CD8B4022A0250800F800FCF
:1025700002E1030E015C02E2016A026A01500210EC
:1025800007E100C0E9FF03C0EAFF000EEE6AEF6A50
:10259000E4CF05F0E4CF04F0E4CF03F0E4CF02F0A1
:1025A000E4CF01F0E4CF00F0E4CFD9FF1200D9CF9F
:1025B000E5FFE1CFD9FF00C0E5FF01C0E5FF02C0A4
:1025C000E5FF03C0E5FF04C0E5FF05C0E5FF06C069
:1025D000E5FF020EDBCF00F0030EDBCF01F0040EAF
:1025E000DBCF02F0050EDBCF03F0D88001AED89030
:1025F000046A0436045007E0011C066E001C056ED8
:10260000054A062A04D000C005F001C006F0D880B3
:1026100003AED89007E3031C016E021C006E004A53
:10262000012A04D002C000F003C001F00150E56EA1
:102630000050E56E0650E56E0550E56EB1EC15F004
:10264000006EF3CF01F0040EE12604500AE0011CF5
:10265000036E001C026E024A032A03C0F3FF0250FD
:1026600003D001C0F3FF0050E4CF06F0E4CF05F043
:10267000E4CF04F0E4CF03F0E4CF02F0E4CF01F0C4
:10268000E4CF00F0E4CFD9FF1200D9CFE5FFE1CFCE
:10269000D9FF00C0E5FF01C0E5FF02C0E5FF03C0B0
:1026A000E5FF04C0E5FF05C0E5FF020EDBCF00F04B
:1026B000030EDBCF01F0040EDBCF02F0050EDBCF03
:1026C00003F079C304F07AC305F00301793F01D028
:1026D0007A2B0350E56E0450E56ED5EC1BF0E65204
:1026E000E65279C304F07AC305F00301793F01D0C3
:1026F0007A2B0250056EE56E0450E56ED5EC1BF0AA
:10270000E652E65279C304F07AC305F00301793F3B
:1027100001D07A2B0150E56E0450E56ED5EC1BF02C
:10272000E652E65279C304F07AC305F00301793F1B
:1027300001D07A2B0050E56E0450E56ED5EC1BF00D
:10274000E652E652E4CF05F0E4CF04F0E4CF03F024
:10275000E4CF02F0E4CF01F0E4CF00F0E4CFD9FF02
:102760001200D9CFE5FFE1CFD9FF00C0E5FF01C0DE
:10277000E5FF02C0E5FF03C0E5FF04C0E5FF05C0BB
:10278000E5FF06C0E5FF020EDBCF00F0030EDBCF56
:1027900001F00038E8441F0B026E036A7B0E02262C
:1027A000030E032202C0E9FF03C0EAFFEFCF04F0EB
:1027B0000050056E070E0516010E066E05500DE061
:1027C00006E6E86CD8900636010FFDE306D0D890F7
:1027D00006BED8800632010FFBE30450061202C089
:1027E000E9FF03C0EAFF06C0EFFF400E0024026EBF
:1027F000036A030E032202C0E9FF03C0EAFF01C01F
:10280000EFFF016A230E00260F0E012200C0E9FF30
:1028100001C0EAFFFF0EEF68E4CF06F0E4CF05F059
:10282000E4CF04F0E4CF03F0E4CF02F0E4CF01F012
:10283000E4CF00F0E4CFD9FF120000C0E5FF01C0F3
:10284000E5FF02C0E5FF03C0E5FF04C0E5FF89EC3A
:102850001FF0ABEC1BF0F3CF01F0F4CF02F0E9CFA7
:1028600003F0880F04017C6F130E01207D6F000EB2
:1028700002207E6F000E03207F6F5CEC11F025ECD0
:102880001BF0939A8A8A929889889290898093847F
:10289000810E006E0F0E016E0F0E036E380E0026B5
:1028A000035001220F0E036E800E005E0350015A8A
:1028B000810E026E0F0E036E0F0E046E380E02268E
:1028C000045003220F0E046E800E025E0450035A61
:1028D00002C0E9FF03C0EAFFEFCF02F0029400C09C
:1028E000E9FF01C0EAFF02C0EFFFE4CF04F0E4CF4C
:1028F00003F0E4CF02F0E4CF01F0E4CF00F01200E7
:10290000430025630000D9CFE5FFE1CFD9FF00C028
:10291000E5FF01C0E5FF02C0E5FF03C0E5FF04C01D
:10292000E5FF05C0E5FF06C0E5FF020EDBCF00F0C6
:10293000030EDBCF01F0040EDBCF02F003017D516B
:1029400019E131EC0FF0036EF3CF04F0F4CF05F092
:10295000E9CF06F003C0E5FF04C0F4FF05C0F6FFB1
:1029600006C0F7FF00C0E9FF01C0F3FF0250C5EC4D
:102970001EF01ED003017D51010A1AE100C0E9FFDB
:1029800001C0F3FF025012EC1DF0006EF3CF01F016
:10299000F4CF02F0E9CF03F00350E56E0250E56E8C
:1029A0000150E56E0050E56E45EC13F0040EE12693
:1029B000E4CF06F0E4CF05F0E4CF04F0E4CF03F079
:1029C000E4CF02F0E4CF01F0E4CF00F0E4CFD9FF90
:1029D000120000C0E5FF01C0E5FF02C0E5FF03C033
:1029E000E5FF29C400F0016A2AC402F0036A02501C
:1029F0000026035001222BC402F00250002603508F
:102A000001222CC402F002500026035001222DC4E2
:102A100002F002500026035001222EC402F00250A0
:102A200000240401876F03500120886F875104013F
:102A3000901905E1040188510401911926E087C429
:102A400090F488C491F4030E0401376F04012951F6
:102A50000401026F37C400F00401372B016A000E35
:102A60000026040E012200C0E9FF01C0EAFF0A0EA1
:102A7000EF6E3751E56E800EE56E040EE56E000ECA
:102A8000E56EDFEC11F0040EE126E4CF03F0E4CFB5
:102A900002F0E4CF01F0E4CF00F01200D9CFE5FF5F
:102AA000E1CFD9FF00C0E5FF01C0E5FF02C0E5FFAF
:102AB00003C0E5FF04C0E5FF05C0E5FF06C0E5FF74
:102AC000020EDBCF00F0030EDBCF01F0040EDBCFF4
:102AD00002F0050EDBCF03F0060EDBCF04F0070E8D
:102AE000DBCF05F0080EDBCF06F0D88003AED89020
:102AF00015E306500A0A12E104C0E9FF05C0EAFF27
:102B00002D0EEF6E044A052A031E021E011E006CE4
:102B100005E1012A03E1022AD8B4032A0650E56E32
:102B20000550E56E0450E56E0350E56E0250E56E0B
:102B30000150E56E0050E56E05EC0CF0070EE12645
:102B4000E4CF06F0E4CF05F0E4CF04F0E4CF03F0E7
:102B5000E4CF02F0E4CF01F0E4CF00F0E4CFD9FFFE
:102B60001200D9CFE5FFE1CFD9FF00C0E5FF01C0DA
:102B7000E5FF02C0E5FF03C0E5FF04C0E5FF05C0B7
:102B8000E5FF06C0E5FF020EDBCF00F0030EDBCF52
:102B900001F0040EDBCF02F0050EDBCF03F0046A78
:102BA000056A0350800BE844066E065011E102509E
:102BB000022603360350015C02E10250005C04E28D
:102BC000D8900332023204D0052A05C004F0E9D7B8
:102BD0000350015C02E10250005C04E30250005E1D
:102BE0000350015AD8900332023204C005F00406A3
:102BF0000550EEE101C0F3FF0050E4CF06F0E4CF52
:102C000005F0E4CF04F0E4CF03F0E4CF02F0E4CF2A
:102C100001F0E4CF00F0E4CFD9FF1200D8CFE5FFF8
:102C2000E0CFE5FFE56EF3CFE5FFF4CFE5FFE9CFB9
:102C3000E5FFEACFE5FFFACFE5FFFBCFE5FF00C0F8
:102C4000E5FF01C0E5FF04010A510F01356F0401E2
:102C50000B510F01366FD650336FD750346FF2A43B
:102C600017D00AC400F00BC401F00050010F04019A
:102C70000A6F000E01200B6FF2940A510F01356F9D
:102C800004010B510F01366FD650336FD750346F9C
:102C900098EC1FF0E4CF01F0E4CF00F0E4CFFBFFAD
:102CA000E4CFFAFFE4CFEAFFE4CFE9FFE4CFF4FF9B
:102CB000E4CFF3FFE450E4CFE0FFE4CFD8FF10000F
:102CC00000C0E5FF01C0E5FF02C0E5FF03C0E5FF6E
:102CD00083C300F0016A8EC302F0036A0250005EF3
:102CE0000350015AE56A800EE56E0150E56E005012
:102CF000E56ED7EC12F0006E040EE12600068EC3DE
:102D000001F0430EF5EC1AF0200EF5EC1AF000502D
:102D100020E0600E0124026E036A000E032202C04E
:102D2000E9FF03C0EAFFEFCF02F0E56A0250E56E6B
:102D3000000EE56E3E0EE56E200EE56EB9EC18F065
:102D4000050EE126012A0150800A01E1016A000610
:102D5000DED7E4CF03F0E4CF02F0E4CF01F0E4CF1C
:102D600000F0120000C0E5FF01C0E5FF02C0E5FF72
:102D700003C0E5FF11EC0EF058EC06F054EC1BF02C
:102D8000ABEC1BF0006EF3CF01F0F4CF02F0E9CF13
:102D900003F004017C51005E7D51015A7E51025ABC
:102DA0007F51035A039E3F0E035C08E1FF0E025C55
:102DB00005E1FF0E015C02E1FF0E005C18E2ABECE6
:102DC0001BF0F3CF01F0F4CF02F0E9CF03F0880F4E
:102DD00004017C6F130E01207D6F000E02207E6FB8
:102DE000000E03207F6F0EEC04F0E9EC14F0E4CF4A
:102DF00003F0E4CF02F0E4CF01F0E4CF00F01200E2
:102E0000D9CFE5FFE1CFD9FF00C0E5FF01C0E5FF65
:102E100002C0E5FF03C0E5FF04C0E5FF020EDBCF03
:102E200000F0030EDBCF01F0040EDBCF02F0030154
:102E30007D5111E15EEC1AF0036EF3CF04F003C094
:102E4000E5FF04C0F4FF00C0E9FF01C0F3FF02503A
:102E500020EC1FF016D003017D51010A12E100C0E1
:102E6000E9FF01C0F3FF02504BEC1EF0006EF3CF00
:102E700001F00150E56E0050E56E38EC19F0E652B5
:102E8000E652E4CF04F0E4CF03F0E4CF02F0E4CF65
:102E900001F0E4CF00F0E4CFD9FF1200040EF66E8B
:102EA0003F0EF76E000EF86E0900F550056E090032
:102EB000F550066E04E1056702D09BEF17F009009C
:102EC000F550006E0900F550016E0900F550026ED4
:102ED00009000900F550E96E0900F550EA6E090095
:102EE00009000900F550036E0900F550046E090051
:102EF0000900F6CF07F0F7CF08F0F8CF09F000C0CF
:102F0000F6FF01C0F7FF02C0F8FF035002E10450D2
:102F100007E00900F550EE6E0306F8E20406F9D763
:102F200007C0F6FF08C0F7FF09C0F8FF050601E279
:102F300006065AEF17F01200D9CFE5FFE1CFD9FF0F
:102F400000C0E5FF01C0E5FF02C0E5FF03C0E5FFEB
:102F500004C0E5FF020EDBCF00F00038E8441F0B91
:102F6000016E026A7B0E0126030E022201C0E9FFF8
:102F700002C0EAFFEFCF03F0070E0016010E046E49
:102F800000500DE006E6E86CD8900436010FFDE332
:102F900006D0D89004BED8800432010FFBE3041C95
:102FA000006E0350001601C0E9FF02C0EAFF00C036
:102FB000EFFFE4CF04F0E4CF03F0E4CF02F0E4CF7E
:102FC00001F0E4CF00F0E4CFD9FF1200D9CFE5FF44
:102FD000E1CFD9FF00C0E5FF01C0E5FF02C0E5FF7A
:102FE00003C0E5FF04C0E5FF05C0E5FF020EDBCF2F
:102FF00000F00050010A22E1016A0150020DF45074
:10300000036EF3CF02F0B30E0224046E040E03200D
:10301000056E04C0E9FF05C0EAFFEE687F0EEF6EA3
:10302000D30E0226040E032202C0E9FF03C0EAFF0A
:10303000EE6AEF6A012A100E015CDFE300C012F4B1
:10304000E4CF05F0E4CF04F0E4CF03F0E4CF02F0E6
:10305000E4CF01F0E4CF00F0E4CFD9FF120000C0CC
:10306000E5FF01C0E5FF7EA23DD0040126512711F6
:1030700003E12669030E276FFF0E0401262727238D
:103080002651006E2751016E03015151015C02E18E
:103090005051005C02E2899601D0898604012651D4
:1030A000006E2751016E03015351015C02E1525140
:1030B000005C02E2899401D0898404012651006EEB
:1030C0002751016E03015551015C02E15451005C2E
:1030D00002E2899201D089820F015069F30E0F013B
:1030E0004F6F7E92E4CF01F0E4CF00F0120000C0F9
:1030F000E5FF01C0E5FF02C0E5FFFFEC1BF0006E3D
:10310000FFEC1BF0016ED00E00260A0E005C05E3FA
:103110000050026EF90E0224006ED00E01260A0E37
:10312000015C05E30150026EF90E0224016E080EE7
:10313000005C03E2100E015CD8B014D00038F00B34
:103140000124006E016AECEC19F0026E025002E0FC
:10315000010E016E0150010A05E00050E56EC1EC60
:103160001DF0E652E4CF02F0E4CF01F0E4CF00F02E
:103170001200D9CFE5FFE1CFD9FF00C0E5FF01C0C4
:10318000E5FF02C0E5FF020ED924006E000EDA2032
:10319000016E800E026E030E0026000E0122022236
:1031A0000250E56E0150E56E0050E56E040EDBCF77
:1031B000E5FF030EDBCFE5FF020EDBCFE5FF0301EA
:1031C0007251E56E7151E56E7051E56E0EEC00F0D6
:1031D000006EF3CF01F0090EE12601C0F3FF0050AD
:1031E000E4CF02F0E4CF01F0E4CF00F0E4CFD9FF68
:1031F0001200D9CFE5FFE1CFD9FF00C0E5FF01C044
:10320000E5FF02C0E5FF03C0E5FF020EDBCF00F0E3
:10321000030EDBCF01F0040EDBCF02F003017D5182
:103220000DE11FEC1EF0036E03C0E5FF00C0E9FFD7
:1032300001C0F3FF02504EEC1FF00FD003017D518F
:10324000010A0BE100C0E9FF01C0F3FF0250D6EC18
:103250001EF0E56EECEC1CF0E652E4CF03F0E4CF98
:1032600002F0E4CF01F0E4CF00F0E4CFD9FF120088
:10327000D9CFE5FFE1CFD9FF00C0E5FF01C0E5FFF1
:1032800002C0E5FF03C0E5FF020EDBCF00F0030E36
:10329000DBCF01F079C302F07AC303F00301793F79
:1032A00001D07A2B0150E56E0250E56ED5EC1BF093
:1032B000E652E65279C302F07AC303F00301793F84
:1032C00001D07A2B0050E56E0250E56ED5EC1BF074
:1032D000E652E652E4CF03F0E4CF02F0E4CF01F08F
:1032E000E4CF00F0E4CFD9FF1200D9CFE5FFE1CF62
:1032F000D9FF00C0E5FF01C0E5FF02C0E5FF03C044
:10330000E5FF04C0E5FF020EDBCF00F00CC401F0C6
:10331000026A014A022A0DC403F0046A015003182C
:1033200003E10250041801E001D00ED0000E0401A8
:103330000C25016E026A010E022201C0E9FF02C0E3
:10334000EAFF00C0EFFF0C2BE4CF04F0E4CF03F062
:10335000E4CF02F0E4CF01F0E4CF00F0E4CFD9FFF6
:103360001200D9CFE5FFE1CFD9FF00C0E5FF01C0D2
:10337000E5FF02C0E5FF03C0E5FF020EDBCF00F072
:10338000016A8EC302F0036A025000260350012234
:10339000E56A800EE56E0150E56E0050E56ED7ECF3
:1033A00012F0006EF3CF01F0040EE126600E00264D
:1033B000000E012200C0E9FF01C0EAFFEFCF00F0DC
:1033C0000050E4CF03F0E4CF02F0E4CF01F0E4CF0B
:1033D00000F0E4CFD9FF120000C0E5FF01C0E5FF17
:1033E00002C0E5FF010E006EFFEC1BF0016E01C094
:1033F00002F0015023E00050E56EF6EC1EF0016E85
:10340000E652015010E10A0E005C0BE20A0E006E5B
:10341000E56EF6EC1EF0016EE652015004E1E8683C
:103420000ED0E8680CD00150021802E0E86807D01E
:10343000002A1B0E005CD8E3E86801D0E86AE4CFFC
:1034400002F0E4CF01F0E4CF00F0120000C0E5FF8D
:1034500001C0E5FFFFEC1BF0006E4C0A03E1FFEC3E
:103460001BF027D00050450A24E1000EE56E290E1E
:10347000E56E000EE56EB9EC18F0030EE1269EEC49
:103480001FF0006E00C001F0000601500FE0FFECDD
:103490001BF0E56AE56E000EE56E290EE56E020E84
:1034A000E56EB9EC18F0050EE126ECD70A0EF5EC46
:1034B0001AF0E4CF01F0E4CF00F0120000C0E5FF05
:1034C00001C0E5FF02C0E5FF03C0E5FF79C300F0DE
:1034D0007AC301F00301793F01D07A2B0050E56EE9
:1034E000F6EC1EF0E652036E026A79C300F07AC36E
:1034F00001F00301793F01D07A2B0050E56EF6EC24
:103500001EF0E652016A02120150031203C0F3FFDB
:103510000250E4CF03F0E4CF02F0E4CF01F0E4CFB7
:1035200000F01200D9CFE5FFE1CFD9FF00C0E5FFE1
:1035300001C0E5FF02C0E5FF03C0E5FF020EDBCFDF
:1035400000F0030EDBCF01F0040EDBCF02F00050E1
:10355000020DF450036EF3CF00F0500E0026030E60
:10356000032200C0E9FF03C0EAFF01C0EEFF02C072
:10357000EFFFE4CF03F0E4CF02F0E4CF01F0E4CFBB
:1035800000F0E4CFD9FF120004010C6B04010D6BB5
:1035900004010E69928A899A928A766A3F0E756E44
:1035A0007086728A7284728C7290718C718E030133
:1035B000856B03017F6B0301826B0301836B030146
:1035C000846B000EE56AF6EC1EF00401106FE65203
:1035D000A598A59A010E04010F6F0301706B716B22
:1035E0002F0E726F04EC1FF0120000C0E5FF01C047
:1035F000E5FF02C0E5FF006E390E04011125016EE2
:10360000026A040E022201C0E9FF02C0EAFF00C004
:10361000EFFF220E115DD8A0112B00500A0A0EE117
:1036200004011151E56E800EE56E040EE56E390E53
:10363000E56EDFEC11F0040EE126116BE4CF02F031
:10364000E4CF01F0E4CF00F0120000C0E5FF01C0BC
:10365000E5FF02C0E5FF006A0050020DF450026E63
:10366000F3CF01F0500E0126030E022201C0E9FF44
:1036700002C0EAFFEE6AEF6A002A080E005CECE383
:103680000F014E6B0F014E894E8B4E837F824E8110
:103690007E927D82929692949292E4CF02F0E4CF51
:1036A00001F0E4CF00F0120000C0E5FF81A40AD0D1
:1036B00081C400F0040E005C0DE2002A00500401F9
:1036C000816F08D081C400F0005004E00006005073
:1036D0000401816F030E0401815D0DE304018A5131
:1036E00006E129C400F0002A00500401296F010EF0
:1036F00004018A6F02D004018A6BE4CF00F012004B
:1037000000C0E5FF01C0E5FF02C0E5FF04C0E5FF22
:10371000FFEC1BF0006E080E005C14E2FFEC1BF0E7
:10372000016A026EFFEC1BF0046A012604500222BB
:103730000250E56E0150E56E0050E56E92EC1AF015
:10374000030EE126E4CF04F0E4CF02F0E4CF01F071
:10375000E4CF00F0120004010A510401316F0401AA
:103760000B510401326FD6502F6FD750306F31514B
:1037700004010A1905E10401325104010B190CE09E
:1037800004010A510401316F04010B510401326F2D
:10379000D6502F6FD750306F32C4E9FF31C4F4FFD9
:1037A00030C4F3FF04012F511200D9CFE5FFE1CF60
:1037B000D9FF00C0E5FF01C0E5FF020EDBCF00F03E
:1037C000030EDBCF01F0F29EF29C01C0A8FF00C007
:1037D000A9FFA69EA69CA684550EA76EAA0EA76E4C
:1037E000A682F28EF28CA694A6A202D00000FCD78C
:1037F000E4CF01F0E4CF00F0E4CFD9FF120000C025
:10380000E5FF01C0E5FF0301835103018C1905E0C9
:10381000030183510301821902E1E86A15D083C3D1
:1038200000F00301832B016A600E0026000E0122C6
:1038300000C0E9FF01C0EAFFEFCF00F08351800A2A
:1038400002E10301836B0050E4CF01F0E4CF00F00C
:103850001200D8CFE5FFE0CFE5FFE56EF3CFE5FF3F
:10386000F4CFE5FFE9CFE5FFEACFE5FFFACFE5FFCB
:10387000FBCFE5FFDAEC09F095EC1FF0E4CFFBFF9E
:10388000E4CFFAFFE4CFEAFFE4CFE9FFE4CFF4FFAF
:10389000E4CFF3FFE450E4CFE0FFE4CFD8FF100023
:1038A00000C0E5FF92EC1FF00401896B806B8983F7
:1038B000006A89B3002A0050010BE844F46E80517D
:1038C000FD0BF410806FD58ED59CD59AD588D596F2
:1038D000D594D582D580F28AF184D08EF28EF28C86
:1038E000BA80FF0EBB68BA84E4CF00F01200D9CFD3
:1038F000E5FFE1CFD9FF00C0E5FF01C0E5FF020E03
:10390000DBCF00F00050020DF450016EF3CF00F059
:10391000000E0026030E012200C0E9FF01C0EAFFED
:10392000EECF00F0EFCF01F001C0F3FF0050E4CF85
:1039300001F0E4CF00F0E4CFD9FF1200D9CFE5FFCA
:10394000E1CFD9FF00C0E5FF01C0E5FF020EDBCFEC
:1039500000F00050020DF450016EF3CF00F0E00EC5
:103960000026000E012200C0E9FF01C0EAFFEECFF1
:1039700000F0EFCF01F001C0F3FF0050E4CF01F001
:10398000E4CF00F0E4CFD9FF1200D9CFE5FFE1CFBB
:10399000D9FF00C0E5FF01C0E5FF020EDBCF00F05C
:1039A0000050020DF450016EF3CF00F0500E0026CF
:1039B000030E012200C0E9FF01C0EAFFEECF00F0D4
:1039C000EFCF01F001C0F3FF0050E4CF01F0E4CFEE
:1039D00000F0E4CFD9FF1200D9CFE5FFE1CFD9FF46
:1039E00000C0E5FF01C0E5FF02C0E5FF020EDBCF2E
:1039F00000F079C301F07AC302F00301793F01D0EE
:103A00007A2B0050E56E0150E56ED5EC1BF0E652C6
:103A1000E652E4CF02F0E4CF01F0E4CF00F0E4CFCF
:103A2000D9FF1200E8AE0AD0F3CFEAFFEE50EECF96
:103A3000F3FFEECFF4FFEECFE9FF1200E8BCABEFEF
:103A40001FF0E9CFF6FFF3CFF7FFF86E0900F5504E
:103A50000900F5CFF3FF0900F5CFF4FF0900F5CF1A
:103A6000E9FF120000C0E5FF01C0E5FF04010C51B1
:103A700004010D1902E1E86A0FD0000E04010D25C2
:103A8000006E016A010E012200C0E9FF01C0EAFFD9
:103A9000EFCF00F00D2B0050E4CF01F0E4CF00F0A9
:103AA0001200F2CFEAFFF29EA69EA69CA684E9CF62
:103AB000A9FFF3CFAAFFE4CFA8FF63EC1FF0F4CF78
:103AC000A8FF63EC1FF0F6CFA8FF63EC1FF0F7CF61
:103AD000A8FF63EC1FF0A694EABEF28E1200F2CFAC
:103AE000F6FFF29EA69EA69CE9CFA9FFF3CFAAFF00
:103AF000A680A850A94AAA2AA680A8CFF3FFA94A5F
:103B0000AA2AA680A8CFF4FFA94AAA2AA680A8CFED
:103B1000EAFFF6BEF28E1200E8AE08D0F3CFEAFF5D
:103B2000EE50EECFF3FFEECFF4FF1200E8BCB3EFA0
:103B30001FF0E9CFF6FFF3CFF7FFF86E0900F5505D
:103B40000900F5CFF3FF0900F5CFF4FF1200F2CF23
:103B5000EAFFF29EA69EA69CA684E9CFA9FFF3CF1A
:103B6000AAFFE4CFA8FF63EC1FF0F4CFA8FF63EC3B
:103B70001FF0F6CFA8FF63EC1FF0A694EABEF28E0A
:103B80001200D9CFE5FFE1CFD9FF00C0E5FF020E5B
:103B9000DBCF00F000C010F40050E56E000EE56AC7
:103BA000D5EC1BF0E652E652E4CF00F0E4CFD9FFAB
:103BB0001200F2CFF6FFF29EA69EA69CE9CFA9FFC7
:103BC000F3CFAAFFA680A850A94AAA2AA680A8CF08
:103BD000F3FFA94AAA2AA680A8CFF4FFF6BEF28E68
:103BE000120000C0E5FF01C0E5FF600E0301832560
:103BF000006E016A000E012200C0E9FF01C0EAFF69
:103C0000EFCF00F00050E4CF01F0E4CF00F012005D
:103C1000D9CFE5FFE1CFD9FF00C0E5FF020EDBCF32
:103C200000F0610E005C05E37B0E005C02E2010E19
:103C300001D0E86AE4CF00F0E4CFD9FF120000C061
:103C4000E5FF01C0E5FF79C300F07AC301F003018D
:103C5000793F01D07A2B0050E56EF6EC1EF0E6526B
:103C6000E4CF01F0E4CF00F01200D9CFE5FFE1CFBF
:103C7000D9FF00C0E5FF020EDBCF00F000C00FF45B
:103C8000005004E104EC1FF0A39AA398E4CF00F0E5
:103C9000E4CFD9FF1200E8AE06D0F3CFEAFFEE5032
:103CA000EECFF3FF1200E8BCA9EF1FF0E9CFF6FF5B
:103CB000F3CFF7FFF86E0900F5500900F5CFF3FFD9
:103CC0001200F2CFEAFFF29EA69EA69CA684E9CF40
:103CD000A9FFF3CFAAFFE4CFA8FF63EC1FF0F4CF56
:103CE000A8FF63EC1FF0A694EABEF28E1200420A0F
:103CF000000000000000000000000000FF000000C5
:103D0000000200020000004200000000000000006D
:103D100000000000FF03000012EEFFF022EEFFF0B3
:103D2000F86AA68EA69CE9680E0EEA6E0068000E80
:103D3000ED6A0050FDE14EEC17F006EC00F0FFD705
:103D4000F2CFF6FFF29EA69EA69CE9CFA9FFF3CF85
:103D5000AAFFA680A850A94AAA2AA680A8CFF3FF46
:103D6000F6BEF28E1200F2CFEAFFF29EA69EA69C4D
:103D7000A684E9CFA9FFF3CFAAFFE4CFA8FF63ECA5
:103D80001FF0A694EABEF28E1200E8AE0BD0F3CF7D
:103D9000EAFFE4CFEEFFF4CFEEFFF6CFEEFFF7CF72
:103DA000EEFF1200E8BCADEF1FF01200E8AE04D049
:103DB000F3CFEAFFEE501200E8BCA7EF1FF0E9CF07
:103DC000F6FFF3CFF7FFF86E0900F5501200E8AEEA
:103DD00009D0F3CFEAFFE4CFEEFFF4CFEEFFF6CF4A
:103DE000EEFF1200E8BCB5EF1FF01200D9CFE5FFDF
:103DF000E1CFD9FF020EDBCFA9FFA69CA69EA6802D
:103E0000A850E4CFD9FF120072A2FED7928A745054
:103E100000007450719871887186A38AA39812006B
:103E200025642000F2CFF6FFF29EA69EA69CE9CF65
:103E3000A9FFF3CFAAFFA680A850F6BEF28E12000B
:103E4000E8AE07D0F3CFEAFFE4CFEEFFF4CFEEFF0A
:103E50001200E8BCB1EF1FF01200700ED36E9B8C05
:103E6000FF0E9268936894689668626AF19E1200E9
:103E700000C0E5FFECEC19F0006E005001E1FF001E
:103E8000E4CF00F012000F01456B900E0F01446F5C
:103E9000030E0F01436F0F01458F1200E8AE05D0EE
:103EA000F3CFEAFFE4CFEEFF1200E8BCAFEF1FF064
:103EB0001200D9CFE5FFE1CFD9FF020EDBCF15F419
:103EC000E4CFD9FF1200550EA76EAA0EA76EA682E8
:103ED000A6B2FED7A94AAA2A010E03017D6F1C0EC5
:103EE0000301796F7A6B1200FFEC1BF0320A02E1DA
:103EF00080EC1BF0120003017D6B1C0E0301796F37
:103F00007A6B12000100EE3C000000040000290062
:103F1000000050EC1CF0C4EC1AF01200ACA2FED76A
:103F2000AD6E12002DEC1FF01200B7EC1FF0120066
:103F30002FEC18F0120003018351120003018D5180
:103F4000120004010F511200E8CF7FFF120012EFA0
:103F50001FF0A0EF1EF06FEF1DF051EF1DF0B3EF5B
:103F60001EF061EF1EF0D9EF1DF0A7EF1DF012005B
:020000040030CA
:010006008574
:00000001FF
